{
	"contracts/votingInBlockchain.sol": {
		"election": {
			"abi": [
				{
					"inputs": [],
					"stateMutability": "nonpayable",
					"type": "constructor"
				},
				{
					"inputs": [
						{
							"internalType": "address",
							"name": "",
							"type": "address"
						}
					],
					"name": "CandidateList",
					"outputs": [
						{
							"internalType": "address",
							"name": "candidateAddress",
							"type": "address"
						},
						{
							"internalType": "string",
							"name": "name",
							"type": "string"
						},
						{
							"internalType": "string",
							"name": "proposal",
							"type": "string"
						},
						{
							"internalType": "bool",
							"name": "register",
							"type": "bool"
						},
						{
							"internalType": "uint256",
							"name": "votes",
							"type": "uint256"
						}
					],
					"stateMutability": "view",
					"type": "function"
				},
				{
					"inputs": [
						{
							"internalType": "uint256",
							"name": "_id",
							"type": "uint256"
						},
						{
							"internalType": "address",
							"name": "_candidateAddress",
							"type": "address"
						}
					],
					"name": "CastVote",
					"outputs": [],
					"stateMutability": "nonpayable",
					"type": "function"
				},
				{
					"inputs": [
						{
							"internalType": "address",
							"name": "",
							"type": "address"
						}
					],
					"name": "VoterList",
					"outputs": [
						{
							"internalType": "address",
							"name": "voterAddress",
							"type": "address"
						},
						{
							"internalType": "bool",
							"name": "register",
							"type": "bool"
						},
						{
							"internalType": "bool",
							"name": "voted",
							"type": "bool"
						},
						{
							"internalType": "bool",
							"name": "isDelegateVote",
							"type": "bool"
						},
						{
							"internalType": "uint256",
							"name": "transferedVote",
							"type": "uint256"
						},
						{
							"internalType": "uint256",
							"name": "id",
							"type": "uint256"
						},
						{
							"internalType": "string",
							"name": "name",
							"type": "string"
						}
					],
					"stateMutability": "view",
					"type": "function"
				},
				{
					"inputs": [],
					"name": "allCandidates",
					"outputs": [
						{
							"components": [
								{
									"internalType": "address",
									"name": "candidateAddress",
									"type": "address"
								},
								{
									"internalType": "string",
									"name": "name",
									"type": "string"
								},
								{
									"internalType": "string",
									"name": "proposal",
									"type": "string"
								},
								{
									"internalType": "bool",
									"name": "register",
									"type": "bool"
								},
								{
									"internalType": "uint256",
									"name": "votes",
									"type": "uint256"
								}
							],
							"internalType": "struct election.candidates[]",
							"name": "",
							"type": "tuple[]"
						}
					],
					"stateMutability": "view",
					"type": "function"
				},
				{
					"inputs": [],
					"name": "allVoters",
					"outputs": [
						{
							"components": [
								{
									"internalType": "address",
									"name": "voterAddress",
									"type": "address"
								},
								{
									"internalType": "bool",
									"name": "register",
									"type": "bool"
								},
								{
									"internalType": "bool",
									"name": "voted",
									"type": "bool"
								},
								{
									"internalType": "bool",
									"name": "isDelegateVote",
									"type": "bool"
								},
								{
									"internalType": "uint256",
									"name": "transferedVote",
									"type": "uint256"
								},
								{
									"internalType": "uint256",
									"name": "id",
									"type": "uint256"
								},
								{
									"internalType": "string",
									"name": "name",
									"type": "string"
								}
							],
							"internalType": "struct election.voters[]",
							"name": "",
							"type": "tuple[]"
						}
					],
					"stateMutability": "view",
					"type": "function"
				},
				{
					"inputs": [
						{
							"internalType": "address",
							"name": "_delegate",
							"type": "address"
						}
					],
					"name": "delegateVote",
					"outputs": [],
					"stateMutability": "nonpayable",
					"type": "function"
				},
				{
					"inputs": [],
					"name": "endVoting",
					"outputs": [],
					"stateMutability": "nonpayable",
					"type": "function"
				},
				{
					"inputs": [
						{
							"internalType": "string",
							"name": "_name",
							"type": "string"
						},
						{
							"internalType": "string",
							"name": "_proposal",
							"type": "string"
						},
						{
							"internalType": "address",
							"name": "_candidateAddress",
							"type": "address"
						}
					],
					"name": "registerCandidate",
					"outputs": [],
					"stateMutability": "nonpayable",
					"type": "function"
				},
				{
					"inputs": [
						{
							"internalType": "address",
							"name": "_voterAddress",
							"type": "address"
						},
						{
							"internalType": "string",
							"name": "name",
							"type": "string"
						}
					],
					"name": "registerVoter",
					"outputs": [],
					"stateMutability": "nonpayable",
					"type": "function"
				},
				{
					"inputs": [],
					"name": "startVoting",
					"outputs": [],
					"stateMutability": "nonpayable",
					"type": "function"
				},
				{
					"inputs": [],
					"name": "votingStatus",
					"outputs": [
						{
							"internalType": "string",
							"name": "",
							"type": "string"
						}
					],
					"stateMutability": "view",
					"type": "function"
				},
				{
					"inputs": [],
					"name": "winnerDeclare",
					"outputs": [
						{
							"internalType": "string",
							"name": "",
							"type": "string"
						}
					],
					"stateMutability": "view",
					"type": "function"
				}
			],
			"devdoc": {
				"kind": "dev",
				"methods": {},
				"version": 1
			},
			"evm": {
				"assembly": "    /* \"contracts/votingInBlockchain.sol\":58:6381  contract election{... */\n  mstore(0x40, 0x80)\n    /* \"contracts/votingInBlockchain.sol\":372:577  constructor() {... */\n  callvalue\n  dup1\n  iszero\n  tag_1\n  jumpi\n  0x00\n  dup1\n  revert\ntag_1:\n  pop\n    /* \"contracts/votingInBlockchain.sol\":405:415  msg.sender */\n  caller\n    /* \"contracts/votingInBlockchain.sol\":393:404  votingAdmin */\n  0x00\n  dup1\n    /* \"contracts/votingInBlockchain.sol\":393:415  votingAdmin=msg.sender */\n  0x0100\n  exp\n  dup2\n  sload\n  dup2\n  0xffffffffffffffffffffffffffffffffffffffff\n  mul\n  not\n  and\n  swap1\n  dup4\n  0xffffffffffffffffffffffffffffffffffffffff\n  and\n  mul\n  or\n  swap1\n  sstore\n  pop\n    /* \"contracts/votingInBlockchain.sol\":436:441  false */\n  0x00\n    /* \"contracts/votingInBlockchain.sol\":422:435  votingStarted */\n  dup1\n  0x14\n    /* \"contracts/votingInBlockchain.sol\":422:441  votingStarted=false */\n  0x0100\n  exp\n  dup2\n  sload\n  dup2\n  0xff\n  mul\n  not\n  and\n  swap1\n  dup4\n  iszero\n  iszero\n  mul\n  or\n  swap1\n  sstore\n  pop\n    /* \"contracts/votingInBlockchain.sol\":458:459  0 */\n  0x00\n    /* \"contracts/votingInBlockchain.sol\":448:457  totalVote */\n  0x01\n    /* \"contracts/votingInBlockchain.sol\":448:459  totalVote=0 */\n  dup2\n  swap1\n  sstore\n  pop\n    /* \"contracts/votingInBlockchain.sol\":466:486  status=\"Not Started\" */\n  mload(0x40)\n  dup1\n  0x40\n  add\n  0x40\n  mstore\n  dup1\n  0x0b\n  dup2\n  mstore\n  0x20\n  add\n  0x4e6f742053746172746564000000000000000000000000000000000000000000\n  dup2\n  mstore\n  pop\n    /* \"contracts/votingInBlockchain.sol\":466:472  status */\n  0x03\n    /* \"contracts/votingInBlockchain.sol\":466:486  status=\"Not Started\" */\n  swap1\n  dup2\n  tag_4\n  swap2\n  swap1\n  tag_5\n  jump\t// in\ntag_4:\n  pop\n    /* \"contracts/votingInBlockchain.sol\":501:502  0 */\n  0x00\n    /* \"contracts/votingInBlockchain.sol\":493:500  endVote */\n  0x02\n    /* \"contracts/votingInBlockchain.sol\":493:502  endVote=0 */\n  dup2\n  swap1\n  sstore\n  pop\n    /* \"contracts/votingInBlockchain.sol\":520:521  0 */\n  0x00\n    /* \"contracts/votingInBlockchain.sol\":509:519  totalVoter */\n  0x04\n    /* \"contracts/votingInBlockchain.sol\":509:521  totalVoter=0 */\n  dup2\n  swap1\n  sstore\n  pop\n    /* \"contracts/votingInBlockchain.sol\":540:541  0 */\n  0x00\n    /* \"contracts/votingInBlockchain.sol\":528:539  highestVote */\n  0x06\n    /* \"contracts/votingInBlockchain.sol\":528:541  highestVote=0 */\n  dup2\n  swap1\n  sstore\n  pop\n    /* \"contracts/votingInBlockchain.sol\":555:573  vStatus.notStarted */\n  0x00\n    /* \"contracts/votingInBlockchain.sol\":548:554  choice */\n  0x07\n  0x00\n    /* \"contracts/votingInBlockchain.sol\":548:573  choice=vStatus.notStarted */\n  0x0100\n  exp\n  dup2\n  sload\n  dup2\n  0xff\n  mul\n  not\n  and\n  swap1\n  dup4\n  0x02\n  dup2\n  gt\n  iszero\n  tag_6\n  jumpi\n  tag_7\n  tag_8\n  jump\t// in\ntag_7:\ntag_6:\n  mul\n  or\n  swap1\n  sstore\n  pop\n    /* \"contracts/votingInBlockchain.sol\":58:6381  contract election{... */\n  jump(tag_9)\n    /* \"#utility.yul\":7:106   */\ntag_10:\n    /* \"#utility.yul\":59:65   */\n  0x00\n    /* \"#utility.yul\":93:98   */\n  dup2\n    /* \"#utility.yul\":87:99   */\n  mload\n    /* \"#utility.yul\":77:99   */\n  swap1\n  pop\n    /* \"#utility.yul\":7:106   */\n  swap2\n  swap1\n  pop\n  jump\t// out\n    /* \"#utility.yul\":112:292   */\ntag_11:\n    /* \"#utility.yul\":160:237   */\n  0x4e487b7100000000000000000000000000000000000000000000000000000000\n    /* \"#utility.yul\":157:158   */\n  0x00\n    /* \"#utility.yul\":150:238   */\n  mstore\n    /* \"#utility.yul\":257:261   */\n  0x41\n    /* \"#utility.yul\":254:255   */\n  0x04\n    /* \"#utility.yul\":247:262   */\n  mstore\n    /* \"#utility.yul\":281:285   */\n  0x24\n    /* \"#utility.yul\":278:279   */\n  0x00\n    /* \"#utility.yul\":271:286   */\n  revert\n    /* \"#utility.yul\":298:478   */\ntag_12:\n    /* \"#utility.yul\":346:423   */\n  0x4e487b7100000000000000000000000000000000000000000000000000000000\n    /* \"#utility.yul\":343:344   */\n  0x00\n    /* \"#utility.yul\":336:424   */\n  mstore\n    /* \"#utility.yul\":443:447   */\n  0x22\n    /* \"#utility.yul\":440:441   */\n  0x04\n    /* \"#utility.yul\":433:448   */\n  mstore\n    /* \"#utility.yul\":467:471   */\n  0x24\n    /* \"#utility.yul\":464:465   */\n  0x00\n    /* \"#utility.yul\":457:472   */\n  revert\n    /* \"#utility.yul\":484:804   */\ntag_13:\n    /* \"#utility.yul\":528:534   */\n  0x00\n    /* \"#utility.yul\":565:566   */\n  0x02\n    /* \"#utility.yul\":559:563   */\n  dup3\n    /* \"#utility.yul\":555:567   */\n  div\n    /* \"#utility.yul\":545:567   */\n  swap1\n  pop\n    /* \"#utility.yul\":612:613   */\n  0x01\n    /* \"#utility.yul\":606:610   */\n  dup3\n    /* \"#utility.yul\":602:614   */\n  and\n    /* \"#utility.yul\":633:651   */\n  dup1\n    /* \"#utility.yul\":623:704   */\n  tag_35\n  jumpi\n    /* \"#utility.yul\":689:693   */\n  0x7f\n    /* \"#utility.yul\":681:687   */\n  dup3\n    /* \"#utility.yul\":677:694   */\n  and\n    /* \"#utility.yul\":667:694   */\n  swap2\n  pop\n    /* \"#utility.yul\":623:704   */\ntag_35:\n    /* \"#utility.yul\":751:753   */\n  0x20\n    /* \"#utility.yul\":743:749   */\n  dup3\n    /* \"#utility.yul\":740:754   */\n  lt\n    /* \"#utility.yul\":720:738   */\n  dup2\n    /* \"#utility.yul\":717:755   */\n  sub\n    /* \"#utility.yul\":714:798   */\n  tag_36\n  jumpi\n    /* \"#utility.yul\":770:788   */\n  tag_37\n  tag_12\n  jump\t// in\ntag_37:\n    /* \"#utility.yul\":714:798   */\ntag_36:\n    /* \"#utility.yul\":535:804   */\n  pop\n    /* \"#utility.yul\":484:804   */\n  swap2\n  swap1\n  pop\n  jump\t// out\n    /* \"#utility.yul\":810:951   */\ntag_14:\n    /* \"#utility.yul\":859:863   */\n  0x00\n    /* \"#utility.yul\":882:885   */\n  dup2\n    /* \"#utility.yul\":874:885   */\n  swap1\n  pop\n    /* \"#utility.yul\":905:908   */\n  dup2\n    /* \"#utility.yul\":902:903   */\n  0x00\n    /* \"#utility.yul\":895:909   */\n  mstore\n    /* \"#utility.yul\":939:943   */\n  0x20\n    /* \"#utility.yul\":936:937   */\n  0x00\n    /* \"#utility.yul\":926:944   */\n  keccak256\n    /* \"#utility.yul\":918:944   */\n  swap1\n  pop\n    /* \"#utility.yul\":810:951   */\n  swap2\n  swap1\n  pop\n  jump\t// out\n    /* \"#utility.yul\":957:1050   */\ntag_15:\n    /* \"#utility.yul\":994:1000   */\n  0x00\n    /* \"#utility.yul\":1041:1043   */\n  0x20\n    /* \"#utility.yul\":1036:1038   */\n  0x1f\n    /* \"#utility.yul\":1029:1034   */\n  dup4\n    /* \"#utility.yul\":1025:1039   */\n  add\n    /* \"#utility.yul\":1021:1044   */\n  div\n    /* \"#utility.yul\":1011:1044   */\n  swap1\n  pop\n    /* \"#utility.yul\":957:1050   */\n  swap2\n  swap1\n  pop\n  jump\t// out\n    /* \"#utility.yul\":1056:1163   */\ntag_16:\n    /* \"#utility.yul\":1100:1108   */\n  0x00\n    /* \"#utility.yul\":1150:1155   */\n  dup3\n    /* \"#utility.yul\":1144:1148   */\n  dup3\n    /* \"#utility.yul\":1140:1156   */\n  shl\n    /* \"#utility.yul\":1119:1156   */\n  swap1\n  pop\n    /* \"#utility.yul\":1056:1163   */\n  swap3\n  swap2\n  pop\n  pop\n  jump\t// out\n    /* \"#utility.yul\":1169:1562   */\ntag_17:\n    /* \"#utility.yul\":1238:1244   */\n  0x00\n    /* \"#utility.yul\":1288:1289   */\n  0x08\n    /* \"#utility.yul\":1276:1286   */\n  dup4\n    /* \"#utility.yul\":1272:1290   */\n  mul\n    /* \"#utility.yul\":1311:1408   */\n  tag_42\n    /* \"#utility.yul\":1341:1407   */\n  0xffffffffffffffffffffffffffffffffffffffffffffffffffffffffffffffff\n    /* \"#utility.yul\":1330:1339   */\n  dup3\n    /* \"#utility.yul\":1311:1408   */\n  tag_16\n  jump\t// in\ntag_42:\n    /* \"#utility.yul\":1429:1468   */\n  tag_43\n    /* \"#utility.yul\":1459:1467   */\n  dup7\n    /* \"#utility.yul\":1448:1457   */\n  dup4\n    /* \"#utility.yul\":1429:1468   */\n  tag_16\n  jump\t// in\ntag_43:\n    /* \"#utility.yul\":1417:1468   */\n  swap6\n  pop\n    /* \"#utility.yul\":1501:1505   */\n  dup1\n    /* \"#utility.yul\":1497:1506   */\n  not\n    /* \"#utility.yul\":1490:1495   */\n  dup5\n    /* \"#utility.yul\":1486:1507   */\n  and\n    /* \"#utility.yul\":1477:1507   */\n  swap4\n  pop\n    /* \"#utility.yul\":1550:1554   */\n  dup1\n    /* \"#utility.yul\":1540:1548   */\n  dup7\n    /* \"#utility.yul\":1536:1555   */\n  and\n    /* \"#utility.yul\":1529:1534   */\n  dup5\n    /* \"#utility.yul\":1526:1556   */\n  or\n    /* \"#utility.yul\":1516:1556   */\n  swap3\n  pop\n    /* \"#utility.yul\":1245:1562   */\n  pop\n  pop\n    /* \"#utility.yul\":1169:1562   */\n  swap4\n  swap3\n  pop\n  pop\n  pop\n  jump\t// out\n    /* \"#utility.yul\":1568:1645   */\ntag_18:\n    /* \"#utility.yul\":1605:1612   */\n  0x00\n    /* \"#utility.yul\":1634:1639   */\n  dup2\n    /* \"#utility.yul\":1623:1639   */\n  swap1\n  pop\n    /* \"#utility.yul\":1568:1645   */\n  swap2\n  swap1\n  pop\n  jump\t// out\n    /* \"#utility.yul\":1651:1711   */\ntag_19:\n    /* \"#utility.yul\":1679:1682   */\n  0x00\n    /* \"#utility.yul\":1700:1705   */\n  dup2\n    /* \"#utility.yul\":1693:1705   */\n  swap1\n  pop\n    /* \"#utility.yul\":1651:1711   */\n  swap2\n  swap1\n  pop\n  jump\t// out\n    /* \"#utility.yul\":1717:1859   */\ntag_20:\n    /* \"#utility.yul\":1767:1776   */\n  0x00\n    /* \"#utility.yul\":1800:1853   */\n  tag_47\n    /* \"#utility.yul\":1818:1852   */\n  tag_48\n    /* \"#utility.yul\":1827:1851   */\n  tag_49\n    /* \"#utility.yul\":1845:1850   */\n  dup5\n    /* \"#utility.yul\":1827:1851   */\n  tag_18\n  jump\t// in\ntag_49:\n    /* \"#utility.yul\":1818:1852   */\n  tag_19\n  jump\t// in\ntag_48:\n    /* \"#utility.yul\":1800:1853   */\n  tag_18\n  jump\t// in\ntag_47:\n    /* \"#utility.yul\":1787:1853   */\n  swap1\n  pop\n    /* \"#utility.yul\":1717:1859   */\n  swap2\n  swap1\n  pop\n  jump\t// out\n    /* \"#utility.yul\":1865:1940   */\ntag_21:\n    /* \"#utility.yul\":1908:1911   */\n  0x00\n    /* \"#utility.yul\":1929:1934   */\n  dup2\n    /* \"#utility.yul\":1922:1934   */\n  swap1\n  pop\n    /* \"#utility.yul\":1865:1940   */\n  swap2\n  swap1\n  pop\n  jump\t// out\n    /* \"#utility.yul\":1946:2215   */\ntag_22:\n    /* \"#utility.yul\":2056:2095   */\n  tag_52\n    /* \"#utility.yul\":2087:2094   */\n  dup4\n    /* \"#utility.yul\":2056:2095   */\n  tag_20\n  jump\t// in\ntag_52:\n    /* \"#utility.yul\":2117:2208   */\n  tag_53\n    /* \"#utility.yul\":2166:2207   */\n  tag_54\n    /* \"#utility.yul\":2190:2206   */\n  dup3\n    /* \"#utility.yul\":2166:2207   */\n  tag_21\n  jump\t// in\ntag_54:\n    /* \"#utility.yul\":2158:2164   */\n  dup5\n    /* \"#utility.yul\":2151:2155   */\n  dup5\n    /* \"#utility.yul\":2145:2156   */\n  sload\n    /* \"#utility.yul\":2117:2208   */\n  tag_17\n  jump\t// in\ntag_53:\n    /* \"#utility.yul\":2111:2115   */\n  dup3\n    /* \"#utility.yul\":2104:2209   */\n  sstore\n    /* \"#utility.yul\":2022:2215   */\n  pop\n    /* \"#utility.yul\":1946:2215   */\n  pop\n  pop\n  pop\n  jump\t// out\n    /* \"#utility.yul\":2221:2294   */\ntag_23:\n    /* \"#utility.yul\":2266:2269   */\n  0x00\n    /* \"#utility.yul\":2221:2294   */\n  swap1\n  jump\t// out\n    /* \"#utility.yul\":2300:2489   */\ntag_24:\n    /* \"#utility.yul\":2377:2409   */\n  tag_57\n  tag_23\n  jump\t// in\ntag_57:\n    /* \"#utility.yul\":2418:2483   */\n  tag_58\n    /* \"#utility.yul\":2476:2482   */\n  dup2\n    /* \"#utility.yul\":2468:2474   */\n  dup5\n    /* \"#utility.yul\":2462:2466   */\n  dup5\n    /* \"#utility.yul\":2418:2483   */\n  tag_22\n  jump\t// in\ntag_58:\n    /* \"#utility.yul\":2353:2489   */\n  pop\n    /* \"#utility.yul\":2300:2489   */\n  pop\n  pop\n  jump\t// out\n    /* \"#utility.yul\":2495:2681   */\ntag_25:\n    /* \"#utility.yul\":2555:2675   */\ntag_60:\n    /* \"#utility.yul\":2572:2575   */\n  dup2\n    /* \"#utility.yul\":2565:2570   */\n  dup2\n    /* \"#utility.yul\":2562:2576   */\n  lt\n    /* \"#utility.yul\":2555:2675   */\n  iszero\n  tag_62\n  jumpi\n    /* \"#utility.yul\":2626:2665   */\n  tag_63\n    /* \"#utility.yul\":2663:2664   */\n  0x00\n    /* \"#utility.yul\":2656:2661   */\n  dup3\n    /* \"#utility.yul\":2626:2665   */\n  tag_24\n  jump\t// in\ntag_63:\n    /* \"#utility.yul\":2599:2600   */\n  0x01\n    /* \"#utility.yul\":2592:2597   */\n  dup2\n    /* \"#utility.yul\":2588:2601   */\n  add\n    /* \"#utility.yul\":2579:2601   */\n  swap1\n  pop\n    /* \"#utility.yul\":2555:2675   */\n  jump(tag_60)\ntag_62:\n    /* \"#utility.yul\":2495:2681   */\n  pop\n  pop\n  jump\t// out\n    /* \"#utility.yul\":2687:3230   */\ntag_26:\n    /* \"#utility.yul\":2788:2790   */\n  0x1f\n    /* \"#utility.yul\":2783:2786   */\n  dup3\n    /* \"#utility.yul\":2780:2791   */\n  gt\n    /* \"#utility.yul\":2777:3223   */\n  iszero\n  tag_65\n  jumpi\n    /* \"#utility.yul\":2822:2860   */\n  tag_66\n    /* \"#utility.yul\":2854:2859   */\n  dup2\n    /* \"#utility.yul\":2822:2860   */\n  tag_14\n  jump\t// in\ntag_66:\n    /* \"#utility.yul\":2906:2935   */\n  tag_67\n    /* \"#utility.yul\":2924:2934   */\n  dup5\n    /* \"#utility.yul\":2906:2935   */\n  tag_15\n  jump\t// in\ntag_67:\n    /* \"#utility.yul\":2896:2904   */\n  dup2\n    /* \"#utility.yul\":2892:2936   */\n  add\n    /* \"#utility.yul\":3089:3091   */\n  0x20\n    /* \"#utility.yul\":3077:3087   */\n  dup6\n    /* \"#utility.yul\":3074:3092   */\n  lt\n    /* \"#utility.yul\":3071:3120   */\n  iszero\n  tag_68\n  jumpi\n    /* \"#utility.yul\":3110:3118   */\n  dup2\n    /* \"#utility.yul\":3095:3118   */\n  swap1\n  pop\n    /* \"#utility.yul\":3071:3120   */\ntag_68:\n    /* \"#utility.yul\":3133:3213   */\n  tag_69\n    /* \"#utility.yul\":3189:3211   */\n  tag_70\n    /* \"#utility.yul\":3207:3210   */\n  dup6\n    /* \"#utility.yul\":3189:3211   */\n  tag_15\n  jump\t// in\ntag_70:\n    /* \"#utility.yul\":3179:3187   */\n  dup4\n    /* \"#utility.yul\":3175:3212   */\n  add\n    /* \"#utility.yul\":3162:3173   */\n  dup3\n    /* \"#utility.yul\":3133:3213   */\n  tag_25\n  jump\t// in\ntag_69:\n    /* \"#utility.yul\":2792:3223   */\n  pop\n  pop\n    /* \"#utility.yul\":2777:3223   */\ntag_65:\n    /* \"#utility.yul\":2687:3230   */\n  pop\n  pop\n  pop\n  jump\t// out\n    /* \"#utility.yul\":3236:3353   */\ntag_27:\n    /* \"#utility.yul\":3290:3298   */\n  0x00\n    /* \"#utility.yul\":3340:3345   */\n  dup3\n    /* \"#utility.yul\":3334:3338   */\n  dup3\n    /* \"#utility.yul\":3330:3346   */\n  shr\n    /* \"#utility.yul\":3309:3346   */\n  swap1\n  pop\n    /* \"#utility.yul\":3236:3353   */\n  swap3\n  swap2\n  pop\n  pop\n  jump\t// out\n    /* \"#utility.yul\":3359:3528   */\ntag_28:\n    /* \"#utility.yul\":3403:3409   */\n  0x00\n    /* \"#utility.yul\":3436:3487   */\n  tag_73\n    /* \"#utility.yul\":3484:3485   */\n  0x00\n    /* \"#utility.yul\":3480:3486   */\n  not\n    /* \"#utility.yul\":3472:3477   */\n  dup5\n    /* \"#utility.yul\":3469:3470   */\n  0x08\n    /* \"#utility.yul\":3465:3478   */\n  mul\n    /* \"#utility.yul\":3436:3487   */\n  tag_27\n  jump\t// in\ntag_73:\n    /* \"#utility.yul\":3432:3488   */\n  not\n    /* \"#utility.yul\":3517:3521   */\n  dup1\n    /* \"#utility.yul\":3511:3515   */\n  dup4\n    /* \"#utility.yul\":3507:3522   */\n  and\n    /* \"#utility.yul\":3497:3522   */\n  swap2\n  pop\n    /* \"#utility.yul\":3410:3528   */\n  pop\n    /* \"#utility.yul\":3359:3528   */\n  swap3\n  swap2\n  pop\n  pop\n  jump\t// out\n    /* \"#utility.yul\":3533:3828   */\ntag_29:\n    /* \"#utility.yul\":3609:3613   */\n  0x00\n    /* \"#utility.yul\":3755:3784   */\n  tag_75\n    /* \"#utility.yul\":3780:3783   */\n  dup4\n    /* \"#utility.yul\":3774:3778   */\n  dup4\n    /* \"#utility.yul\":3755:3784   */\n  tag_28\n  jump\t// in\ntag_75:\n    /* \"#utility.yul\":3747:3784   */\n  swap2\n  pop\n    /* \"#utility.yul\":3817:3820   */\n  dup3\n    /* \"#utility.yul\":3814:3815   */\n  0x02\n    /* \"#utility.yul\":3810:3821   */\n  mul\n    /* \"#utility.yul\":3804:3808   */\n  dup3\n    /* \"#utility.yul\":3801:3822   */\n  or\n    /* \"#utility.yul\":3793:3822   */\n  swap1\n  pop\n    /* \"#utility.yul\":3533:3828   */\n  swap3\n  swap2\n  pop\n  pop\n  jump\t// out\n    /* \"#utility.yul\":3833:5228   */\ntag_5:\n    /* \"#utility.yul\":3950:3987   */\n  tag_77\n    /* \"#utility.yul\":3983:3986   */\n  dup3\n    /* \"#utility.yul\":3950:3987   */\n  tag_10\n  jump\t// in\ntag_77:\n    /* \"#utility.yul\":4052:4070   */\n  0xffffffffffffffff\n    /* \"#utility.yul\":4044:4050   */\n  dup2\n    /* \"#utility.yul\":4041:4071   */\n  gt\n    /* \"#utility.yul\":4038:4094   */\n  iszero\n  tag_78\n  jumpi\n    /* \"#utility.yul\":4074:4092   */\n  tag_79\n  tag_11\n  jump\t// in\ntag_79:\n    /* \"#utility.yul\":4038:4094   */\ntag_78:\n    /* \"#utility.yul\":4118:4156   */\n  tag_80\n    /* \"#utility.yul\":4150:4154   */\n  dup3\n    /* \"#utility.yul\":4144:4155   */\n  sload\n    /* \"#utility.yul\":4118:4156   */\n  tag_13\n  jump\t// in\ntag_80:\n    /* \"#utility.yul\":4203:4270   */\n  tag_81\n    /* \"#utility.yul\":4263:4269   */\n  dup3\n    /* \"#utility.yul\":4255:4261   */\n  dup3\n    /* \"#utility.yul\":4249:4253   */\n  dup6\n    /* \"#utility.yul\":4203:4270   */\n  tag_26\n  jump\t// in\ntag_81:\n    /* \"#utility.yul\":4297:4298   */\n  0x00\n    /* \"#utility.yul\":4321:4325   */\n  0x20\n    /* \"#utility.yul\":4308:4325   */\n  swap1\n  pop\n    /* \"#utility.yul\":4353:4355   */\n  0x1f\n    /* \"#utility.yul\":4345:4351   */\n  dup4\n    /* \"#utility.yul\":4342:4356   */\n  gt\n    /* \"#utility.yul\":4370:4371   */\n  0x01\n    /* \"#utility.yul\":4365:4983   */\n  dup2\n  eq\n  tag_83\n  jumpi\n    /* \"#utility.yul\":5027:5028   */\n  0x00\n    /* \"#utility.yul\":5044:5050   */\n  dup5\n    /* \"#utility.yul\":5041:5118   */\n  iszero\n  tag_84\n  jumpi\n    /* \"#utility.yul\":5093:5102   */\n  dup3\n    /* \"#utility.yul\":5088:5091   */\n  dup8\n    /* \"#utility.yul\":5084:5103   */\n  add\n    /* \"#utility.yul\":5078:5104   */\n  mload\n    /* \"#utility.yul\":5069:5104   */\n  swap1\n  pop\n    /* \"#utility.yul\":5041:5118   */\ntag_84:\n    /* \"#utility.yul\":5144:5211   */\n  tag_85\n    /* \"#utility.yul\":5204:5210   */\n  dup6\n    /* \"#utility.yul\":5197:5202   */\n  dup3\n    /* \"#utility.yul\":5144:5211   */\n  tag_29\n  jump\t// in\ntag_85:\n    /* \"#utility.yul\":5138:5142   */\n  dup7\n    /* \"#utility.yul\":5131:5212   */\n  sstore\n    /* \"#utility.yul\":5000:5222   */\n  pop\n    /* \"#utility.yul\":4335:5222   */\n  jump(tag_82)\n    /* \"#utility.yul\":4365:4983   */\ntag_83:\n    /* \"#utility.yul\":4417:4421   */\n  0x1f\n    /* \"#utility.yul\":4413:4422   */\n  not\n    /* \"#utility.yul\":4405:4411   */\n  dup5\n    /* \"#utility.yul\":4401:4423   */\n  and\n    /* \"#utility.yul\":4451:4488   */\n  tag_86\n    /* \"#utility.yul\":4483:4487   */\n  dup7\n    /* \"#utility.yul\":4451:4488   */\n  tag_14\n  jump\t// in\ntag_86:\n    /* \"#utility.yul\":4510:4511   */\n  0x00\n    /* \"#utility.yul\":4524:4732   */\ntag_87:\n    /* \"#utility.yul\":4538:4545   */\n  dup3\n    /* \"#utility.yul\":4535:4536   */\n  dup2\n    /* \"#utility.yul\":4532:4546   */\n  lt\n    /* \"#utility.yul\":4524:4732   */\n  iszero\n  tag_89\n  jumpi\n    /* \"#utility.yul\":4617:4626   */\n  dup5\n    /* \"#utility.yul\":4612:4615   */\n  dup10\n    /* \"#utility.yul\":4608:4627   */\n  add\n    /* \"#utility.yul\":4602:4628   */\n  mload\n    /* \"#utility.yul\":4594:4600   */\n  dup3\n    /* \"#utility.yul\":4587:4629   */\n  sstore\n    /* \"#utility.yul\":4668:4669   */\n  0x01\n    /* \"#utility.yul\":4660:4666   */\n  dup3\n    /* \"#utility.yul\":4656:4670   */\n  add\n    /* \"#utility.yul\":4646:4670   */\n  swap2\n  pop\n    /* \"#utility.yul\":4715:4717   */\n  0x20\n    /* \"#utility.yul\":4704:4713   */\n  dup6\n    /* \"#utility.yul\":4700:4718   */\n  add\n    /* \"#utility.yul\":4687:4718   */\n  swap5\n  pop\n    /* \"#utility.yul\":4561:4565   */\n  0x20\n    /* \"#utility.yul\":4558:4559   */\n  dup2\n    /* \"#utility.yul\":4554:4566   */\n  add\n    /* \"#utility.yul\":4549:4566   */\n  swap1\n  pop\n    /* \"#utility.yul\":4524:4732   */\n  jump(tag_87)\ntag_89:\n    /* \"#utility.yul\":4760:4766   */\n  dup7\n    /* \"#utility.yul\":4751:4758   */\n  dup4\n    /* \"#utility.yul\":4748:4767   */\n  lt\n    /* \"#utility.yul\":4745:4924   */\n  iszero\n  tag_90\n  jumpi\n    /* \"#utility.yul\":4818:4827   */\n  dup5\n    /* \"#utility.yul\":4813:4816   */\n  dup10\n    /* \"#utility.yul\":4809:4828   */\n  add\n    /* \"#utility.yul\":4803:4829   */\n  mload\n    /* \"#utility.yul\":4861:4909   */\n  tag_91\n    /* \"#utility.yul\":4903:4907   */\n  0x1f\n    /* \"#utility.yul\":4895:4901   */\n  dup10\n    /* \"#utility.yul\":4891:4908   */\n  and\n    /* \"#utility.yul\":4880:4889   */\n  dup3\n    /* \"#utility.yul\":4861:4909   */\n  tag_28\n  jump\t// in\ntag_91:\n    /* \"#utility.yul\":4853:4859   */\n  dup4\n    /* \"#utility.yul\":4846:4910   */\n  sstore\n    /* \"#utility.yul\":4768:4924   */\n  pop\n    /* \"#utility.yul\":4745:4924   */\ntag_90:\n    /* \"#utility.yul\":4970:4971   */\n  0x01\n    /* \"#utility.yul\":4966:4967   */\n  0x02\n    /* \"#utility.yul\":4958:4964   */\n  dup9\n    /* \"#utility.yul\":4954:4968   */\n  mul\n    /* \"#utility.yul\":4950:4972   */\n  add\n    /* \"#utility.yul\":4944:4948   */\n  dup9\n    /* \"#utility.yul\":4937:4973   */\n  sstore\n    /* \"#utility.yul\":4372:4983   */\n  pop\n  pop\n  pop\n    /* \"#utility.yul\":4335:5222   */\ntag_82:\n  pop\n    /* \"#utility.yul\":3925:5228   */\n  pop\n  pop\n  pop\n    /* \"#utility.yul\":3833:5228   */\n  pop\n  pop\n  jump\t// out\n    /* \"#utility.yul\":5234:5414   */\ntag_8:\n    /* \"#utility.yul\":5282:5359   */\n  0x4e487b7100000000000000000000000000000000000000000000000000000000\n    /* \"#utility.yul\":5279:5280   */\n  0x00\n    /* \"#utility.yul\":5272:5360   */\n  mstore\n    /* \"#utility.yul\":5379:5383   */\n  0x21\n    /* \"#utility.yul\":5376:5377   */\n  0x04\n    /* \"#utility.yul\":5369:5384   */\n  mstore\n    /* \"#utility.yul\":5403:5407   */\n  0x24\n    /* \"#utility.yul\":5400:5401   */\n  0x00\n    /* \"#utility.yul\":5393:5408   */\n  revert\n    /* \"contracts/votingInBlockchain.sol\":58:6381  contract election{... */\ntag_9:\n  dataSize(sub_0)\n  dup1\n  dataOffset(sub_0)\n  0x00\n  codecopy\n  0x00\n  return\nstop\n\nsub_0: assembly {\n        /* \"contracts/votingInBlockchain.sol\":58:6381  contract election{... */\n      mstore(0x40, 0x80)\n      callvalue\n      dup1\n      iszero\n      tag_1\n      jumpi\n      0x00\n      dup1\n      revert\n    tag_1:\n      pop\n      jumpi(tag_2, lt(calldatasize, 0x04))\n      shr(0xe0, calldataload(0x00))\n      dup1\n      0xb31e1d4d\n      gt\n      tag_15\n      jumpi\n      dup1\n      0xb31e1d4d\n      eq\n      tag_9\n      jumpi\n      dup1\n      0xc3403ddf\n      eq\n      tag_10\n      jumpi\n      dup1\n      0xd1e05abb\n      eq\n      tag_11\n      jumpi\n      dup1\n      0xebbb4f84\n      eq\n      tag_12\n      jumpi\n      dup1\n      0xf9e7284f\n      eq\n      tag_13\n      jumpi\n      dup1\n      0xfcab6679\n      eq\n      tag_14\n      jumpi\n      jump(tag_2)\n    tag_15:\n      dup1\n      0x98a51a\n      eq\n      tag_3\n      jumpi\n      dup1\n      0x0a03fff1\n      eq\n      tag_4\n      jumpi\n      dup1\n      0x19f41a40\n      eq\n      tag_5\n      jumpi\n      dup1\n      0x1ec6b60a\n      eq\n      tag_6\n      jumpi\n      dup1\n      0x233b672d\n      eq\n      tag_7\n      jumpi\n      dup1\n      0x81c40715\n      eq\n      tag_8\n      jumpi\n    tag_2:\n      0x00\n      dup1\n      revert\n        /* \"contracts/votingInBlockchain.sol\":1099:1141  mapping (address=>voters) public VoterList */\n    tag_3:\n      tag_16\n      0x04\n      dup1\n      calldatasize\n      sub\n      dup2\n      add\n      swap1\n      tag_17\n      swap2\n      swap1\n      tag_18\n      jump\t// in\n    tag_17:\n      tag_19\n      jump\t// in\n    tag_16:\n      mload(0x40)\n      tag_20\n      swap8\n      swap7\n      swap6\n      swap5\n      swap4\n      swap3\n      swap2\n      swap1\n      tag_21\n      jump\t// in\n    tag_20:\n      mload(0x40)\n      dup1\n      swap2\n      sub\n      swap1\n      return\n        /* \"contracts/votingInBlockchain.sol\":994:1044  mapping (address=>candidates) public CandidateList */\n    tag_4:\n      tag_22\n      0x04\n      dup1\n      calldatasize\n      sub\n      dup2\n      add\n      swap1\n      tag_23\n      swap2\n      swap1\n      tag_18\n      jump\t// in\n    tag_23:\n      tag_24\n      jump\t// in\n    tag_22:\n      mload(0x40)\n      tag_25\n      swap6\n      swap5\n      swap4\n      swap3\n      swap2\n      swap1\n      tag_26\n      jump\t// in\n    tag_25:\n      mload(0x40)\n      dup1\n      swap2\n      sub\n      swap1\n      return\n        /* \"contracts/votingInBlockchain.sol\":3459:3541  function votingStatus()view public returns (string memory){... */\n    tag_5:\n      tag_27\n      tag_28\n      jump\t// in\n    tag_27:\n      mload(0x40)\n      tag_29\n      swap2\n      swap1\n      tag_30\n      jump\t// in\n    tag_29:\n      mload(0x40)\n      dup1\n      swap2\n      sub\n      swap1\n      return\n        /* \"contracts/votingInBlockchain.sol\":3019:3203  function startVoting()public {... */\n    tag_6:\n      tag_31\n      tag_32\n      jump\t// in\n    tag_31:\n      stop\n        /* \"contracts/votingInBlockchain.sol\":3571:4380  function CastVote(uint _id,address _candidateAddress)  public{... */\n    tag_7:\n      tag_33\n      0x04\n      dup1\n      calldatasize\n      sub\n      dup2\n      add\n      swap1\n      tag_34\n      swap2\n      swap1\n      tag_35\n      jump\t// in\n    tag_34:\n      tag_36\n      jump\t// in\n    tag_33:\n      stop\n        /* \"contracts/votingInBlockchain.sol\":1996:2095  function allCandidates()view public returns (candidates[]memory){... */\n    tag_8:\n      tag_37\n      tag_38\n      jump\t// in\n    tag_37:\n      mload(0x40)\n      tag_39\n      swap2\n      swap1\n      tag_40\n      jump\t// in\n    tag_39:\n      mload(0x40)\n      dup1\n      swap2\n      sub\n      swap1\n      return\n        /* \"contracts/votingInBlockchain.sol\":5086:6378  function delegateVote( address _delegate)   public  {... */\n    tag_9:\n      tag_41\n      0x04\n      dup1\n      calldatasize\n      sub\n      dup2\n      add\n      swap1\n      tag_42\n      swap2\n      swap1\n      tag_18\n      jump\t// in\n    tag_42:\n      tag_43\n      jump\t// in\n    tag_41:\n      stop\n        /* \"contracts/votingInBlockchain.sol\":3238:3411  function endVoting()public{... */\n    tag_10:\n      tag_44\n      tag_45\n      jump\t// in\n    tag_44:\n      stop\n        /* \"contracts/votingInBlockchain.sol\":4810:5054  function winnerDeclare( ) view  public returns(string memory) {... */\n    tag_11:\n      tag_46\n      tag_47\n      jump\t// in\n    tag_46:\n      mload(0x40)\n      tag_48\n      swap2\n      swap1\n      tag_30\n      jump\t// in\n    tag_48:\n      mload(0x40)\n      dup1\n      swap2\n      sub\n      swap1\n      return\n        /* \"contracts/votingInBlockchain.sol\":2134:2847  function registerVoter( address _voterAddress,string memory name)   public {... */\n    tag_12:\n      tag_49\n      0x04\n      dup1\n      calldatasize\n      sub\n      dup2\n      add\n      swap1\n      tag_50\n      swap2\n      swap1\n      tag_51\n      jump\t// in\n    tag_50:\n      tag_52\n      jump\t// in\n    tag_49:\n      stop\n        /* \"contracts/votingInBlockchain.sol\":2886:2982  function allVoters() view public returns(voters[] memory){... */\n    tag_13:\n      tag_53\n      tag_54\n      jump\t// in\n    tag_53:\n      mload(0x40)\n      tag_55\n      swap2\n      swap1\n      tag_56\n      jump\t// in\n    tag_55:\n      mload(0x40)\n      dup1\n      swap2\n      sub\n      swap1\n      return\n        /* \"contracts/votingInBlockchain.sol\":1222:1957  function registerCandidate(string memory _name, string memory _proposal,address _candidateAddress)  public{... */\n    tag_14:\n      tag_57\n      0x04\n      dup1\n      calldatasize\n      sub\n      dup2\n      add\n      swap1\n      tag_58\n      swap2\n      swap1\n      tag_59\n      jump\t// in\n    tag_58:\n      tag_60\n      jump\t// in\n    tag_57:\n      stop\n        /* \"contracts/votingInBlockchain.sol\":1099:1141  mapping (address=>voters) public VoterList */\n    tag_19:\n      mstore(0x20, 0x0a)\n      dup1\n      0x00\n      mstore\n      keccak256(0x00, 0x40)\n      0x00\n      swap2\n      pop\n      swap1\n      pop\n      dup1\n      0x00\n      add\n      0x00\n      swap1\n      sload\n      swap1\n      0x0100\n      exp\n      swap1\n      div\n      0xffffffffffffffffffffffffffffffffffffffff\n      and\n      swap1\n      dup1\n      0x00\n      add\n      0x14\n      swap1\n      sload\n      swap1\n      0x0100\n      exp\n      swap1\n      div\n      0xff\n      and\n      swap1\n      dup1\n      0x00\n      add\n      0x15\n      swap1\n      sload\n      swap1\n      0x0100\n      exp\n      swap1\n      div\n      0xff\n      and\n      swap1\n      dup1\n      0x00\n      add\n      0x16\n      swap1\n      sload\n      swap1\n      0x0100\n      exp\n      swap1\n      div\n      0xff\n      and\n      swap1\n      dup1\n      0x01\n      add\n      sload\n      swap1\n      dup1\n      0x02\n      add\n      sload\n      swap1\n      dup1\n      0x03\n      add\n      dup1\n      sload\n      tag_61\n      swap1\n      tag_62\n      jump\t// in\n    tag_61:\n      dup1\n      0x1f\n      add\n      0x20\n      dup1\n      swap2\n      div\n      mul\n      0x20\n      add\n      mload(0x40)\n      swap1\n      dup2\n      add\n      0x40\n      mstore\n      dup1\n      swap3\n      swap2\n      swap1\n      dup2\n      dup2\n      mstore\n      0x20\n      add\n      dup3\n      dup1\n      sload\n      tag_63\n      swap1\n      tag_62\n      jump\t// in\n    tag_63:\n      dup1\n      iszero\n      tag_64\n      jumpi\n      dup1\n      0x1f\n      lt\n      tag_65\n      jumpi\n      0x0100\n      dup1\n      dup4\n      sload\n      div\n      mul\n      dup4\n      mstore\n      swap2\n      0x20\n      add\n      swap2\n      jump(tag_64)\n    tag_65:\n      dup3\n      add\n      swap2\n      swap1\n      0x00\n      mstore\n      keccak256(0x00, 0x20)\n      swap1\n    tag_66:\n      dup2\n      sload\n      dup2\n      mstore\n      swap1\n      0x01\n      add\n      swap1\n      0x20\n      add\n      dup1\n      dup4\n      gt\n      tag_66\n      jumpi\n      dup3\n      swap1\n      sub\n      0x1f\n      and\n      dup3\n      add\n      swap2\n    tag_64:\n      pop\n      pop\n      pop\n      pop\n      pop\n      swap1\n      pop\n      dup8\n      jump\t// out\n        /* \"contracts/votingInBlockchain.sol\":994:1044  mapping (address=>candidates) public CandidateList */\n    tag_24:\n      mstore(0x20, 0x08)\n      dup1\n      0x00\n      mstore\n      keccak256(0x00, 0x40)\n      0x00\n      swap2\n      pop\n      swap1\n      pop\n      dup1\n      0x00\n      add\n      0x00\n      swap1\n      sload\n      swap1\n      0x0100\n      exp\n      swap1\n      div\n      0xffffffffffffffffffffffffffffffffffffffff\n      and\n      swap1\n      dup1\n      0x01\n      add\n      dup1\n      sload\n      tag_67\n      swap1\n      tag_62\n      jump\t// in\n    tag_67:\n      dup1\n      0x1f\n      add\n      0x20\n      dup1\n      swap2\n      div\n      mul\n      0x20\n      add\n      mload(0x40)\n      swap1\n      dup2\n      add\n      0x40\n      mstore\n      dup1\n      swap3\n      swap2\n      swap1\n      dup2\n      dup2\n      mstore\n      0x20\n      add\n      dup3\n      dup1\n      sload\n      tag_68\n      swap1\n      tag_62\n      jump\t// in\n    tag_68:\n      dup1\n      iszero\n      tag_69\n      jumpi\n      dup1\n      0x1f\n      lt\n      tag_70\n      jumpi\n      0x0100\n      dup1\n      dup4\n      sload\n      div\n      mul\n      dup4\n      mstore\n      swap2\n      0x20\n      add\n      swap2\n      jump(tag_69)\n    tag_70:\n      dup3\n      add\n      swap2\n      swap1\n      0x00\n      mstore\n      keccak256(0x00, 0x20)\n      swap1\n    tag_71:\n      dup2\n      sload\n      dup2\n      mstore\n      swap1\n      0x01\n      add\n      swap1\n      0x20\n      add\n      dup1\n      dup4\n      gt\n      tag_71\n      jumpi\n      dup3\n      swap1\n      sub\n      0x1f\n      and\n      dup3\n      add\n      swap2\n    tag_69:\n      pop\n      pop\n      pop\n      pop\n      pop\n      swap1\n      dup1\n      0x02\n      add\n      dup1\n      sload\n      tag_72\n      swap1\n      tag_62\n      jump\t// in\n    tag_72:\n      dup1\n      0x1f\n      add\n      0x20\n      dup1\n      swap2\n      div\n      mul\n      0x20\n      add\n      mload(0x40)\n      swap1\n      dup2\n      add\n      0x40\n      mstore\n      dup1\n      swap3\n      swap2\n      swap1\n      dup2\n      dup2\n      mstore\n      0x20\n      add\n      dup3\n      dup1\n      sload\n      tag_73\n      swap1\n      tag_62\n      jump\t// in\n    tag_73:\n      dup1\n      iszero\n      tag_74\n      jumpi\n      dup1\n      0x1f\n      lt\n      tag_75\n      jumpi\n      0x0100\n      dup1\n      dup4\n      sload\n      div\n      mul\n      dup4\n      mstore\n      swap2\n      0x20\n      add\n      swap2\n      jump(tag_74)\n    tag_75:\n      dup3\n      add\n      swap2\n      swap1\n      0x00\n      mstore\n      keccak256(0x00, 0x20)\n      swap1\n    tag_76:\n      dup2\n      sload\n      dup2\n      mstore\n      swap1\n      0x01\n      add\n      swap1\n      0x20\n      add\n      dup1\n      dup4\n      gt\n      tag_76\n      jumpi\n      dup3\n      swap1\n      sub\n      0x1f\n      and\n      dup3\n      add\n      swap2\n    tag_74:\n      pop\n      pop\n      pop\n      pop\n      pop\n      swap1\n      dup1\n      0x03\n      add\n      0x00\n      swap1\n      sload\n      swap1\n      0x0100\n      exp\n      swap1\n      div\n      0xff\n      and\n      swap1\n      dup1\n      0x04\n      add\n      sload\n      swap1\n      pop\n      dup6\n      jump\t// out\n        /* \"contracts/votingInBlockchain.sol\":3459:3541  function votingStatus()view public returns (string memory){... */\n    tag_28:\n        /* \"contracts/votingInBlockchain.sol\":3503:3516  string memory */\n      0x60\n        /* \"contracts/votingInBlockchain.sol\":3531:3537  status */\n      0x03\n        /* \"contracts/votingInBlockchain.sol\":3524:3537  return status */\n      dup1\n      sload\n      tag_78\n      swap1\n      tag_62\n      jump\t// in\n    tag_78:\n      dup1\n      0x1f\n      add\n      0x20\n      dup1\n      swap2\n      div\n      mul\n      0x20\n      add\n      mload(0x40)\n      swap1\n      dup2\n      add\n      0x40\n      mstore\n      dup1\n      swap3\n      swap2\n      swap1\n      dup2\n      dup2\n      mstore\n      0x20\n      add\n      dup3\n      dup1\n      sload\n      tag_79\n      swap1\n      tag_62\n      jump\t// in\n    tag_79:\n      dup1\n      iszero\n      tag_80\n      jumpi\n      dup1\n      0x1f\n      lt\n      tag_81\n      jumpi\n      0x0100\n      dup1\n      dup4\n      sload\n      div\n      mul\n      dup4\n      mstore\n      swap2\n      0x20\n      add\n      swap2\n      jump(tag_80)\n    tag_81:\n      dup3\n      add\n      swap2\n      swap1\n      0x00\n      mstore\n      keccak256(0x00, 0x20)\n      swap1\n    tag_82:\n      dup2\n      sload\n      dup2\n      mstore\n      swap1\n      0x01\n      add\n      swap1\n      0x20\n      add\n      dup1\n      dup4\n      gt\n      tag_82\n      jumpi\n      dup3\n      swap1\n      sub\n      0x1f\n      and\n      dup3\n      add\n      swap2\n    tag_80:\n      pop\n      pop\n      pop\n      pop\n      pop\n      swap1\n      pop\n        /* \"contracts/votingInBlockchain.sol\":3459:3541  function votingStatus()view public returns (string memory){... */\n      swap1\n      jump\t// out\n        /* \"contracts/votingInBlockchain.sol\":3019:3203  function startVoting()public {... */\n    tag_32:\n        /* \"contracts/votingInBlockchain.sol\":3076:3086  msg.sender */\n      caller\n        /* \"contracts/votingInBlockchain.sol\":3063:3086  votingAdmin==msg.sender */\n      0xffffffffffffffffffffffffffffffffffffffff\n      and\n        /* \"contracts/votingInBlockchain.sol\":3063:3074  votingAdmin */\n      0x00\n      dup1\n      sload\n      swap1\n      0x0100\n      exp\n      swap1\n      div\n      0xffffffffffffffffffffffffffffffffffffffff\n      and\n        /* \"contracts/votingInBlockchain.sol\":3063:3086  votingAdmin==msg.sender */\n      0xffffffffffffffffffffffffffffffffffffffff\n      and\n      eq\n        /* \"contracts/votingInBlockchain.sol\":3063:3098  votingAdmin==msg.sender&&endVote==0 */\n      dup1\n      iszero\n      tag_84\n      jumpi\n      pop\n        /* \"contracts/votingInBlockchain.sol\":3097:3098  0 */\n      0x00\n        /* \"contracts/votingInBlockchain.sol\":3088:3095  endVote */\n      sload(0x02)\n        /* \"contracts/votingInBlockchain.sol\":3088:3098  endVote==0 */\n      eq\n        /* \"contracts/votingInBlockchain.sol\":3063:3098  votingAdmin==msg.sender&&endVote==0 */\n    tag_84:\n        /* \"contracts/votingInBlockchain.sol\":3063:3120  votingAdmin==msg.sender&&endVote==0&&votingStarted==false */\n      dup1\n      iszero\n      tag_85\n      jumpi\n      pop\n        /* \"contracts/votingInBlockchain.sol\":3115:3120  false */\n      0x00\n        /* \"contracts/votingInBlockchain.sol\":3100:3120  votingStarted==false */\n      iszero\n      iszero\n        /* \"contracts/votingInBlockchain.sol\":3100:3113  votingStarted */\n      0x00\n      0x14\n      swap1\n      sload\n      swap1\n      0x0100\n      exp\n      swap1\n      div\n      0xff\n      and\n        /* \"contracts/votingInBlockchain.sol\":3100:3120  votingStarted==false */\n      iszero\n      iszero\n      eq\n        /* \"contracts/votingInBlockchain.sol\":3063:3120  votingAdmin==msg.sender&&endVote==0&&votingStarted==false */\n    tag_85:\n        /* \"contracts/votingInBlockchain.sol\":3055:3121  require(votingAdmin==msg.sender&&endVote==0&&votingStarted==false) */\n      tag_86\n      jumpi\n      0x00\n      dup1\n      revert\n    tag_86:\n        /* \"contracts/votingInBlockchain.sol\":3142:3146  true */\n      0x01\n        /* \"contracts/votingInBlockchain.sol\":3128:3141  votingStarted */\n      0x00\n      0x14\n        /* \"contracts/votingInBlockchain.sol\":3128:3146  votingStarted=true */\n      0x0100\n      exp\n      dup2\n      sload\n      dup2\n      0xff\n      mul\n      not\n      and\n      swap1\n      dup4\n      iszero\n      iszero\n      mul\n      or\n      swap1\n      sstore\n      pop\n        /* \"contracts/votingInBlockchain.sol\":3160:3175  vStatus.ongoing */\n      0x01\n        /* \"contracts/votingInBlockchain.sol\":3153:3159  choice */\n      0x07\n      0x00\n        /* \"contracts/votingInBlockchain.sol\":3153:3175  choice=vStatus.ongoing */\n      0x0100\n      exp\n      dup2\n      sload\n      dup2\n      0xff\n      mul\n      not\n      and\n      swap1\n      dup4\n      0x02\n      dup2\n      gt\n      iszero\n      tag_87\n      jumpi\n      tag_88\n      tag_89\n      jump\t// in\n    tag_88:\n    tag_87:\n      mul\n      or\n      swap1\n      sstore\n      pop\n        /* \"contracts/votingInBlockchain.sol\":3182:3199  status=\"On Going\" */\n      mload(0x40)\n      dup1\n      0x40\n      add\n      0x40\n      mstore\n      dup1\n      0x08\n      dup2\n      mstore\n      0x20\n      add\n      0x4f6e20476f696e67000000000000000000000000000000000000000000000000\n      dup2\n      mstore\n      pop\n        /* \"contracts/votingInBlockchain.sol\":3182:3188  status */\n      0x03\n        /* \"contracts/votingInBlockchain.sol\":3182:3199  status=\"On Going\" */\n      swap1\n      dup2\n      tag_90\n      swap2\n      swap1\n      tag_91\n      jump\t// in\n    tag_90:\n      pop\n        /* \"contracts/votingInBlockchain.sol\":3019:3203  function startVoting()public {... */\n      jump\t// out\n        /* \"contracts/votingInBlockchain.sol\":3571:4380  function CastVote(uint _id,address _candidateAddress)  public{... */\n    tag_36:\n        /* \"contracts/votingInBlockchain.sol\":3668:3672  true */\n      0x01\n        /* \"contracts/votingInBlockchain.sol\":3644:3672  checkVoter(msg.sender)==true */\n      iszero\n      iszero\n        /* \"contracts/votingInBlockchain.sol\":3644:3666  checkVoter(msg.sender) */\n      tag_93\n        /* \"contracts/votingInBlockchain.sol\":3655:3665  msg.sender */\n      caller\n        /* \"contracts/votingInBlockchain.sol\":3644:3654  checkVoter */\n      tag_94\n        /* \"contracts/votingInBlockchain.sol\":3644:3666  checkVoter(msg.sender) */\n      jump\t// in\n    tag_93:\n        /* \"contracts/votingInBlockchain.sol\":3644:3672  checkVoter(msg.sender)==true */\n      iszero\n      iszero\n      eq\n        /* \"contracts/votingInBlockchain.sol\":3636:3696  require(checkVoter(msg.sender)==true,\"voter does not exist\") */\n      tag_95\n      jumpi\n      mload(0x40)\n      0x08c379a000000000000000000000000000000000000000000000000000000000\n      dup2\n      mstore\n      0x04\n      add\n      tag_96\n      swap1\n      tag_97\n      jump\t// in\n    tag_96:\n      mload(0x40)\n      dup1\n      swap2\n      sub\n      swap1\n      revert\n    tag_95:\n        /* \"contracts/votingInBlockchain.sol\":3737:3742  false */\n      0x00\n        /* \"contracts/votingInBlockchain.sol\":3708:3742  VoterList[msg.sender].voted==false */\n      iszero\n      iszero\n        /* \"contracts/votingInBlockchain.sol\":3708:3717  VoterList */\n      0x0a\n        /* \"contracts/votingInBlockchain.sol\":3708:3729  VoterList[msg.sender] */\n      0x00\n        /* \"contracts/votingInBlockchain.sol\":3718:3728  msg.sender */\n      caller\n        /* \"contracts/votingInBlockchain.sol\":3708:3729  VoterList[msg.sender] */\n      0xffffffffffffffffffffffffffffffffffffffff\n      and\n      0xffffffffffffffffffffffffffffffffffffffff\n      and\n      dup2\n      mstore\n      0x20\n      add\n      swap1\n      dup2\n      mstore\n      0x20\n      add\n      0x00\n      keccak256\n        /* \"contracts/votingInBlockchain.sol\":3708:3735  VoterList[msg.sender].voted */\n      0x00\n      add\n      0x15\n      swap1\n      sload\n      swap1\n      0x0100\n      exp\n      swap1\n      div\n      0xff\n      and\n        /* \"contracts/votingInBlockchain.sol\":3708:3742  VoterList[msg.sender].voted==false */\n      iszero\n      iszero\n      eq\n        /* \"contracts/votingInBlockchain.sol\":3708:3783  VoterList[msg.sender].voted==false||VoterList[msg.sender].transferedVote!=0 */\n      dup1\n      tag_98\n      jumpi\n      pop\n        /* \"contracts/votingInBlockchain.sol\":3782:3783  0 */\n      0x00\n        /* \"contracts/votingInBlockchain.sol\":3744:3753  VoterList */\n      0x0a\n        /* \"contracts/votingInBlockchain.sol\":3744:3765  VoterList[msg.sender] */\n      0x00\n        /* \"contracts/votingInBlockchain.sol\":3754:3764  msg.sender */\n      caller\n        /* \"contracts/votingInBlockchain.sol\":3744:3765  VoterList[msg.sender] */\n      0xffffffffffffffffffffffffffffffffffffffff\n      and\n      0xffffffffffffffffffffffffffffffffffffffff\n      and\n      dup2\n      mstore\n      0x20\n      add\n      swap1\n      dup2\n      mstore\n      0x20\n      add\n      0x00\n      keccak256\n        /* \"contracts/votingInBlockchain.sol\":3744:3780  VoterList[msg.sender].transferedVote */\n      0x01\n      add\n      sload\n        /* \"contracts/votingInBlockchain.sol\":3744:3783  VoterList[msg.sender].transferedVote!=0 */\n      eq\n      iszero\n        /* \"contracts/votingInBlockchain.sol\":3708:3783  VoterList[msg.sender].voted==false||VoterList[msg.sender].transferedVote!=0 */\n    tag_98:\n        /* \"contracts/votingInBlockchain.sol\":3700:3800  require(VoterList[msg.sender].voted==false||VoterList[msg.sender].transferedVote!=0,\"already voted\") */\n      tag_99\n      jumpi\n      mload(0x40)\n      0x08c379a000000000000000000000000000000000000000000000000000000000\n      dup2\n      mstore\n      0x04\n      add\n      tag_100\n      swap1\n      tag_101\n      jump\t// in\n    tag_100:\n      mload(0x40)\n      dup1\n      swap2\n      sub\n      swap1\n      revert\n    tag_99:\n        /* \"contracts/votingInBlockchain.sol\":3827:3831  true */\n      0x01\n        /* \"contracts/votingInBlockchain.sol\":3812:3831  votingStarted==true */\n      iszero\n      iszero\n        /* \"contracts/votingInBlockchain.sol\":3812:3825  votingStarted */\n      0x00\n      0x14\n      swap1\n      sload\n      swap1\n      0x0100\n      exp\n      swap1\n      div\n      0xff\n      and\n        /* \"contracts/votingInBlockchain.sol\":3812:3831  votingStarted==true */\n      iszero\n      iszero\n      eq\n        /* \"contracts/votingInBlockchain.sol\":3804:3853  require(votingStarted==true,\"voting not started\") */\n      tag_102\n      jumpi\n      mload(0x40)\n      0x08c379a000000000000000000000000000000000000000000000000000000000\n      dup2\n      mstore\n      0x04\n      add\n      tag_103\n      swap1\n      tag_104\n      jump\t// in\n    tag_103:\n      mload(0x40)\n      dup1\n      swap2\n      sub\n      swap1\n      revert\n    tag_102:\n        /* \"contracts/votingInBlockchain.sol\":3857:3865  uint VId */\n      0x00\n        /* \"contracts/votingInBlockchain.sol\":3867:3876  VoterList */\n      0x0a\n        /* \"contracts/votingInBlockchain.sol\":3867:3888  VoterList[msg.sender] */\n      0x00\n        /* \"contracts/votingInBlockchain.sol\":3877:3887  msg.sender */\n      caller\n        /* \"contracts/votingInBlockchain.sol\":3867:3888  VoterList[msg.sender] */\n      0xffffffffffffffffffffffffffffffffffffffff\n      and\n      0xffffffffffffffffffffffffffffffffffffffff\n      and\n      dup2\n      mstore\n      0x20\n      add\n      swap1\n      dup2\n      mstore\n      0x20\n      add\n      0x00\n      keccak256\n        /* \"contracts/votingInBlockchain.sol\":3867:3891  VoterList[msg.sender].id */\n      0x02\n      add\n      sload\n        /* \"contracts/votingInBlockchain.sol\":3857:3891  uint VId= VoterList[msg.sender].id */\n      swap1\n      pop\n        /* \"contracts/votingInBlockchain.sol\":3895:3908  CandidateList */\n      0x08\n        /* \"contracts/votingInBlockchain.sol\":3895:3927  CandidateList[_candidateAddress] */\n      0x00\n        /* \"contracts/votingInBlockchain.sol\":3909:3926  _candidateAddress */\n      dup4\n        /* \"contracts/votingInBlockchain.sol\":3895:3927  CandidateList[_candidateAddress] */\n      0xffffffffffffffffffffffffffffffffffffffff\n      and\n      0xffffffffffffffffffffffffffffffffffffffff\n      and\n      dup2\n      mstore\n      0x20\n      add\n      swap1\n      dup2\n      mstore\n      0x20\n      add\n      0x00\n      keccak256\n        /* \"contracts/votingInBlockchain.sol\":3895:3933  CandidateList[_candidateAddress].votes */\n      0x04\n      add\n      0x00\n        /* \"contracts/votingInBlockchain.sol\":3895:3935  CandidateList[_candidateAddress].votes++ */\n      dup2\n      sload\n      dup1\n      swap3\n      swap2\n      swap1\n      tag_105\n      swap1\n      tag_106\n      jump\t// in\n    tag_105:\n      swap2\n      swap1\n      pop\n      sstore\n      pop\n        /* \"contracts/votingInBlockchain.sol\":3963:3976  CandidateList */\n      0x08\n        /* \"contracts/votingInBlockchain.sol\":3963:3995  CandidateList[_candidateAddress] */\n      0x00\n        /* \"contracts/votingInBlockchain.sol\":3977:3994  _candidateAddress */\n      dup4\n        /* \"contracts/votingInBlockchain.sol\":3963:3995  CandidateList[_candidateAddress] */\n      0xffffffffffffffffffffffffffffffffffffffff\n      and\n      0xffffffffffffffffffffffffffffffffffffffff\n      and\n      dup2\n      mstore\n      0x20\n      add\n      swap1\n      dup2\n      mstore\n      0x20\n      add\n      0x00\n      keccak256\n        /* \"contracts/votingInBlockchain.sol\":3939:3956  displayCandidates */\n      0x09\n        /* \"contracts/votingInBlockchain.sol\":3957:3960  _id */\n      dup5\n        /* \"contracts/votingInBlockchain.sol\":3939:3961  displayCandidates[_id] */\n      dup2\n      sload\n      dup2\n      lt\n      tag_107\n      jumpi\n      tag_108\n      tag_109\n      jump\t// in\n    tag_108:\n    tag_107:\n      swap1\n      0x00\n      mstore\n      keccak256(0x00, 0x20)\n      swap1\n      0x05\n      mul\n      add\n        /* \"contracts/votingInBlockchain.sol\":3939:3995  displayCandidates[_id]= CandidateList[_candidateAddress] */\n      0x00\n      dup3\n      add\n      0x00\n      swap1\n      sload\n      swap1\n      0x0100\n      exp\n      swap1\n      div\n      0xffffffffffffffffffffffffffffffffffffffff\n      and\n      dup2\n      0x00\n      add\n      exp(0x0100, 0x00)\n      dup2\n      sload\n      dup2\n      0xffffffffffffffffffffffffffffffffffffffff\n      mul\n      not\n      and\n      swap1\n      dup4\n      0xffffffffffffffffffffffffffffffffffffffff\n      and\n      mul\n      or\n      swap1\n      sstore\n      pop\n      0x01\n      dup3\n      add\n      dup2\n      0x01\n      add\n      swap1\n      dup2\n      tag_111\n      swap2\n      swap1\n      tag_112\n      jump\t// in\n    tag_111:\n      pop\n      0x02\n      dup3\n      add\n      dup2\n      0x02\n      add\n      swap1\n      dup2\n      tag_113\n      swap2\n      swap1\n      tag_112\n      jump\t// in\n    tag_113:\n      pop\n      0x03\n      dup3\n      add\n      0x00\n      swap1\n      sload\n      swap1\n      0x0100\n      exp\n      swap1\n      div\n      0xff\n      and\n      dup2\n      0x03\n      add\n      exp(0x0100, 0x00)\n      dup2\n      sload\n      dup2\n      0xff\n      mul\n      not\n      and\n      swap1\n      dup4\n      iszero\n      iszero\n      mul\n      or\n      swap1\n      sstore\n      pop\n      0x04\n      dup3\n      add\n      sload\n      dup2\n      0x04\n      add\n      sstore\n      swap1\n      pop\n      pop\n        /* \"contracts/votingInBlockchain.sol\":3999:4009  totalVoter */\n      0x04\n      0x00\n        /* \"contracts/votingInBlockchain.sol\":3999:4011  totalVoter++ */\n      dup2\n      sload\n      dup1\n      swap3\n      swap2\n      swap1\n      tag_114\n      swap1\n      tag_106\n      jump\t// in\n    tag_114:\n      swap2\n      swap1\n      pop\n      sstore\n      pop\n        /* \"contracts/votingInBlockchain.sol\":4030:4047  displayCandidates */\n      0x09\n        /* \"contracts/votingInBlockchain.sol\":4048:4051  _id */\n      dup4\n        /* \"contracts/votingInBlockchain.sol\":4030:4052  displayCandidates[_id] */\n      dup2\n      sload\n      dup2\n      lt\n      tag_115\n      jumpi\n      tag_116\n      tag_109\n      jump\t// in\n    tag_116:\n    tag_115:\n      swap1\n      0x00\n      mstore\n      keccak256(0x00, 0x20)\n      swap1\n      0x05\n      mul\n      add\n        /* \"contracts/votingInBlockchain.sol\":4030:4058  displayCandidates[_id].votes */\n      0x04\n      add\n      sload\n        /* \"contracts/votingInBlockchain.sol\":4018:4029  highestVote */\n      sload(0x06)\n        /* \"contracts/votingInBlockchain.sol\":4018:4058  highestVote<displayCandidates[_id].votes */\n      lt\n        /* \"contracts/votingInBlockchain.sol\":4015:4152  if(highestVote<displayCandidates[_id].votes){... */\n      iszero\n      tag_118\n      jumpi\n        /* \"contracts/votingInBlockchain.sol\":4078:4095  displayCandidates */\n      0x09\n        /* \"contracts/votingInBlockchain.sol\":4096:4099  _id */\n      dup4\n        /* \"contracts/votingInBlockchain.sol\":4078:4100  displayCandidates[_id] */\n      dup2\n      sload\n      dup2\n      lt\n      tag_119\n      jumpi\n      tag_120\n      tag_109\n      jump\t// in\n    tag_120:\n    tag_119:\n      swap1\n      0x00\n      mstore\n      keccak256(0x00, 0x20)\n      swap1\n      0x05\n      mul\n      add\n        /* \"contracts/votingInBlockchain.sol\":4078:4106  displayCandidates[_id].votes */\n      0x04\n      add\n      sload\n        /* \"contracts/votingInBlockchain.sol\":4066:4077  highestVote */\n      0x06\n        /* \"contracts/votingInBlockchain.sol\":4066:4106  highestVote=displayCandidates[_id].votes */\n      dup2\n      swap1\n      sstore\n      pop\n        /* \"contracts/votingInBlockchain.sol\":4120:4137  displayCandidates */\n      0x09\n        /* \"contracts/votingInBlockchain.sol\":4138:4141  _id */\n      dup4\n        /* \"contracts/votingInBlockchain.sol\":4120:4142  displayCandidates[_id] */\n      dup2\n      sload\n      dup2\n      lt\n      tag_122\n      jumpi\n      tag_123\n      tag_109\n      jump\t// in\n    tag_123:\n    tag_122:\n      swap1\n      0x00\n      mstore\n      keccak256(0x00, 0x20)\n      swap1\n      0x05\n      mul\n      add\n        /* \"contracts/votingInBlockchain.sol\":4120:4147  displayCandidates[_id].name */\n      0x01\n      add\n        /* \"contracts/votingInBlockchain.sol\":4113:4119  winner */\n      0x05\n        /* \"contracts/votingInBlockchain.sol\":4113:4147  winner=displayCandidates[_id].name */\n      swap1\n      dup2\n      tag_125\n      swap2\n      swap1\n      tag_126\n      jump\t// in\n    tag_125:\n      pop\n        /* \"contracts/votingInBlockchain.sol\":4015:4152  if(highestVote<displayCandidates[_id].votes){... */\n    tag_118:\n        /* \"contracts/votingInBlockchain.sol\":4196:4197  0 */\n      0x00\n        /* \"contracts/votingInBlockchain.sol\":4158:4167  VoterList */\n      0x0a\n        /* \"contracts/votingInBlockchain.sol\":4158:4179  VoterList[msg.sender] */\n      0x00\n        /* \"contracts/votingInBlockchain.sol\":4168:4178  msg.sender */\n      caller\n        /* \"contracts/votingInBlockchain.sol\":4158:4179  VoterList[msg.sender] */\n      0xffffffffffffffffffffffffffffffffffffffff\n      and\n      0xffffffffffffffffffffffffffffffffffffffff\n      and\n      dup2\n      mstore\n      0x20\n      add\n      swap1\n      dup2\n      mstore\n      0x20\n      add\n      0x00\n      keccak256\n        /* \"contracts/votingInBlockchain.sol\":4158:4194  VoterList[msg.sender].transferedVote */\n      0x01\n      add\n      sload\n        /* \"contracts/votingInBlockchain.sol\":4158:4197  VoterList[msg.sender].transferedVote!=0 */\n      eq\n        /* \"contracts/votingInBlockchain.sol\":4155:4377  if(VoterList[msg.sender].transferedVote!=0){... */\n      tag_127\n      jumpi\n        /* \"contracts/votingInBlockchain.sol\":4205:4214  VoterList */\n      0x0a\n        /* \"contracts/votingInBlockchain.sol\":4205:4226  VoterList[msg.sender] */\n      0x00\n        /* \"contracts/votingInBlockchain.sol\":4215:4225  msg.sender */\n      caller\n        /* \"contracts/votingInBlockchain.sol\":4205:4226  VoterList[msg.sender] */\n      0xffffffffffffffffffffffffffffffffffffffff\n      and\n      0xffffffffffffffffffffffffffffffffffffffff\n      and\n      dup2\n      mstore\n      0x20\n      add\n      swap1\n      dup2\n      mstore\n      0x20\n      add\n      0x00\n      keccak256\n        /* \"contracts/votingInBlockchain.sol\":4205:4241  VoterList[msg.sender].transferedVote */\n      0x01\n      add\n      0x00\n        /* \"contracts/votingInBlockchain.sol\":4205:4243  VoterList[msg.sender].transferedVote-- */\n      dup2\n      sload\n      dup1\n      swap3\n      swap2\n      swap1\n      tag_128\n      swap1\n      tag_129\n      jump\t// in\n    tag_128:\n      swap2\n      swap1\n      pop\n      sstore\n      pop\n        /* \"contracts/votingInBlockchain.sol\":4250:4262  displayVoter */\n      0x0b\n        /* \"contracts/votingInBlockchain.sol\":4263:4266  VId */\n      dup2\n        /* \"contracts/votingInBlockchain.sol\":4250:4267  displayVoter[VId] */\n      dup2\n      sload\n      dup2\n      lt\n      tag_130\n      jumpi\n      tag_131\n      tag_109\n      jump\t// in\n    tag_131:\n    tag_130:\n      swap1\n      0x00\n      mstore\n      keccak256(0x00, 0x20)\n      swap1\n      0x04\n      mul\n      add\n        /* \"contracts/votingInBlockchain.sol\":4250:4282  displayVoter[VId].transferedVote */\n      0x01\n      add\n      0x00\n        /* \"contracts/votingInBlockchain.sol\":4250:4284  displayVoter[VId].transferedVote-- */\n      dup2\n      sload\n      dup1\n      swap3\n      swap2\n      swap1\n      tag_133\n      swap1\n      tag_129\n      jump\t// in\n    tag_133:\n      swap2\n      swap1\n      pop\n      sstore\n      pop\n        /* \"contracts/votingInBlockchain.sol\":4155:4377  if(VoterList[msg.sender].transferedVote!=0){... */\n      jump(tag_134)\n    tag_127:\n        /* \"contracts/votingInBlockchain.sol\":4332:4336  true */\n      0x01\n        /* \"contracts/votingInBlockchain.sol\":4304:4313  VoterList */\n      0x0a\n        /* \"contracts/votingInBlockchain.sol\":4304:4325  VoterList[msg.sender] */\n      0x00\n        /* \"contracts/votingInBlockchain.sol\":4314:4324  msg.sender */\n      caller\n        /* \"contracts/votingInBlockchain.sol\":4304:4325  VoterList[msg.sender] */\n      0xffffffffffffffffffffffffffffffffffffffff\n      and\n      0xffffffffffffffffffffffffffffffffffffffff\n      and\n      dup2\n      mstore\n      0x20\n      add\n      swap1\n      dup2\n      mstore\n      0x20\n      add\n      0x00\n      keccak256\n        /* \"contracts/votingInBlockchain.sol\":4304:4331  VoterList[msg.sender].voted */\n      0x00\n      add\n      0x15\n        /* \"contracts/votingInBlockchain.sol\":4304:4336  VoterList[msg.sender].voted=true */\n      0x0100\n      exp\n      dup2\n      sload\n      dup2\n      0xff\n      mul\n      not\n      and\n      swap1\n      dup4\n      iszero\n      iszero\n      mul\n      or\n      swap1\n      sstore\n      pop\n        /* \"contracts/votingInBlockchain.sol\":4368:4372  true */\n      0x01\n        /* \"contracts/votingInBlockchain.sol\":4344:4356  displayVoter */\n      0x0b\n        /* \"contracts/votingInBlockchain.sol\":4357:4360  VId */\n      dup3\n        /* \"contracts/votingInBlockchain.sol\":4344:4361  displayVoter[VId] */\n      dup2\n      sload\n      dup2\n      lt\n      tag_135\n      jumpi\n      tag_136\n      tag_109\n      jump\t// in\n    tag_136:\n    tag_135:\n      swap1\n      0x00\n      mstore\n      keccak256(0x00, 0x20)\n      swap1\n      0x04\n      mul\n      add\n        /* \"contracts/votingInBlockchain.sol\":4344:4367  displayVoter[VId].voted */\n      0x00\n      add\n      0x15\n        /* \"contracts/votingInBlockchain.sol\":4344:4372  displayVoter[VId].voted=true */\n      0x0100\n      exp\n      dup2\n      sload\n      dup2\n      0xff\n      mul\n      not\n      and\n      swap1\n      dup4\n      iszero\n      iszero\n      mul\n      or\n      swap1\n      sstore\n      pop\n        /* \"contracts/votingInBlockchain.sol\":4155:4377  if(VoterList[msg.sender].transferedVote!=0){... */\n    tag_134:\n        /* \"contracts/votingInBlockchain.sol\":3632:4380  {... */\n      pop\n        /* \"contracts/votingInBlockchain.sol\":3571:4380  function CastVote(uint _id,address _candidateAddress)  public{... */\n      pop\n      pop\n      jump\t// out\n        /* \"contracts/votingInBlockchain.sol\":1996:2095  function allCandidates()view public returns (candidates[]memory){... */\n    tag_38:\n        /* \"contracts/votingInBlockchain.sol\":2041:2059  candidates[]memory */\n      0x60\n        /* \"contracts/votingInBlockchain.sol\":2074:2091  displayCandidates */\n      0x09\n        /* \"contracts/votingInBlockchain.sol\":2067:2091  return displayCandidates */\n      dup1\n      sload\n      dup1\n      0x20\n      mul\n      0x20\n      add\n      mload(0x40)\n      swap1\n      dup2\n      add\n      0x40\n      mstore\n      dup1\n      swap3\n      swap2\n      swap1\n      dup2\n      dup2\n      mstore\n      0x20\n      add\n      0x00\n      swap1\n    tag_139:\n      dup3\n      dup3\n      lt\n      iszero\n      tag_140\n      jumpi\n      dup4\n      dup3\n      swap1\n      0x00\n      mstore\n      keccak256(0x00, 0x20)\n      swap1\n      0x05\n      mul\n      add\n      mload(0x40)\n      dup1\n      0xa0\n      add\n      0x40\n      mstore\n      swap1\n      dup2\n      0x00\n      dup3\n      add\n      0x00\n      swap1\n      sload\n      swap1\n      0x0100\n      exp\n      swap1\n      div\n      0xffffffffffffffffffffffffffffffffffffffff\n      and\n      0xffffffffffffffffffffffffffffffffffffffff\n      and\n      0xffffffffffffffffffffffffffffffffffffffff\n      and\n      dup2\n      mstore\n      0x20\n      add\n      0x01\n      dup3\n      add\n      dup1\n      sload\n      tag_142\n      swap1\n      tag_62\n      jump\t// in\n    tag_142:\n      dup1\n      0x1f\n      add\n      0x20\n      dup1\n      swap2\n      div\n      mul\n      0x20\n      add\n      mload(0x40)\n      swap1\n      dup2\n      add\n      0x40\n      mstore\n      dup1\n      swap3\n      swap2\n      swap1\n      dup2\n      dup2\n      mstore\n      0x20\n      add\n      dup3\n      dup1\n      sload\n      tag_143\n      swap1\n      tag_62\n      jump\t// in\n    tag_143:\n      dup1\n      iszero\n      tag_144\n      jumpi\n      dup1\n      0x1f\n      lt\n      tag_145\n      jumpi\n      0x0100\n      dup1\n      dup4\n      sload\n      div\n      mul\n      dup4\n      mstore\n      swap2\n      0x20\n      add\n      swap2\n      jump(tag_144)\n    tag_145:\n      dup3\n      add\n      swap2\n      swap1\n      0x00\n      mstore\n      keccak256(0x00, 0x20)\n      swap1\n    tag_146:\n      dup2\n      sload\n      dup2\n      mstore\n      swap1\n      0x01\n      add\n      swap1\n      0x20\n      add\n      dup1\n      dup4\n      gt\n      tag_146\n      jumpi\n      dup3\n      swap1\n      sub\n      0x1f\n      and\n      dup3\n      add\n      swap2\n    tag_144:\n      pop\n      pop\n      pop\n      pop\n      pop\n      dup2\n      mstore\n      0x20\n      add\n      0x02\n      dup3\n      add\n      dup1\n      sload\n      tag_147\n      swap1\n      tag_62\n      jump\t// in\n    tag_147:\n      dup1\n      0x1f\n      add\n      0x20\n      dup1\n      swap2\n      div\n      mul\n      0x20\n      add\n      mload(0x40)\n      swap1\n      dup2\n      add\n      0x40\n      mstore\n      dup1\n      swap3\n      swap2\n      swap1\n      dup2\n      dup2\n      mstore\n      0x20\n      add\n      dup3\n      dup1\n      sload\n      tag_148\n      swap1\n      tag_62\n      jump\t// in\n    tag_148:\n      dup1\n      iszero\n      tag_149\n      jumpi\n      dup1\n      0x1f\n      lt\n      tag_150\n      jumpi\n      0x0100\n      dup1\n      dup4\n      sload\n      div\n      mul\n      dup4\n      mstore\n      swap2\n      0x20\n      add\n      swap2\n      jump(tag_149)\n    tag_150:\n      dup3\n      add\n      swap2\n      swap1\n      0x00\n      mstore\n      keccak256(0x00, 0x20)\n      swap1\n    tag_151:\n      dup2\n      sload\n      dup2\n      mstore\n      swap1\n      0x01\n      add\n      swap1\n      0x20\n      add\n      dup1\n      dup4\n      gt\n      tag_151\n      jumpi\n      dup3\n      swap1\n      sub\n      0x1f\n      and\n      dup3\n      add\n      swap2\n    tag_149:\n      pop\n      pop\n      pop\n      pop\n      pop\n      dup2\n      mstore\n      0x20\n      add\n      0x03\n      dup3\n      add\n      0x00\n      swap1\n      sload\n      swap1\n      0x0100\n      exp\n      swap1\n      div\n      0xff\n      and\n      iszero\n      iszero\n      iszero\n      iszero\n      dup2\n      mstore\n      0x20\n      add\n      0x04\n      dup3\n      add\n      sload\n      dup2\n      mstore\n      pop\n      pop\n      dup2\n      mstore\n      0x20\n      add\n      swap1\n      0x01\n      add\n      swap1\n      jump(tag_139)\n    tag_140:\n      pop\n      pop\n      pop\n      pop\n      swap1\n      pop\n        /* \"contracts/votingInBlockchain.sol\":1996:2095  function allCandidates()view public returns (candidates[]memory){... */\n      swap1\n      jump\t// out\n        /* \"contracts/votingInBlockchain.sol\":5086:6378  function delegateVote( address _delegate)   public  {... */\n    tag_43:\n        /* \"contracts/votingInBlockchain.sol\":5145:5159  uint _senderID */\n      0x00\n        /* \"contracts/votingInBlockchain.sol\":5160:5169  VoterList */\n      0x0a\n        /* \"contracts/votingInBlockchain.sol\":5160:5181  VoterList[msg.sender] */\n      0x00\n        /* \"contracts/votingInBlockchain.sol\":5170:5180  msg.sender */\n      caller\n        /* \"contracts/votingInBlockchain.sol\":5160:5181  VoterList[msg.sender] */\n      0xffffffffffffffffffffffffffffffffffffffff\n      and\n      0xffffffffffffffffffffffffffffffffffffffff\n      and\n      dup2\n      mstore\n      0x20\n      add\n      swap1\n      dup2\n      mstore\n      0x20\n      add\n      0x00\n      keccak256\n        /* \"contracts/votingInBlockchain.sol\":5160:5184  VoterList[msg.sender].id */\n      0x02\n      add\n      sload\n        /* \"contracts/votingInBlockchain.sol\":5145:5184  uint _senderID=VoterList[msg.sender].id */\n      swap1\n      pop\n        /* \"contracts/votingInBlockchain.sol\":5191:5207  uint _receiverID */\n      0x00\n        /* \"contracts/votingInBlockchain.sol\":5208:5217  VoterList */\n      0x0a\n        /* \"contracts/votingInBlockchain.sol\":5208:5228  VoterList[_delegate] */\n      0x00\n        /* \"contracts/votingInBlockchain.sol\":5218:5227  _delegate */\n      dup5\n        /* \"contracts/votingInBlockchain.sol\":5208:5228  VoterList[_delegate] */\n      0xffffffffffffffffffffffffffffffffffffffff\n      and\n      0xffffffffffffffffffffffffffffffffffffffff\n      and\n      dup2\n      mstore\n      0x20\n      add\n      swap1\n      dup2\n      mstore\n      0x20\n      add\n      0x00\n      keccak256\n        /* \"contracts/votingInBlockchain.sol\":5208:5231  VoterList[_delegate].id */\n      0x02\n      add\n      sload\n        /* \"contracts/votingInBlockchain.sol\":5191:5231  uint _receiverID=VoterList[_delegate].id */\n      swap1\n      pop\n        /* \"contracts/votingInBlockchain.sol\":5254:5269  vStatus.ongoing */\n      0x01\n        /* \"contracts/votingInBlockchain.sol\":5246:5269  choice==vStatus.ongoing */\n      0x02\n      dup2\n      gt\n      iszero\n      tag_153\n      jumpi\n      tag_154\n      tag_89\n      jump\t// in\n    tag_154:\n    tag_153:\n        /* \"contracts/votingInBlockchain.sol\":5246:5252  choice */\n      0x07\n      0x00\n      swap1\n      sload\n      swap1\n      0x0100\n      exp\n      swap1\n      div\n      0xff\n      and\n        /* \"contracts/votingInBlockchain.sol\":5246:5269  choice==vStatus.ongoing */\n      0x02\n      dup2\n      gt\n      iszero\n      tag_155\n      jumpi\n      tag_156\n      tag_89\n      jump\t// in\n    tag_156:\n    tag_155:\n      eq\n        /* \"contracts/votingInBlockchain.sol\":5238:5312  require(choice==vStatus.ongoing,\"voting must be ongoing to delegate vote\") */\n      tag_157\n      jumpi\n      mload(0x40)\n      0x08c379a000000000000000000000000000000000000000000000000000000000\n      dup2\n      mstore\n      0x04\n      add\n      tag_158\n      swap1\n      tag_159\n      jump\t// in\n    tag_158:\n      mload(0x40)\n      dup1\n      swap2\n      sub\n      swap1\n      revert\n    tag_157:\n        /* \"contracts/votingInBlockchain.sol\":5365:5375  msg.sender */\n      caller\n        /* \"contracts/votingInBlockchain.sol\":5327:5375  displayVoter[_senderID].voterAddress==msg.sender */\n      0xffffffffffffffffffffffffffffffffffffffff\n      and\n        /* \"contracts/votingInBlockchain.sol\":5327:5339  displayVoter */\n      0x0b\n        /* \"contracts/votingInBlockchain.sol\":5340:5349  _senderID */\n      dup4\n        /* \"contracts/votingInBlockchain.sol\":5327:5350  displayVoter[_senderID] */\n      dup2\n      sload\n      dup2\n      lt\n      tag_160\n      jumpi\n      tag_161\n      tag_109\n      jump\t// in\n    tag_161:\n    tag_160:\n      swap1\n      0x00\n      mstore\n      keccak256(0x00, 0x20)\n      swap1\n      0x04\n      mul\n      add\n        /* \"contracts/votingInBlockchain.sol\":5327:5363  displayVoter[_senderID].voterAddress */\n      0x00\n      add\n      0x00\n      swap1\n      sload\n      swap1\n      0x0100\n      exp\n      swap1\n      div\n      0xffffffffffffffffffffffffffffffffffffffff\n      and\n        /* \"contracts/votingInBlockchain.sol\":5327:5375  displayVoter[_senderID].voterAddress==msg.sender */\n      0xffffffffffffffffffffffffffffffffffffffff\n      and\n      eq\n        /* \"contracts/votingInBlockchain.sol\":5319:5376  require(displayVoter[_senderID].voterAddress==msg.sender) */\n      tag_163\n      jumpi\n      0x00\n      dup1\n      revert\n    tag_163:\n        /* \"contracts/votingInBlockchain.sol\":5420:5425  false */\n      0x00\n        /* \"contracts/votingInBlockchain.sol\":5391:5425  VoterList[msg.sender].voted==false */\n      iszero\n      iszero\n        /* \"contracts/votingInBlockchain.sol\":5391:5400  VoterList */\n      0x0a\n        /* \"contracts/votingInBlockchain.sol\":5391:5412  VoterList[msg.sender] */\n      0x00\n        /* \"contracts/votingInBlockchain.sol\":5401:5411  msg.sender */\n      caller\n        /* \"contracts/votingInBlockchain.sol\":5391:5412  VoterList[msg.sender] */\n      0xffffffffffffffffffffffffffffffffffffffff\n      and\n      0xffffffffffffffffffffffffffffffffffffffff\n      and\n      dup2\n      mstore\n      0x20\n      add\n      swap1\n      dup2\n      mstore\n      0x20\n      add\n      0x00\n      keccak256\n        /* \"contracts/votingInBlockchain.sol\":5391:5418  VoterList[msg.sender].voted */\n      0x00\n      add\n      0x15\n      swap1\n      sload\n      swap1\n      0x0100\n      exp\n      swap1\n      div\n      0xff\n      and\n        /* \"contracts/votingInBlockchain.sol\":5391:5425  VoterList[msg.sender].voted==false */\n      iszero\n      iszero\n      eq\n        /* \"contracts/votingInBlockchain.sol\":5391:5466  VoterList[msg.sender].voted==false||VoterList[msg.sender].transferedVote!=0 */\n      dup1\n      tag_164\n      jumpi\n      pop\n        /* \"contracts/votingInBlockchain.sol\":5465:5466  0 */\n      0x00\n        /* \"contracts/votingInBlockchain.sol\":5427:5436  VoterList */\n      0x0a\n        /* \"contracts/votingInBlockchain.sol\":5427:5448  VoterList[msg.sender] */\n      0x00\n        /* \"contracts/votingInBlockchain.sol\":5437:5447  msg.sender */\n      caller\n        /* \"contracts/votingInBlockchain.sol\":5427:5448  VoterList[msg.sender] */\n      0xffffffffffffffffffffffffffffffffffffffff\n      and\n      0xffffffffffffffffffffffffffffffffffffffff\n      and\n      dup2\n      mstore\n      0x20\n      add\n      swap1\n      dup2\n      mstore\n      0x20\n      add\n      0x00\n      keccak256\n        /* \"contracts/votingInBlockchain.sol\":5427:5463  VoterList[msg.sender].transferedVote */\n      0x01\n      add\n      sload\n        /* \"contracts/votingInBlockchain.sol\":5427:5466  VoterList[msg.sender].transferedVote!=0 */\n      eq\n      iszero\n        /* \"contracts/votingInBlockchain.sol\":5391:5466  VoterList[msg.sender].voted==false||VoterList[msg.sender].transferedVote!=0 */\n    tag_164:\n        /* \"contracts/votingInBlockchain.sol\":5383:5521  require(VoterList[msg.sender].voted==false||VoterList[msg.sender].transferedVote!=0,\"only those can delegate vote who have not voted yet\") */\n      tag_165\n      jumpi\n      mload(0x40)\n      0x08c379a000000000000000000000000000000000000000000000000000000000\n      dup2\n      mstore\n      0x04\n      add\n      tag_166\n      swap1\n      tag_167\n      jump\t// in\n    tag_166:\n      mload(0x40)\n      dup1\n      swap2\n      sub\n      swap1\n      revert\n    tag_165:\n        /* \"contracts/votingInBlockchain.sol\":5549:5559  msg.sender */\n      caller\n        /* \"contracts/votingInBlockchain.sol\":5536:5559  votingAdmin!=msg.sender */\n      0xffffffffffffffffffffffffffffffffffffffff\n      and\n        /* \"contracts/votingInBlockchain.sol\":5536:5547  votingAdmin */\n      0x00\n      dup1\n      sload\n      swap1\n      0x0100\n      exp\n      swap1\n      div\n      0xffffffffffffffffffffffffffffffffffffffff\n      and\n        /* \"contracts/votingInBlockchain.sol\":5536:5559  votingAdmin!=msg.sender */\n      0xffffffffffffffffffffffffffffffffffffffff\n      and\n      sub\n        /* \"contracts/votingInBlockchain.sol\":5528:5589  require(votingAdmin!=msg.sender,\"admin cannot delegate vote\") */\n      tag_168\n      jumpi\n      mload(0x40)\n      0x08c379a000000000000000000000000000000000000000000000000000000000\n      dup2\n      mstore\n      0x04\n      add\n      tag_169\n      swap1\n      tag_170\n      jump\t// in\n    tag_169:\n      mload(0x40)\n      dup1\n      swap2\n      sub\n      swap1\n      revert\n    tag_168:\n        /* \"contracts/votingInBlockchain.sol\":5616:5625  _delegate */\n      dup3\n        /* \"contracts/votingInBlockchain.sol\":5604:5625  msg.sender!=_delegate */\n      0xffffffffffffffffffffffffffffffffffffffff\n      and\n        /* \"contracts/votingInBlockchain.sol\":5604:5614  msg.sender */\n      caller\n        /* \"contracts/votingInBlockchain.sol\":5604:5625  msg.sender!=_delegate */\n      0xffffffffffffffffffffffffffffffffffffffff\n      and\n      sub\n        /* \"contracts/votingInBlockchain.sol\":5596:5657  require(msg.sender!=_delegate,\"Cannot delegate vote to self\") */\n      tag_171\n      jumpi\n      mload(0x40)\n      0x08c379a000000000000000000000000000000000000000000000000000000000\n      dup2\n      mstore\n      0x04\n      add\n      tag_172\n      swap1\n      tag_173\n      jump\t// in\n    tag_172:\n      mload(0x40)\n      dup1\n      swap2\n      sub\n      swap1\n      revert\n    tag_171:\n        /* \"contracts/votingInBlockchain.sol\":5708:5712  true */\n      0x01\n        /* \"contracts/votingInBlockchain.sol\":5672:5712  CandidateList[msg.sender].register!=true */\n      iszero\n      iszero\n        /* \"contracts/votingInBlockchain.sol\":5672:5685  CandidateList */\n      0x08\n        /* \"contracts/votingInBlockchain.sol\":5672:5697  CandidateList[msg.sender] */\n      0x00\n        /* \"contracts/votingInBlockchain.sol\":5686:5696  msg.sender */\n      caller\n        /* \"contracts/votingInBlockchain.sol\":5672:5697  CandidateList[msg.sender] */\n      0xffffffffffffffffffffffffffffffffffffffff\n      and\n      0xffffffffffffffffffffffffffffffffffffffff\n      and\n      dup2\n      mstore\n      0x20\n      add\n      swap1\n      dup2\n      mstore\n      0x20\n      add\n      0x00\n      keccak256\n        /* \"contracts/votingInBlockchain.sol\":5672:5706  CandidateList[msg.sender].register */\n      0x03\n      add\n      0x00\n      swap1\n      sload\n      swap1\n      0x0100\n      exp\n      swap1\n      div\n      0xff\n      and\n        /* \"contracts/votingInBlockchain.sol\":5672:5712  CandidateList[msg.sender].register!=true */\n      iszero\n      iszero\n      eq\n      iszero\n        /* \"contracts/votingInBlockchain.sol\":5672:5753  CandidateList[msg.sender].register!=true&&CandidateList[_delegate].register!=true */\n      dup1\n      iszero\n      tag_174\n      jumpi\n      pop\n        /* \"contracts/votingInBlockchain.sol\":5749:5753  true */\n      0x01\n        /* \"contracts/votingInBlockchain.sol\":5714:5753  CandidateList[_delegate].register!=true */\n      iszero\n      iszero\n        /* \"contracts/votingInBlockchain.sol\":5714:5727  CandidateList */\n      0x08\n        /* \"contracts/votingInBlockchain.sol\":5714:5738  CandidateList[_delegate] */\n      0x00\n        /* \"contracts/votingInBlockchain.sol\":5728:5737  _delegate */\n      dup6\n        /* \"contracts/votingInBlockchain.sol\":5714:5738  CandidateList[_delegate] */\n      0xffffffffffffffffffffffffffffffffffffffff\n      and\n      0xffffffffffffffffffffffffffffffffffffffff\n      and\n      dup2\n      mstore\n      0x20\n      add\n      swap1\n      dup2\n      mstore\n      0x20\n      add\n      0x00\n      keccak256\n        /* \"contracts/votingInBlockchain.sol\":5714:5747  CandidateList[_delegate].register */\n      0x03\n      add\n      0x00\n      swap1\n      sload\n      swap1\n      0x0100\n      exp\n      swap1\n      div\n      0xff\n      and\n        /* \"contracts/votingInBlockchain.sol\":5714:5753  CandidateList[_delegate].register!=true */\n      iszero\n      iszero\n      eq\n      iszero\n        /* \"contracts/votingInBlockchain.sol\":5672:5753  CandidateList[msg.sender].register!=true&&CandidateList[_delegate].register!=true */\n    tag_174:\n        /* \"contracts/votingInBlockchain.sol\":5664:5799  require(CandidateList[msg.sender].register!=true&&CandidateList[_delegate].register!=true,\"Candidate cannot accept and transfer votes\") */\n      tag_175\n      jumpi\n      mload(0x40)\n      0x08c379a000000000000000000000000000000000000000000000000000000000\n      dup2\n      mstore\n      0x04\n      add\n      tag_176\n      swap1\n      tag_177\n      jump\t// in\n    tag_176:\n      mload(0x40)\n      dup1\n      swap2\n      sub\n      swap1\n      revert\n    tag_175:\n        /* \"contracts/votingInBlockchain.sol\":5807:5816  VoterList */\n      0x0a\n        /* \"contracts/votingInBlockchain.sol\":5807:5827  VoterList[_delegate] */\n      0x00\n        /* \"contracts/votingInBlockchain.sol\":5817:5826  _delegate */\n      dup5\n        /* \"contracts/votingInBlockchain.sol\":5807:5827  VoterList[_delegate] */\n      0xffffffffffffffffffffffffffffffffffffffff\n      and\n      0xffffffffffffffffffffffffffffffffffffffff\n      and\n      dup2\n      mstore\n      0x20\n      add\n      swap1\n      dup2\n      mstore\n      0x20\n      add\n      0x00\n      keccak256\n        /* \"contracts/votingInBlockchain.sol\":5807:5842  VoterList[_delegate].transferedVote */\n      0x01\n      add\n      0x00\n        /* \"contracts/votingInBlockchain.sol\":5807:5844  VoterList[_delegate].transferedVote++ */\n      dup2\n      sload\n      dup1\n      swap3\n      swap2\n      swap1\n      tag_178\n      swap1\n      tag_106\n      jump\t// in\n    tag_178:\n      swap2\n      swap1\n      pop\n      sstore\n      pop\n        /* \"contracts/votingInBlockchain.sol\":5893:5894  0 */\n      0x00\n        /* \"contracts/votingInBlockchain.sol\":5855:5864  VoterList */\n      0x0a\n        /* \"contracts/votingInBlockchain.sol\":5855:5876  VoterList[msg.sender] */\n      0x00\n        /* \"contracts/votingInBlockchain.sol\":5865:5875  msg.sender */\n      caller\n        /* \"contracts/votingInBlockchain.sol\":5855:5876  VoterList[msg.sender] */\n      0xffffffffffffffffffffffffffffffffffffffff\n      and\n      0xffffffffffffffffffffffffffffffffffffffff\n      and\n      dup2\n      mstore\n      0x20\n      add\n      swap1\n      dup2\n      mstore\n      0x20\n      add\n      0x00\n      keccak256\n        /* \"contracts/votingInBlockchain.sol\":5855:5891  VoterList[msg.sender].transferedVote */\n      0x01\n      add\n      sload\n        /* \"contracts/votingInBlockchain.sol\":5855:5894  VoterList[msg.sender].transferedVote==0 */\n      sub\n        /* \"contracts/votingInBlockchain.sol\":5851:6375  if (VoterList[msg.sender].transferedVote==0){... */\n      tag_179\n      jumpi\n        /* \"contracts/votingInBlockchain.sol\":5934:5938  true */\n      0x01\n        /* \"contracts/votingInBlockchain.sol\":5906:5915  VoterList */\n      0x0a\n        /* \"contracts/votingInBlockchain.sol\":5906:5927  VoterList[msg.sender] */\n      0x00\n        /* \"contracts/votingInBlockchain.sol\":5916:5926  msg.sender */\n      caller\n        /* \"contracts/votingInBlockchain.sol\":5906:5927  VoterList[msg.sender] */\n      0xffffffffffffffffffffffffffffffffffffffff\n      and\n      0xffffffffffffffffffffffffffffffffffffffff\n      and\n      dup2\n      mstore\n      0x20\n      add\n      swap1\n      dup2\n      mstore\n      0x20\n      add\n      0x00\n      keccak256\n        /* \"contracts/votingInBlockchain.sol\":5906:5933  VoterList[msg.sender].voted */\n      0x00\n      add\n      0x15\n        /* \"contracts/votingInBlockchain.sol\":5906:5938  VoterList[msg.sender].voted=true */\n      0x0100\n      exp\n      dup2\n      sload\n      dup2\n      0xff\n      mul\n      not\n      and\n      swap1\n      dup4\n      iszero\n      iszero\n      mul\n      or\n      swap1\n      sstore\n      pop\n        /* \"contracts/votingInBlockchain.sol\":5986:5990  true */\n      0x01\n        /* \"contracts/votingInBlockchain.sol\":5949:5958  VoterList */\n      0x0a\n        /* \"contracts/votingInBlockchain.sol\":5949:5970  VoterList[msg.sender] */\n      0x00\n        /* \"contracts/votingInBlockchain.sol\":5959:5969  msg.sender */\n      caller\n        /* \"contracts/votingInBlockchain.sol\":5949:5970  VoterList[msg.sender] */\n      0xffffffffffffffffffffffffffffffffffffffff\n      and\n      0xffffffffffffffffffffffffffffffffffffffff\n      and\n      dup2\n      mstore\n      0x20\n      add\n      swap1\n      dup2\n      mstore\n      0x20\n      add\n      0x00\n      keccak256\n        /* \"contracts/votingInBlockchain.sol\":5949:5985  VoterList[msg.sender].isDelegateVote */\n      0x00\n      add\n      0x16\n        /* \"contracts/votingInBlockchain.sol\":5949:5990  VoterList[msg.sender].isDelegateVote=true */\n      0x0100\n      exp\n      dup2\n      sload\n      dup2\n      0xff\n      mul\n      not\n      and\n      swap1\n      dup4\n      iszero\n      iszero\n      mul\n      or\n      swap1\n      sstore\n      pop\n        /* \"contracts/votingInBlockchain.sol\":6031:6035  true */\n      0x01\n        /* \"contracts/votingInBlockchain.sol\":6001:6013  displayVoter */\n      0x0b\n        /* \"contracts/votingInBlockchain.sol\":6014:6023  _senderID */\n      dup4\n        /* \"contracts/votingInBlockchain.sol\":6001:6024  displayVoter[_senderID] */\n      dup2\n      sload\n      dup2\n      lt\n      tag_180\n      jumpi\n      tag_181\n      tag_109\n      jump\t// in\n    tag_181:\n    tag_180:\n      swap1\n      0x00\n      mstore\n      keccak256(0x00, 0x20)\n      swap1\n      0x04\n      mul\n      add\n        /* \"contracts/votingInBlockchain.sol\":6001:6030  displayVoter[_senderID].voted */\n      0x00\n      add\n      0x15\n        /* \"contracts/votingInBlockchain.sol\":6001:6035  displayVoter[_senderID].voted=true */\n      0x0100\n      exp\n      dup2\n      sload\n      dup2\n      0xff\n      mul\n      not\n      and\n      swap1\n      dup4\n      iszero\n      iszero\n      mul\n      or\n      swap1\n      sstore\n      pop\n        /* \"contracts/votingInBlockchain.sol\":6085:6089  true */\n      0x01\n        /* \"contracts/votingInBlockchain.sol\":6046:6058  displayVoter */\n      0x0b\n        /* \"contracts/votingInBlockchain.sol\":6059:6068  _senderID */\n      dup4\n        /* \"contracts/votingInBlockchain.sol\":6046:6069  displayVoter[_senderID] */\n      dup2\n      sload\n      dup2\n      lt\n      tag_183\n      jumpi\n      tag_184\n      tag_109\n      jump\t// in\n    tag_184:\n    tag_183:\n      swap1\n      0x00\n      mstore\n      keccak256(0x00, 0x20)\n      swap1\n      0x04\n      mul\n      add\n        /* \"contracts/votingInBlockchain.sol\":6046:6084  displayVoter[_senderID].isDelegateVote */\n      0x00\n      add\n      0x16\n        /* \"contracts/votingInBlockchain.sol\":6046:6089  displayVoter[_senderID].isDelegateVote=true */\n      0x0100\n      exp\n      dup2\n      sload\n      dup2\n      0xff\n      mul\n      not\n      and\n      swap1\n      dup4\n      iszero\n      iszero\n      mul\n      or\n      swap1\n      sstore\n      pop\n        /* \"contracts/votingInBlockchain.sol\":6100:6112  displayVoter */\n      0x0b\n        /* \"contracts/votingInBlockchain.sol\":6113:6124  _receiverID */\n      dup2\n        /* \"contracts/votingInBlockchain.sol\":6100:6125  displayVoter[_receiverID] */\n      dup2\n      sload\n      dup2\n      lt\n      tag_186\n      jumpi\n      tag_187\n      tag_109\n      jump\t// in\n    tag_187:\n    tag_186:\n      swap1\n      0x00\n      mstore\n      keccak256(0x00, 0x20)\n      swap1\n      0x04\n      mul\n      add\n        /* \"contracts/votingInBlockchain.sol\":6100:6140  displayVoter[_receiverID].transferedVote */\n      0x01\n      add\n      0x00\n        /* \"contracts/votingInBlockchain.sol\":6100:6142  displayVoter[_receiverID].transferedVote++ */\n      dup2\n      sload\n      dup1\n      swap3\n      swap2\n      swap1\n      tag_189\n      swap1\n      tag_106\n      jump\t// in\n    tag_189:\n      swap2\n      swap1\n      pop\n      sstore\n      pop\n        /* \"contracts/votingInBlockchain.sol\":5851:6375  if (VoterList[msg.sender].transferedVote==0){... */\n      jump(tag_190)\n    tag_179:\n        /* \"contracts/votingInBlockchain.sol\":6171:6180  VoterList */\n      0x0a\n        /* \"contracts/votingInBlockchain.sol\":6171:6192  VoterList[msg.sender] */\n      0x00\n        /* \"contracts/votingInBlockchain.sol\":6181:6191  msg.sender */\n      caller\n        /* \"contracts/votingInBlockchain.sol\":6171:6192  VoterList[msg.sender] */\n      0xffffffffffffffffffffffffffffffffffffffff\n      and\n      0xffffffffffffffffffffffffffffffffffffffff\n      and\n      dup2\n      mstore\n      0x20\n      add\n      swap1\n      dup2\n      mstore\n      0x20\n      add\n      0x00\n      keccak256\n        /* \"contracts/votingInBlockchain.sol\":6171:6207  VoterList[msg.sender].transferedVote */\n      0x01\n      add\n      0x00\n        /* \"contracts/votingInBlockchain.sol\":6171:6209  VoterList[msg.sender].transferedVote-- */\n      dup2\n      sload\n      dup1\n      swap3\n      swap2\n      swap1\n      tag_191\n      swap1\n      tag_129\n      jump\t// in\n    tag_191:\n      swap2\n      swap1\n      pop\n      sstore\n      pop\n        /* \"contracts/votingInBlockchain.sol\":6220:6232  displayVoter */\n      0x0b\n        /* \"contracts/votingInBlockchain.sol\":6233:6242  _senderID */\n      dup3\n        /* \"contracts/votingInBlockchain.sol\":6220:6243  displayVoter[_senderID] */\n      dup2\n      sload\n      dup2\n      lt\n      tag_192\n      jumpi\n      tag_193\n      tag_109\n      jump\t// in\n    tag_193:\n    tag_192:\n      swap1\n      0x00\n      mstore\n      keccak256(0x00, 0x20)\n      swap1\n      0x04\n      mul\n      add\n        /* \"contracts/votingInBlockchain.sol\":6220:6258  displayVoter[_senderID].transferedVote */\n      0x01\n      add\n      0x00\n        /* \"contracts/votingInBlockchain.sol\":6220:6260  displayVoter[_senderID].transferedVote-- */\n      dup2\n      sload\n      dup1\n      swap3\n      swap2\n      swap1\n      tag_195\n      swap1\n      tag_129\n      jump\t// in\n    tag_195:\n      swap2\n      swap1\n      pop\n      sstore\n      pop\n        /* \"contracts/votingInBlockchain.sol\":6271:6283  displayVoter */\n      0x0b\n        /* \"contracts/votingInBlockchain.sol\":6284:6295  _receiverID */\n      dup2\n        /* \"contracts/votingInBlockchain.sol\":6271:6296  displayVoter[_receiverID] */\n      dup2\n      sload\n      dup2\n      lt\n      tag_196\n      jumpi\n      tag_197\n      tag_109\n      jump\t// in\n    tag_197:\n    tag_196:\n      swap1\n      0x00\n      mstore\n      keccak256(0x00, 0x20)\n      swap1\n      0x04\n      mul\n      add\n        /* \"contracts/votingInBlockchain.sol\":6271:6311  displayVoter[_receiverID].transferedVote */\n      0x01\n      add\n      0x00\n        /* \"contracts/votingInBlockchain.sol\":6271:6313  displayVoter[_receiverID].transferedVote++ */\n      dup2\n      sload\n      dup1\n      swap3\n      swap2\n      swap1\n      tag_199\n      swap1\n      tag_106\n      jump\t// in\n    tag_199:\n      swap2\n      swap1\n      pop\n      sstore\n      pop\n        /* \"contracts/votingInBlockchain.sol\":6363:6367  true */\n      0x01\n        /* \"contracts/votingInBlockchain.sol\":6324:6336  displayVoter */\n      0x0b\n        /* \"contracts/votingInBlockchain.sol\":6337:6346  _senderID */\n      dup4\n        /* \"contracts/votingInBlockchain.sol\":6324:6347  displayVoter[_senderID] */\n      dup2\n      sload\n      dup2\n      lt\n      tag_200\n      jumpi\n      tag_201\n      tag_109\n      jump\t// in\n    tag_201:\n    tag_200:\n      swap1\n      0x00\n      mstore\n      keccak256(0x00, 0x20)\n      swap1\n      0x04\n      mul\n      add\n        /* \"contracts/votingInBlockchain.sol\":6324:6362  displayVoter[_senderID].isDelegateVote */\n      0x00\n      add\n      0x16\n        /* \"contracts/votingInBlockchain.sol\":6324:6367  displayVoter[_senderID].isDelegateVote=true */\n      0x0100\n      exp\n      dup2\n      sload\n      dup2\n      0xff\n      mul\n      not\n      and\n      swap1\n      dup4\n      iszero\n      iszero\n      mul\n      or\n      swap1\n      sstore\n      pop\n        /* \"contracts/votingInBlockchain.sol\":5851:6375  if (VoterList[msg.sender].transferedVote==0){... */\n    tag_190:\n        /* \"contracts/votingInBlockchain.sol\":5138:6378  {... */\n      pop\n      pop\n        /* \"contracts/votingInBlockchain.sol\":5086:6378  function delegateVote( address _delegate)   public  {... */\n      pop\n      jump\t// out\n        /* \"contracts/votingInBlockchain.sol\":3238:3411  function endVoting()public{... */\n    tag_45:\n        /* \"contracts/votingInBlockchain.sol\":3292:3302  msg.sender */\n      caller\n        /* \"contracts/votingInBlockchain.sol\":3279:3302  votingAdmin==msg.sender */\n      0xffffffffffffffffffffffffffffffffffffffff\n      and\n        /* \"contracts/votingInBlockchain.sol\":3279:3290  votingAdmin */\n      0x00\n      dup1\n      sload\n      swap1\n      0x0100\n      exp\n      swap1\n      div\n      0xffffffffffffffffffffffffffffffffffffffff\n      and\n        /* \"contracts/votingInBlockchain.sol\":3279:3302  votingAdmin==msg.sender */\n      0xffffffffffffffffffffffffffffffffffffffff\n      and\n      eq\n        /* \"contracts/votingInBlockchain.sol\":3279:3323  votingAdmin==msg.sender&&votingStarted==true */\n      dup1\n      iszero\n      tag_204\n      jumpi\n      pop\n        /* \"contracts/votingInBlockchain.sol\":3319:3323  true */\n      0x01\n        /* \"contracts/votingInBlockchain.sol\":3304:3323  votingStarted==true */\n      iszero\n      iszero\n        /* \"contracts/votingInBlockchain.sol\":3304:3317  votingStarted */\n      0x00\n      0x14\n      swap1\n      sload\n      swap1\n      0x0100\n      exp\n      swap1\n      div\n      0xff\n      and\n        /* \"contracts/votingInBlockchain.sol\":3304:3323  votingStarted==true */\n      iszero\n      iszero\n      eq\n        /* \"contracts/votingInBlockchain.sol\":3279:3323  votingAdmin==msg.sender&&votingStarted==true */\n    tag_204:\n        /* \"contracts/votingInBlockchain.sol\":3279:3335  votingAdmin==msg.sender&&votingStarted==true&&endVote==0 */\n      dup1\n      iszero\n      tag_205\n      jumpi\n      pop\n        /* \"contracts/votingInBlockchain.sol\":3334:3335  0 */\n      0x00\n        /* \"contracts/votingInBlockchain.sol\":3325:3332  endVote */\n      sload(0x02)\n        /* \"contracts/votingInBlockchain.sol\":3325:3335  endVote==0 */\n      eq\n        /* \"contracts/votingInBlockchain.sol\":3279:3335  votingAdmin==msg.sender&&votingStarted==true&&endVote==0 */\n    tag_205:\n        /* \"contracts/votingInBlockchain.sol\":3271:3336  require(votingAdmin==msg.sender&&votingStarted==true&&endVote==0) */\n      tag_206\n      jumpi\n      0x00\n      dup1\n      revert\n    tag_206:\n        /* \"contracts/votingInBlockchain.sol\":3351:3352  1 */\n      0x01\n        /* \"contracts/votingInBlockchain.sol\":3343:3350  endVote */\n      0x02\n        /* \"contracts/votingInBlockchain.sol\":3343:3352  endVote=1 */\n      dup2\n      swap1\n      sstore\n      pop\n        /* \"contracts/votingInBlockchain.sol\":3366:3379  vStatus.ended */\n      0x02\n        /* \"contracts/votingInBlockchain.sol\":3359:3365  choice */\n      0x07\n      0x00\n        /* \"contracts/votingInBlockchain.sol\":3359:3379  choice=vStatus.ended */\n      0x0100\n      exp\n      dup2\n      sload\n      dup2\n      0xff\n      mul\n      not\n      and\n      swap1\n      dup4\n      0x02\n      dup2\n      gt\n      iszero\n      tag_207\n      jumpi\n      tag_208\n      tag_89\n      jump\t// in\n    tag_208:\n    tag_207:\n      mul\n      or\n      swap1\n      sstore\n      pop\n        /* \"contracts/votingInBlockchain.sol\":3386:3407  status=\"Voting Ended\" */\n      mload(0x40)\n      dup1\n      0x40\n      add\n      0x40\n      mstore\n      dup1\n      0x0c\n      dup2\n      mstore\n      0x20\n      add\n      0x566f74696e6720456e6465640000000000000000000000000000000000000000\n      dup2\n      mstore\n      pop\n        /* \"contracts/votingInBlockchain.sol\":3386:3392  status */\n      0x03\n        /* \"contracts/votingInBlockchain.sol\":3386:3407  status=\"Voting Ended\" */\n      swap1\n      dup2\n      tag_209\n      swap2\n      swap1\n      tag_91\n      jump\t// in\n    tag_209:\n      pop\n        /* \"contracts/votingInBlockchain.sol\":3238:3411  function endVoting()public{... */\n      jump\t// out\n        /* \"contracts/votingInBlockchain.sol\":4810:5054  function winnerDeclare( ) view  public returns(string memory) {... */\n    tag_47:\n        /* \"contracts/votingInBlockchain.sol\":4857:4870  string memory */\n      0x60\n        /* \"contracts/votingInBlockchain.sol\":4899:4909  msg.sender */\n      caller\n        /* \"contracts/votingInBlockchain.sol\":4886:4909  votingAdmin==msg.sender */\n      0xffffffffffffffffffffffffffffffffffffffff\n      and\n        /* \"contracts/votingInBlockchain.sol\":4886:4897  votingAdmin */\n      0x00\n      dup1\n      sload\n      swap1\n      0x0100\n      exp\n      swap1\n      div\n      0xffffffffffffffffffffffffffffffffffffffff\n      and\n        /* \"contracts/votingInBlockchain.sol\":4886:4909  votingAdmin==msg.sender */\n      0xffffffffffffffffffffffffffffffffffffffff\n      and\n      eq\n        /* \"contracts/votingInBlockchain.sol\":4878:4942  require(votingAdmin==msg.sender,\"only admin can declare winner\") */\n      tag_211\n      jumpi\n      mload(0x40)\n      0x08c379a000000000000000000000000000000000000000000000000000000000\n      dup2\n      mstore\n      0x04\n      add\n      tag_212\n      swap1\n      tag_213\n      jump\t// in\n    tag_212:\n      mload(0x40)\n      dup1\n      swap2\n      sub\n      swap1\n      revert\n    tag_211:\n        /* \"contracts/votingInBlockchain.sol\":4964:4977  vStatus.ended */\n      0x02\n        /* \"contracts/votingInBlockchain.sol\":4956:4977  choice==vStatus.ended */\n      dup1\n      dup2\n      gt\n      iszero\n      tag_214\n      jumpi\n      tag_215\n      tag_89\n      jump\t// in\n    tag_215:\n    tag_214:\n        /* \"contracts/votingInBlockchain.sol\":4956:4962  choice */\n      0x07\n      0x00\n      swap1\n      sload\n      swap1\n      0x0100\n      exp\n      swap1\n      div\n      0xff\n      and\n        /* \"contracts/votingInBlockchain.sol\":4956:4977  choice==vStatus.ended */\n      0x02\n      dup2\n      gt\n      iszero\n      tag_216\n      jumpi\n      tag_217\n      tag_89\n      jump\t// in\n    tag_217:\n    tag_216:\n      eq\n        /* \"contracts/votingInBlockchain.sol\":4948:5031  require(choice==vStatus.ended,\"WINNER WILL ONLY BE DECLARED ONCE THE ELCTION ENDS\") */\n      tag_218\n      jumpi\n      mload(0x40)\n      0x08c379a000000000000000000000000000000000000000000000000000000000\n      dup2\n      mstore\n      0x04\n      add\n      tag_219\n      swap1\n      tag_220\n      jump\t// in\n    tag_219:\n      mload(0x40)\n      dup1\n      swap2\n      sub\n      swap1\n      revert\n    tag_218:\n        /* \"contracts/votingInBlockchain.sol\":5044:5050  winner */\n      0x05\n        /* \"contracts/votingInBlockchain.sol\":5037:5050  return winner */\n      dup1\n      sload\n      tag_221\n      swap1\n      tag_62\n      jump\t// in\n    tag_221:\n      dup1\n      0x1f\n      add\n      0x20\n      dup1\n      swap2\n      div\n      mul\n      0x20\n      add\n      mload(0x40)\n      swap1\n      dup2\n      add\n      0x40\n      mstore\n      dup1\n      swap3\n      swap2\n      swap1\n      dup2\n      dup2\n      mstore\n      0x20\n      add\n      dup3\n      dup1\n      sload\n      tag_222\n      swap1\n      tag_62\n      jump\t// in\n    tag_222:\n      dup1\n      iszero\n      tag_223\n      jumpi\n      dup1\n      0x1f\n      lt\n      tag_224\n      jumpi\n      0x0100\n      dup1\n      dup4\n      sload\n      div\n      mul\n      dup4\n      mstore\n      swap2\n      0x20\n      add\n      swap2\n      jump(tag_223)\n    tag_224:\n      dup3\n      add\n      swap2\n      swap1\n      0x00\n      mstore\n      keccak256(0x00, 0x20)\n      swap1\n    tag_225:\n      dup2\n      sload\n      dup2\n      mstore\n      swap1\n      0x01\n      add\n      swap1\n      0x20\n      add\n      dup1\n      dup4\n      gt\n      tag_225\n      jumpi\n      dup3\n      swap1\n      sub\n      0x1f\n      and\n      dup3\n      add\n      swap2\n    tag_223:\n      pop\n      pop\n      pop\n      pop\n      pop\n      swap1\n      pop\n        /* \"contracts/votingInBlockchain.sol\":4810:5054  function winnerDeclare( ) view  public returns(string memory) {... */\n      swap1\n      jump\t// out\n        /* \"contracts/votingInBlockchain.sol\":2134:2847  function registerVoter( address _voterAddress,string memory name)   public {... */\n    tag_52:\n        /* \"contracts/votingInBlockchain.sol\":2243:2248  false */\n      0x00\n        /* \"contracts/votingInBlockchain.sol\":2228:2248  votingStarted==false */\n      iszero\n      iszero\n        /* \"contracts/votingInBlockchain.sol\":2228:2241  votingStarted */\n      0x00\n      0x14\n      swap1\n      sload\n      swap1\n      0x0100\n      exp\n      swap1\n      div\n      0xff\n      and\n        /* \"contracts/votingInBlockchain.sol\":2228:2248  votingStarted==false */\n      iszero\n      iszero\n      eq\n        /* \"contracts/votingInBlockchain.sol\":2220:2249  require(votingStarted==false) */\n      tag_227\n      jumpi\n      0x00\n      dup1\n      revert\n    tag_227:\n        /* \"contracts/votingInBlockchain.sol\":2281:2291  msg.sender */\n      caller\n        /* \"contracts/votingInBlockchain.sol\":2268:2291  votingAdmin==msg.sender */\n      0xffffffffffffffffffffffffffffffffffffffff\n      and\n        /* \"contracts/votingInBlockchain.sol\":2268:2279  votingAdmin */\n      0x00\n      dup1\n      sload\n      swap1\n      0x0100\n      exp\n      swap1\n      div\n      0xffffffffffffffffffffffffffffffffffffffff\n      and\n        /* \"contracts/votingInBlockchain.sol\":2268:2291  votingAdmin==msg.sender */\n      0xffffffffffffffffffffffffffffffffffffffff\n      and\n      eq\n        /* \"contracts/votingInBlockchain.sol\":2260:2324  require(votingAdmin==msg.sender,\"only admin can register voter\") */\n      tag_228\n      jumpi\n      mload(0x40)\n      0x08c379a000000000000000000000000000000000000000000000000000000000\n      dup2\n      mstore\n      0x04\n      add\n      tag_229\n      swap1\n      tag_230\n      jump\t// in\n    tag_229:\n      mload(0x40)\n      dup1\n      swap2\n      sub\n      swap1\n      revert\n    tag_228:\n        /* \"contracts/votingInBlockchain.sol\":2358:2369  votingAdmin */\n      0x00\n      dup1\n      sload\n      swap1\n      0x0100\n      exp\n      swap1\n      div\n      0xffffffffffffffffffffffffffffffffffffffff\n      and\n        /* \"contracts/votingInBlockchain.sol\":2343:2369  _voterAddress!=votingAdmin */\n      0xffffffffffffffffffffffffffffffffffffffff\n      and\n        /* \"contracts/votingInBlockchain.sol\":2343:2356  _voterAddress */\n      dup3\n        /* \"contracts/votingInBlockchain.sol\":2343:2369  _voterAddress!=votingAdmin */\n      0xffffffffffffffffffffffffffffffffffffffff\n      and\n      sub\n        /* \"contracts/votingInBlockchain.sol\":2335:2403  require(_voterAddress!=votingAdmin,\"admin cannot register for vote\") */\n      tag_231\n      jumpi\n      mload(0x40)\n      0x08c379a000000000000000000000000000000000000000000000000000000000\n      dup2\n      mstore\n      0x04\n      add\n      tag_232\n      swap1\n      tag_233\n      jump\t// in\n    tag_232:\n      mload(0x40)\n      dup1\n      swap2\n      sub\n      swap1\n      revert\n    tag_231:\n        /* \"contracts/votingInBlockchain.sol\":2457:2462  false */\n      0x00\n        /* \"contracts/votingInBlockchain.sol\":2422:2462  VoterList[_voterAddress].register==false */\n      iszero\n      iszero\n        /* \"contracts/votingInBlockchain.sol\":2422:2431  VoterList */\n      0x0a\n        /* \"contracts/votingInBlockchain.sol\":2422:2446  VoterList[_voterAddress] */\n      0x00\n        /* \"contracts/votingInBlockchain.sol\":2432:2445  _voterAddress */\n      dup5\n        /* \"contracts/votingInBlockchain.sol\":2422:2446  VoterList[_voterAddress] */\n      0xffffffffffffffffffffffffffffffffffffffff\n      and\n      0xffffffffffffffffffffffffffffffffffffffff\n      and\n      dup2\n      mstore\n      0x20\n      add\n      swap1\n      dup2\n      mstore\n      0x20\n      add\n      0x00\n      keccak256\n        /* \"contracts/votingInBlockchain.sol\":2422:2455  VoterList[_voterAddress].register */\n      0x00\n      add\n      0x14\n      swap1\n      sload\n      swap1\n      0x0100\n      exp\n      swap1\n      div\n      0xff\n      and\n        /* \"contracts/votingInBlockchain.sol\":2422:2462  VoterList[_voterAddress].register==false */\n      iszero\n      iszero\n      eq\n        /* \"contracts/votingInBlockchain.sol\":2414:2490  require(VoterList[_voterAddress].register==false,\"voter already registered\") */\n      tag_234\n      jumpi\n      mload(0x40)\n      0x08c379a000000000000000000000000000000000000000000000000000000000\n      dup2\n      mstore\n      0x04\n      add\n      tag_235\n      swap1\n      tag_236\n      jump\t// in\n    tag_235:\n      mload(0x40)\n      dup1\n      swap2\n      sub\n      swap1\n      revert\n    tag_234:\n        /* \"contracts/votingInBlockchain.sol\":2501:2520  voters memory voter */\n      0x00\n        /* \"contracts/votingInBlockchain.sol\":2521:2763  voters({... */\n      mload(0x40)\n      dup1\n      0xe0\n      add\n      0x40\n      mstore\n      dup1\n        /* \"contracts/votingInBlockchain.sol\":2645:2658  _voterAddress */\n      dup5\n        /* \"contracts/votingInBlockchain.sol\":2521:2763  voters({... */\n      0xffffffffffffffffffffffffffffffffffffffff\n      and\n      dup2\n      mstore\n      0x20\n      add\n        /* \"contracts/votingInBlockchain.sol\":2552:2556  true */\n      0x01\n        /* \"contracts/votingInBlockchain.sol\":2521:2763  voters({... */\n      iszero\n      iszero\n      dup2\n      mstore\n      0x20\n      add\n        /* \"contracts/votingInBlockchain.sol\":2577:2582  false */\n      0x00\n        /* \"contracts/votingInBlockchain.sol\":2521:2763  voters({... */\n      iszero\n      iszero\n      dup2\n      mstore\n      0x20\n      add\n        /* \"contracts/votingInBlockchain.sol\":2612:2617  false */\n      0x00\n        /* \"contracts/votingInBlockchain.sol\":2521:2763  voters({... */\n      iszero\n      iszero\n      dup2\n      mstore\n      0x20\n      add\n        /* \"contracts/votingInBlockchain.sol\":2688:2689  0 */\n      0x00\n        /* \"contracts/votingInBlockchain.sol\":2521:2763  voters({... */\n      dup2\n      mstore\n      0x20\n      add\n        /* \"contracts/votingInBlockchain.sol\":2707:2719  displayVoter */\n      0x0b\n        /* \"contracts/votingInBlockchain.sol\":2707:2726  displayVoter.length */\n      dup1\n      sload\n      swap1\n      pop\n        /* \"contracts/votingInBlockchain.sol\":2521:2763  voters({... */\n      dup2\n      mstore\n      0x20\n      add\n        /* \"contracts/votingInBlockchain.sol\":2746:2750  name */\n      dup4\n        /* \"contracts/votingInBlockchain.sol\":2521:2763  voters({... */\n      dup2\n      mstore\n      pop\n        /* \"contracts/votingInBlockchain.sol\":2501:2763  voters memory voter=voters({... */\n      swap1\n      pop\n        /* \"contracts/votingInBlockchain.sol\":2799:2804  voter */\n      dup1\n        /* \"contracts/votingInBlockchain.sol\":2774:2783  VoterList */\n      0x0a\n        /* \"contracts/votingInBlockchain.sol\":2774:2798  VoterList[_voterAddress] */\n      0x00\n        /* \"contracts/votingInBlockchain.sol\":2784:2797  _voterAddress */\n      dup6\n        /* \"contracts/votingInBlockchain.sol\":2774:2798  VoterList[_voterAddress] */\n      0xffffffffffffffffffffffffffffffffffffffff\n      and\n      0xffffffffffffffffffffffffffffffffffffffff\n      and\n      dup2\n      mstore\n      0x20\n      add\n      swap1\n      dup2\n      mstore\n      0x20\n      add\n      0x00\n      keccak256\n        /* \"contracts/votingInBlockchain.sol\":2774:2804  VoterList[_voterAddress]=voter */\n      0x00\n      dup3\n      add\n      mload\n      dup2\n      0x00\n      add\n      exp(0x0100, 0x00)\n      dup2\n      sload\n      dup2\n      0xffffffffffffffffffffffffffffffffffffffff\n      mul\n      not\n      and\n      swap1\n      dup4\n      0xffffffffffffffffffffffffffffffffffffffff\n      and\n      mul\n      or\n      swap1\n      sstore\n      pop\n      0x20\n      dup3\n      add\n      mload\n      dup2\n      0x00\n      add\n      exp(0x0100, 0x14)\n      dup2\n      sload\n      dup2\n      0xff\n      mul\n      not\n      and\n      swap1\n      dup4\n      iszero\n      iszero\n      mul\n      or\n      swap1\n      sstore\n      pop\n      0x40\n      dup3\n      add\n      mload\n      dup2\n      0x00\n      add\n      exp(0x0100, 0x15)\n      dup2\n      sload\n      dup2\n      0xff\n      mul\n      not\n      and\n      swap1\n      dup4\n      iszero\n      iszero\n      mul\n      or\n      swap1\n      sstore\n      pop\n      0x60\n      dup3\n      add\n      mload\n      dup2\n      0x00\n      add\n      exp(0x0100, 0x16)\n      dup2\n      sload\n      dup2\n      0xff\n      mul\n      not\n      and\n      swap1\n      dup4\n      iszero\n      iszero\n      mul\n      or\n      swap1\n      sstore\n      pop\n      0x80\n      dup3\n      add\n      mload\n      dup2\n      0x01\n      add\n      sstore\n      0xa0\n      dup3\n      add\n      mload\n      dup2\n      0x02\n      add\n      sstore\n      0xc0\n      dup3\n      add\n      mload\n      dup2\n      0x03\n      add\n      swap1\n      dup2\n      tag_237\n      swap2\n      swap1\n      tag_91\n      jump\t// in\n    tag_237:\n      pop\n      swap1\n      pop\n      pop\n        /* \"contracts/votingInBlockchain.sol\":2815:2827  displayVoter */\n      0x0b\n        /* \"contracts/votingInBlockchain.sol\":2833:2838  voter */\n      dup2\n        /* \"contracts/votingInBlockchain.sol\":2815:2839  displayVoter.push(voter) */\n      swap1\n      dup1\n      0x01\n      dup2\n      sload\n      add\n      dup1\n      dup3\n      sstore\n      dup1\n      swap2\n      pop\n      pop\n      0x01\n      swap1\n      sub\n      swap1\n      0x00\n      mstore\n      keccak256(0x00, 0x20)\n      swap1\n      0x04\n      mul\n      add\n      0x00\n      swap1\n      swap2\n      swap1\n      swap2\n      swap1\n      swap2\n      pop\n      0x00\n      dup3\n      add\n      mload\n      dup2\n      0x00\n      add\n      exp(0x0100, 0x00)\n      dup2\n      sload\n      dup2\n      0xffffffffffffffffffffffffffffffffffffffff\n      mul\n      not\n      and\n      swap1\n      dup4\n      0xffffffffffffffffffffffffffffffffffffffff\n      and\n      mul\n      or\n      swap1\n      sstore\n      pop\n      0x20\n      dup3\n      add\n      mload\n      dup2\n      0x00\n      add\n      exp(0x0100, 0x14)\n      dup2\n      sload\n      dup2\n      0xff\n      mul\n      not\n      and\n      swap1\n      dup4\n      iszero\n      iszero\n      mul\n      or\n      swap1\n      sstore\n      pop\n      0x40\n      dup3\n      add\n      mload\n      dup2\n      0x00\n      add\n      exp(0x0100, 0x15)\n      dup2\n      sload\n      dup2\n      0xff\n      mul\n      not\n      and\n      swap1\n      dup4\n      iszero\n      iszero\n      mul\n      or\n      swap1\n      sstore\n      pop\n      0x60\n      dup3\n      add\n      mload\n      dup2\n      0x00\n      add\n      exp(0x0100, 0x16)\n      dup2\n      sload\n      dup2\n      0xff\n      mul\n      not\n      and\n      swap1\n      dup4\n      iszero\n      iszero\n      mul\n      or\n      swap1\n      sstore\n      pop\n      0x80\n      dup3\n      add\n      mload\n      dup2\n      0x01\n      add\n      sstore\n      0xa0\n      dup3\n      add\n      mload\n      dup2\n      0x02\n      add\n      sstore\n      0xc0\n      dup3\n      add\n      mload\n      dup2\n      0x03\n      add\n      swap1\n      dup2\n      tag_239\n      swap2\n      swap1\n      tag_91\n      jump\t// in\n    tag_239:\n      pop\n      pop\n      pop\n        /* \"contracts/votingInBlockchain.sol\":2209:2847  {... */\n      pop\n        /* \"contracts/votingInBlockchain.sol\":2134:2847  function registerVoter( address _voterAddress,string memory name)   public {... */\n      pop\n      pop\n      jump\t// out\n        /* \"contracts/votingInBlockchain.sol\":2886:2982  function allVoters() view public returns(voters[] memory){... */\n    tag_54:\n        /* \"contracts/votingInBlockchain.sol\":2927:2942  voters[] memory */\n      0x60\n        /* \"contracts/votingInBlockchain.sol\":2962:2974  displayVoter */\n      0x0b\n        /* \"contracts/votingInBlockchain.sol\":2954:2974  return  displayVoter */\n      dup1\n      sload\n      dup1\n      0x20\n      mul\n      0x20\n      add\n      mload(0x40)\n      swap1\n      dup2\n      add\n      0x40\n      mstore\n      dup1\n      swap3\n      swap2\n      swap1\n      dup2\n      dup2\n      mstore\n      0x20\n      add\n      0x00\n      swap1\n    tag_241:\n      dup3\n      dup3\n      lt\n      iszero\n      tag_242\n      jumpi\n      dup4\n      dup3\n      swap1\n      0x00\n      mstore\n      keccak256(0x00, 0x20)\n      swap1\n      0x04\n      mul\n      add\n      mload(0x40)\n      dup1\n      0xe0\n      add\n      0x40\n      mstore\n      swap1\n      dup2\n      0x00\n      dup3\n      add\n      0x00\n      swap1\n      sload\n      swap1\n      0x0100\n      exp\n      swap1\n      div\n      0xffffffffffffffffffffffffffffffffffffffff\n      and\n      0xffffffffffffffffffffffffffffffffffffffff\n      and\n      0xffffffffffffffffffffffffffffffffffffffff\n      and\n      dup2\n      mstore\n      0x20\n      add\n      0x00\n      dup3\n      add\n      0x14\n      swap1\n      sload\n      swap1\n      0x0100\n      exp\n      swap1\n      div\n      0xff\n      and\n      iszero\n      iszero\n      iszero\n      iszero\n      dup2\n      mstore\n      0x20\n      add\n      0x00\n      dup3\n      add\n      0x15\n      swap1\n      sload\n      swap1\n      0x0100\n      exp\n      swap1\n      div\n      0xff\n      and\n      iszero\n      iszero\n      iszero\n      iszero\n      dup2\n      mstore\n      0x20\n      add\n      0x00\n      dup3\n      add\n      0x16\n      swap1\n      sload\n      swap1\n      0x0100\n      exp\n      swap1\n      div\n      0xff\n      and\n      iszero\n      iszero\n      iszero\n      iszero\n      dup2\n      mstore\n      0x20\n      add\n      0x01\n      dup3\n      add\n      sload\n      dup2\n      mstore\n      0x20\n      add\n      0x02\n      dup3\n      add\n      sload\n      dup2\n      mstore\n      0x20\n      add\n      0x03\n      dup3\n      add\n      dup1\n      sload\n      tag_244\n      swap1\n      tag_62\n      jump\t// in\n    tag_244:\n      dup1\n      0x1f\n      add\n      0x20\n      dup1\n      swap2\n      div\n      mul\n      0x20\n      add\n      mload(0x40)\n      swap1\n      dup2\n      add\n      0x40\n      mstore\n      dup1\n      swap3\n      swap2\n      swap1\n      dup2\n      dup2\n      mstore\n      0x20\n      add\n      dup3\n      dup1\n      sload\n      tag_245\n      swap1\n      tag_62\n      jump\t// in\n    tag_245:\n      dup1\n      iszero\n      tag_246\n      jumpi\n      dup1\n      0x1f\n      lt\n      tag_247\n      jumpi\n      0x0100\n      dup1\n      dup4\n      sload\n      div\n      mul\n      dup4\n      mstore\n      swap2\n      0x20\n      add\n      swap2\n      jump(tag_246)\n    tag_247:\n      dup3\n      add\n      swap2\n      swap1\n      0x00\n      mstore\n      keccak256(0x00, 0x20)\n      swap1\n    tag_248:\n      dup2\n      sload\n      dup2\n      mstore\n      swap1\n      0x01\n      add\n      swap1\n      0x20\n      add\n      dup1\n      dup4\n      gt\n      tag_248\n      jumpi\n      dup3\n      swap1\n      sub\n      0x1f\n      and\n      dup3\n      add\n      swap2\n    tag_246:\n      pop\n      pop\n      pop\n      pop\n      pop\n      dup2\n      mstore\n      pop\n      pop\n      dup2\n      mstore\n      0x20\n      add\n      swap1\n      0x01\n      add\n      swap1\n      jump(tag_241)\n    tag_242:\n      pop\n      pop\n      pop\n      pop\n      swap1\n      pop\n        /* \"contracts/votingInBlockchain.sol\":2886:2982  function allVoters() view public returns(voters[] memory){... */\n      swap1\n      jump\t// out\n        /* \"contracts/votingInBlockchain.sol\":1222:1957  function registerCandidate(string memory _name, string memory _proposal,address _candidateAddress)  public{... */\n    tag_60:\n        /* \"contracts/votingInBlockchain.sol\":1362:1367  false */\n      0x00\n        /* \"contracts/votingInBlockchain.sol\":1347:1367  votingStarted==false */\n      iszero\n      iszero\n        /* \"contracts/votingInBlockchain.sol\":1347:1360  votingStarted */\n      0x00\n      0x14\n      swap1\n      sload\n      swap1\n      0x0100\n      exp\n      swap1\n      div\n      0xff\n      and\n        /* \"contracts/votingInBlockchain.sol\":1347:1367  votingStarted==false */\n      iszero\n      iszero\n      eq\n        /* \"contracts/votingInBlockchain.sol\":1339:1368  require(votingStarted==false) */\n      tag_250\n      jumpi\n      0x00\n      dup1\n      revert\n    tag_250:\n        /* \"contracts/votingInBlockchain.sol\":1400:1410  msg.sender */\n      caller\n        /* \"contracts/votingInBlockchain.sol\":1387:1410  votingAdmin==msg.sender */\n      0xffffffffffffffffffffffffffffffffffffffff\n      and\n        /* \"contracts/votingInBlockchain.sol\":1387:1398  votingAdmin */\n      0x00\n      dup1\n      sload\n      swap1\n      0x0100\n      exp\n      swap1\n      div\n      0xffffffffffffffffffffffffffffffffffffffff\n      and\n        /* \"contracts/votingInBlockchain.sol\":1387:1410  votingAdmin==msg.sender */\n      0xffffffffffffffffffffffffffffffffffffffff\n      and\n      eq\n        /* \"contracts/votingInBlockchain.sol\":1379:1447  require(votingAdmin==msg.sender,\"only admin can register candidate\") */\n      tag_251\n      jumpi\n      mload(0x40)\n      0x08c379a000000000000000000000000000000000000000000000000000000000\n      dup2\n      mstore\n      0x04\n      add\n      tag_252\n      swap1\n      tag_253\n      jump\t// in\n    tag_252:\n      mload(0x40)\n      dup1\n      swap2\n      sub\n      swap1\n      revert\n    tag_251:\n        /* \"contracts/votingInBlockchain.sol\":1509:1513  true */\n      0x01\n        /* \"contracts/votingInBlockchain.sol\":1466:1513  CandidateList[_candidateAddress].register!=true */\n      iszero\n      iszero\n        /* \"contracts/votingInBlockchain.sol\":1466:1479  CandidateList */\n      0x08\n        /* \"contracts/votingInBlockchain.sol\":1466:1498  CandidateList[_candidateAddress] */\n      0x00\n        /* \"contracts/votingInBlockchain.sol\":1480:1497  _candidateAddress */\n      dup4\n        /* \"contracts/votingInBlockchain.sol\":1466:1498  CandidateList[_candidateAddress] */\n      0xffffffffffffffffffffffffffffffffffffffff\n      and\n      0xffffffffffffffffffffffffffffffffffffffff\n      and\n      dup2\n      mstore\n      0x20\n      add\n      swap1\n      dup2\n      mstore\n      0x20\n      add\n      0x00\n      keccak256\n        /* \"contracts/votingInBlockchain.sol\":1466:1507  CandidateList[_candidateAddress].register */\n      0x03\n      add\n      0x00\n      swap1\n      sload\n      swap1\n      0x0100\n      exp\n      swap1\n      div\n      0xff\n      and\n        /* \"contracts/votingInBlockchain.sol\":1466:1513  CandidateList[_candidateAddress].register!=true */\n      iszero\n      iszero\n      sub\n        /* \"contracts/votingInBlockchain.sol\":1458:1540  require(CandidateList[_candidateAddress].register!=true,\"candidate already exist\") */\n      tag_254\n      jumpi\n      mload(0x40)\n      0x08c379a000000000000000000000000000000000000000000000000000000000\n      dup2\n      mstore\n      0x04\n      add\n      tag_255\n      swap1\n      tag_256\n      jump\t// in\n    tag_255:\n      mload(0x40)\n      dup1\n      swap2\n      sub\n      swap1\n      revert\n    tag_254:\n        /* \"contracts/votingInBlockchain.sol\":1578:1589  votingAdmin */\n      0x00\n      dup1\n      sload\n      swap1\n      0x0100\n      exp\n      swap1\n      div\n      0xffffffffffffffffffffffffffffffffffffffff\n      and\n        /* \"contracts/votingInBlockchain.sol\":1559:1589  _candidateAddress!=votingAdmin */\n      0xffffffffffffffffffffffffffffffffffffffff\n      and\n        /* \"contracts/votingInBlockchain.sol\":1559:1576  _candidateAddress */\n      dup2\n        /* \"contracts/votingInBlockchain.sol\":1559:1589  _candidateAddress!=votingAdmin */\n      0xffffffffffffffffffffffffffffffffffffffff\n      and\n      sub\n        /* \"contracts/votingInBlockchain.sol\":1551:1631  require(_candidateAddress!=votingAdmin,\"admin can't be registered as candidate\") */\n      tag_257\n      jumpi\n      mload(0x40)\n      0x08c379a000000000000000000000000000000000000000000000000000000000\n      dup2\n      mstore\n      0x04\n      add\n      tag_258\n      swap1\n      tag_259\n      jump\t// in\n    tag_258:\n      mload(0x40)\n      dup1\n      swap2\n      sub\n      swap1\n      revert\n    tag_257:\n        /* \"contracts/votingInBlockchain.sol\":1642:1669  candidates memory Candidate */\n      0x00\n        /* \"contracts/votingInBlockchain.sol\":1672:1852  candidates({... */\n      mload(0x40)\n      dup1\n      0xa0\n      add\n      0x40\n      mstore\n      dup1\n        /* \"contracts/votingInBlockchain.sol\":1715:1732  _candidateAddress */\n      dup4\n        /* \"contracts/votingInBlockchain.sol\":1672:1852  candidates({... */\n      0xffffffffffffffffffffffffffffffffffffffff\n      and\n      dup2\n      mstore\n      0x20\n      add\n        /* \"contracts/votingInBlockchain.sol\":1752:1757  _name */\n      dup6\n        /* \"contracts/votingInBlockchain.sol\":1672:1852  candidates({... */\n      dup2\n      mstore\n      0x20\n      add\n        /* \"contracts/votingInBlockchain.sol\":1781:1790  _proposal */\n      dup5\n        /* \"contracts/votingInBlockchain.sol\":1672:1852  candidates({... */\n      dup2\n      mstore\n      0x20\n      add\n        /* \"contracts/votingInBlockchain.sol\":1814:1818  true */\n      0x01\n        /* \"contracts/votingInBlockchain.sol\":1672:1852  candidates({... */\n      iszero\n      iszero\n      dup2\n      mstore\n      0x20\n      add\n        /* \"contracts/votingInBlockchain.sol\":1839:1840  0 */\n      0x00\n        /* \"contracts/votingInBlockchain.sol\":1672:1852  candidates({... */\n      dup2\n      mstore\n      pop\n        /* \"contracts/votingInBlockchain.sol\":1642:1852  candidates memory Candidate = candidates({... */\n      swap1\n      pop\n        /* \"contracts/votingInBlockchain.sol\":1896:1905  Candidate */\n      dup1\n        /* \"contracts/votingInBlockchain.sol\":1863:1876  CandidateList */\n      0x08\n        /* \"contracts/votingInBlockchain.sol\":1863:1895  CandidateList[_candidateAddress] */\n      0x00\n        /* \"contracts/votingInBlockchain.sol\":1877:1894  _candidateAddress */\n      dup5\n        /* \"contracts/votingInBlockchain.sol\":1863:1895  CandidateList[_candidateAddress] */\n      0xffffffffffffffffffffffffffffffffffffffff\n      and\n      0xffffffffffffffffffffffffffffffffffffffff\n      and\n      dup2\n      mstore\n      0x20\n      add\n      swap1\n      dup2\n      mstore\n      0x20\n      add\n      0x00\n      keccak256\n        /* \"contracts/votingInBlockchain.sol\":1863:1905  CandidateList[_candidateAddress]=Candidate */\n      0x00\n      dup3\n      add\n      mload\n      dup2\n      0x00\n      add\n      exp(0x0100, 0x00)\n      dup2\n      sload\n      dup2\n      0xffffffffffffffffffffffffffffffffffffffff\n      mul\n      not\n      and\n      swap1\n      dup4\n      0xffffffffffffffffffffffffffffffffffffffff\n      and\n      mul\n      or\n      swap1\n      sstore\n      pop\n      0x20\n      dup3\n      add\n      mload\n      dup2\n      0x01\n      add\n      swap1\n      dup2\n      tag_260\n      swap2\n      swap1\n      tag_91\n      jump\t// in\n    tag_260:\n      pop\n      0x40\n      dup3\n      add\n      mload\n      dup2\n      0x02\n      add\n      swap1\n      dup2\n      tag_261\n      swap2\n      swap1\n      tag_91\n      jump\t// in\n    tag_261:\n      pop\n      0x60\n      dup3\n      add\n      mload\n      dup2\n      0x03\n      add\n      exp(0x0100, 0x00)\n      dup2\n      sload\n      dup2\n      0xff\n      mul\n      not\n      and\n      swap1\n      dup4\n      iszero\n      iszero\n      mul\n      or\n      swap1\n      sstore\n      pop\n      0x80\n      dup3\n      add\n      mload\n      dup2\n      0x04\n      add\n      sstore\n      swap1\n      pop\n      pop\n        /* \"contracts/votingInBlockchain.sol\":1916:1933  displayCandidates */\n      0x09\n        /* \"contracts/votingInBlockchain.sol\":1939:1948  Candidate */\n      dup2\n        /* \"contracts/votingInBlockchain.sol\":1916:1949  displayCandidates.push(Candidate) */\n      swap1\n      dup1\n      0x01\n      dup2\n      sload\n      add\n      dup1\n      dup3\n      sstore\n      dup1\n      swap2\n      pop\n      pop\n      0x01\n      swap1\n      sub\n      swap1\n      0x00\n      mstore\n      keccak256(0x00, 0x20)\n      swap1\n      0x05\n      mul\n      add\n      0x00\n      swap1\n      swap2\n      swap1\n      swap2\n      swap1\n      swap2\n      pop\n      0x00\n      dup3\n      add\n      mload\n      dup2\n      0x00\n      add\n      exp(0x0100, 0x00)\n      dup2\n      sload\n      dup2\n      0xffffffffffffffffffffffffffffffffffffffff\n      mul\n      not\n      and\n      swap1\n      dup4\n      0xffffffffffffffffffffffffffffffffffffffff\n      and\n      mul\n      or\n      swap1\n      sstore\n      pop\n      0x20\n      dup3\n      add\n      mload\n      dup2\n      0x01\n      add\n      swap1\n      dup2\n      tag_263\n      swap2\n      swap1\n      tag_91\n      jump\t// in\n    tag_263:\n      pop\n      0x40\n      dup3\n      add\n      mload\n      dup2\n      0x02\n      add\n      swap1\n      dup2\n      tag_264\n      swap2\n      swap1\n      tag_91\n      jump\t// in\n    tag_264:\n      pop\n      0x60\n      dup3\n      add\n      mload\n      dup2\n      0x03\n      add\n      exp(0x0100, 0x00)\n      dup2\n      sload\n      dup2\n      0xff\n      mul\n      not\n      and\n      swap1\n      dup4\n      iszero\n      iszero\n      mul\n      or\n      swap1\n      sstore\n      pop\n      0x80\n      dup3\n      add\n      mload\n      dup2\n      0x04\n      add\n      sstore\n      pop\n      pop\n        /* \"contracts/votingInBlockchain.sol\":1328:1957  {... */\n      pop\n        /* \"contracts/votingInBlockchain.sol\":1222:1957  function registerCandidate(string memory _name, string memory _proposal,address _candidateAddress)  public{... */\n      pop\n      pop\n      pop\n      jump\t// out\n        /* \"contracts/votingInBlockchain.sol\":4433:4771  function checkVoter(address _msgSender) view  private returns(bool){... */\n    tag_94:\n        /* \"contracts/votingInBlockchain.sol\":4495:4499  bool */\n      0x00\n        /* \"contracts/votingInBlockchain.sol\":4507:4517  bool Exist */\n      dup1\n        /* \"contracts/votingInBlockchain.sol\":4518:4523  false */\n      0x00\n        /* \"contracts/votingInBlockchain.sol\":4507:4523  bool Exist=false */\n      swap1\n      pop\n        /* \"contracts/votingInBlockchain.sol\":4535:4541  uint i */\n      0x00\n        /* \"contracts/votingInBlockchain.sol\":4530:4749  for (uint i=0; i<displayVoter.length; i++) ... */\n    tag_266:\n        /* \"contracts/votingInBlockchain.sol\":4547:4559  displayVoter */\n      0x0b\n        /* \"contracts/votingInBlockchain.sol\":4547:4566  displayVoter.length */\n      dup1\n      sload\n      swap1\n      pop\n        /* \"contracts/votingInBlockchain.sol\":4545:4546  i */\n      dup2\n        /* \"contracts/votingInBlockchain.sol\":4545:4566  i<displayVoter.length */\n      lt\n        /* \"contracts/votingInBlockchain.sol\":4530:4749  for (uint i=0; i<displayVoter.length; i++) ... */\n      iszero\n      tag_267\n      jumpi\n        /* \"contracts/votingInBlockchain.sol\":4623:4633  _msgSender */\n      dup4\n        /* \"contracts/votingInBlockchain.sol\":4593:4633  displayVoter[i].voterAddress==_msgSender */\n      0xffffffffffffffffffffffffffffffffffffffff\n      and\n        /* \"contracts/votingInBlockchain.sol\":4593:4605  displayVoter */\n      0x0b\n        /* \"contracts/votingInBlockchain.sol\":4606:4607  i */\n      dup3\n        /* \"contracts/votingInBlockchain.sol\":4593:4608  displayVoter[i] */\n      dup2\n      sload\n      dup2\n      lt\n      tag_269\n      jumpi\n      tag_270\n      tag_109\n      jump\t// in\n    tag_270:\n    tag_269:\n      swap1\n      0x00\n      mstore\n      keccak256(0x00, 0x20)\n      swap1\n      0x04\n      mul\n      add\n        /* \"contracts/votingInBlockchain.sol\":4593:4621  displayVoter[i].voterAddress */\n      0x00\n      add\n      0x00\n      swap1\n      sload\n      swap1\n      0x0100\n      exp\n      swap1\n      div\n      0xffffffffffffffffffffffffffffffffffffffff\n      and\n        /* \"contracts/votingInBlockchain.sol\":4593:4633  displayVoter[i].voterAddress==_msgSender */\n      0xffffffffffffffffffffffffffffffffffffffff\n      and\n      sub\n        /* \"contracts/votingInBlockchain.sol\":4590:4742  if(displayVoter[i].voterAddress==_msgSender){... */\n      tag_272\n      jumpi\n        /* \"contracts/votingInBlockchain.sol\":4654:4658  true */\n      0x01\n        /* \"contracts/votingInBlockchain.sol\":4648:4658  Exist=true */\n      swap2\n      pop\n        /* \"contracts/votingInBlockchain.sol\":4672:4677  break */\n      jump(tag_267)\n        /* \"contracts/votingInBlockchain.sol\":4590:4742  if(displayVoter[i].voterAddress==_msgSender){... */\n    tag_272:\n        /* \"contracts/votingInBlockchain.sol\":4725:4730  false */\n      0x00\n        /* \"contracts/votingInBlockchain.sol\":4719:4730  Exist=false */\n      swap2\n      pop\n        /* \"contracts/votingInBlockchain.sol\":4568:4571  i++ */\n      dup1\n      dup1\n      tag_274\n      swap1\n      tag_106\n      jump\t// in\n    tag_274:\n      swap2\n      pop\n      pop\n        /* \"contracts/votingInBlockchain.sol\":4530:4749  for (uint i=0; i<displayVoter.length; i++) ... */\n      jump(tag_266)\n    tag_267:\n      pop\n        /* \"contracts/votingInBlockchain.sol\":4762:4767  Exist */\n      dup1\n        /* \"contracts/votingInBlockchain.sol\":4755:4767  return Exist */\n      swap2\n      pop\n      pop\n        /* \"contracts/votingInBlockchain.sol\":4433:4771  function checkVoter(address _msgSender) view  private returns(bool){... */\n      swap2\n      swap1\n      pop\n      jump\t// out\n        /* \"#utility.yul\":7:82   */\n    tag_275:\n        /* \"#utility.yul\":40:46   */\n      0x00\n        /* \"#utility.yul\":73:75   */\n      0x40\n        /* \"#utility.yul\":67:76   */\n      mload\n        /* \"#utility.yul\":57:76   */\n      swap1\n      pop\n        /* \"#utility.yul\":7:82   */\n      swap1\n      jump\t// out\n        /* \"#utility.yul\":88:205   */\n    tag_276:\n        /* \"#utility.yul\":197:198   */\n      0x00\n        /* \"#utility.yul\":194:195   */\n      dup1\n        /* \"#utility.yul\":187:199   */\n      revert\n        /* \"#utility.yul\":211:328   */\n    tag_277:\n        /* \"#utility.yul\":320:321   */\n      0x00\n        /* \"#utility.yul\":317:318   */\n      dup1\n        /* \"#utility.yul\":310:322   */\n      revert\n        /* \"#utility.yul\":334:460   */\n    tag_278:\n        /* \"#utility.yul\":371:378   */\n      0x00\n        /* \"#utility.yul\":411:453   */\n      0xffffffffffffffffffffffffffffffffffffffff\n        /* \"#utility.yul\":404:409   */\n      dup3\n        /* \"#utility.yul\":400:454   */\n      and\n        /* \"#utility.yul\":389:454   */\n      swap1\n      pop\n        /* \"#utility.yul\":334:460   */\n      swap2\n      swap1\n      pop\n      jump\t// out\n        /* \"#utility.yul\":466:562   */\n    tag_279:\n        /* \"#utility.yul\":503:510   */\n      0x00\n        /* \"#utility.yul\":532:556   */\n      tag_380\n        /* \"#utility.yul\":550:555   */\n      dup3\n        /* \"#utility.yul\":532:556   */\n      tag_278\n      jump\t// in\n    tag_380:\n        /* \"#utility.yul\":521:556   */\n      swap1\n      pop\n        /* \"#utility.yul\":466:562   */\n      swap2\n      swap1\n      pop\n      jump\t// out\n        /* \"#utility.yul\":568:690   */\n    tag_280:\n        /* \"#utility.yul\":641:665   */\n      tag_382\n        /* \"#utility.yul\":659:664   */\n      dup2\n        /* \"#utility.yul\":641:665   */\n      tag_279\n      jump\t// in\n    tag_382:\n        /* \"#utility.yul\":634:639   */\n      dup2\n        /* \"#utility.yul\":631:666   */\n      eq\n        /* \"#utility.yul\":621:684   */\n      tag_383\n      jumpi\n        /* \"#utility.yul\":680:681   */\n      0x00\n        /* \"#utility.yul\":677:678   */\n      dup1\n        /* \"#utility.yul\":670:682   */\n      revert\n        /* \"#utility.yul\":621:684   */\n    tag_383:\n        /* \"#utility.yul\":568:690   */\n      pop\n      jump\t// out\n        /* \"#utility.yul\":696:835   */\n    tag_281:\n        /* \"#utility.yul\":742:747   */\n      0x00\n        /* \"#utility.yul\":780:786   */\n      dup2\n        /* \"#utility.yul\":767:787   */\n      calldataload\n        /* \"#utility.yul\":758:787   */\n      swap1\n      pop\n        /* \"#utility.yul\":796:829   */\n      tag_385\n        /* \"#utility.yul\":823:828   */\n      dup2\n        /* \"#utility.yul\":796:829   */\n      tag_280\n      jump\t// in\n    tag_385:\n        /* \"#utility.yul\":696:835   */\n      swap3\n      swap2\n      pop\n      pop\n      jump\t// out\n        /* \"#utility.yul\":841:1170   */\n    tag_18:\n        /* \"#utility.yul\":900:906   */\n      0x00\n        /* \"#utility.yul\":949:951   */\n      0x20\n        /* \"#utility.yul\":937:946   */\n      dup3\n        /* \"#utility.yul\":928:935   */\n      dup5\n        /* \"#utility.yul\":924:947   */\n      sub\n        /* \"#utility.yul\":920:952   */\n      slt\n        /* \"#utility.yul\":917:1036   */\n      iszero\n      tag_387\n      jumpi\n        /* \"#utility.yul\":955:1034   */\n      tag_388\n      tag_276\n      jump\t// in\n    tag_388:\n        /* \"#utility.yul\":917:1036   */\n    tag_387:\n        /* \"#utility.yul\":1075:1076   */\n      0x00\n        /* \"#utility.yul\":1100:1153   */\n      tag_389\n        /* \"#utility.yul\":1145:1152   */\n      dup5\n        /* \"#utility.yul\":1136:1142   */\n      dup3\n        /* \"#utility.yul\":1125:1134   */\n      dup6\n        /* \"#utility.yul\":1121:1143   */\n      add\n        /* \"#utility.yul\":1100:1153   */\n      tag_281\n      jump\t// in\n    tag_389:\n        /* \"#utility.yul\":1090:1153   */\n      swap2\n      pop\n        /* \"#utility.yul\":1046:1163   */\n      pop\n        /* \"#utility.yul\":841:1170   */\n      swap3\n      swap2\n      pop\n      pop\n      jump\t// out\n        /* \"#utility.yul\":1176:1294   */\n    tag_282:\n        /* \"#utility.yul\":1263:1287   */\n      tag_391\n        /* \"#utility.yul\":1281:1286   */\n      dup2\n        /* \"#utility.yul\":1263:1287   */\n      tag_279\n      jump\t// in\n    tag_391:\n        /* \"#utility.yul\":1258:1261   */\n      dup3\n        /* \"#utility.yul\":1251:1288   */\n      mstore\n        /* \"#utility.yul\":1176:1294   */\n      pop\n      pop\n      jump\t// out\n        /* \"#utility.yul\":1300:1390   */\n    tag_283:\n        /* \"#utility.yul\":1334:1341   */\n      0x00\n        /* \"#utility.yul\":1377:1382   */\n      dup2\n        /* \"#utility.yul\":1370:1383   */\n      iszero\n        /* \"#utility.yul\":1363:1384   */\n      iszero\n        /* \"#utility.yul\":1352:1384   */\n      swap1\n      pop\n        /* \"#utility.yul\":1300:1390   */\n      swap2\n      swap1\n      pop\n      jump\t// out\n        /* \"#utility.yul\":1396:1505   */\n    tag_284:\n        /* \"#utility.yul\":1477:1498   */\n      tag_394\n        /* \"#utility.yul\":1492:1497   */\n      dup2\n        /* \"#utility.yul\":1477:1498   */\n      tag_283\n      jump\t// in\n    tag_394:\n        /* \"#utility.yul\":1472:1475   */\n      dup3\n        /* \"#utility.yul\":1465:1499   */\n      mstore\n        /* \"#utility.yul\":1396:1505   */\n      pop\n      pop\n      jump\t// out\n        /* \"#utility.yul\":1511:1588   */\n    tag_285:\n        /* \"#utility.yul\":1548:1555   */\n      0x00\n        /* \"#utility.yul\":1577:1582   */\n      dup2\n        /* \"#utility.yul\":1566:1582   */\n      swap1\n      pop\n        /* \"#utility.yul\":1511:1588   */\n      swap2\n      swap1\n      pop\n      jump\t// out\n        /* \"#utility.yul\":1594:1712   */\n    tag_286:\n        /* \"#utility.yul\":1681:1705   */\n      tag_397\n        /* \"#utility.yul\":1699:1704   */\n      dup2\n        /* \"#utility.yul\":1681:1705   */\n      tag_285\n      jump\t// in\n    tag_397:\n        /* \"#utility.yul\":1676:1679   */\n      dup3\n        /* \"#utility.yul\":1669:1706   */\n      mstore\n        /* \"#utility.yul\":1594:1712   */\n      pop\n      pop\n      jump\t// out\n        /* \"#utility.yul\":1718:1817   */\n    tag_287:\n        /* \"#utility.yul\":1770:1776   */\n      0x00\n        /* \"#utility.yul\":1804:1809   */\n      dup2\n        /* \"#utility.yul\":1798:1810   */\n      mload\n        /* \"#utility.yul\":1788:1810   */\n      swap1\n      pop\n        /* \"#utility.yul\":1718:1817   */\n      swap2\n      swap1\n      pop\n      jump\t// out\n        /* \"#utility.yul\":1823:1992   */\n    tag_288:\n        /* \"#utility.yul\":1907:1918   */\n      0x00\n        /* \"#utility.yul\":1941:1947   */\n      dup3\n        /* \"#utility.yul\":1936:1939   */\n      dup3\n        /* \"#utility.yul\":1929:1948   */\n      mstore\n        /* \"#utility.yul\":1981:1985   */\n      0x20\n        /* \"#utility.yul\":1976:1979   */\n      dup3\n        /* \"#utility.yul\":1972:1986   */\n      add\n        /* \"#utility.yul\":1957:1986   */\n      swap1\n      pop\n        /* \"#utility.yul\":1823:1992   */\n      swap3\n      swap2\n      pop\n      pop\n      jump\t// out\n        /* \"#utility.yul\":1998:2244   */\n    tag_289:\n        /* \"#utility.yul\":2079:2080   */\n      0x00\n        /* \"#utility.yul\":2089:2202   */\n    tag_401:\n        /* \"#utility.yul\":2103:2109   */\n      dup4\n        /* \"#utility.yul\":2100:2101   */\n      dup2\n        /* \"#utility.yul\":2097:2110   */\n      lt\n        /* \"#utility.yul\":2089:2202   */\n      iszero\n      tag_403\n      jumpi\n        /* \"#utility.yul\":2188:2189   */\n      dup1\n        /* \"#utility.yul\":2183:2186   */\n      dup3\n        /* \"#utility.yul\":2179:2190   */\n      add\n        /* \"#utility.yul\":2173:2191   */\n      mload\n        /* \"#utility.yul\":2169:2170   */\n      dup2\n        /* \"#utility.yul\":2164:2167   */\n      dup5\n        /* \"#utility.yul\":2160:2171   */\n      add\n        /* \"#utility.yul\":2153:2192   */\n      mstore\n        /* \"#utility.yul\":2125:2127   */\n      0x20\n        /* \"#utility.yul\":2122:2123   */\n      dup2\n        /* \"#utility.yul\":2118:2128   */\n      add\n        /* \"#utility.yul\":2113:2128   */\n      swap1\n      pop\n        /* \"#utility.yul\":2089:2202   */\n      jump(tag_401)\n    tag_403:\n        /* \"#utility.yul\":2236:2237   */\n      0x00\n        /* \"#utility.yul\":2227:2233   */\n      dup5\n        /* \"#utility.yul\":2222:2225   */\n      dup5\n        /* \"#utility.yul\":2218:2234   */\n      add\n        /* \"#utility.yul\":2211:2238   */\n      mstore\n        /* \"#utility.yul\":2060:2244   */\n      pop\n        /* \"#utility.yul\":1998:2244   */\n      pop\n      pop\n      pop\n      jump\t// out\n        /* \"#utility.yul\":2250:2352   */\n    tag_290:\n        /* \"#utility.yul\":2291:2297   */\n      0x00\n        /* \"#utility.yul\":2342:2344   */\n      0x1f\n        /* \"#utility.yul\":2338:2345   */\n      not\n        /* \"#utility.yul\":2333:2335   */\n      0x1f\n        /* \"#utility.yul\":2326:2331   */\n      dup4\n        /* \"#utility.yul\":2322:2336   */\n      add\n        /* \"#utility.yul\":2318:2346   */\n      and\n        /* \"#utility.yul\":2308:2346   */\n      swap1\n      pop\n        /* \"#utility.yul\":2250:2352   */\n      swap2\n      swap1\n      pop\n      jump\t// out\n        /* \"#utility.yul\":2358:2735   */\n    tag_291:\n        /* \"#utility.yul\":2446:2449   */\n      0x00\n        /* \"#utility.yul\":2474:2513   */\n      tag_406\n        /* \"#utility.yul\":2507:2512   */\n      dup3\n        /* \"#utility.yul\":2474:2513   */\n      tag_287\n      jump\t// in\n    tag_406:\n        /* \"#utility.yul\":2529:2600   */\n      tag_407\n        /* \"#utility.yul\":2593:2599   */\n      dup2\n        /* \"#utility.yul\":2588:2591   */\n      dup6\n        /* \"#utility.yul\":2529:2600   */\n      tag_288\n      jump\t// in\n    tag_407:\n        /* \"#utility.yul\":2522:2600   */\n      swap4\n      pop\n        /* \"#utility.yul\":2609:2674   */\n      tag_408\n        /* \"#utility.yul\":2667:2673   */\n      dup2\n        /* \"#utility.yul\":2662:2665   */\n      dup6\n        /* \"#utility.yul\":2655:2659   */\n      0x20\n        /* \"#utility.yul\":2648:2653   */\n      dup7\n        /* \"#utility.yul\":2644:2660   */\n      add\n        /* \"#utility.yul\":2609:2674   */\n      tag_289\n      jump\t// in\n    tag_408:\n        /* \"#utility.yul\":2699:2728   */\n      tag_409\n        /* \"#utility.yul\":2721:2727   */\n      dup2\n        /* \"#utility.yul\":2699:2728   */\n      tag_290\n      jump\t// in\n    tag_409:\n        /* \"#utility.yul\":2694:2697   */\n      dup5\n        /* \"#utility.yul\":2690:2729   */\n      add\n        /* \"#utility.yul\":2683:2729   */\n      swap2\n      pop\n        /* \"#utility.yul\":2450:2735   */\n      pop\n        /* \"#utility.yul\":2358:2735   */\n      swap3\n      swap2\n      pop\n      pop\n      jump\t// out\n        /* \"#utility.yul\":2741:3682   */\n    tag_21:\n        /* \"#utility.yul\":3004:3008   */\n      0x00\n        /* \"#utility.yul\":3042:3045   */\n      0xe0\n        /* \"#utility.yul\":3031:3040   */\n      dup3\n        /* \"#utility.yul\":3027:3046   */\n      add\n        /* \"#utility.yul\":3019:3046   */\n      swap1\n      pop\n        /* \"#utility.yul\":3056:3127   */\n      tag_411\n        /* \"#utility.yul\":3124:3125   */\n      0x00\n        /* \"#utility.yul\":3113:3122   */\n      dup4\n        /* \"#utility.yul\":3109:3126   */\n      add\n        /* \"#utility.yul\":3100:3106   */\n      dup11\n        /* \"#utility.yul\":3056:3127   */\n      tag_282\n      jump\t// in\n    tag_411:\n        /* \"#utility.yul\":3137:3203   */\n      tag_412\n        /* \"#utility.yul\":3199:3201   */\n      0x20\n        /* \"#utility.yul\":3188:3197   */\n      dup4\n        /* \"#utility.yul\":3184:3202   */\n      add\n        /* \"#utility.yul\":3175:3181   */\n      dup10\n        /* \"#utility.yul\":3137:3203   */\n      tag_284\n      jump\t// in\n    tag_412:\n        /* \"#utility.yul\":3213:3279   */\n      tag_413\n        /* \"#utility.yul\":3275:3277   */\n      0x40\n        /* \"#utility.yul\":3264:3273   */\n      dup4\n        /* \"#utility.yul\":3260:3278   */\n      add\n        /* \"#utility.yul\":3251:3257   */\n      dup9\n        /* \"#utility.yul\":3213:3279   */\n      tag_284\n      jump\t// in\n    tag_413:\n        /* \"#utility.yul\":3289:3355   */\n      tag_414\n        /* \"#utility.yul\":3351:3353   */\n      0x60\n        /* \"#utility.yul\":3340:3349   */\n      dup4\n        /* \"#utility.yul\":3336:3354   */\n      add\n        /* \"#utility.yul\":3327:3333   */\n      dup8\n        /* \"#utility.yul\":3289:3355   */\n      tag_284\n      jump\t// in\n    tag_414:\n        /* \"#utility.yul\":3365:3438   */\n      tag_415\n        /* \"#utility.yul\":3433:3436   */\n      0x80\n        /* \"#utility.yul\":3422:3431   */\n      dup4\n        /* \"#utility.yul\":3418:3437   */\n      add\n        /* \"#utility.yul\":3409:3415   */\n      dup7\n        /* \"#utility.yul\":3365:3438   */\n      tag_286\n      jump\t// in\n    tag_415:\n        /* \"#utility.yul\":3448:3521   */\n      tag_416\n        /* \"#utility.yul\":3516:3519   */\n      0xa0\n        /* \"#utility.yul\":3505:3514   */\n      dup4\n        /* \"#utility.yul\":3501:3520   */\n      add\n        /* \"#utility.yul\":3492:3498   */\n      dup6\n        /* \"#utility.yul\":3448:3521   */\n      tag_286\n      jump\t// in\n    tag_416:\n        /* \"#utility.yul\":3569:3578   */\n      dup2\n        /* \"#utility.yul\":3563:3567   */\n      dup2\n        /* \"#utility.yul\":3559:3579   */\n      sub\n        /* \"#utility.yul\":3553:3556   */\n      0xc0\n        /* \"#utility.yul\":3542:3551   */\n      dup4\n        /* \"#utility.yul\":3538:3557   */\n      add\n        /* \"#utility.yul\":3531:3580   */\n      mstore\n        /* \"#utility.yul\":3597:3675   */\n      tag_417\n        /* \"#utility.yul\":3670:3674   */\n      dup2\n        /* \"#utility.yul\":3661:3667   */\n      dup5\n        /* \"#utility.yul\":3597:3675   */\n      tag_291\n      jump\t// in\n    tag_417:\n        /* \"#utility.yul\":3589:3675   */\n      swap1\n      pop\n        /* \"#utility.yul\":2741:3682   */\n      swap9\n      swap8\n      pop\n      pop\n      pop\n      pop\n      pop\n      pop\n      pop\n      pop\n      jump\t// out\n        /* \"#utility.yul\":3688:4522   */\n    tag_26:\n        /* \"#utility.yul\":3927:3931   */\n      0x00\n        /* \"#utility.yul\":3965:3968   */\n      0xa0\n        /* \"#utility.yul\":3954:3963   */\n      dup3\n        /* \"#utility.yul\":3950:3969   */\n      add\n        /* \"#utility.yul\":3942:3969   */\n      swap1\n      pop\n        /* \"#utility.yul\":3979:4050   */\n      tag_419\n        /* \"#utility.yul\":4047:4048   */\n      0x00\n        /* \"#utility.yul\":4036:4045   */\n      dup4\n        /* \"#utility.yul\":4032:4049   */\n      add\n        /* \"#utility.yul\":4023:4029   */\n      dup9\n        /* \"#utility.yul\":3979:4050   */\n      tag_282\n      jump\t// in\n    tag_419:\n        /* \"#utility.yul\":4097:4106   */\n      dup2\n        /* \"#utility.yul\":4091:4095   */\n      dup2\n        /* \"#utility.yul\":4087:4107   */\n      sub\n        /* \"#utility.yul\":4082:4084   */\n      0x20\n        /* \"#utility.yul\":4071:4080   */\n      dup4\n        /* \"#utility.yul\":4067:4085   */\n      add\n        /* \"#utility.yul\":4060:4108   */\n      mstore\n        /* \"#utility.yul\":4125:4203   */\n      tag_420\n        /* \"#utility.yul\":4198:4202   */\n      dup2\n        /* \"#utility.yul\":4189:4195   */\n      dup8\n        /* \"#utility.yul\":4125:4203   */\n      tag_291\n      jump\t// in\n    tag_420:\n        /* \"#utility.yul\":4117:4203   */\n      swap1\n      pop\n        /* \"#utility.yul\":4250:4259   */\n      dup2\n        /* \"#utility.yul\":4244:4248   */\n      dup2\n        /* \"#utility.yul\":4240:4260   */\n      sub\n        /* \"#utility.yul\":4235:4237   */\n      0x40\n        /* \"#utility.yul\":4224:4233   */\n      dup4\n        /* \"#utility.yul\":4220:4238   */\n      add\n        /* \"#utility.yul\":4213:4261   */\n      mstore\n        /* \"#utility.yul\":4278:4356   */\n      tag_421\n        /* \"#utility.yul\":4351:4355   */\n      dup2\n        /* \"#utility.yul\":4342:4348   */\n      dup7\n        /* \"#utility.yul\":4278:4356   */\n      tag_291\n      jump\t// in\n    tag_421:\n        /* \"#utility.yul\":4270:4356   */\n      swap1\n      pop\n        /* \"#utility.yul\":4366:4432   */\n      tag_422\n        /* \"#utility.yul\":4428:4430   */\n      0x60\n        /* \"#utility.yul\":4417:4426   */\n      dup4\n        /* \"#utility.yul\":4413:4431   */\n      add\n        /* \"#utility.yul\":4404:4410   */\n      dup6\n        /* \"#utility.yul\":4366:4432   */\n      tag_284\n      jump\t// in\n    tag_422:\n        /* \"#utility.yul\":4442:4515   */\n      tag_423\n        /* \"#utility.yul\":4510:4513   */\n      0x80\n        /* \"#utility.yul\":4499:4508   */\n      dup4\n        /* \"#utility.yul\":4495:4514   */\n      add\n        /* \"#utility.yul\":4486:4492   */\n      dup5\n        /* \"#utility.yul\":4442:4515   */\n      tag_286\n      jump\t// in\n    tag_423:\n        /* \"#utility.yul\":3688:4522   */\n      swap7\n      swap6\n      pop\n      pop\n      pop\n      pop\n      pop\n      pop\n      jump\t// out\n        /* \"#utility.yul\":4528:4841   */\n    tag_30:\n        /* \"#utility.yul\":4641:4645   */\n      0x00\n        /* \"#utility.yul\":4679:4681   */\n      0x20\n        /* \"#utility.yul\":4668:4677   */\n      dup3\n        /* \"#utility.yul\":4664:4682   */\n      add\n        /* \"#utility.yul\":4656:4682   */\n      swap1\n      pop\n        /* \"#utility.yul\":4728:4737   */\n      dup2\n        /* \"#utility.yul\":4722:4726   */\n      dup2\n        /* \"#utility.yul\":4718:4738   */\n      sub\n        /* \"#utility.yul\":4714:4715   */\n      0x00\n        /* \"#utility.yul\":4703:4712   */\n      dup4\n        /* \"#utility.yul\":4699:4716   */\n      add\n        /* \"#utility.yul\":4692:4739   */\n      mstore\n        /* \"#utility.yul\":4756:4834   */\n      tag_425\n        /* \"#utility.yul\":4829:4833   */\n      dup2\n        /* \"#utility.yul\":4820:4826   */\n      dup5\n        /* \"#utility.yul\":4756:4834   */\n      tag_291\n      jump\t// in\n    tag_425:\n        /* \"#utility.yul\":4748:4834   */\n      swap1\n      pop\n        /* \"#utility.yul\":4528:4841   */\n      swap3\n      swap2\n      pop\n      pop\n      jump\t// out\n        /* \"#utility.yul\":4847:4969   */\n    tag_292:\n        /* \"#utility.yul\":4920:4944   */\n      tag_427\n        /* \"#utility.yul\":4938:4943   */\n      dup2\n        /* \"#utility.yul\":4920:4944   */\n      tag_285\n      jump\t// in\n    tag_427:\n        /* \"#utility.yul\":4913:4918   */\n      dup2\n        /* \"#utility.yul\":4910:4945   */\n      eq\n        /* \"#utility.yul\":4900:4963   */\n      tag_428\n      jumpi\n        /* \"#utility.yul\":4959:4960   */\n      0x00\n        /* \"#utility.yul\":4956:4957   */\n      dup1\n        /* \"#utility.yul\":4949:4961   */\n      revert\n        /* \"#utility.yul\":4900:4963   */\n    tag_428:\n        /* \"#utility.yul\":4847:4969   */\n      pop\n      jump\t// out\n        /* \"#utility.yul\":4975:5114   */\n    tag_293:\n        /* \"#utility.yul\":5021:5026   */\n      0x00\n        /* \"#utility.yul\":5059:5065   */\n      dup2\n        /* \"#utility.yul\":5046:5066   */\n      calldataload\n        /* \"#utility.yul\":5037:5066   */\n      swap1\n      pop\n        /* \"#utility.yul\":5075:5108   */\n      tag_430\n        /* \"#utility.yul\":5102:5107   */\n      dup2\n        /* \"#utility.yul\":5075:5108   */\n      tag_292\n      jump\t// in\n    tag_430:\n        /* \"#utility.yul\":4975:5114   */\n      swap3\n      swap2\n      pop\n      pop\n      jump\t// out\n        /* \"#utility.yul\":5120:5594   */\n    tag_35:\n        /* \"#utility.yul\":5188:5194   */\n      0x00\n        /* \"#utility.yul\":5196:5202   */\n      dup1\n        /* \"#utility.yul\":5245:5247   */\n      0x40\n        /* \"#utility.yul\":5233:5242   */\n      dup4\n        /* \"#utility.yul\":5224:5231   */\n      dup6\n        /* \"#utility.yul\":5220:5243   */\n      sub\n        /* \"#utility.yul\":5216:5248   */\n      slt\n        /* \"#utility.yul\":5213:5332   */\n      iszero\n      tag_432\n      jumpi\n        /* \"#utility.yul\":5251:5330   */\n      tag_433\n      tag_276\n      jump\t// in\n    tag_433:\n        /* \"#utility.yul\":5213:5332   */\n    tag_432:\n        /* \"#utility.yul\":5371:5372   */\n      0x00\n        /* \"#utility.yul\":5396:5449   */\n      tag_434\n        /* \"#utility.yul\":5441:5448   */\n      dup6\n        /* \"#utility.yul\":5432:5438   */\n      dup3\n        /* \"#utility.yul\":5421:5430   */\n      dup7\n        /* \"#utility.yul\":5417:5439   */\n      add\n        /* \"#utility.yul\":5396:5449   */\n      tag_293\n      jump\t// in\n    tag_434:\n        /* \"#utility.yul\":5386:5449   */\n      swap3\n      pop\n        /* \"#utility.yul\":5342:5459   */\n      pop\n        /* \"#utility.yul\":5498:5500   */\n      0x20\n        /* \"#utility.yul\":5524:5577   */\n      tag_435\n        /* \"#utility.yul\":5569:5576   */\n      dup6\n        /* \"#utility.yul\":5560:5566   */\n      dup3\n        /* \"#utility.yul\":5549:5558   */\n      dup7\n        /* \"#utility.yul\":5545:5567   */\n      add\n        /* \"#utility.yul\":5524:5577   */\n      tag_281\n      jump\t// in\n    tag_435:\n        /* \"#utility.yul\":5514:5577   */\n      swap2\n      pop\n        /* \"#utility.yul\":5469:5587   */\n      pop\n        /* \"#utility.yul\":5120:5594   */\n      swap3\n      pop\n      swap3\n      swap1\n      pop\n      jump\t// out\n        /* \"#utility.yul\":5600:5740   */\n    tag_294:\n        /* \"#utility.yul\":5693:5699   */\n      0x00\n        /* \"#utility.yul\":5727:5732   */\n      dup2\n        /* \"#utility.yul\":5721:5733   */\n      mload\n        /* \"#utility.yul\":5711:5733   */\n      swap1\n      pop\n        /* \"#utility.yul\":5600:5740   */\n      swap2\n      swap1\n      pop\n      jump\t// out\n        /* \"#utility.yul\":5746:5956   */\n    tag_295:\n        /* \"#utility.yul\":5871:5882   */\n      0x00\n        /* \"#utility.yul\":5905:5911   */\n      dup3\n        /* \"#utility.yul\":5900:5903   */\n      dup3\n        /* \"#utility.yul\":5893:5912   */\n      mstore\n        /* \"#utility.yul\":5945:5949   */\n      0x20\n        /* \"#utility.yul\":5940:5943   */\n      dup3\n        /* \"#utility.yul\":5936:5950   */\n      add\n        /* \"#utility.yul\":5921:5950   */\n      swap1\n      pop\n        /* \"#utility.yul\":5746:5956   */\n      swap3\n      swap2\n      pop\n      pop\n      jump\t// out\n        /* \"#utility.yul\":5962:6120   */\n    tag_296:\n        /* \"#utility.yul\":6055:6059   */\n      0x00\n        /* \"#utility.yul\":6078:6081   */\n      dup2\n        /* \"#utility.yul\":6070:6081   */\n      swap1\n      pop\n        /* \"#utility.yul\":6108:6112   */\n      0x20\n        /* \"#utility.yul\":6103:6106   */\n      dup3\n        /* \"#utility.yul\":6099:6113   */\n      add\n        /* \"#utility.yul\":6091:6113   */\n      swap1\n      pop\n        /* \"#utility.yul\":5962:6120   */\n      swap2\n      swap1\n      pop\n      jump\t// out\n        /* \"#utility.yul\":6126:6234   */\n    tag_297:\n        /* \"#utility.yul\":6203:6227   */\n      tag_440\n        /* \"#utility.yul\":6221:6226   */\n      dup2\n        /* \"#utility.yul\":6203:6227   */\n      tag_279\n      jump\t// in\n    tag_440:\n        /* \"#utility.yul\":6198:6201   */\n      dup3\n        /* \"#utility.yul\":6191:6228   */\n      mstore\n        /* \"#utility.yul\":6126:6234   */\n      pop\n      pop\n      jump\t// out\n        /* \"#utility.yul\":6240:6399   */\n    tag_298:\n        /* \"#utility.yul\":6314:6325   */\n      0x00\n        /* \"#utility.yul\":6348:6354   */\n      dup3\n        /* \"#utility.yul\":6343:6346   */\n      dup3\n        /* \"#utility.yul\":6336:6355   */\n      mstore\n        /* \"#utility.yul\":6388:6392   */\n      0x20\n        /* \"#utility.yul\":6383:6386   */\n      dup3\n        /* \"#utility.yul\":6379:6393   */\n      add\n        /* \"#utility.yul\":6364:6393   */\n      swap1\n      pop\n        /* \"#utility.yul\":6240:6399   */\n      swap3\n      swap2\n      pop\n      pop\n      jump\t// out\n        /* \"#utility.yul\":6405:6762   */\n    tag_299:\n        /* \"#utility.yul\":6483:6486   */\n      0x00\n        /* \"#utility.yul\":6511:6550   */\n      tag_443\n        /* \"#utility.yul\":6544:6549   */\n      dup3\n        /* \"#utility.yul\":6511:6550   */\n      tag_287\n      jump\t// in\n    tag_443:\n        /* \"#utility.yul\":6566:6627   */\n      tag_444\n        /* \"#utility.yul\":6620:6626   */\n      dup2\n        /* \"#utility.yul\":6615:6618   */\n      dup6\n        /* \"#utility.yul\":6566:6627   */\n      tag_298\n      jump\t// in\n    tag_444:\n        /* \"#utility.yul\":6559:6627   */\n      swap4\n      pop\n        /* \"#utility.yul\":6636:6701   */\n      tag_445\n        /* \"#utility.yul\":6694:6700   */\n      dup2\n        /* \"#utility.yul\":6689:6692   */\n      dup6\n        /* \"#utility.yul\":6682:6686   */\n      0x20\n        /* \"#utility.yul\":6675:6680   */\n      dup7\n        /* \"#utility.yul\":6671:6687   */\n      add\n        /* \"#utility.yul\":6636:6701   */\n      tag_289\n      jump\t// in\n    tag_445:\n        /* \"#utility.yul\":6726:6755   */\n      tag_446\n        /* \"#utility.yul\":6748:6754   */\n      dup2\n        /* \"#utility.yul\":6726:6755   */\n      tag_290\n      jump\t// in\n    tag_446:\n        /* \"#utility.yul\":6721:6724   */\n      dup5\n        /* \"#utility.yul\":6717:6756   */\n      add\n        /* \"#utility.yul\":6710:6756   */\n      swap2\n      pop\n        /* \"#utility.yul\":6487:6762   */\n      pop\n        /* \"#utility.yul\":6405:6762   */\n      swap3\n      swap2\n      pop\n      pop\n      jump\t// out\n        /* \"#utility.yul\":6768:6867   */\n    tag_300:\n        /* \"#utility.yul\":6839:6860   */\n      tag_448\n        /* \"#utility.yul\":6854:6859   */\n      dup2\n        /* \"#utility.yul\":6839:6860   */\n      tag_283\n      jump\t// in\n    tag_448:\n        /* \"#utility.yul\":6834:6837   */\n      dup3\n        /* \"#utility.yul\":6827:6861   */\n      mstore\n        /* \"#utility.yul\":6768:6867   */\n      pop\n      pop\n      jump\t// out\n        /* \"#utility.yul\":6873:6981   */\n    tag_301:\n        /* \"#utility.yul\":6950:6974   */\n      tag_450\n        /* \"#utility.yul\":6968:6973   */\n      dup2\n        /* \"#utility.yul\":6950:6974   */\n      tag_285\n      jump\t// in\n    tag_450:\n        /* \"#utility.yul\":6945:6948   */\n      dup3\n        /* \"#utility.yul\":6938:6975   */\n      mstore\n        /* \"#utility.yul\":6873:6981   */\n      pop\n      pop\n      jump\t// out\n        /* \"#utility.yul\":7051:8257   */\n    tag_302:\n        /* \"#utility.yul\":7162:7165   */\n      0x00\n        /* \"#utility.yul\":7198:7202   */\n      0xa0\n        /* \"#utility.yul\":7193:7196   */\n      dup4\n        /* \"#utility.yul\":7189:7203   */\n      add\n        /* \"#utility.yul\":7297:7301   */\n      0x00\n        /* \"#utility.yul\":7290:7295   */\n      dup4\n        /* \"#utility.yul\":7286:7302   */\n      add\n        /* \"#utility.yul\":7280:7303   */\n      mload\n        /* \"#utility.yul\":7316:7379   */\n      tag_452\n        /* \"#utility.yul\":7373:7377   */\n      0x00\n        /* \"#utility.yul\":7368:7371   */\n      dup7\n        /* \"#utility.yul\":7364:7378   */\n      add\n        /* \"#utility.yul\":7350:7362   */\n      dup3\n        /* \"#utility.yul\":7316:7379   */\n      tag_297\n      jump\t// in\n    tag_452:\n        /* \"#utility.yul\":7213:7389   */\n      pop\n        /* \"#utility.yul\":7471:7475   */\n      0x20\n        /* \"#utility.yul\":7464:7469   */\n      dup4\n        /* \"#utility.yul\":7460:7476   */\n      add\n        /* \"#utility.yul\":7454:7477   */\n      mload\n        /* \"#utility.yul\":7524:7527   */\n      dup5\n        /* \"#utility.yul\":7518:7522   */\n      dup3\n        /* \"#utility.yul\":7514:7528   */\n      sub\n        /* \"#utility.yul\":7507:7511   */\n      0x20\n        /* \"#utility.yul\":7502:7505   */\n      dup7\n        /* \"#utility.yul\":7498:7512   */\n      add\n        /* \"#utility.yul\":7491:7529   */\n      mstore\n        /* \"#utility.yul\":7550:7623   */\n      tag_453\n        /* \"#utility.yul\":7618:7622   */\n      dup3\n        /* \"#utility.yul\":7604:7616   */\n      dup3\n        /* \"#utility.yul\":7550:7623   */\n      tag_299\n      jump\t// in\n    tag_453:\n        /* \"#utility.yul\":7542:7623   */\n      swap2\n      pop\n        /* \"#utility.yul\":7399:7634   */\n      pop\n        /* \"#utility.yul\":7720:7724   */\n      0x40\n        /* \"#utility.yul\":7713:7718   */\n      dup4\n        /* \"#utility.yul\":7709:7725   */\n      add\n        /* \"#utility.yul\":7703:7726   */\n      mload\n        /* \"#utility.yul\":7773:7776   */\n      dup5\n        /* \"#utility.yul\":7767:7771   */\n      dup3\n        /* \"#utility.yul\":7763:7777   */\n      sub\n        /* \"#utility.yul\":7756:7760   */\n      0x40\n        /* \"#utility.yul\":7751:7754   */\n      dup7\n        /* \"#utility.yul\":7747:7761   */\n      add\n        /* \"#utility.yul\":7740:7778   */\n      mstore\n        /* \"#utility.yul\":7799:7872   */\n      tag_454\n        /* \"#utility.yul\":7867:7871   */\n      dup3\n        /* \"#utility.yul\":7853:7865   */\n      dup3\n        /* \"#utility.yul\":7799:7872   */\n      tag_299\n      jump\t// in\n    tag_454:\n        /* \"#utility.yul\":7791:7872   */\n      swap2\n      pop\n        /* \"#utility.yul\":7644:7883   */\n      pop\n        /* \"#utility.yul\":7969:7973   */\n      0x60\n        /* \"#utility.yul\":7962:7967   */\n      dup4\n        /* \"#utility.yul\":7958:7974   */\n      add\n        /* \"#utility.yul\":7952:7975   */\n      mload\n        /* \"#utility.yul\":7988:8045   */\n      tag_455\n        /* \"#utility.yul\":8039:8043   */\n      0x60\n        /* \"#utility.yul\":8034:8037   */\n      dup7\n        /* \"#utility.yul\":8030:8044   */\n      add\n        /* \"#utility.yul\":8016:8028   */\n      dup3\n        /* \"#utility.yul\":7988:8045   */\n      tag_300\n      jump\t// in\n    tag_455:\n        /* \"#utility.yul\":7893:8055   */\n      pop\n        /* \"#utility.yul\":8138:8142   */\n      0x80\n        /* \"#utility.yul\":8131:8136   */\n      dup4\n        /* \"#utility.yul\":8127:8143   */\n      add\n        /* \"#utility.yul\":8121:8144   */\n      mload\n        /* \"#utility.yul\":8157:8220   */\n      tag_456\n        /* \"#utility.yul\":8214:8218   */\n      0x80\n        /* \"#utility.yul\":8209:8212   */\n      dup7\n        /* \"#utility.yul\":8205:8219   */\n      add\n        /* \"#utility.yul\":8191:8203   */\n      dup3\n        /* \"#utility.yul\":8157:8220   */\n      tag_301\n      jump\t// in\n    tag_456:\n        /* \"#utility.yul\":8065:8230   */\n      pop\n        /* \"#utility.yul\":8247:8251   */\n      dup1\n        /* \"#utility.yul\":8240:8251   */\n      swap2\n      pop\n        /* \"#utility.yul\":7167:8257   */\n      pop\n        /* \"#utility.yul\":7051:8257   */\n      swap3\n      swap2\n      pop\n      pop\n      jump\t// out\n        /* \"#utility.yul\":8263:8523   */\n    tag_303:\n        /* \"#utility.yul\":8384:8394   */\n      0x00\n        /* \"#utility.yul\":8419:8517   */\n      tag_458\n        /* \"#utility.yul\":8513:8516   */\n      dup4\n        /* \"#utility.yul\":8505:8511   */\n      dup4\n        /* \"#utility.yul\":8419:8517   */\n      tag_302\n      jump\t// in\n    tag_458:\n        /* \"#utility.yul\":8405:8517   */\n      swap1\n      pop\n        /* \"#utility.yul\":8263:8523   */\n      swap3\n      swap2\n      pop\n      pop\n      jump\t// out\n        /* \"#utility.yul\":8529:8668   */\n    tag_304:\n        /* \"#utility.yul\":8625:8629   */\n      0x00\n        /* \"#utility.yul\":8657:8661   */\n      0x20\n        /* \"#utility.yul\":8652:8655   */\n      dup3\n        /* \"#utility.yul\":8648:8662   */\n      add\n        /* \"#utility.yul\":8640:8662   */\n      swap1\n      pop\n        /* \"#utility.yul\":8529:8668   */\n      swap2\n      swap1\n      pop\n      jump\t// out\n        /* \"#utility.yul\":8742:9861   */\n    tag_305:\n        /* \"#utility.yul\":8913:8916   */\n      0x00\n        /* \"#utility.yul\":8942:9022   */\n      tag_461\n        /* \"#utility.yul\":9016:9021   */\n      dup3\n        /* \"#utility.yul\":8942:9022   */\n      tag_294\n      jump\t// in\n    tag_461:\n        /* \"#utility.yul\":9038:9150   */\n      tag_462\n        /* \"#utility.yul\":9143:9149   */\n      dup2\n        /* \"#utility.yul\":9138:9141   */\n      dup6\n        /* \"#utility.yul\":9038:9150   */\n      tag_295\n      jump\t// in\n    tag_462:\n        /* \"#utility.yul\":9031:9150   */\n      swap4\n      pop\n        /* \"#utility.yul\":9176:9179   */\n      dup4\n        /* \"#utility.yul\":9221:9225   */\n      0x20\n        /* \"#utility.yul\":9213:9219   */\n      dup3\n        /* \"#utility.yul\":9209:9226   */\n      mul\n        /* \"#utility.yul\":9204:9207   */\n      dup6\n        /* \"#utility.yul\":9200:9227   */\n      add\n        /* \"#utility.yul\":9251:9333   */\n      tag_463\n        /* \"#utility.yul\":9327:9332   */\n      dup6\n        /* \"#utility.yul\":9251:9333   */\n      tag_296\n      jump\t// in\n    tag_463:\n        /* \"#utility.yul\":9356:9363   */\n      dup1\n        /* \"#utility.yul\":9387:9388   */\n      0x00\n        /* \"#utility.yul\":9372:9816   */\n    tag_464:\n        /* \"#utility.yul\":9397:9403   */\n      dup6\n        /* \"#utility.yul\":9394:9395   */\n      dup2\n        /* \"#utility.yul\":9391:9404   */\n      lt\n        /* \"#utility.yul\":9372:9816   */\n      iszero\n      tag_466\n      jumpi\n        /* \"#utility.yul\":9468:9477   */\n      dup5\n        /* \"#utility.yul\":9462:9466   */\n      dup5\n        /* \"#utility.yul\":9458:9478   */\n      sub\n        /* \"#utility.yul\":9453:9456   */\n      dup10\n        /* \"#utility.yul\":9446:9479   */\n      mstore\n        /* \"#utility.yul\":9519:9525   */\n      dup2\n        /* \"#utility.yul\":9513:9526   */\n      mload\n        /* \"#utility.yul\":9547:9663   */\n      tag_467\n        /* \"#utility.yul\":9658:9662   */\n      dup6\n        /* \"#utility.yul\":9643:9656   */\n      dup3\n        /* \"#utility.yul\":9547:9663   */\n      tag_303\n      jump\t// in\n    tag_467:\n        /* \"#utility.yul\":9539:9663   */\n      swap5\n      pop\n        /* \"#utility.yul\":9686:9772   */\n      tag_468\n        /* \"#utility.yul\":9765:9771   */\n      dup4\n        /* \"#utility.yul\":9686:9772   */\n      tag_304\n      jump\t// in\n    tag_468:\n        /* \"#utility.yul\":9676:9772   */\n      swap3\n      pop\n        /* \"#utility.yul\":9801:9805   */\n      0x20\n        /* \"#utility.yul\":9796:9799   */\n      dup11\n        /* \"#utility.yul\":9792:9806   */\n      add\n        /* \"#utility.yul\":9785:9806   */\n      swap10\n      pop\n        /* \"#utility.yul\":9432:9816   */\n      pop\n        /* \"#utility.yul\":9419:9420   */\n      0x01\n        /* \"#utility.yul\":9416:9417   */\n      dup2\n        /* \"#utility.yul\":9412:9421   */\n      add\n        /* \"#utility.yul\":9407:9421   */\n      swap1\n      pop\n        /* \"#utility.yul\":9372:9816   */\n      jump(tag_464)\n    tag_466:\n        /* \"#utility.yul\":9376:9390   */\n      pop\n        /* \"#utility.yul\":9832:9836   */\n      dup3\n        /* \"#utility.yul\":9825:9836   */\n      swap8\n      pop\n        /* \"#utility.yul\":9852:9855   */\n      dup8\n        /* \"#utility.yul\":9845:9855   */\n      swap6\n      pop\n        /* \"#utility.yul\":8918:9861   */\n      pop\n      pop\n      pop\n      pop\n      pop\n        /* \"#utility.yul\":8742:9861   */\n      swap3\n      swap2\n      pop\n      pop\n      jump\t// out\n        /* \"#utility.yul\":9867:10344   */\n    tag_40:\n        /* \"#utility.yul\":10062:10066   */\n      0x00\n        /* \"#utility.yul\":10100:10102   */\n      0x20\n        /* \"#utility.yul\":10089:10098   */\n      dup3\n        /* \"#utility.yul\":10085:10103   */\n      add\n        /* \"#utility.yul\":10077:10103   */\n      swap1\n      pop\n        /* \"#utility.yul\":10149:10158   */\n      dup2\n        /* \"#utility.yul\":10143:10147   */\n      dup2\n        /* \"#utility.yul\":10139:10159   */\n      sub\n        /* \"#utility.yul\":10135:10136   */\n      0x00\n        /* \"#utility.yul\":10124:10133   */\n      dup4\n        /* \"#utility.yul\":10120:10137   */\n      add\n        /* \"#utility.yul\":10113:10160   */\n      mstore\n        /* \"#utility.yul\":10177:10337   */\n      tag_470\n        /* \"#utility.yul\":10332:10336   */\n      dup2\n        /* \"#utility.yul\":10323:10329   */\n      dup5\n        /* \"#utility.yul\":10177:10337   */\n      tag_305\n      jump\t// in\n    tag_470:\n        /* \"#utility.yul\":10169:10337   */\n      swap1\n      pop\n        /* \"#utility.yul\":9867:10344   */\n      swap3\n      swap2\n      pop\n      pop\n      jump\t// out\n        /* \"#utility.yul\":10350:10467   */\n    tag_306:\n        /* \"#utility.yul\":10459:10460   */\n      0x00\n        /* \"#utility.yul\":10456:10457   */\n      dup1\n        /* \"#utility.yul\":10449:10461   */\n      revert\n        /* \"#utility.yul\":10473:10590   */\n    tag_307:\n        /* \"#utility.yul\":10582:10583   */\n      0x00\n        /* \"#utility.yul\":10579:10580   */\n      dup1\n        /* \"#utility.yul\":10572:10584   */\n      revert\n        /* \"#utility.yul\":10596:10776   */\n    tag_308:\n        /* \"#utility.yul\":10644:10721   */\n      0x4e487b7100000000000000000000000000000000000000000000000000000000\n        /* \"#utility.yul\":10641:10642   */\n      0x00\n        /* \"#utility.yul\":10634:10722   */\n      mstore\n        /* \"#utility.yul\":10741:10745   */\n      0x41\n        /* \"#utility.yul\":10738:10739   */\n      0x04\n        /* \"#utility.yul\":10731:10746   */\n      mstore\n        /* \"#utility.yul\":10765:10769   */\n      0x24\n        /* \"#utility.yul\":10762:10763   */\n      0x00\n        /* \"#utility.yul\":10755:10770   */\n      revert\n        /* \"#utility.yul\":10782:11063   */\n    tag_309:\n        /* \"#utility.yul\":10865:10892   */\n      tag_475\n        /* \"#utility.yul\":10887:10891   */\n      dup3\n        /* \"#utility.yul\":10865:10892   */\n      tag_290\n      jump\t// in\n    tag_475:\n        /* \"#utility.yul\":10857:10863   */\n      dup2\n        /* \"#utility.yul\":10853:10893   */\n      add\n        /* \"#utility.yul\":10995:11001   */\n      dup2\n        /* \"#utility.yul\":10983:10993   */\n      dup2\n        /* \"#utility.yul\":10980:11002   */\n      lt\n        /* \"#utility.yul\":10959:10977   */\n      0xffffffffffffffff\n        /* \"#utility.yul\":10947:10957   */\n      dup3\n        /* \"#utility.yul\":10944:10978   */\n      gt\n        /* \"#utility.yul\":10941:11003   */\n      or\n        /* \"#utility.yul\":10938:11026   */\n      iszero\n      tag_476\n      jumpi\n        /* \"#utility.yul\":11006:11024   */\n      tag_477\n      tag_308\n      jump\t// in\n    tag_477:\n        /* \"#utility.yul\":10938:11026   */\n    tag_476:\n        /* \"#utility.yul\":11046:11056   */\n      dup1\n        /* \"#utility.yul\":11042:11044   */\n      0x40\n        /* \"#utility.yul\":11035:11057   */\n      mstore\n        /* \"#utility.yul\":10825:11063   */\n      pop\n        /* \"#utility.yul\":10782:11063   */\n      pop\n      pop\n      jump\t// out\n        /* \"#utility.yul\":11069:11198   */\n    tag_310:\n        /* \"#utility.yul\":11103:11109   */\n      0x00\n        /* \"#utility.yul\":11130:11150   */\n      tag_479\n      tag_275\n      jump\t// in\n    tag_479:\n        /* \"#utility.yul\":11120:11150   */\n      swap1\n      pop\n        /* \"#utility.yul\":11159:11192   */\n      tag_480\n        /* \"#utility.yul\":11187:11191   */\n      dup3\n        /* \"#utility.yul\":11179:11185   */\n      dup3\n        /* \"#utility.yul\":11159:11192   */\n      tag_309\n      jump\t// in\n    tag_480:\n        /* \"#utility.yul\":11069:11198   */\n      swap2\n      swap1\n      pop\n      jump\t// out\n        /* \"#utility.yul\":11204:11512   */\n    tag_311:\n        /* \"#utility.yul\":11266:11270   */\n      0x00\n        /* \"#utility.yul\":11356:11374   */\n      0xffffffffffffffff\n        /* \"#utility.yul\":11348:11354   */\n      dup3\n        /* \"#utility.yul\":11345:11375   */\n      gt\n        /* \"#utility.yul\":11342:11398   */\n      iszero\n      tag_482\n      jumpi\n        /* \"#utility.yul\":11378:11396   */\n      tag_483\n      tag_308\n      jump\t// in\n    tag_483:\n        /* \"#utility.yul\":11342:11398   */\n    tag_482:\n        /* \"#utility.yul\":11416:11445   */\n      tag_484\n        /* \"#utility.yul\":11438:11444   */\n      dup3\n        /* \"#utility.yul\":11416:11445   */\n      tag_290\n      jump\t// in\n    tag_484:\n        /* \"#utility.yul\":11408:11445   */\n      swap1\n      pop\n        /* \"#utility.yul\":11500:11504   */\n      0x20\n        /* \"#utility.yul\":11494:11498   */\n      dup2\n        /* \"#utility.yul\":11490:11505   */\n      add\n        /* \"#utility.yul\":11482:11505   */\n      swap1\n      pop\n        /* \"#utility.yul\":11204:11512   */\n      swap2\n      swap1\n      pop\n      jump\t// out\n        /* \"#utility.yul\":11518:11664   */\n    tag_312:\n        /* \"#utility.yul\":11615:11621   */\n      dup3\n        /* \"#utility.yul\":11610:11613   */\n      dup2\n        /* \"#utility.yul\":11605:11608   */\n      dup4\n        /* \"#utility.yul\":11592:11622   */\n      calldatacopy\n        /* \"#utility.yul\":11656:11657   */\n      0x00\n        /* \"#utility.yul\":11647:11653   */\n      dup4\n        /* \"#utility.yul\":11642:11645   */\n      dup4\n        /* \"#utility.yul\":11638:11654   */\n      add\n        /* \"#utility.yul\":11631:11658   */\n      mstore\n        /* \"#utility.yul\":11518:11664   */\n      pop\n      pop\n      pop\n      jump\t// out\n        /* \"#utility.yul\":11670:12095   */\n    tag_313:\n        /* \"#utility.yul\":11748:11753   */\n      0x00\n        /* \"#utility.yul\":11773:11839   */\n      tag_487\n        /* \"#utility.yul\":11789:11838   */\n      tag_488\n        /* \"#utility.yul\":11831:11837   */\n      dup5\n        /* \"#utility.yul\":11789:11838   */\n      tag_311\n      jump\t// in\n    tag_488:\n        /* \"#utility.yul\":11773:11839   */\n      tag_310\n      jump\t// in\n    tag_487:\n        /* \"#utility.yul\":11764:11839   */\n      swap1\n      pop\n        /* \"#utility.yul\":11862:11868   */\n      dup3\n        /* \"#utility.yul\":11855:11860   */\n      dup2\n        /* \"#utility.yul\":11848:11869   */\n      mstore\n        /* \"#utility.yul\":11900:11904   */\n      0x20\n        /* \"#utility.yul\":11893:11898   */\n      dup2\n        /* \"#utility.yul\":11889:11905   */\n      add\n        /* \"#utility.yul\":11938:11941   */\n      dup5\n        /* \"#utility.yul\":11929:11935   */\n      dup5\n        /* \"#utility.yul\":11924:11927   */\n      dup5\n        /* \"#utility.yul\":11920:11936   */\n      add\n        /* \"#utility.yul\":11917:11942   */\n      gt\n        /* \"#utility.yul\":11914:12026   */\n      iszero\n      tag_489\n      jumpi\n        /* \"#utility.yul\":11945:12024   */\n      tag_490\n      tag_307\n      jump\t// in\n    tag_490:\n        /* \"#utility.yul\":11914:12026   */\n    tag_489:\n        /* \"#utility.yul\":12035:12089   */\n      tag_491\n        /* \"#utility.yul\":12082:12088   */\n      dup5\n        /* \"#utility.yul\":12077:12080   */\n      dup3\n        /* \"#utility.yul\":12072:12075   */\n      dup6\n        /* \"#utility.yul\":12035:12089   */\n      tag_312\n      jump\t// in\n    tag_491:\n        /* \"#utility.yul\":11754:12095   */\n      pop\n        /* \"#utility.yul\":11670:12095   */\n      swap4\n      swap3\n      pop\n      pop\n      pop\n      jump\t// out\n        /* \"#utility.yul\":12115:12455   */\n    tag_314:\n        /* \"#utility.yul\":12171:12176   */\n      0x00\n        /* \"#utility.yul\":12220:12223   */\n      dup3\n        /* \"#utility.yul\":12213:12217   */\n      0x1f\n        /* \"#utility.yul\":12205:12211   */\n      dup4\n        /* \"#utility.yul\":12201:12218   */\n      add\n        /* \"#utility.yul\":12197:12224   */\n      slt\n        /* \"#utility.yul\":12187:12309   */\n      tag_493\n      jumpi\n        /* \"#utility.yul\":12228:12307   */\n      tag_494\n      tag_306\n      jump\t// in\n    tag_494:\n        /* \"#utility.yul\":12187:12309   */\n    tag_493:\n        /* \"#utility.yul\":12345:12351   */\n      dup2\n        /* \"#utility.yul\":12332:12352   */\n      calldataload\n        /* \"#utility.yul\":12370:12449   */\n      tag_495\n        /* \"#utility.yul\":12445:12448   */\n      dup5\n        /* \"#utility.yul\":12437:12443   */\n      dup3\n        /* \"#utility.yul\":12430:12434   */\n      0x20\n        /* \"#utility.yul\":12422:12428   */\n      dup7\n        /* \"#utility.yul\":12418:12435   */\n      add\n        /* \"#utility.yul\":12370:12449   */\n      tag_313\n      jump\t// in\n    tag_495:\n        /* \"#utility.yul\":12361:12449   */\n      swap2\n      pop\n        /* \"#utility.yul\":12177:12455   */\n      pop\n        /* \"#utility.yul\":12115:12455   */\n      swap3\n      swap2\n      pop\n      pop\n      jump\t// out\n        /* \"#utility.yul\":12461:13115   */\n    tag_51:\n        /* \"#utility.yul\":12539:12545   */\n      0x00\n        /* \"#utility.yul\":12547:12553   */\n      dup1\n        /* \"#utility.yul\":12596:12598   */\n      0x40\n        /* \"#utility.yul\":12584:12593   */\n      dup4\n        /* \"#utility.yul\":12575:12582   */\n      dup6\n        /* \"#utility.yul\":12571:12594   */\n      sub\n        /* \"#utility.yul\":12567:12599   */\n      slt\n        /* \"#utility.yul\":12564:12683   */\n      iszero\n      tag_497\n      jumpi\n        /* \"#utility.yul\":12602:12681   */\n      tag_498\n      tag_276\n      jump\t// in\n    tag_498:\n        /* \"#utility.yul\":12564:12683   */\n    tag_497:\n        /* \"#utility.yul\":12722:12723   */\n      0x00\n        /* \"#utility.yul\":12747:12800   */\n      tag_499\n        /* \"#utility.yul\":12792:12799   */\n      dup6\n        /* \"#utility.yul\":12783:12789   */\n      dup3\n        /* \"#utility.yul\":12772:12781   */\n      dup7\n        /* \"#utility.yul\":12768:12790   */\n      add\n        /* \"#utility.yul\":12747:12800   */\n      tag_281\n      jump\t// in\n    tag_499:\n        /* \"#utility.yul\":12737:12800   */\n      swap3\n      pop\n        /* \"#utility.yul\":12693:12810   */\n      pop\n        /* \"#utility.yul\":12877:12879   */\n      0x20\n        /* \"#utility.yul\":12866:12875   */\n      dup4\n        /* \"#utility.yul\":12862:12880   */\n      add\n        /* \"#utility.yul\":12849:12881   */\n      calldataload\n        /* \"#utility.yul\":12908:12926   */\n      0xffffffffffffffff\n        /* \"#utility.yul\":12900:12906   */\n      dup2\n        /* \"#utility.yul\":12897:12927   */\n      gt\n        /* \"#utility.yul\":12894:13011   */\n      iszero\n      tag_500\n      jumpi\n        /* \"#utility.yul\":12930:13009   */\n      tag_501\n      tag_277\n      jump\t// in\n    tag_501:\n        /* \"#utility.yul\":12894:13011   */\n    tag_500:\n        /* \"#utility.yul\":13035:13098   */\n      tag_502\n        /* \"#utility.yul\":13090:13097   */\n      dup6\n        /* \"#utility.yul\":13081:13087   */\n      dup3\n        /* \"#utility.yul\":13070:13079   */\n      dup7\n        /* \"#utility.yul\":13066:13088   */\n      add\n        /* \"#utility.yul\":13035:13098   */\n      tag_314\n      jump\t// in\n    tag_502:\n        /* \"#utility.yul\":13025:13098   */\n      swap2\n      pop\n        /* \"#utility.yul\":12820:13108   */\n      pop\n        /* \"#utility.yul\":12461:13115   */\n      swap3\n      pop\n      swap3\n      swap1\n      pop\n      jump\t// out\n        /* \"#utility.yul\":13121:13257   */\n    tag_315:\n        /* \"#utility.yul\":13210:13216   */\n      0x00\n        /* \"#utility.yul\":13244:13249   */\n      dup2\n        /* \"#utility.yul\":13238:13250   */\n      mload\n        /* \"#utility.yul\":13228:13250   */\n      swap1\n      pop\n        /* \"#utility.yul\":13121:13257   */\n      swap2\n      swap1\n      pop\n      jump\t// out\n        /* \"#utility.yul\":13263:13469   */\n    tag_316:\n        /* \"#utility.yul\":13384:13395   */\n      0x00\n        /* \"#utility.yul\":13418:13424   */\n      dup3\n        /* \"#utility.yul\":13413:13416   */\n      dup3\n        /* \"#utility.yul\":13406:13425   */\n      mstore\n        /* \"#utility.yul\":13458:13462   */\n      0x20\n        /* \"#utility.yul\":13453:13456   */\n      dup3\n        /* \"#utility.yul\":13449:13463   */\n      add\n        /* \"#utility.yul\":13434:13463   */\n      swap1\n      pop\n        /* \"#utility.yul\":13263:13469   */\n      swap3\n      swap2\n      pop\n      pop\n      jump\t// out\n        /* \"#utility.yul\":13475:13629   */\n    tag_317:\n        /* \"#utility.yul\":13564:13568   */\n      0x00\n        /* \"#utility.yul\":13587:13590   */\n      dup2\n        /* \"#utility.yul\":13579:13590   */\n      swap1\n      pop\n        /* \"#utility.yul\":13617:13621   */\n      0x20\n        /* \"#utility.yul\":13612:13615   */\n      dup3\n        /* \"#utility.yul\":13608:13622   */\n      add\n        /* \"#utility.yul\":13600:13622   */\n      swap1\n      pop\n        /* \"#utility.yul\":13475:13629   */\n      swap2\n      swap1\n      pop\n      jump\t// out\n        /* \"#utility.yul\":13691:15164   */\n    tag_318:\n        /* \"#utility.yul\":13794:13797   */\n      0x00\n        /* \"#utility.yul\":13830:13834   */\n      0xe0\n        /* \"#utility.yul\":13825:13828   */\n      dup4\n        /* \"#utility.yul\":13821:13835   */\n      add\n        /* \"#utility.yul\":13925:13929   */\n      0x00\n        /* \"#utility.yul\":13918:13923   */\n      dup4\n        /* \"#utility.yul\":13914:13930   */\n      add\n        /* \"#utility.yul\":13908:13931   */\n      mload\n        /* \"#utility.yul\":13944:14007   */\n      tag_507\n        /* \"#utility.yul\":14001:14005   */\n      0x00\n        /* \"#utility.yul\":13996:13999   */\n      dup7\n        /* \"#utility.yul\":13992:14006   */\n      add\n        /* \"#utility.yul\":13978:13990   */\n      dup3\n        /* \"#utility.yul\":13944:14007   */\n      tag_297\n      jump\t// in\n    tag_507:\n        /* \"#utility.yul\":13845:14017   */\n      pop\n        /* \"#utility.yul\":14103:14107   */\n      0x20\n        /* \"#utility.yul\":14096:14101   */\n      dup4\n        /* \"#utility.yul\":14092:14108   */\n      add\n        /* \"#utility.yul\":14086:14109   */\n      mload\n        /* \"#utility.yul\":14122:14179   */\n      tag_508\n        /* \"#utility.yul\":14173:14177   */\n      0x20\n        /* \"#utility.yul\":14168:14171   */\n      dup7\n        /* \"#utility.yul\":14164:14178   */\n      add\n        /* \"#utility.yul\":14150:14162   */\n      dup3\n        /* \"#utility.yul\":14122:14179   */\n      tag_300\n      jump\t// in\n    tag_508:\n        /* \"#utility.yul\":14027:14189   */\n      pop\n        /* \"#utility.yul\":14272:14276   */\n      0x40\n        /* \"#utility.yul\":14265:14270   */\n      dup4\n        /* \"#utility.yul\":14261:14277   */\n      add\n        /* \"#utility.yul\":14255:14278   */\n      mload\n        /* \"#utility.yul\":14291:14348   */\n      tag_509\n        /* \"#utility.yul\":14342:14346   */\n      0x40\n        /* \"#utility.yul\":14337:14340   */\n      dup7\n        /* \"#utility.yul\":14333:14347   */\n      add\n        /* \"#utility.yul\":14319:14331   */\n      dup3\n        /* \"#utility.yul\":14291:14348   */\n      tag_300\n      jump\t// in\n    tag_509:\n        /* \"#utility.yul\":14199:14358   */\n      pop\n        /* \"#utility.yul\":14450:14454   */\n      0x60\n        /* \"#utility.yul\":14443:14448   */\n      dup4\n        /* \"#utility.yul\":14439:14455   */\n      add\n        /* \"#utility.yul\":14433:14456   */\n      mload\n        /* \"#utility.yul\":14469:14526   */\n      tag_510\n        /* \"#utility.yul\":14520:14524   */\n      0x60\n        /* \"#utility.yul\":14515:14518   */\n      dup7\n        /* \"#utility.yul\":14511:14525   */\n      add\n        /* \"#utility.yul\":14497:14509   */\n      dup3\n        /* \"#utility.yul\":14469:14526   */\n      tag_300\n      jump\t// in\n    tag_510:\n        /* \"#utility.yul\":14368:14536   */\n      pop\n        /* \"#utility.yul\":14628:14632   */\n      0x80\n        /* \"#utility.yul\":14621:14626   */\n      dup4\n        /* \"#utility.yul\":14617:14633   */\n      add\n        /* \"#utility.yul\":14611:14634   */\n      mload\n        /* \"#utility.yul\":14647:14710   */\n      tag_511\n        /* \"#utility.yul\":14704:14708   */\n      0x80\n        /* \"#utility.yul\":14699:14702   */\n      dup7\n        /* \"#utility.yul\":14695:14709   */\n      add\n        /* \"#utility.yul\":14681:14693   */\n      dup3\n        /* \"#utility.yul\":14647:14710   */\n      tag_301\n      jump\t// in\n    tag_511:\n        /* \"#utility.yul\":14546:14720   */\n      pop\n        /* \"#utility.yul\":14800:14804   */\n      0xa0\n        /* \"#utility.yul\":14793:14798   */\n      dup4\n        /* \"#utility.yul\":14789:14805   */\n      add\n        /* \"#utility.yul\":14783:14806   */\n      mload\n        /* \"#utility.yul\":14819:14882   */\n      tag_512\n        /* \"#utility.yul\":14876:14880   */\n      0xa0\n        /* \"#utility.yul\":14871:14874   */\n      dup7\n        /* \"#utility.yul\":14867:14881   */\n      add\n        /* \"#utility.yul\":14853:14865   */\n      dup3\n        /* \"#utility.yul\":14819:14882   */\n      tag_301\n      jump\t// in\n    tag_512:\n        /* \"#utility.yul\":14730:14892   */\n      pop\n        /* \"#utility.yul\":14974:14978   */\n      0xc0\n        /* \"#utility.yul\":14967:14972   */\n      dup4\n        /* \"#utility.yul\":14963:14979   */\n      add\n        /* \"#utility.yul\":14957:14980   */\n      mload\n        /* \"#utility.yul\":15027:15030   */\n      dup5\n        /* \"#utility.yul\":15021:15025   */\n      dup3\n        /* \"#utility.yul\":15017:15031   */\n      sub\n        /* \"#utility.yul\":15010:15014   */\n      0xc0\n        /* \"#utility.yul\":15005:15008   */\n      dup7\n        /* \"#utility.yul\":15001:15015   */\n      add\n        /* \"#utility.yul\":14994:15032   */\n      mstore\n        /* \"#utility.yul\":15053:15126   */\n      tag_513\n        /* \"#utility.yul\":15121:15125   */\n      dup3\n        /* \"#utility.yul\":15107:15119   */\n      dup3\n        /* \"#utility.yul\":15053:15126   */\n      tag_299\n      jump\t// in\n    tag_513:\n        /* \"#utility.yul\":15045:15126   */\n      swap2\n      pop\n        /* \"#utility.yul\":14902:15137   */\n      pop\n        /* \"#utility.yul\":15154:15158   */\n      dup1\n        /* \"#utility.yul\":15147:15158   */\n      swap2\n      pop\n        /* \"#utility.yul\":13799:15164   */\n      pop\n        /* \"#utility.yul\":13691:15164   */\n      swap3\n      swap2\n      pop\n      pop\n      jump\t// out\n        /* \"#utility.yul\":15170:15414   */\n    tag_319:\n        /* \"#utility.yul\":15283:15293   */\n      0x00\n        /* \"#utility.yul\":15318:15408   */\n      tag_515\n        /* \"#utility.yul\":15404:15407   */\n      dup4\n        /* \"#utility.yul\":15396:15402   */\n      dup4\n        /* \"#utility.yul\":15318:15408   */\n      tag_318\n      jump\t// in\n    tag_515:\n        /* \"#utility.yul\":15304:15408   */\n      swap1\n      pop\n        /* \"#utility.yul\":15170:15414   */\n      swap3\n      swap2\n      pop\n      pop\n      jump\t// out\n        /* \"#utility.yul\":15420:15555   */\n    tag_320:\n        /* \"#utility.yul\":15512:15516   */\n      0x00\n        /* \"#utility.yul\":15544:15548   */\n      0x20\n        /* \"#utility.yul\":15539:15542   */\n      dup3\n        /* \"#utility.yul\":15535:15549   */\n      add\n        /* \"#utility.yul\":15527:15549   */\n      swap1\n      pop\n        /* \"#utility.yul\":15420:15555   */\n      swap2\n      swap1\n      pop\n      jump\t// out\n        /* \"#utility.yul\":15621:16708   */\n    tag_321:\n        /* \"#utility.yul\":15784:15787   */\n      0x00\n        /* \"#utility.yul\":15813:15889   */\n      tag_518\n        /* \"#utility.yul\":15883:15888   */\n      dup3\n        /* \"#utility.yul\":15813:15889   */\n      tag_315\n      jump\t// in\n    tag_518:\n        /* \"#utility.yul\":15905:16013   */\n      tag_519\n        /* \"#utility.yul\":16006:16012   */\n      dup2\n        /* \"#utility.yul\":16001:16004   */\n      dup6\n        /* \"#utility.yul\":15905:16013   */\n      tag_316\n      jump\t// in\n    tag_519:\n        /* \"#utility.yul\":15898:16013   */\n      swap4\n      pop\n        /* \"#utility.yul\":16039:16042   */\n      dup4\n        /* \"#utility.yul\":16084:16088   */\n      0x20\n        /* \"#utility.yul\":16076:16082   */\n      dup3\n        /* \"#utility.yul\":16072:16089   */\n      mul\n        /* \"#utility.yul\":16067:16070   */\n      dup6\n        /* \"#utility.yul\":16063:16090   */\n      add\n        /* \"#utility.yul\":16114:16192   */\n      tag_520\n        /* \"#utility.yul\":16186:16191   */\n      dup6\n        /* \"#utility.yul\":16114:16192   */\n      tag_317\n      jump\t// in\n    tag_520:\n        /* \"#utility.yul\":16215:16222   */\n      dup1\n        /* \"#utility.yul\":16246:16247   */\n      0x00\n        /* \"#utility.yul\":16231:16663   */\n    tag_521:\n        /* \"#utility.yul\":16256:16262   */\n      dup6\n        /* \"#utility.yul\":16253:16254   */\n      dup2\n        /* \"#utility.yul\":16250:16263   */\n      lt\n        /* \"#utility.yul\":16231:16663   */\n      iszero\n      tag_523\n      jumpi\n        /* \"#utility.yul\":16327:16336   */\n      dup5\n        /* \"#utility.yul\":16321:16325   */\n      dup5\n        /* \"#utility.yul\":16317:16337   */\n      sub\n        /* \"#utility.yul\":16312:16315   */\n      dup10\n        /* \"#utility.yul\":16305:16338   */\n      mstore\n        /* \"#utility.yul\":16378:16384   */\n      dup2\n        /* \"#utility.yul\":16372:16385   */\n      mload\n        /* \"#utility.yul\":16406:16514   */\n      tag_524\n        /* \"#utility.yul\":16509:16513   */\n      dup6\n        /* \"#utility.yul\":16494:16507   */\n      dup3\n        /* \"#utility.yul\":16406:16514   */\n      tag_319\n      jump\t// in\n    tag_524:\n        /* \"#utility.yul\":16398:16514   */\n      swap5\n      pop\n        /* \"#utility.yul\":16537:16619   */\n      tag_525\n        /* \"#utility.yul\":16612:16618   */\n      dup4\n        /* \"#utility.yul\":16537:16619   */\n      tag_320\n      jump\t// in\n    tag_525:\n        /* \"#utility.yul\":16527:16619   */\n      swap3\n      pop\n        /* \"#utility.yul\":16648:16652   */\n      0x20\n        /* \"#utility.yul\":16643:16646   */\n      dup11\n        /* \"#utility.yul\":16639:16653   */\n      add\n        /* \"#utility.yul\":16632:16653   */\n      swap10\n      pop\n        /* \"#utility.yul\":16291:16663   */\n      pop\n        /* \"#utility.yul\":16278:16279   */\n      0x01\n        /* \"#utility.yul\":16275:16276   */\n      dup2\n        /* \"#utility.yul\":16271:16280   */\n      add\n        /* \"#utility.yul\":16266:16280   */\n      swap1\n      pop\n        /* \"#utility.yul\":16231:16663   */\n      jump(tag_521)\n    tag_523:\n        /* \"#utility.yul\":16235:16249   */\n      pop\n        /* \"#utility.yul\":16679:16683   */\n      dup3\n        /* \"#utility.yul\":16672:16683   */\n      swap8\n      pop\n        /* \"#utility.yul\":16699:16702   */\n      dup8\n        /* \"#utility.yul\":16692:16702   */\n      swap6\n      pop\n        /* \"#utility.yul\":15789:16708   */\n      pop\n      pop\n      pop\n      pop\n      pop\n        /* \"#utility.yul\":15621:16708   */\n      swap3\n      swap2\n      pop\n      pop\n      jump\t// out\n        /* \"#utility.yul\":16714:17175   */\n    tag_56:\n        /* \"#utility.yul\":16901:16905   */\n      0x00\n        /* \"#utility.yul\":16939:16941   */\n      0x20\n        /* \"#utility.yul\":16928:16937   */\n      dup3\n        /* \"#utility.yul\":16924:16942   */\n      add\n        /* \"#utility.yul\":16916:16942   */\n      swap1\n      pop\n        /* \"#utility.yul\":16988:16997   */\n      dup2\n        /* \"#utility.yul\":16982:16986   */\n      dup2\n        /* \"#utility.yul\":16978:16998   */\n      sub\n        /* \"#utility.yul\":16974:16975   */\n      0x00\n        /* \"#utility.yul\":16963:16972   */\n      dup4\n        /* \"#utility.yul\":16959:16976   */\n      add\n        /* \"#utility.yul\":16952:16999   */\n      mstore\n        /* \"#utility.yul\":17016:17168   */\n      tag_527\n        /* \"#utility.yul\":17163:17167   */\n      dup2\n        /* \"#utility.yul\":17154:17160   */\n      dup5\n        /* \"#utility.yul\":17016:17168   */\n      tag_321\n      jump\t// in\n    tag_527:\n        /* \"#utility.yul\":17008:17168   */\n      swap1\n      pop\n        /* \"#utility.yul\":16714:17175   */\n      swap3\n      swap2\n      pop\n      pop\n      jump\t// out\n        /* \"#utility.yul\":17181:18160   */\n    tag_59:\n        /* \"#utility.yul\":17278:17284   */\n      0x00\n        /* \"#utility.yul\":17286:17292   */\n      dup1\n        /* \"#utility.yul\":17294:17300   */\n      0x00\n        /* \"#utility.yul\":17343:17345   */\n      0x60\n        /* \"#utility.yul\":17331:17340   */\n      dup5\n        /* \"#utility.yul\":17322:17329   */\n      dup7\n        /* \"#utility.yul\":17318:17341   */\n      sub\n        /* \"#utility.yul\":17314:17346   */\n      slt\n        /* \"#utility.yul\":17311:17430   */\n      iszero\n      tag_529\n      jumpi\n        /* \"#utility.yul\":17349:17428   */\n      tag_530\n      tag_276\n      jump\t// in\n    tag_530:\n        /* \"#utility.yul\":17311:17430   */\n    tag_529:\n        /* \"#utility.yul\":17497:17498   */\n      0x00\n        /* \"#utility.yul\":17486:17495   */\n      dup5\n        /* \"#utility.yul\":17482:17499   */\n      add\n        /* \"#utility.yul\":17469:17500   */\n      calldataload\n        /* \"#utility.yul\":17527:17545   */\n      0xffffffffffffffff\n        /* \"#utility.yul\":17519:17525   */\n      dup2\n        /* \"#utility.yul\":17516:17546   */\n      gt\n        /* \"#utility.yul\":17513:17630   */\n      iszero\n      tag_531\n      jumpi\n        /* \"#utility.yul\":17549:17628   */\n      tag_532\n      tag_277\n      jump\t// in\n    tag_532:\n        /* \"#utility.yul\":17513:17630   */\n    tag_531:\n        /* \"#utility.yul\":17654:17717   */\n      tag_533\n        /* \"#utility.yul\":17709:17716   */\n      dup7\n        /* \"#utility.yul\":17700:17706   */\n      dup3\n        /* \"#utility.yul\":17689:17698   */\n      dup8\n        /* \"#utility.yul\":17685:17707   */\n      add\n        /* \"#utility.yul\":17654:17717   */\n      tag_314\n      jump\t// in\n    tag_533:\n        /* \"#utility.yul\":17644:17717   */\n      swap4\n      pop\n        /* \"#utility.yul\":17440:17727   */\n      pop\n        /* \"#utility.yul\":17794:17796   */\n      0x20\n        /* \"#utility.yul\":17783:17792   */\n      dup5\n        /* \"#utility.yul\":17779:17797   */\n      add\n        /* \"#utility.yul\":17766:17798   */\n      calldataload\n        /* \"#utility.yul\":17825:17843   */\n      0xffffffffffffffff\n        /* \"#utility.yul\":17817:17823   */\n      dup2\n        /* \"#utility.yul\":17814:17844   */\n      gt\n        /* \"#utility.yul\":17811:17928   */\n      iszero\n      tag_534\n      jumpi\n        /* \"#utility.yul\":17847:17926   */\n      tag_535\n      tag_277\n      jump\t// in\n    tag_535:\n        /* \"#utility.yul\":17811:17928   */\n    tag_534:\n        /* \"#utility.yul\":17952:18015   */\n      tag_536\n        /* \"#utility.yul\":18007:18014   */\n      dup7\n        /* \"#utility.yul\":17998:18004   */\n      dup3\n        /* \"#utility.yul\":17987:17996   */\n      dup8\n        /* \"#utility.yul\":17983:18005   */\n      add\n        /* \"#utility.yul\":17952:18015   */\n      tag_314\n      jump\t// in\n    tag_536:\n        /* \"#utility.yul\":17942:18015   */\n      swap3\n      pop\n        /* \"#utility.yul\":17737:18025   */\n      pop\n        /* \"#utility.yul\":18064:18066   */\n      0x40\n        /* \"#utility.yul\":18090:18143   */\n      tag_537\n        /* \"#utility.yul\":18135:18142   */\n      dup7\n        /* \"#utility.yul\":18126:18132   */\n      dup3\n        /* \"#utility.yul\":18115:18124   */\n      dup8\n        /* \"#utility.yul\":18111:18133   */\n      add\n        /* \"#utility.yul\":18090:18143   */\n      tag_281\n      jump\t// in\n    tag_537:\n        /* \"#utility.yul\":18080:18143   */\n      swap2\n      pop\n        /* \"#utility.yul\":18035:18153   */\n      pop\n        /* \"#utility.yul\":17181:18160   */\n      swap3\n      pop\n      swap3\n      pop\n      swap3\n      jump\t// out\n        /* \"#utility.yul\":18166:18346   */\n    tag_322:\n        /* \"#utility.yul\":18214:18291   */\n      0x4e487b7100000000000000000000000000000000000000000000000000000000\n        /* \"#utility.yul\":18211:18212   */\n      0x00\n        /* \"#utility.yul\":18204:18292   */\n      mstore\n        /* \"#utility.yul\":18311:18315   */\n      0x22\n        /* \"#utility.yul\":18308:18309   */\n      0x04\n        /* \"#utility.yul\":18301:18316   */\n      mstore\n        /* \"#utility.yul\":18335:18339   */\n      0x24\n        /* \"#utility.yul\":18332:18333   */\n      0x00\n        /* \"#utility.yul\":18325:18340   */\n      revert\n        /* \"#utility.yul\":18352:18672   */\n    tag_62:\n        /* \"#utility.yul\":18396:18402   */\n      0x00\n        /* \"#utility.yul\":18433:18434   */\n      0x02\n        /* \"#utility.yul\":18427:18431   */\n      dup3\n        /* \"#utility.yul\":18423:18435   */\n      div\n        /* \"#utility.yul\":18413:18435   */\n      swap1\n      pop\n        /* \"#utility.yul\":18480:18481   */\n      0x01\n        /* \"#utility.yul\":18474:18478   */\n      dup3\n        /* \"#utility.yul\":18470:18482   */\n      and\n        /* \"#utility.yul\":18501:18519   */\n      dup1\n        /* \"#utility.yul\":18491:18572   */\n      tag_540\n      jumpi\n        /* \"#utility.yul\":18557:18561   */\n      0x7f\n        /* \"#utility.yul\":18549:18555   */\n      dup3\n        /* \"#utility.yul\":18545:18562   */\n      and\n        /* \"#utility.yul\":18535:18562   */\n      swap2\n      pop\n        /* \"#utility.yul\":18491:18572   */\n    tag_540:\n        /* \"#utility.yul\":18619:18621   */\n      0x20\n        /* \"#utility.yul\":18611:18617   */\n      dup3\n        /* \"#utility.yul\":18608:18622   */\n      lt\n        /* \"#utility.yul\":18588:18606   */\n      dup2\n        /* \"#utility.yul\":18585:18623   */\n      sub\n        /* \"#utility.yul\":18582:18666   */\n      tag_541\n      jumpi\n        /* \"#utility.yul\":18638:18656   */\n      tag_542\n      tag_322\n      jump\t// in\n    tag_542:\n        /* \"#utility.yul\":18582:18666   */\n    tag_541:\n        /* \"#utility.yul\":18403:18672   */\n      pop\n        /* \"#utility.yul\":18352:18672   */\n      swap2\n      swap1\n      pop\n      jump\t// out\n        /* \"#utility.yul\":18678:18858   */\n    tag_89:\n        /* \"#utility.yul\":18726:18803   */\n      0x4e487b7100000000000000000000000000000000000000000000000000000000\n        /* \"#utility.yul\":18723:18724   */\n      0x00\n        /* \"#utility.yul\":18716:18804   */\n      mstore\n        /* \"#utility.yul\":18823:18827   */\n      0x21\n        /* \"#utility.yul\":18820:18821   */\n      0x04\n        /* \"#utility.yul\":18813:18828   */\n      mstore\n        /* \"#utility.yul\":18847:18851   */\n      0x24\n        /* \"#utility.yul\":18844:18845   */\n      0x00\n        /* \"#utility.yul\":18837:18852   */\n      revert\n        /* \"#utility.yul\":18864:19005   */\n    tag_323:\n        /* \"#utility.yul\":18913:18917   */\n      0x00\n        /* \"#utility.yul\":18936:18939   */\n      dup2\n        /* \"#utility.yul\":18928:18939   */\n      swap1\n      pop\n        /* \"#utility.yul\":18959:18962   */\n      dup2\n        /* \"#utility.yul\":18956:18957   */\n      0x00\n        /* \"#utility.yul\":18949:18963   */\n      mstore\n        /* \"#utility.yul\":18993:18997   */\n      0x20\n        /* \"#utility.yul\":18990:18991   */\n      0x00\n        /* \"#utility.yul\":18980:18998   */\n      keccak256\n        /* \"#utility.yul\":18972:18998   */\n      swap1\n      pop\n        /* \"#utility.yul\":18864:19005   */\n      swap2\n      swap1\n      pop\n      jump\t// out\n        /* \"#utility.yul\":19011:19104   */\n    tag_324:\n        /* \"#utility.yul\":19048:19054   */\n      0x00\n        /* \"#utility.yul\":19095:19097   */\n      0x20\n        /* \"#utility.yul\":19090:19092   */\n      0x1f\n        /* \"#utility.yul\":19083:19088   */\n      dup4\n        /* \"#utility.yul\":19079:19093   */\n      add\n        /* \"#utility.yul\":19075:19098   */\n      div\n        /* \"#utility.yul\":19065:19098   */\n      swap1\n      pop\n        /* \"#utility.yul\":19011:19104   */\n      swap2\n      swap1\n      pop\n      jump\t// out\n        /* \"#utility.yul\":19110:19217   */\n    tag_325:\n        /* \"#utility.yul\":19154:19162   */\n      0x00\n        /* \"#utility.yul\":19204:19209   */\n      dup3\n        /* \"#utility.yul\":19198:19202   */\n      dup3\n        /* \"#utility.yul\":19194:19210   */\n      shl\n        /* \"#utility.yul\":19173:19210   */\n      swap1\n      pop\n        /* \"#utility.yul\":19110:19217   */\n      swap3\n      swap2\n      pop\n      pop\n      jump\t// out\n        /* \"#utility.yul\":19223:19616   */\n    tag_326:\n        /* \"#utility.yul\":19292:19298   */\n      0x00\n        /* \"#utility.yul\":19342:19343   */\n      0x08\n        /* \"#utility.yul\":19330:19340   */\n      dup4\n        /* \"#utility.yul\":19326:19344   */\n      mul\n        /* \"#utility.yul\":19365:19462   */\n      tag_548\n        /* \"#utility.yul\":19395:19461   */\n      0xffffffffffffffffffffffffffffffffffffffffffffffffffffffffffffffff\n        /* \"#utility.yul\":19384:19393   */\n      dup3\n        /* \"#utility.yul\":19365:19462   */\n      tag_325\n      jump\t// in\n    tag_548:\n        /* \"#utility.yul\":19483:19522   */\n      tag_549\n        /* \"#utility.yul\":19513:19521   */\n      dup7\n        /* \"#utility.yul\":19502:19511   */\n      dup4\n        /* \"#utility.yul\":19483:19522   */\n      tag_325\n      jump\t// in\n    tag_549:\n        /* \"#utility.yul\":19471:19522   */\n      swap6\n      pop\n        /* \"#utility.yul\":19555:19559   */\n      dup1\n        /* \"#utility.yul\":19551:19560   */\n      not\n        /* \"#utility.yul\":19544:19549   */\n      dup5\n        /* \"#utility.yul\":19540:19561   */\n      and\n        /* \"#utility.yul\":19531:19561   */\n      swap4\n      pop\n        /* \"#utility.yul\":19604:19608   */\n      dup1\n        /* \"#utility.yul\":19594:19602   */\n      dup7\n        /* \"#utility.yul\":19590:19609   */\n      and\n        /* \"#utility.yul\":19583:19588   */\n      dup5\n        /* \"#utility.yul\":19580:19610   */\n      or\n        /* \"#utility.yul\":19570:19610   */\n      swap3\n      pop\n        /* \"#utility.yul\":19299:19616   */\n      pop\n      pop\n        /* \"#utility.yul\":19223:19616   */\n      swap4\n      swap3\n      pop\n      pop\n      pop\n      jump\t// out\n        /* \"#utility.yul\":19622:19682   */\n    tag_327:\n        /* \"#utility.yul\":19650:19653   */\n      0x00\n        /* \"#utility.yul\":19671:19676   */\n      dup2\n        /* \"#utility.yul\":19664:19676   */\n      swap1\n      pop\n        /* \"#utility.yul\":19622:19682   */\n      swap2\n      swap1\n      pop\n      jump\t// out\n        /* \"#utility.yul\":19688:19830   */\n    tag_328:\n        /* \"#utility.yul\":19738:19747   */\n      0x00\n        /* \"#utility.yul\":19771:19824   */\n      tag_552\n        /* \"#utility.yul\":19789:19823   */\n      tag_553\n        /* \"#utility.yul\":19798:19822   */\n      tag_554\n        /* \"#utility.yul\":19816:19821   */\n      dup5\n        /* \"#utility.yul\":19798:19822   */\n      tag_285\n      jump\t// in\n    tag_554:\n        /* \"#utility.yul\":19789:19823   */\n      tag_327\n      jump\t// in\n    tag_553:\n        /* \"#utility.yul\":19771:19824   */\n      tag_285\n      jump\t// in\n    tag_552:\n        /* \"#utility.yul\":19758:19824   */\n      swap1\n      pop\n        /* \"#utility.yul\":19688:19830   */\n      swap2\n      swap1\n      pop\n      jump\t// out\n        /* \"#utility.yul\":19836:19911   */\n    tag_329:\n        /* \"#utility.yul\":19879:19882   */\n      0x00\n        /* \"#utility.yul\":19900:19905   */\n      dup2\n        /* \"#utility.yul\":19893:19905   */\n      swap1\n      pop\n        /* \"#utility.yul\":19836:19911   */\n      swap2\n      swap1\n      pop\n      jump\t// out\n        /* \"#utility.yul\":19917:20186   */\n    tag_330:\n        /* \"#utility.yul\":20027:20066   */\n      tag_557\n        /* \"#utility.yul\":20058:20065   */\n      dup4\n        /* \"#utility.yul\":20027:20066   */\n      tag_328\n      jump\t// in\n    tag_557:\n        /* \"#utility.yul\":20088:20179   */\n      tag_558\n        /* \"#utility.yul\":20137:20178   */\n      tag_559\n        /* \"#utility.yul\":20161:20177   */\n      dup3\n        /* \"#utility.yul\":20137:20178   */\n      tag_329\n      jump\t// in\n    tag_559:\n        /* \"#utility.yul\":20129:20135   */\n      dup5\n        /* \"#utility.yul\":20122:20126   */\n      dup5\n        /* \"#utility.yul\":20116:20127   */\n      sload\n        /* \"#utility.yul\":20088:20179   */\n      tag_326\n      jump\t// in\n    tag_558:\n        /* \"#utility.yul\":20082:20086   */\n      dup3\n        /* \"#utility.yul\":20075:20180   */\n      sstore\n        /* \"#utility.yul\":19993:20186   */\n      pop\n        /* \"#utility.yul\":19917:20186   */\n      pop\n      pop\n      pop\n      jump\t// out\n        /* \"#utility.yul\":20192:20265   */\n    tag_331:\n        /* \"#utility.yul\":20237:20240   */\n      0x00\n        /* \"#utility.yul\":20192:20265   */\n      swap1\n      jump\t// out\n        /* \"#utility.yul\":20271:20460   */\n    tag_332:\n        /* \"#utility.yul\":20348:20380   */\n      tag_562\n      tag_331\n      jump\t// in\n    tag_562:\n        /* \"#utility.yul\":20389:20454   */\n      tag_563\n        /* \"#utility.yul\":20447:20453   */\n      dup2\n        /* \"#utility.yul\":20439:20445   */\n      dup5\n        /* \"#utility.yul\":20433:20437   */\n      dup5\n        /* \"#utility.yul\":20389:20454   */\n      tag_330\n      jump\t// in\n    tag_563:\n        /* \"#utility.yul\":20324:20460   */\n      pop\n        /* \"#utility.yul\":20271:20460   */\n      pop\n      pop\n      jump\t// out\n        /* \"#utility.yul\":20466:20652   */\n    tag_333:\n        /* \"#utility.yul\":20526:20646   */\n    tag_565:\n        /* \"#utility.yul\":20543:20546   */\n      dup2\n        /* \"#utility.yul\":20536:20541   */\n      dup2\n        /* \"#utility.yul\":20533:20547   */\n      lt\n        /* \"#utility.yul\":20526:20646   */\n      iszero\n      tag_567\n      jumpi\n        /* \"#utility.yul\":20597:20636   */\n      tag_568\n        /* \"#utility.yul\":20634:20635   */\n      0x00\n        /* \"#utility.yul\":20627:20632   */\n      dup3\n        /* \"#utility.yul\":20597:20636   */\n      tag_332\n      jump\t// in\n    tag_568:\n        /* \"#utility.yul\":20570:20571   */\n      0x01\n        /* \"#utility.yul\":20563:20568   */\n      dup2\n        /* \"#utility.yul\":20559:20572   */\n      add\n        /* \"#utility.yul\":20550:20572   */\n      swap1\n      pop\n        /* \"#utility.yul\":20526:20646   */\n      jump(tag_565)\n    tag_567:\n        /* \"#utility.yul\":20466:20652   */\n      pop\n      pop\n      jump\t// out\n        /* \"#utility.yul\":20658:21201   */\n    tag_334:\n        /* \"#utility.yul\":20759:20761   */\n      0x1f\n        /* \"#utility.yul\":20754:20757   */\n      dup3\n        /* \"#utility.yul\":20751:20762   */\n      gt\n        /* \"#utility.yul\":20748:21194   */\n      iszero\n      tag_570\n      jumpi\n        /* \"#utility.yul\":20793:20831   */\n      tag_571\n        /* \"#utility.yul\":20825:20830   */\n      dup2\n        /* \"#utility.yul\":20793:20831   */\n      tag_323\n      jump\t// in\n    tag_571:\n        /* \"#utility.yul\":20877:20906   */\n      tag_572\n        /* \"#utility.yul\":20895:20905   */\n      dup5\n        /* \"#utility.yul\":20877:20906   */\n      tag_324\n      jump\t// in\n    tag_572:\n        /* \"#utility.yul\":20867:20875   */\n      dup2\n        /* \"#utility.yul\":20863:20907   */\n      add\n        /* \"#utility.yul\":21060:21062   */\n      0x20\n        /* \"#utility.yul\":21048:21058   */\n      dup6\n        /* \"#utility.yul\":21045:21063   */\n      lt\n        /* \"#utility.yul\":21042:21091   */\n      iszero\n      tag_573\n      jumpi\n        /* \"#utility.yul\":21081:21089   */\n      dup2\n        /* \"#utility.yul\":21066:21089   */\n      swap1\n      pop\n        /* \"#utility.yul\":21042:21091   */\n    tag_573:\n        /* \"#utility.yul\":21104:21184   */\n      tag_574\n        /* \"#utility.yul\":21160:21182   */\n      tag_575\n        /* \"#utility.yul\":21178:21181   */\n      dup6\n        /* \"#utility.yul\":21160:21182   */\n      tag_324\n      jump\t// in\n    tag_575:\n        /* \"#utility.yul\":21150:21158   */\n      dup4\n        /* \"#utility.yul\":21146:21183   */\n      add\n        /* \"#utility.yul\":21133:21144   */\n      dup3\n        /* \"#utility.yul\":21104:21184   */\n      tag_333\n      jump\t// in\n    tag_574:\n        /* \"#utility.yul\":20763:21194   */\n      pop\n      pop\n        /* \"#utility.yul\":20748:21194   */\n    tag_570:\n        /* \"#utility.yul\":20658:21201   */\n      pop\n      pop\n      pop\n      jump\t// out\n        /* \"#utility.yul\":21207:21324   */\n    tag_335:\n        /* \"#utility.yul\":21261:21269   */\n      0x00\n        /* \"#utility.yul\":21311:21316   */\n      dup3\n        /* \"#utility.yul\":21305:21309   */\n      dup3\n        /* \"#utility.yul\":21301:21317   */\n      shr\n        /* \"#utility.yul\":21280:21317   */\n      swap1\n      pop\n        /* \"#utility.yul\":21207:21324   */\n      swap3\n      swap2\n      pop\n      pop\n      jump\t// out\n        /* \"#utility.yul\":21330:21499   */\n    tag_336:\n        /* \"#utility.yul\":21374:21380   */\n      0x00\n        /* \"#utility.yul\":21407:21458   */\n      tag_578\n        /* \"#utility.yul\":21455:21456   */\n      0x00\n        /* \"#utility.yul\":21451:21457   */\n      not\n        /* \"#utility.yul\":21443:21448   */\n      dup5\n        /* \"#utility.yul\":21440:21441   */\n      0x08\n        /* \"#utility.yul\":21436:21449   */\n      mul\n        /* \"#utility.yul\":21407:21458   */\n      tag_335\n      jump\t// in\n    tag_578:\n        /* \"#utility.yul\":21403:21459   */\n      not\n        /* \"#utility.yul\":21488:21492   */\n      dup1\n        /* \"#utility.yul\":21482:21486   */\n      dup4\n        /* \"#utility.yul\":21478:21493   */\n      and\n        /* \"#utility.yul\":21468:21493   */\n      swap2\n      pop\n        /* \"#utility.yul\":21381:21499   */\n      pop\n        /* \"#utility.yul\":21330:21499   */\n      swap3\n      swap2\n      pop\n      pop\n      jump\t// out\n        /* \"#utility.yul\":21504:21799   */\n    tag_337:\n        /* \"#utility.yul\":21580:21584   */\n      0x00\n        /* \"#utility.yul\":21726:21755   */\n      tag_580\n        /* \"#utility.yul\":21751:21754   */\n      dup4\n        /* \"#utility.yul\":21745:21749   */\n      dup4\n        /* \"#utility.yul\":21726:21755   */\n      tag_336\n      jump\t// in\n    tag_580:\n        /* \"#utility.yul\":21718:21755   */\n      swap2\n      pop\n        /* \"#utility.yul\":21788:21791   */\n      dup3\n        /* \"#utility.yul\":21785:21786   */\n      0x02\n        /* \"#utility.yul\":21781:21792   */\n      mul\n        /* \"#utility.yul\":21775:21779   */\n      dup3\n        /* \"#utility.yul\":21772:21793   */\n      or\n        /* \"#utility.yul\":21764:21793   */\n      swap1\n      pop\n        /* \"#utility.yul\":21504:21799   */\n      swap3\n      swap2\n      pop\n      pop\n      jump\t// out\n        /* \"#utility.yul\":21804:23199   */\n    tag_91:\n        /* \"#utility.yul\":21921:21958   */\n      tag_582\n        /* \"#utility.yul\":21954:21957   */\n      dup3\n        /* \"#utility.yul\":21921:21958   */\n      tag_287\n      jump\t// in\n    tag_582:\n        /* \"#utility.yul\":22023:22041   */\n      0xffffffffffffffff\n        /* \"#utility.yul\":22015:22021   */\n      dup2\n        /* \"#utility.yul\":22012:22042   */\n      gt\n        /* \"#utility.yul\":22009:22065   */\n      iszero\n      tag_583\n      jumpi\n        /* \"#utility.yul\":22045:22063   */\n      tag_584\n      tag_308\n      jump\t// in\n    tag_584:\n        /* \"#utility.yul\":22009:22065   */\n    tag_583:\n        /* \"#utility.yul\":22089:22127   */\n      tag_585\n        /* \"#utility.yul\":22121:22125   */\n      dup3\n        /* \"#utility.yul\":22115:22126   */\n      sload\n        /* \"#utility.yul\":22089:22127   */\n      tag_62\n      jump\t// in\n    tag_585:\n        /* \"#utility.yul\":22174:22241   */\n      tag_586\n        /* \"#utility.yul\":22234:22240   */\n      dup3\n        /* \"#utility.yul\":22226:22232   */\n      dup3\n        /* \"#utility.yul\":22220:22224   */\n      dup6\n        /* \"#utility.yul\":22174:22241   */\n      tag_334\n      jump\t// in\n    tag_586:\n        /* \"#utility.yul\":22268:22269   */\n      0x00\n        /* \"#utility.yul\":22292:22296   */\n      0x20\n        /* \"#utility.yul\":22279:22296   */\n      swap1\n      pop\n        /* \"#utility.yul\":22324:22326   */\n      0x1f\n        /* \"#utility.yul\":22316:22322   */\n      dup4\n        /* \"#utility.yul\":22313:22327   */\n      gt\n        /* \"#utility.yul\":22341:22342   */\n      0x01\n        /* \"#utility.yul\":22336:22954   */\n      dup2\n      eq\n      tag_588\n      jumpi\n        /* \"#utility.yul\":22998:22999   */\n      0x00\n        /* \"#utility.yul\":23015:23021   */\n      dup5\n        /* \"#utility.yul\":23012:23089   */\n      iszero\n      tag_589\n      jumpi\n        /* \"#utility.yul\":23064:23073   */\n      dup3\n        /* \"#utility.yul\":23059:23062   */\n      dup8\n        /* \"#utility.yul\":23055:23074   */\n      add\n        /* \"#utility.yul\":23049:23075   */\n      mload\n        /* \"#utility.yul\":23040:23075   */\n      swap1\n      pop\n        /* \"#utility.yul\":23012:23089   */\n    tag_589:\n        /* \"#utility.yul\":23115:23182   */\n      tag_590\n        /* \"#utility.yul\":23175:23181   */\n      dup6\n        /* \"#utility.yul\":23168:23173   */\n      dup3\n        /* \"#utility.yul\":23115:23182   */\n      tag_337\n      jump\t// in\n    tag_590:\n        /* \"#utility.yul\":23109:23113   */\n      dup7\n        /* \"#utility.yul\":23102:23183   */\n      sstore\n        /* \"#utility.yul\":22971:23193   */\n      pop\n        /* \"#utility.yul\":22306:23193   */\n      jump(tag_587)\n        /* \"#utility.yul\":22336:22954   */\n    tag_588:\n        /* \"#utility.yul\":22388:22392   */\n      0x1f\n        /* \"#utility.yul\":22384:22393   */\n      not\n        /* \"#utility.yul\":22376:22382   */\n      dup5\n        /* \"#utility.yul\":22372:22394   */\n      and\n        /* \"#utility.yul\":22422:22459   */\n      tag_591\n        /* \"#utility.yul\":22454:22458   */\n      dup7\n        /* \"#utility.yul\":22422:22459   */\n      tag_323\n      jump\t// in\n    tag_591:\n        /* \"#utility.yul\":22481:22482   */\n      0x00\n        /* \"#utility.yul\":22495:22703   */\n    tag_592:\n        /* \"#utility.yul\":22509:22516   */\n      dup3\n        /* \"#utility.yul\":22506:22507   */\n      dup2\n        /* \"#utility.yul\":22503:22517   */\n      lt\n        /* \"#utility.yul\":22495:22703   */\n      iszero\n      tag_594\n      jumpi\n        /* \"#utility.yul\":22588:22597   */\n      dup5\n        /* \"#utility.yul\":22583:22586   */\n      dup10\n        /* \"#utility.yul\":22579:22598   */\n      add\n        /* \"#utility.yul\":22573:22599   */\n      mload\n        /* \"#utility.yul\":22565:22571   */\n      dup3\n        /* \"#utility.yul\":22558:22600   */\n      sstore\n        /* \"#utility.yul\":22639:22640   */\n      0x01\n        /* \"#utility.yul\":22631:22637   */\n      dup3\n        /* \"#utility.yul\":22627:22641   */\n      add\n        /* \"#utility.yul\":22617:22641   */\n      swap2\n      pop\n        /* \"#utility.yul\":22686:22688   */\n      0x20\n        /* \"#utility.yul\":22675:22684   */\n      dup6\n        /* \"#utility.yul\":22671:22689   */\n      add\n        /* \"#utility.yul\":22658:22689   */\n      swap5\n      pop\n        /* \"#utility.yul\":22532:22536   */\n      0x20\n        /* \"#utility.yul\":22529:22530   */\n      dup2\n        /* \"#utility.yul\":22525:22537   */\n      add\n        /* \"#utility.yul\":22520:22537   */\n      swap1\n      pop\n        /* \"#utility.yul\":22495:22703   */\n      jump(tag_592)\n    tag_594:\n        /* \"#utility.yul\":22731:22737   */\n      dup7\n        /* \"#utility.yul\":22722:22729   */\n      dup4\n        /* \"#utility.yul\":22719:22738   */\n      lt\n        /* \"#utility.yul\":22716:22895   */\n      iszero\n      tag_595\n      jumpi\n        /* \"#utility.yul\":22789:22798   */\n      dup5\n        /* \"#utility.yul\":22784:22787   */\n      dup10\n        /* \"#utility.yul\":22780:22799   */\n      add\n        /* \"#utility.yul\":22774:22800   */\n      mload\n        /* \"#utility.yul\":22832:22880   */\n      tag_596\n        /* \"#utility.yul\":22874:22878   */\n      0x1f\n        /* \"#utility.yul\":22866:22872   */\n      dup10\n        /* \"#utility.yul\":22862:22879   */\n      and\n        /* \"#utility.yul\":22851:22860   */\n      dup3\n        /* \"#utility.yul\":22832:22880   */\n      tag_336\n      jump\t// in\n    tag_596:\n        /* \"#utility.yul\":22824:22830   */\n      dup4\n        /* \"#utility.yul\":22817:22881   */\n      sstore\n        /* \"#utility.yul\":22739:22895   */\n      pop\n        /* \"#utility.yul\":22716:22895   */\n    tag_595:\n        /* \"#utility.yul\":22941:22942   */\n      0x01\n        /* \"#utility.yul\":22937:22938   */\n      0x02\n        /* \"#utility.yul\":22929:22935   */\n      dup9\n        /* \"#utility.yul\":22925:22939   */\n      mul\n        /* \"#utility.yul\":22921:22943   */\n      add\n        /* \"#utility.yul\":22915:22919   */\n      dup9\n        /* \"#utility.yul\":22908:22944   */\n      sstore\n        /* \"#utility.yul\":22343:22954   */\n      pop\n      pop\n      pop\n        /* \"#utility.yul\":22306:23193   */\n    tag_587:\n      pop\n        /* \"#utility.yul\":21896:23199   */\n      pop\n      pop\n      pop\n        /* \"#utility.yul\":21804:23199   */\n      pop\n      pop\n      jump\t// out\n        /* \"#utility.yul\":23205:23375   */\n    tag_338:\n        /* \"#utility.yul\":23345:23367   */\n      0x766f74657220646f6573206e6f74206578697374000000000000000000000000\n        /* \"#utility.yul\":23341:23342   */\n      0x00\n        /* \"#utility.yul\":23333:23339   */\n      dup3\n        /* \"#utility.yul\":23329:23343   */\n      add\n        /* \"#utility.yul\":23322:23368   */\n      mstore\n        /* \"#utility.yul\":23205:23375   */\n      pop\n      jump\t// out\n        /* \"#utility.yul\":23381:23747   */\n    tag_339:\n        /* \"#utility.yul\":23523:23526   */\n      0x00\n        /* \"#utility.yul\":23544:23611   */\n      tag_599\n        /* \"#utility.yul\":23608:23610   */\n      0x14\n        /* \"#utility.yul\":23603:23606   */\n      dup4\n        /* \"#utility.yul\":23544:23611   */\n      tag_288\n      jump\t// in\n    tag_599:\n        /* \"#utility.yul\":23537:23611   */\n      swap2\n      pop\n        /* \"#utility.yul\":23620:23713   */\n      tag_600\n        /* \"#utility.yul\":23709:23712   */\n      dup3\n        /* \"#utility.yul\":23620:23713   */\n      tag_338\n      jump\t// in\n    tag_600:\n        /* \"#utility.yul\":23738:23740   */\n      0x20\n        /* \"#utility.yul\":23733:23736   */\n      dup3\n        /* \"#utility.yul\":23729:23741   */\n      add\n        /* \"#utility.yul\":23722:23741   */\n      swap1\n      pop\n        /* \"#utility.yul\":23381:23747   */\n      swap2\n      swap1\n      pop\n      jump\t// out\n        /* \"#utility.yul\":23753:24172   */\n    tag_97:\n        /* \"#utility.yul\":23919:23923   */\n      0x00\n        /* \"#utility.yul\":23957:23959   */\n      0x20\n        /* \"#utility.yul\":23946:23955   */\n      dup3\n        /* \"#utility.yul\":23942:23960   */\n      add\n        /* \"#utility.yul\":23934:23960   */\n      swap1\n      pop\n        /* \"#utility.yul\":24006:24015   */\n      dup2\n        /* \"#utility.yul\":24000:24004   */\n      dup2\n        /* \"#utility.yul\":23996:24016   */\n      sub\n        /* \"#utility.yul\":23992:23993   */\n      0x00\n        /* \"#utility.yul\":23981:23990   */\n      dup4\n        /* \"#utility.yul\":23977:23994   */\n      add\n        /* \"#utility.yul\":23970:24017   */\n      mstore\n        /* \"#utility.yul\":24034:24165   */\n      tag_602\n        /* \"#utility.yul\":24160:24164   */\n      dup2\n        /* \"#utility.yul\":24034:24165   */\n      tag_339\n      jump\t// in\n    tag_602:\n        /* \"#utility.yul\":24026:24165   */\n      swap1\n      pop\n        /* \"#utility.yul\":23753:24172   */\n      swap2\n      swap1\n      pop\n      jump\t// out\n        /* \"#utility.yul\":24178:24341   */\n    tag_340:\n        /* \"#utility.yul\":24318:24333   */\n      0x616c726561647920766f74656400000000000000000000000000000000000000\n        /* \"#utility.yul\":24314:24315   */\n      0x00\n        /* \"#utility.yul\":24306:24312   */\n      dup3\n        /* \"#utility.yul\":24302:24316   */\n      add\n        /* \"#utility.yul\":24295:24334   */\n      mstore\n        /* \"#utility.yul\":24178:24341   */\n      pop\n      jump\t// out\n        /* \"#utility.yul\":24347:24713   */\n    tag_341:\n        /* \"#utility.yul\":24489:24492   */\n      0x00\n        /* \"#utility.yul\":24510:24577   */\n      tag_605\n        /* \"#utility.yul\":24574:24576   */\n      0x0d\n        /* \"#utility.yul\":24569:24572   */\n      dup4\n        /* \"#utility.yul\":24510:24577   */\n      tag_288\n      jump\t// in\n    tag_605:\n        /* \"#utility.yul\":24503:24577   */\n      swap2\n      pop\n        /* \"#utility.yul\":24586:24679   */\n      tag_606\n        /* \"#utility.yul\":24675:24678   */\n      dup3\n        /* \"#utility.yul\":24586:24679   */\n      tag_340\n      jump\t// in\n    tag_606:\n        /* \"#utility.yul\":24704:24706   */\n      0x20\n        /* \"#utility.yul\":24699:24702   */\n      dup3\n        /* \"#utility.yul\":24695:24707   */\n      add\n        /* \"#utility.yul\":24688:24707   */\n      swap1\n      pop\n        /* \"#utility.yul\":24347:24713   */\n      swap2\n      swap1\n      pop\n      jump\t// out\n        /* \"#utility.yul\":24719:25138   */\n    tag_101:\n        /* \"#utility.yul\":24885:24889   */\n      0x00\n        /* \"#utility.yul\":24923:24925   */\n      0x20\n        /* \"#utility.yul\":24912:24921   */\n      dup3\n        /* \"#utility.yul\":24908:24926   */\n      add\n        /* \"#utility.yul\":24900:24926   */\n      swap1\n      pop\n        /* \"#utility.yul\":24972:24981   */\n      dup2\n        /* \"#utility.yul\":24966:24970   */\n      dup2\n        /* \"#utility.yul\":24962:24982   */\n      sub\n        /* \"#utility.yul\":24958:24959   */\n      0x00\n        /* \"#utility.yul\":24947:24956   */\n      dup4\n        /* \"#utility.yul\":24943:24960   */\n      add\n        /* \"#utility.yul\":24936:24983   */\n      mstore\n        /* \"#utility.yul\":25000:25131   */\n      tag_608\n        /* \"#utility.yul\":25126:25130   */\n      dup2\n        /* \"#utility.yul\":25000:25131   */\n      tag_341\n      jump\t// in\n    tag_608:\n        /* \"#utility.yul\":24992:25131   */\n      swap1\n      pop\n        /* \"#utility.yul\":24719:25138   */\n      swap2\n      swap1\n      pop\n      jump\t// out\n        /* \"#utility.yul\":25144:25312   */\n    tag_342:\n        /* \"#utility.yul\":25284:25304   */\n      0x766f74696e67206e6f7420737461727465640000000000000000000000000000\n        /* \"#utility.yul\":25280:25281   */\n      0x00\n        /* \"#utility.yul\":25272:25278   */\n      dup3\n        /* \"#utility.yul\":25268:25282   */\n      add\n        /* \"#utility.yul\":25261:25305   */\n      mstore\n        /* \"#utility.yul\":25144:25312   */\n      pop\n      jump\t// out\n        /* \"#utility.yul\":25318:25684   */\n    tag_343:\n        /* \"#utility.yul\":25460:25463   */\n      0x00\n        /* \"#utility.yul\":25481:25548   */\n      tag_611\n        /* \"#utility.yul\":25545:25547   */\n      0x12\n        /* \"#utility.yul\":25540:25543   */\n      dup4\n        /* \"#utility.yul\":25481:25548   */\n      tag_288\n      jump\t// in\n    tag_611:\n        /* \"#utility.yul\":25474:25548   */\n      swap2\n      pop\n        /* \"#utility.yul\":25557:25650   */\n      tag_612\n        /* \"#utility.yul\":25646:25649   */\n      dup3\n        /* \"#utility.yul\":25557:25650   */\n      tag_342\n      jump\t// in\n    tag_612:\n        /* \"#utility.yul\":25675:25677   */\n      0x20\n        /* \"#utility.yul\":25670:25673   */\n      dup3\n        /* \"#utility.yul\":25666:25678   */\n      add\n        /* \"#utility.yul\":25659:25678   */\n      swap1\n      pop\n        /* \"#utility.yul\":25318:25684   */\n      swap2\n      swap1\n      pop\n      jump\t// out\n        /* \"#utility.yul\":25690:26109   */\n    tag_104:\n        /* \"#utility.yul\":25856:25860   */\n      0x00\n        /* \"#utility.yul\":25894:25896   */\n      0x20\n        /* \"#utility.yul\":25883:25892   */\n      dup3\n        /* \"#utility.yul\":25879:25897   */\n      add\n        /* \"#utility.yul\":25871:25897   */\n      swap1\n      pop\n        /* \"#utility.yul\":25943:25952   */\n      dup2\n        /* \"#utility.yul\":25937:25941   */\n      dup2\n        /* \"#utility.yul\":25933:25953   */\n      sub\n        /* \"#utility.yul\":25929:25930   */\n      0x00\n        /* \"#utility.yul\":25918:25927   */\n      dup4\n        /* \"#utility.yul\":25914:25931   */\n      add\n        /* \"#utility.yul\":25907:25954   */\n      mstore\n        /* \"#utility.yul\":25971:26102   */\n      tag_614\n        /* \"#utility.yul\":26097:26101   */\n      dup2\n        /* \"#utility.yul\":25971:26102   */\n      tag_343\n      jump\t// in\n    tag_614:\n        /* \"#utility.yul\":25963:26102   */\n      swap1\n      pop\n        /* \"#utility.yul\":25690:26109   */\n      swap2\n      swap1\n      pop\n      jump\t// out\n        /* \"#utility.yul\":26115:26295   */\n    tag_344:\n        /* \"#utility.yul\":26163:26240   */\n      0x4e487b7100000000000000000000000000000000000000000000000000000000\n        /* \"#utility.yul\":26160:26161   */\n      0x00\n        /* \"#utility.yul\":26153:26241   */\n      mstore\n        /* \"#utility.yul\":26260:26264   */\n      0x11\n        /* \"#utility.yul\":26257:26258   */\n      0x04\n        /* \"#utility.yul\":26250:26265   */\n      mstore\n        /* \"#utility.yul\":26284:26288   */\n      0x24\n        /* \"#utility.yul\":26281:26282   */\n      0x00\n        /* \"#utility.yul\":26274:26289   */\n      revert\n        /* \"#utility.yul\":26301:26534   */\n    tag_106:\n        /* \"#utility.yul\":26340:26343   */\n      0x00\n        /* \"#utility.yul\":26363:26387   */\n      tag_617\n        /* \"#utility.yul\":26381:26386   */\n      dup3\n        /* \"#utility.yul\":26363:26387   */\n      tag_285\n      jump\t// in\n    tag_617:\n        /* \"#utility.yul\":26354:26387   */\n      swap2\n      pop\n        /* \"#utility.yul\":26409:26475   */\n      0xffffffffffffffffffffffffffffffffffffffffffffffffffffffffffffffff\n        /* \"#utility.yul\":26402:26407   */\n      dup3\n        /* \"#utility.yul\":26399:26476   */\n      sub\n        /* \"#utility.yul\":26396:26499   */\n      tag_618\n      jumpi\n        /* \"#utility.yul\":26479:26497   */\n      tag_619\n      tag_344\n      jump\t// in\n    tag_619:\n        /* \"#utility.yul\":26396:26499   */\n    tag_618:\n        /* \"#utility.yul\":26526:26527   */\n      0x01\n        /* \"#utility.yul\":26519:26524   */\n      dup3\n        /* \"#utility.yul\":26515:26528   */\n      add\n        /* \"#utility.yul\":26508:26528   */\n      swap1\n      pop\n        /* \"#utility.yul\":26301:26534   */\n      swap2\n      swap1\n      pop\n      jump\t// out\n        /* \"#utility.yul\":26540:26720   */\n    tag_109:\n        /* \"#utility.yul\":26588:26665   */\n      0x4e487b7100000000000000000000000000000000000000000000000000000000\n        /* \"#utility.yul\":26585:26586   */\n      0x00\n        /* \"#utility.yul\":26578:26666   */\n      mstore\n        /* \"#utility.yul\":26685:26689   */\n      0x32\n        /* \"#utility.yul\":26682:26683   */\n      0x04\n        /* \"#utility.yul\":26675:26690   */\n      mstore\n        /* \"#utility.yul\":26709:26713   */\n      0x24\n        /* \"#utility.yul\":26706:26707   */\n      0x00\n        /* \"#utility.yul\":26699:26714   */\n      revert\n        /* \"#utility.yul\":26726:26875   */\n    tag_345:\n        /* \"#utility.yul\":26775:26781   */\n      0x00\n        /* \"#utility.yul\":26809:26814   */\n      dup2\n        /* \"#utility.yul\":26803:26815   */\n      sload\n        /* \"#utility.yul\":26793:26815   */\n      swap1\n      pop\n        /* \"#utility.yul\":26835:26868   */\n      tag_622\n        /* \"#utility.yul\":26861:26867   */\n      dup2\n        /* \"#utility.yul\":26835:26868   */\n      tag_62\n      jump\t// in\n    tag_622:\n        /* \"#utility.yul\":26825:26868   */\n      swap1\n      pop\n        /* \"#utility.yul\":26726:26875   */\n      swap2\n      swap1\n      pop\n      jump\t// out\n        /* \"#utility.yul\":26881:28332   */\n    tag_112:\n        /* \"#utility.yul\":26992:26995   */\n      dup2\n        /* \"#utility.yul\":26986:26990   */\n      dup2\n        /* \"#utility.yul\":26983:26996   */\n      sub\n        /* \"#utility.yul\":26980:27006   */\n      tag_624\n      jumpi\n        /* \"#utility.yul\":26999:27004   */\n      pop\n      pop\n      jump(tag_623)\n        /* \"#utility.yul\":26980:27006   */\n    tag_624:\n        /* \"#utility.yul\":27030:27064   */\n      tag_625\n        /* \"#utility.yul\":27060:27063   */\n      dup3\n        /* \"#utility.yul\":27030:27064   */\n      tag_345\n      jump\t// in\n    tag_625:\n        /* \"#utility.yul\":27129:27147   */\n      0xffffffffffffffff\n        /* \"#utility.yul\":27121:27127   */\n      dup2\n        /* \"#utility.yul\":27118:27148   */\n      gt\n        /* \"#utility.yul\":27115:27171   */\n      iszero\n      tag_626\n      jumpi\n        /* \"#utility.yul\":27151:27169   */\n      tag_627\n      tag_308\n      jump\t// in\n    tag_627:\n        /* \"#utility.yul\":27115:27171   */\n    tag_626:\n        /* \"#utility.yul\":27195:27233   */\n      tag_628\n        /* \"#utility.yul\":27227:27231   */\n      dup3\n        /* \"#utility.yul\":27221:27232   */\n      sload\n        /* \"#utility.yul\":27195:27233   */\n      tag_62\n      jump\t// in\n    tag_628:\n        /* \"#utility.yul\":27280:27347   */\n      tag_629\n        /* \"#utility.yul\":27340:27346   */\n      dup3\n        /* \"#utility.yul\":27332:27338   */\n      dup3\n        /* \"#utility.yul\":27326:27330   */\n      dup6\n        /* \"#utility.yul\":27280:27347   */\n      tag_334\n      jump\t// in\n    tag_629:\n        /* \"#utility.yul\":27374:27375   */\n      0x00\n        /* \"#utility.yul\":27403:27405   */\n      0x1f\n        /* \"#utility.yul\":27395:27401   */\n      dup4\n        /* \"#utility.yul\":27392:27406   */\n      gt\n        /* \"#utility.yul\":27420:27421   */\n      0x01\n        /* \"#utility.yul\":27415:28087   */\n      dup2\n      eq\n      tag_631\n      jumpi\n        /* \"#utility.yul\":28131:28132   */\n      0x00\n        /* \"#utility.yul\":28148:28154   */\n      dup5\n        /* \"#utility.yul\":28145:28222   */\n      iszero\n      tag_632\n      jumpi\n        /* \"#utility.yul\":28197:28206   */\n      dup3\n        /* \"#utility.yul\":28192:28195   */\n      dup8\n        /* \"#utility.yul\":28188:28207   */\n      add\n        /* \"#utility.yul\":28182:28208   */\n      sload\n        /* \"#utility.yul\":28173:28208   */\n      swap1\n      pop\n        /* \"#utility.yul\":28145:28222   */\n    tag_632:\n        /* \"#utility.yul\":28248:28315   */\n      tag_633\n        /* \"#utility.yul\":28308:28314   */\n      dup6\n        /* \"#utility.yul\":28301:28306   */\n      dup3\n        /* \"#utility.yul\":28248:28315   */\n      tag_337\n      jump\t// in\n    tag_633:\n        /* \"#utility.yul\":28242:28246   */\n      dup7\n        /* \"#utility.yul\":28235:28316   */\n      sstore\n        /* \"#utility.yul\":28104:28326   */\n      pop\n        /* \"#utility.yul\":27385:28326   */\n      jump(tag_630)\n        /* \"#utility.yul\":27415:28087   */\n    tag_631:\n        /* \"#utility.yul\":27467:27471   */\n      0x1f\n        /* \"#utility.yul\":27463:27472   */\n      not\n        /* \"#utility.yul\":27455:27461   */\n      dup5\n        /* \"#utility.yul\":27451:27473   */\n      and\n        /* \"#utility.yul\":27493:27529   */\n      tag_634\n        /* \"#utility.yul\":27525:27528   */\n      dup8\n        /* \"#utility.yul\":27493:27529   */\n      tag_323\n      jump\t// in\n    tag_634:\n        /* \"#utility.yul\":27486:27529   */\n      swap7\n      pop\n        /* \"#utility.yul\":27556:27593   */\n      tag_635\n        /* \"#utility.yul\":27588:27592   */\n      dup7\n        /* \"#utility.yul\":27556:27593   */\n      tag_323\n      jump\t// in\n    tag_635:\n        /* \"#utility.yul\":27615:27616   */\n      0x00\n        /* \"#utility.yul\":27629:27836   */\n    tag_636:\n        /* \"#utility.yul\":27643:27650   */\n      dup3\n        /* \"#utility.yul\":27640:27641   */\n      dup2\n        /* \"#utility.yul\":27637:27651   */\n      lt\n        /* \"#utility.yul\":27629:27836   */\n      iszero\n      tag_638\n      jumpi\n        /* \"#utility.yul\":27722:27731   */\n      dup5\n        /* \"#utility.yul\":27717:27720   */\n      dup10\n        /* \"#utility.yul\":27713:27732   */\n      add\n        /* \"#utility.yul\":27707:27733   */\n      sload\n        /* \"#utility.yul\":27699:27705   */\n      dup3\n        /* \"#utility.yul\":27692:27734   */\n      sstore\n        /* \"#utility.yul\":27773:27774   */\n      0x01\n        /* \"#utility.yul\":27765:27771   */\n      dup3\n        /* \"#utility.yul\":27761:27775   */\n      add\n        /* \"#utility.yul\":27751:27775   */\n      swap2\n      pop\n        /* \"#utility.yul\":27820:27821   */\n      0x01\n        /* \"#utility.yul\":27809:27818   */\n      dup6\n        /* \"#utility.yul\":27805:27822   */\n      add\n        /* \"#utility.yul\":27792:27822   */\n      swap5\n      pop\n        /* \"#utility.yul\":27666:27670   */\n      0x20\n        /* \"#utility.yul\":27663:27664   */\n      dup2\n        /* \"#utility.yul\":27659:27671   */\n      add\n        /* \"#utility.yul\":27654:27671   */\n      swap1\n      pop\n        /* \"#utility.yul\":27629:27836   */\n      jump(tag_636)\n    tag_638:\n        /* \"#utility.yul\":27864:27870   */\n      dup7\n        /* \"#utility.yul\":27855:27862   */\n      dup4\n        /* \"#utility.yul\":27852:27871   */\n      lt\n        /* \"#utility.yul\":27849:28028   */\n      iszero\n      tag_639\n      jumpi\n        /* \"#utility.yul\":27922:27931   */\n      dup5\n        /* \"#utility.yul\":27917:27920   */\n      dup10\n        /* \"#utility.yul\":27913:27932   */\n      add\n        /* \"#utility.yul\":27907:27933   */\n      sload\n        /* \"#utility.yul\":27965:28013   */\n      tag_640\n        /* \"#utility.yul\":28007:28011   */\n      0x1f\n        /* \"#utility.yul\":27999:28005   */\n      dup10\n        /* \"#utility.yul\":27995:28012   */\n      and\n        /* \"#utility.yul\":27984:27993   */\n      dup3\n        /* \"#utility.yul\":27965:28013   */\n      tag_336\n      jump\t// in\n    tag_640:\n        /* \"#utility.yul\":27957:27963   */\n      dup4\n        /* \"#utility.yul\":27950:28014   */\n      sstore\n        /* \"#utility.yul\":27872:28028   */\n      pop\n        /* \"#utility.yul\":27849:28028   */\n    tag_639:\n        /* \"#utility.yul\":28074:28075   */\n      0x01\n        /* \"#utility.yul\":28070:28071   */\n      0x02\n        /* \"#utility.yul\":28062:28068   */\n      dup9\n        /* \"#utility.yul\":28058:28072   */\n      mul\n        /* \"#utility.yul\":28054:28076   */\n      add\n        /* \"#utility.yul\":28048:28052   */\n      dup9\n        /* \"#utility.yul\":28041:28077   */\n      sstore\n        /* \"#utility.yul\":27422:28087   */\n      pop\n      pop\n      pop\n        /* \"#utility.yul\":27385:28326   */\n    tag_630:\n      pop\n        /* \"#utility.yul\":26970:28332   */\n      pop\n      pop\n      pop\n        /* \"#utility.yul\":26881:28332   */\n      pop\n      pop\n    tag_623:\n      jump\t// out\n        /* \"#utility.yul\":28338:28491   */\n    tag_346:\n        /* \"#utility.yul\":28391:28397   */\n      0x00\n        /* \"#utility.yul\":28425:28430   */\n      dup2\n        /* \"#utility.yul\":28419:28431   */\n      sload\n        /* \"#utility.yul\":28409:28431   */\n      swap1\n      pop\n        /* \"#utility.yul\":28451:28484   */\n      tag_642\n        /* \"#utility.yul\":28477:28483   */\n      dup2\n        /* \"#utility.yul\":28451:28484   */\n      tag_62\n      jump\t// in\n    tag_642:\n        /* \"#utility.yul\":28441:28484   */\n      swap1\n      pop\n        /* \"#utility.yul\":28338:28491   */\n      swap2\n      swap1\n      pop\n      jump\t// out\n        /* \"#utility.yul\":28497:28642   */\n    tag_347:\n        /* \"#utility.yul\":28550:28554   */\n      0x00\n        /* \"#utility.yul\":28573:28576   */\n      dup2\n        /* \"#utility.yul\":28565:28576   */\n      swap1\n      pop\n        /* \"#utility.yul\":28596:28599   */\n      dup2\n        /* \"#utility.yul\":28593:28594   */\n      0x00\n        /* \"#utility.yul\":28586:28600   */\n      mstore\n        /* \"#utility.yul\":28630:28634   */\n      0x20\n        /* \"#utility.yul\":28627:28628   */\n      0x00\n        /* \"#utility.yul\":28617:28635   */\n      keccak256\n        /* \"#utility.yul\":28609:28635   */\n      swap1\n      pop\n        /* \"#utility.yul\":28497:28642   */\n      swap2\n      swap1\n      pop\n      jump\t// out\n        /* \"#utility.yul\":28648:30111   */\n    tag_126:\n        /* \"#utility.yul\":28763:28766   */\n      dup2\n        /* \"#utility.yul\":28757:28761   */\n      dup2\n        /* \"#utility.yul\":28754:28767   */\n      sub\n        /* \"#utility.yul\":28751:28777   */\n      tag_645\n      jumpi\n        /* \"#utility.yul\":28770:28775   */\n      pop\n      pop\n      jump(tag_644)\n        /* \"#utility.yul\":28751:28777   */\n    tag_645:\n        /* \"#utility.yul\":28801:28839   */\n      tag_646\n        /* \"#utility.yul\":28835:28838   */\n      dup3\n        /* \"#utility.yul\":28801:28839   */\n      tag_346\n      jump\t// in\n    tag_646:\n        /* \"#utility.yul\":28904:28922   */\n      0xffffffffffffffff\n        /* \"#utility.yul\":28896:28902   */\n      dup2\n        /* \"#utility.yul\":28893:28923   */\n      gt\n        /* \"#utility.yul\":28890:28946   */\n      iszero\n      tag_647\n      jumpi\n        /* \"#utility.yul\":28926:28944   */\n      tag_648\n      tag_308\n      jump\t// in\n    tag_648:\n        /* \"#utility.yul\":28890:28946   */\n    tag_647:\n        /* \"#utility.yul\":28970:29008   */\n      tag_649\n        /* \"#utility.yul\":29002:29006   */\n      dup3\n        /* \"#utility.yul\":28996:29007   */\n      sload\n        /* \"#utility.yul\":28970:29008   */\n      tag_62\n      jump\t// in\n    tag_649:\n        /* \"#utility.yul\":29055:29122   */\n      tag_650\n        /* \"#utility.yul\":29115:29121   */\n      dup3\n        /* \"#utility.yul\":29107:29113   */\n      dup3\n        /* \"#utility.yul\":29101:29105   */\n      dup6\n        /* \"#utility.yul\":29055:29122   */\n      tag_334\n      jump\t// in\n    tag_650:\n        /* \"#utility.yul\":29149:29150   */\n      0x00\n        /* \"#utility.yul\":29178:29180   */\n      0x1f\n        /* \"#utility.yul\":29170:29176   */\n      dup4\n        /* \"#utility.yul\":29167:29181   */\n      gt\n        /* \"#utility.yul\":29195:29196   */\n      0x01\n        /* \"#utility.yul\":29190:29866   */\n      dup2\n      eq\n      tag_652\n      jumpi\n        /* \"#utility.yul\":29910:29911   */\n      0x00\n        /* \"#utility.yul\":29927:29933   */\n      dup5\n        /* \"#utility.yul\":29924:30001   */\n      iszero\n      tag_653\n      jumpi\n        /* \"#utility.yul\":29976:29985   */\n      dup3\n        /* \"#utility.yul\":29971:29974   */\n      dup8\n        /* \"#utility.yul\":29967:29986   */\n      add\n        /* \"#utility.yul\":29961:29987   */\n      sload\n        /* \"#utility.yul\":29952:29987   */\n      swap1\n      pop\n        /* \"#utility.yul\":29924:30001   */\n    tag_653:\n        /* \"#utility.yul\":30027:30094   */\n      tag_654\n        /* \"#utility.yul\":30087:30093   */\n      dup6\n        /* \"#utility.yul\":30080:30085   */\n      dup3\n        /* \"#utility.yul\":30027:30094   */\n      tag_337\n      jump\t// in\n    tag_654:\n        /* \"#utility.yul\":30021:30025   */\n      dup7\n        /* \"#utility.yul\":30014:30095   */\n      sstore\n        /* \"#utility.yul\":29883:30105   */\n      pop\n        /* \"#utility.yul\":29160:30105   */\n      jump(tag_651)\n        /* \"#utility.yul\":29190:29866   */\n    tag_652:\n        /* \"#utility.yul\":29242:29246   */\n      0x1f\n        /* \"#utility.yul\":29238:29247   */\n      not\n        /* \"#utility.yul\":29230:29236   */\n      dup5\n        /* \"#utility.yul\":29226:29248   */\n      and\n        /* \"#utility.yul\":29268:29308   */\n      tag_655\n        /* \"#utility.yul\":29304:29307   */\n      dup8\n        /* \"#utility.yul\":29268:29308   */\n      tag_347\n      jump\t// in\n    tag_655:\n        /* \"#utility.yul\":29261:29308   */\n      swap7\n      pop\n        /* \"#utility.yul\":29335:29372   */\n      tag_656\n        /* \"#utility.yul\":29367:29371   */\n      dup7\n        /* \"#utility.yul\":29335:29372   */\n      tag_323\n      jump\t// in\n    tag_656:\n        /* \"#utility.yul\":29394:29395   */\n      0x00\n        /* \"#utility.yul\":29408:29615   */\n    tag_657:\n        /* \"#utility.yul\":29422:29429   */\n      dup3\n        /* \"#utility.yul\":29419:29420   */\n      dup2\n        /* \"#utility.yul\":29416:29430   */\n      lt\n        /* \"#utility.yul\":29408:29615   */\n      iszero\n      tag_659\n      jumpi\n        /* \"#utility.yul\":29501:29510   */\n      dup5\n        /* \"#utility.yul\":29496:29499   */\n      dup10\n        /* \"#utility.yul\":29492:29511   */\n      add\n        /* \"#utility.yul\":29486:29512   */\n      sload\n        /* \"#utility.yul\":29478:29484   */\n      dup3\n        /* \"#utility.yul\":29471:29513   */\n      sstore\n        /* \"#utility.yul\":29552:29553   */\n      0x01\n        /* \"#utility.yul\":29544:29550   */\n      dup3\n        /* \"#utility.yul\":29540:29554   */\n      add\n        /* \"#utility.yul\":29530:29554   */\n      swap2\n      pop\n        /* \"#utility.yul\":29599:29600   */\n      0x01\n        /* \"#utility.yul\":29588:29597   */\n      dup6\n        /* \"#utility.yul\":29584:29601   */\n      add\n        /* \"#utility.yul\":29571:29601   */\n      swap5\n      pop\n        /* \"#utility.yul\":29445:29449   */\n      0x20\n        /* \"#utility.yul\":29442:29443   */\n      dup2\n        /* \"#utility.yul\":29438:29450   */\n      add\n        /* \"#utility.yul\":29433:29450   */\n      swap1\n      pop\n        /* \"#utility.yul\":29408:29615   */\n      jump(tag_657)\n    tag_659:\n        /* \"#utility.yul\":29643:29649   */\n      dup7\n        /* \"#utility.yul\":29634:29641   */\n      dup4\n        /* \"#utility.yul\":29631:29650   */\n      lt\n        /* \"#utility.yul\":29628:29807   */\n      iszero\n      tag_660\n      jumpi\n        /* \"#utility.yul\":29701:29710   */\n      dup5\n        /* \"#utility.yul\":29696:29699   */\n      dup10\n        /* \"#utility.yul\":29692:29711   */\n      add\n        /* \"#utility.yul\":29686:29712   */\n      sload\n        /* \"#utility.yul\":29744:29792   */\n      tag_661\n        /* \"#utility.yul\":29786:29790   */\n      0x1f\n        /* \"#utility.yul\":29778:29784   */\n      dup10\n        /* \"#utility.yul\":29774:29791   */\n      and\n        /* \"#utility.yul\":29763:29772   */\n      dup3\n        /* \"#utility.yul\":29744:29792   */\n      tag_336\n      jump\t// in\n    tag_661:\n        /* \"#utility.yul\":29736:29742   */\n      dup4\n        /* \"#utility.yul\":29729:29793   */\n      sstore\n        /* \"#utility.yul\":29651:29807   */\n      pop\n        /* \"#utility.yul\":29628:29807   */\n    tag_660:\n        /* \"#utility.yul\":29853:29854   */\n      0x01\n        /* \"#utility.yul\":29849:29850   */\n      0x02\n        /* \"#utility.yul\":29841:29847   */\n      dup9\n        /* \"#utility.yul\":29837:29851   */\n      mul\n        /* \"#utility.yul\":29833:29855   */\n      add\n        /* \"#utility.yul\":29827:29831   */\n      dup9\n        /* \"#utility.yul\":29820:29856   */\n      sstore\n        /* \"#utility.yul\":29197:29866   */\n      pop\n      pop\n      pop\n        /* \"#utility.yul\":29160:30105   */\n    tag_651:\n      pop\n        /* \"#utility.yul\":28741:30111   */\n      pop\n      pop\n      pop\n        /* \"#utility.yul\":28648:30111   */\n      pop\n      pop\n    tag_644:\n      jump\t// out\n        /* \"#utility.yul\":30117:30288   */\n    tag_129:\n        /* \"#utility.yul\":30156:30159   */\n      0x00\n        /* \"#utility.yul\":30179:30203   */\n      tag_663\n        /* \"#utility.yul\":30197:30202   */\n      dup3\n        /* \"#utility.yul\":30179:30203   */\n      tag_285\n      jump\t// in\n    tag_663:\n        /* \"#utility.yul\":30170:30203   */\n      swap2\n      pop\n        /* \"#utility.yul\":30225:30229   */\n      0x00\n        /* \"#utility.yul\":30218:30223   */\n      dup3\n        /* \"#utility.yul\":30215:30230   */\n      sub\n        /* \"#utility.yul\":30212:30253   */\n      tag_664\n      jumpi\n        /* \"#utility.yul\":30233:30251   */\n      tag_665\n      tag_344\n      jump\t// in\n    tag_665:\n        /* \"#utility.yul\":30212:30253   */\n    tag_664:\n        /* \"#utility.yul\":30280:30281   */\n      0x01\n        /* \"#utility.yul\":30273:30278   */\n      dup3\n        /* \"#utility.yul\":30269:30282   */\n      sub\n        /* \"#utility.yul\":30262:30282   */\n      swap1\n      pop\n        /* \"#utility.yul\":30117:30288   */\n      swap2\n      swap1\n      pop\n      jump\t// out\n        /* \"#utility.yul\":30294:30520   */\n    tag_348:\n        /* \"#utility.yul\":30434:30468   */\n      0x766f74696e67206d757374206265206f6e676f696e6720746f2064656c656761\n        /* \"#utility.yul\":30430:30431   */\n      0x00\n        /* \"#utility.yul\":30422:30428   */\n      dup3\n        /* \"#utility.yul\":30418:30432   */\n      add\n        /* \"#utility.yul\":30411:30469   */\n      mstore\n        /* \"#utility.yul\":30503:30512   */\n      0x746520766f746500000000000000000000000000000000000000000000000000\n        /* \"#utility.yul\":30498:30500   */\n      0x20\n        /* \"#utility.yul\":30490:30496   */\n      dup3\n        /* \"#utility.yul\":30486:30501   */\n      add\n        /* \"#utility.yul\":30479:30513   */\n      mstore\n        /* \"#utility.yul\":30294:30520   */\n      pop\n      jump\t// out\n        /* \"#utility.yul\":30526:30892   */\n    tag_349:\n        /* \"#utility.yul\":30668:30671   */\n      0x00\n        /* \"#utility.yul\":30689:30756   */\n      tag_668\n        /* \"#utility.yul\":30753:30755   */\n      0x27\n        /* \"#utility.yul\":30748:30751   */\n      dup4\n        /* \"#utility.yul\":30689:30756   */\n      tag_288\n      jump\t// in\n    tag_668:\n        /* \"#utility.yul\":30682:30756   */\n      swap2\n      pop\n        /* \"#utility.yul\":30765:30858   */\n      tag_669\n        /* \"#utility.yul\":30854:30857   */\n      dup3\n        /* \"#utility.yul\":30765:30858   */\n      tag_348\n      jump\t// in\n    tag_669:\n        /* \"#utility.yul\":30883:30885   */\n      0x40\n        /* \"#utility.yul\":30878:30881   */\n      dup3\n        /* \"#utility.yul\":30874:30886   */\n      add\n        /* \"#utility.yul\":30867:30886   */\n      swap1\n      pop\n        /* \"#utility.yul\":30526:30892   */\n      swap2\n      swap1\n      pop\n      jump\t// out\n        /* \"#utility.yul\":30898:31317   */\n    tag_159:\n        /* \"#utility.yul\":31064:31068   */\n      0x00\n        /* \"#utility.yul\":31102:31104   */\n      0x20\n        /* \"#utility.yul\":31091:31100   */\n      dup3\n        /* \"#utility.yul\":31087:31105   */\n      add\n        /* \"#utility.yul\":31079:31105   */\n      swap1\n      pop\n        /* \"#utility.yul\":31151:31160   */\n      dup2\n        /* \"#utility.yul\":31145:31149   */\n      dup2\n        /* \"#utility.yul\":31141:31161   */\n      sub\n        /* \"#utility.yul\":31137:31138   */\n      0x00\n        /* \"#utility.yul\":31126:31135   */\n      dup4\n        /* \"#utility.yul\":31122:31139   */\n      add\n        /* \"#utility.yul\":31115:31162   */\n      mstore\n        /* \"#utility.yul\":31179:31310   */\n      tag_671\n        /* \"#utility.yul\":31305:31309   */\n      dup2\n        /* \"#utility.yul\":31179:31310   */\n      tag_349\n      jump\t// in\n    tag_671:\n        /* \"#utility.yul\":31171:31310   */\n      swap1\n      pop\n        /* \"#utility.yul\":30898:31317   */\n      swap2\n      swap1\n      pop\n      jump\t// out\n        /* \"#utility.yul\":31323:31561   */\n    tag_350:\n        /* \"#utility.yul\":31463:31497   */\n      0x6f6e6c792074686f73652063616e2064656c656761746520766f74652077686f\n        /* \"#utility.yul\":31459:31460   */\n      0x00\n        /* \"#utility.yul\":31451:31457   */\n      dup3\n        /* \"#utility.yul\":31447:31461   */\n      add\n        /* \"#utility.yul\":31440:31498   */\n      mstore\n        /* \"#utility.yul\":31532:31553   */\n      0x2068617665206e6f7420766f7465642079657400000000000000000000000000\n        /* \"#utility.yul\":31527:31529   */\n      0x20\n        /* \"#utility.yul\":31519:31525   */\n      dup3\n        /* \"#utility.yul\":31515:31530   */\n      add\n        /* \"#utility.yul\":31508:31554   */\n      mstore\n        /* \"#utility.yul\":31323:31561   */\n      pop\n      jump\t// out\n        /* \"#utility.yul\":31567:31933   */\n    tag_351:\n        /* \"#utility.yul\":31709:31712   */\n      0x00\n        /* \"#utility.yul\":31730:31797   */\n      tag_674\n        /* \"#utility.yul\":31794:31796   */\n      0x33\n        /* \"#utility.yul\":31789:31792   */\n      dup4\n        /* \"#utility.yul\":31730:31797   */\n      tag_288\n      jump\t// in\n    tag_674:\n        /* \"#utility.yul\":31723:31797   */\n      swap2\n      pop\n        /* \"#utility.yul\":31806:31899   */\n      tag_675\n        /* \"#utility.yul\":31895:31898   */\n      dup3\n        /* \"#utility.yul\":31806:31899   */\n      tag_350\n      jump\t// in\n    tag_675:\n        /* \"#utility.yul\":31924:31926   */\n      0x40\n        /* \"#utility.yul\":31919:31922   */\n      dup3\n        /* \"#utility.yul\":31915:31927   */\n      add\n        /* \"#utility.yul\":31908:31927   */\n      swap1\n      pop\n        /* \"#utility.yul\":31567:31933   */\n      swap2\n      swap1\n      pop\n      jump\t// out\n        /* \"#utility.yul\":31939:32358   */\n    tag_167:\n        /* \"#utility.yul\":32105:32109   */\n      0x00\n        /* \"#utility.yul\":32143:32145   */\n      0x20\n        /* \"#utility.yul\":32132:32141   */\n      dup3\n        /* \"#utility.yul\":32128:32146   */\n      add\n        /* \"#utility.yul\":32120:32146   */\n      swap1\n      pop\n        /* \"#utility.yul\":32192:32201   */\n      dup2\n        /* \"#utility.yul\":32186:32190   */\n      dup2\n        /* \"#utility.yul\":32182:32202   */\n      sub\n        /* \"#utility.yul\":32178:32179   */\n      0x00\n        /* \"#utility.yul\":32167:32176   */\n      dup4\n        /* \"#utility.yul\":32163:32180   */\n      add\n        /* \"#utility.yul\":32156:32203   */\n      mstore\n        /* \"#utility.yul\":32220:32351   */\n      tag_677\n        /* \"#utility.yul\":32346:32350   */\n      dup2\n        /* \"#utility.yul\":32220:32351   */\n      tag_351\n      jump\t// in\n    tag_677:\n        /* \"#utility.yul\":32212:32351   */\n      swap1\n      pop\n        /* \"#utility.yul\":31939:32358   */\n      swap2\n      swap1\n      pop\n      jump\t// out\n        /* \"#utility.yul\":32364:32540   */\n    tag_352:\n        /* \"#utility.yul\":32504:32532   */\n      0x61646d696e2063616e6e6f742064656c656761746520766f7465000000000000\n        /* \"#utility.yul\":32500:32501   */\n      0x00\n        /* \"#utility.yul\":32492:32498   */\n      dup3\n        /* \"#utility.yul\":32488:32502   */\n      add\n        /* \"#utility.yul\":32481:32533   */\n      mstore\n        /* \"#utility.yul\":32364:32540   */\n      pop\n      jump\t// out\n        /* \"#utility.yul\":32546:32912   */\n    tag_353:\n        /* \"#utility.yul\":32688:32691   */\n      0x00\n        /* \"#utility.yul\":32709:32776   */\n      tag_680\n        /* \"#utility.yul\":32773:32775   */\n      0x1a\n        /* \"#utility.yul\":32768:32771   */\n      dup4\n        /* \"#utility.yul\":32709:32776   */\n      tag_288\n      jump\t// in\n    tag_680:\n        /* \"#utility.yul\":32702:32776   */\n      swap2\n      pop\n        /* \"#utility.yul\":32785:32878   */\n      tag_681\n        /* \"#utility.yul\":32874:32877   */\n      dup3\n        /* \"#utility.yul\":32785:32878   */\n      tag_352\n      jump\t// in\n    tag_681:\n        /* \"#utility.yul\":32903:32905   */\n      0x20\n        /* \"#utility.yul\":32898:32901   */\n      dup3\n        /* \"#utility.yul\":32894:32906   */\n      add\n        /* \"#utility.yul\":32887:32906   */\n      swap1\n      pop\n        /* \"#utility.yul\":32546:32912   */\n      swap2\n      swap1\n      pop\n      jump\t// out\n        /* \"#utility.yul\":32918:33337   */\n    tag_170:\n        /* \"#utility.yul\":33084:33088   */\n      0x00\n        /* \"#utility.yul\":33122:33124   */\n      0x20\n        /* \"#utility.yul\":33111:33120   */\n      dup3\n        /* \"#utility.yul\":33107:33125   */\n      add\n        /* \"#utility.yul\":33099:33125   */\n      swap1\n      pop\n        /* \"#utility.yul\":33171:33180   */\n      dup2\n        /* \"#utility.yul\":33165:33169   */\n      dup2\n        /* \"#utility.yul\":33161:33181   */\n      sub\n        /* \"#utility.yul\":33157:33158   */\n      0x00\n        /* \"#utility.yul\":33146:33155   */\n      dup4\n        /* \"#utility.yul\":33142:33159   */\n      add\n        /* \"#utility.yul\":33135:33182   */\n      mstore\n        /* \"#utility.yul\":33199:33330   */\n      tag_683\n        /* \"#utility.yul\":33325:33329   */\n      dup2\n        /* \"#utility.yul\":33199:33330   */\n      tag_353\n      jump\t// in\n    tag_683:\n        /* \"#utility.yul\":33191:33330   */\n      swap1\n      pop\n        /* \"#utility.yul\":32918:33337   */\n      swap2\n      swap1\n      pop\n      jump\t// out\n        /* \"#utility.yul\":33343:33521   */\n    tag_354:\n        /* \"#utility.yul\":33483:33513   */\n      0x43616e6e6f742064656c656761746520766f746520746f2073656c6600000000\n        /* \"#utility.yul\":33479:33480   */\n      0x00\n        /* \"#utility.yul\":33471:33477   */\n      dup3\n        /* \"#utility.yul\":33467:33481   */\n      add\n        /* \"#utility.yul\":33460:33514   */\n      mstore\n        /* \"#utility.yul\":33343:33521   */\n      pop\n      jump\t// out\n        /* \"#utility.yul\":33527:33893   */\n    tag_355:\n        /* \"#utility.yul\":33669:33672   */\n      0x00\n        /* \"#utility.yul\":33690:33757   */\n      tag_686\n        /* \"#utility.yul\":33754:33756   */\n      0x1c\n        /* \"#utility.yul\":33749:33752   */\n      dup4\n        /* \"#utility.yul\":33690:33757   */\n      tag_288\n      jump\t// in\n    tag_686:\n        /* \"#utility.yul\":33683:33757   */\n      swap2\n      pop\n        /* \"#utility.yul\":33766:33859   */\n      tag_687\n        /* \"#utility.yul\":33855:33858   */\n      dup3\n        /* \"#utility.yul\":33766:33859   */\n      tag_354\n      jump\t// in\n    tag_687:\n        /* \"#utility.yul\":33884:33886   */\n      0x20\n        /* \"#utility.yul\":33879:33882   */\n      dup3\n        /* \"#utility.yul\":33875:33887   */\n      add\n        /* \"#utility.yul\":33868:33887   */\n      swap1\n      pop\n        /* \"#utility.yul\":33527:33893   */\n      swap2\n      swap1\n      pop\n      jump\t// out\n        /* \"#utility.yul\":33899:34318   */\n    tag_173:\n        /* \"#utility.yul\":34065:34069   */\n      0x00\n        /* \"#utility.yul\":34103:34105   */\n      0x20\n        /* \"#utility.yul\":34092:34101   */\n      dup3\n        /* \"#utility.yul\":34088:34106   */\n      add\n        /* \"#utility.yul\":34080:34106   */\n      swap1\n      pop\n        /* \"#utility.yul\":34152:34161   */\n      dup2\n        /* \"#utility.yul\":34146:34150   */\n      dup2\n        /* \"#utility.yul\":34142:34162   */\n      sub\n        /* \"#utility.yul\":34138:34139   */\n      0x00\n        /* \"#utility.yul\":34127:34136   */\n      dup4\n        /* \"#utility.yul\":34123:34140   */\n      add\n        /* \"#utility.yul\":34116:34163   */\n      mstore\n        /* \"#utility.yul\":34180:34311   */\n      tag_689\n        /* \"#utility.yul\":34306:34310   */\n      dup2\n        /* \"#utility.yul\":34180:34311   */\n      tag_355\n      jump\t// in\n    tag_689:\n        /* \"#utility.yul\":34172:34311   */\n      swap1\n      pop\n        /* \"#utility.yul\":33899:34318   */\n      swap2\n      swap1\n      pop\n      jump\t// out\n        /* \"#utility.yul\":34324:34553   */\n    tag_356:\n        /* \"#utility.yul\":34464:34498   */\n      0x43616e6469646174652063616e6e6f742061636365707420616e64207472616e\n        /* \"#utility.yul\":34460:34461   */\n      0x00\n        /* \"#utility.yul\":34452:34458   */\n      dup3\n        /* \"#utility.yul\":34448:34462   */\n      add\n        /* \"#utility.yul\":34441:34499   */\n      mstore\n        /* \"#utility.yul\":34533:34545   */\n      0x7366657220766f74657300000000000000000000000000000000000000000000\n        /* \"#utility.yul\":34528:34530   */\n      0x20\n        /* \"#utility.yul\":34520:34526   */\n      dup3\n        /* \"#utility.yul\":34516:34531   */\n      add\n        /* \"#utility.yul\":34509:34546   */\n      mstore\n        /* \"#utility.yul\":34324:34553   */\n      pop\n      jump\t// out\n        /* \"#utility.yul\":34559:34925   */\n    tag_357:\n        /* \"#utility.yul\":34701:34704   */\n      0x00\n        /* \"#utility.yul\":34722:34789   */\n      tag_692\n        /* \"#utility.yul\":34786:34788   */\n      0x2a\n        /* \"#utility.yul\":34781:34784   */\n      dup4\n        /* \"#utility.yul\":34722:34789   */\n      tag_288\n      jump\t// in\n    tag_692:\n        /* \"#utility.yul\":34715:34789   */\n      swap2\n      pop\n        /* \"#utility.yul\":34798:34891   */\n      tag_693\n        /* \"#utility.yul\":34887:34890   */\n      dup3\n        /* \"#utility.yul\":34798:34891   */\n      tag_356\n      jump\t// in\n    tag_693:\n        /* \"#utility.yul\":34916:34918   */\n      0x40\n        /* \"#utility.yul\":34911:34914   */\n      dup3\n        /* \"#utility.yul\":34907:34919   */\n      add\n        /* \"#utility.yul\":34900:34919   */\n      swap1\n      pop\n        /* \"#utility.yul\":34559:34925   */\n      swap2\n      swap1\n      pop\n      jump\t// out\n        /* \"#utility.yul\":34931:35350   */\n    tag_177:\n        /* \"#utility.yul\":35097:35101   */\n      0x00\n        /* \"#utility.yul\":35135:35137   */\n      0x20\n        /* \"#utility.yul\":35124:35133   */\n      dup3\n        /* \"#utility.yul\":35120:35138   */\n      add\n        /* \"#utility.yul\":35112:35138   */\n      swap1\n      pop\n        /* \"#utility.yul\":35184:35193   */\n      dup2\n        /* \"#utility.yul\":35178:35182   */\n      dup2\n        /* \"#utility.yul\":35174:35194   */\n      sub\n        /* \"#utility.yul\":35170:35171   */\n      0x00\n        /* \"#utility.yul\":35159:35168   */\n      dup4\n        /* \"#utility.yul\":35155:35172   */\n      add\n        /* \"#utility.yul\":35148:35195   */\n      mstore\n        /* \"#utility.yul\":35212:35343   */\n      tag_695\n        /* \"#utility.yul\":35338:35342   */\n      dup2\n        /* \"#utility.yul\":35212:35343   */\n      tag_357\n      jump\t// in\n    tag_695:\n        /* \"#utility.yul\":35204:35343   */\n      swap1\n      pop\n        /* \"#utility.yul\":34931:35350   */\n      swap2\n      swap1\n      pop\n      jump\t// out\n        /* \"#utility.yul\":35356:35535   */\n    tag_358:\n        /* \"#utility.yul\":35496:35527   */\n      0x6f6e6c792061646d696e2063616e206465636c6172652077696e6e6572000000\n        /* \"#utility.yul\":35492:35493   */\n      0x00\n        /* \"#utility.yul\":35484:35490   */\n      dup3\n        /* \"#utility.yul\":35480:35494   */\n      add\n        /* \"#utility.yul\":35473:35528   */\n      mstore\n        /* \"#utility.yul\":35356:35535   */\n      pop\n      jump\t// out\n        /* \"#utility.yul\":35541:35907   */\n    tag_359:\n        /* \"#utility.yul\":35683:35686   */\n      0x00\n        /* \"#utility.yul\":35704:35771   */\n      tag_698\n        /* \"#utility.yul\":35768:35770   */\n      0x1d\n        /* \"#utility.yul\":35763:35766   */\n      dup4\n        /* \"#utility.yul\":35704:35771   */\n      tag_288\n      jump\t// in\n    tag_698:\n        /* \"#utility.yul\":35697:35771   */\n      swap2\n      pop\n        /* \"#utility.yul\":35780:35873   */\n      tag_699\n        /* \"#utility.yul\":35869:35872   */\n      dup3\n        /* \"#utility.yul\":35780:35873   */\n      tag_358\n      jump\t// in\n    tag_699:\n        /* \"#utility.yul\":35898:35900   */\n      0x20\n        /* \"#utility.yul\":35893:35896   */\n      dup3\n        /* \"#utility.yul\":35889:35901   */\n      add\n        /* \"#utility.yul\":35882:35901   */\n      swap1\n      pop\n        /* \"#utility.yul\":35541:35907   */\n      swap2\n      swap1\n      pop\n      jump\t// out\n        /* \"#utility.yul\":35913:36332   */\n    tag_213:\n        /* \"#utility.yul\":36079:36083   */\n      0x00\n        /* \"#utility.yul\":36117:36119   */\n      0x20\n        /* \"#utility.yul\":36106:36115   */\n      dup3\n        /* \"#utility.yul\":36102:36120   */\n      add\n        /* \"#utility.yul\":36094:36120   */\n      swap1\n      pop\n        /* \"#utility.yul\":36166:36175   */\n      dup2\n        /* \"#utility.yul\":36160:36164   */\n      dup2\n        /* \"#utility.yul\":36156:36176   */\n      sub\n        /* \"#utility.yul\":36152:36153   */\n      0x00\n        /* \"#utility.yul\":36141:36150   */\n      dup4\n        /* \"#utility.yul\":36137:36154   */\n      add\n        /* \"#utility.yul\":36130:36177   */\n      mstore\n        /* \"#utility.yul\":36194:36325   */\n      tag_701\n        /* \"#utility.yul\":36320:36324   */\n      dup2\n        /* \"#utility.yul\":36194:36325   */\n      tag_359\n      jump\t// in\n    tag_701:\n        /* \"#utility.yul\":36186:36325   */\n      swap1\n      pop\n        /* \"#utility.yul\":35913:36332   */\n      swap2\n      swap1\n      pop\n      jump\t// out\n        /* \"#utility.yul\":36338:36575   */\n    tag_360:\n        /* \"#utility.yul\":36478:36512   */\n      0x57494e4e45522057494c4c204f4e4c59204245204445434c41524544204f4e43\n        /* \"#utility.yul\":36474:36475   */\n      0x00\n        /* \"#utility.yul\":36466:36472   */\n      dup3\n        /* \"#utility.yul\":36462:36476   */\n      add\n        /* \"#utility.yul\":36455:36513   */\n      mstore\n        /* \"#utility.yul\":36547:36567   */\n      0x452054484520454c4354494f4e20454e44530000000000000000000000000000\n        /* \"#utility.yul\":36542:36544   */\n      0x20\n        /* \"#utility.yul\":36534:36540   */\n      dup3\n        /* \"#utility.yul\":36530:36545   */\n      add\n        /* \"#utility.yul\":36523:36568   */\n      mstore\n        /* \"#utility.yul\":36338:36575   */\n      pop\n      jump\t// out\n        /* \"#utility.yul\":36581:36947   */\n    tag_361:\n        /* \"#utility.yul\":36723:36726   */\n      0x00\n        /* \"#utility.yul\":36744:36811   */\n      tag_704\n        /* \"#utility.yul\":36808:36810   */\n      0x32\n        /* \"#utility.yul\":36803:36806   */\n      dup4\n        /* \"#utility.yul\":36744:36811   */\n      tag_288\n      jump\t// in\n    tag_704:\n        /* \"#utility.yul\":36737:36811   */\n      swap2\n      pop\n        /* \"#utility.yul\":36820:36913   */\n      tag_705\n        /* \"#utility.yul\":36909:36912   */\n      dup3\n        /* \"#utility.yul\":36820:36913   */\n      tag_360\n      jump\t// in\n    tag_705:\n        /* \"#utility.yul\":36938:36940   */\n      0x40\n        /* \"#utility.yul\":36933:36936   */\n      dup3\n        /* \"#utility.yul\":36929:36941   */\n      add\n        /* \"#utility.yul\":36922:36941   */\n      swap1\n      pop\n        /* \"#utility.yul\":36581:36947   */\n      swap2\n      swap1\n      pop\n      jump\t// out\n        /* \"#utility.yul\":36953:37372   */\n    tag_220:\n        /* \"#utility.yul\":37119:37123   */\n      0x00\n        /* \"#utility.yul\":37157:37159   */\n      0x20\n        /* \"#utility.yul\":37146:37155   */\n      dup3\n        /* \"#utility.yul\":37142:37160   */\n      add\n        /* \"#utility.yul\":37134:37160   */\n      swap1\n      pop\n        /* \"#utility.yul\":37206:37215   */\n      dup2\n        /* \"#utility.yul\":37200:37204   */\n      dup2\n        /* \"#utility.yul\":37196:37216   */\n      sub\n        /* \"#utility.yul\":37192:37193   */\n      0x00\n        /* \"#utility.yul\":37181:37190   */\n      dup4\n        /* \"#utility.yul\":37177:37194   */\n      add\n        /* \"#utility.yul\":37170:37217   */\n      mstore\n        /* \"#utility.yul\":37234:37365   */\n      tag_707\n        /* \"#utility.yul\":37360:37364   */\n      dup2\n        /* \"#utility.yul\":37234:37365   */\n      tag_361\n      jump\t// in\n    tag_707:\n        /* \"#utility.yul\":37226:37365   */\n      swap1\n      pop\n        /* \"#utility.yul\":36953:37372   */\n      swap2\n      swap1\n      pop\n      jump\t// out\n        /* \"#utility.yul\":37378:37557   */\n    tag_362:\n        /* \"#utility.yul\":37518:37549   */\n      0x6f6e6c792061646d696e2063616e20726567697374657220766f746572000000\n        /* \"#utility.yul\":37514:37515   */\n      0x00\n        /* \"#utility.yul\":37506:37512   */\n      dup3\n        /* \"#utility.yul\":37502:37516   */\n      add\n        /* \"#utility.yul\":37495:37550   */\n      mstore\n        /* \"#utility.yul\":37378:37557   */\n      pop\n      jump\t// out\n        /* \"#utility.yul\":37563:37929   */\n    tag_363:\n        /* \"#utility.yul\":37705:37708   */\n      0x00\n        /* \"#utility.yul\":37726:37793   */\n      tag_710\n        /* \"#utility.yul\":37790:37792   */\n      0x1d\n        /* \"#utility.yul\":37785:37788   */\n      dup4\n        /* \"#utility.yul\":37726:37793   */\n      tag_288\n      jump\t// in\n    tag_710:\n        /* \"#utility.yul\":37719:37793   */\n      swap2\n      pop\n        /* \"#utility.yul\":37802:37895   */\n      tag_711\n        /* \"#utility.yul\":37891:37894   */\n      dup3\n        /* \"#utility.yul\":37802:37895   */\n      tag_362\n      jump\t// in\n    tag_711:\n        /* \"#utility.yul\":37920:37922   */\n      0x20\n        /* \"#utility.yul\":37915:37918   */\n      dup3\n        /* \"#utility.yul\":37911:37923   */\n      add\n        /* \"#utility.yul\":37904:37923   */\n      swap1\n      pop\n        /* \"#utility.yul\":37563:37929   */\n      swap2\n      swap1\n      pop\n      jump\t// out\n        /* \"#utility.yul\":37935:38354   */\n    tag_230:\n        /* \"#utility.yul\":38101:38105   */\n      0x00\n        /* \"#utility.yul\":38139:38141   */\n      0x20\n        /* \"#utility.yul\":38128:38137   */\n      dup3\n        /* \"#utility.yul\":38124:38142   */\n      add\n        /* \"#utility.yul\":38116:38142   */\n      swap1\n      pop\n        /* \"#utility.yul\":38188:38197   */\n      dup2\n        /* \"#utility.yul\":38182:38186   */\n      dup2\n        /* \"#utility.yul\":38178:38198   */\n      sub\n        /* \"#utility.yul\":38174:38175   */\n      0x00\n        /* \"#utility.yul\":38163:38172   */\n      dup4\n        /* \"#utility.yul\":38159:38176   */\n      add\n        /* \"#utility.yul\":38152:38199   */\n      mstore\n        /* \"#utility.yul\":38216:38347   */\n      tag_713\n        /* \"#utility.yul\":38342:38346   */\n      dup2\n        /* \"#utility.yul\":38216:38347   */\n      tag_363\n      jump\t// in\n    tag_713:\n        /* \"#utility.yul\":38208:38347   */\n      swap1\n      pop\n        /* \"#utility.yul\":37935:38354   */\n      swap2\n      swap1\n      pop\n      jump\t// out\n        /* \"#utility.yul\":38360:38540   */\n    tag_364:\n        /* \"#utility.yul\":38500:38532   */\n      0x61646d696e2063616e6e6f7420726567697374657220666f7220766f74650000\n        /* \"#utility.yul\":38496:38497   */\n      0x00\n        /* \"#utility.yul\":38488:38494   */\n      dup3\n        /* \"#utility.yul\":38484:38498   */\n      add\n        /* \"#utility.yul\":38477:38533   */\n      mstore\n        /* \"#utility.yul\":38360:38540   */\n      pop\n      jump\t// out\n        /* \"#utility.yul\":38546:38912   */\n    tag_365:\n        /* \"#utility.yul\":38688:38691   */\n      0x00\n        /* \"#utility.yul\":38709:38776   */\n      tag_716\n        /* \"#utility.yul\":38773:38775   */\n      0x1e\n        /* \"#utility.yul\":38768:38771   */\n      dup4\n        /* \"#utility.yul\":38709:38776   */\n      tag_288\n      jump\t// in\n    tag_716:\n        /* \"#utility.yul\":38702:38776   */\n      swap2\n      pop\n        /* \"#utility.yul\":38785:38878   */\n      tag_717\n        /* \"#utility.yul\":38874:38877   */\n      dup3\n        /* \"#utility.yul\":38785:38878   */\n      tag_364\n      jump\t// in\n    tag_717:\n        /* \"#utility.yul\":38903:38905   */\n      0x20\n        /* \"#utility.yul\":38898:38901   */\n      dup3\n        /* \"#utility.yul\":38894:38906   */\n      add\n        /* \"#utility.yul\":38887:38906   */\n      swap1\n      pop\n        /* \"#utility.yul\":38546:38912   */\n      swap2\n      swap1\n      pop\n      jump\t// out\n        /* \"#utility.yul\":38918:39337   */\n    tag_233:\n        /* \"#utility.yul\":39084:39088   */\n      0x00\n        /* \"#utility.yul\":39122:39124   */\n      0x20\n        /* \"#utility.yul\":39111:39120   */\n      dup3\n        /* \"#utility.yul\":39107:39125   */\n      add\n        /* \"#utility.yul\":39099:39125   */\n      swap1\n      pop\n        /* \"#utility.yul\":39171:39180   */\n      dup2\n        /* \"#utility.yul\":39165:39169   */\n      dup2\n        /* \"#utility.yul\":39161:39181   */\n      sub\n        /* \"#utility.yul\":39157:39158   */\n      0x00\n        /* \"#utility.yul\":39146:39155   */\n      dup4\n        /* \"#utility.yul\":39142:39159   */\n      add\n        /* \"#utility.yul\":39135:39182   */\n      mstore\n        /* \"#utility.yul\":39199:39330   */\n      tag_719\n        /* \"#utility.yul\":39325:39329   */\n      dup2\n        /* \"#utility.yul\":39199:39330   */\n      tag_365\n      jump\t// in\n    tag_719:\n        /* \"#utility.yul\":39191:39330   */\n      swap1\n      pop\n        /* \"#utility.yul\":38918:39337   */\n      swap2\n      swap1\n      pop\n      jump\t// out\n        /* \"#utility.yul\":39343:39517   */\n    tag_366:\n        /* \"#utility.yul\":39483:39509   */\n      0x766f74657220616c726561647920726567697374657265640000000000000000\n        /* \"#utility.yul\":39479:39480   */\n      0x00\n        /* \"#utility.yul\":39471:39477   */\n      dup3\n        /* \"#utility.yul\":39467:39481   */\n      add\n        /* \"#utility.yul\":39460:39510   */\n      mstore\n        /* \"#utility.yul\":39343:39517   */\n      pop\n      jump\t// out\n        /* \"#utility.yul\":39523:39889   */\n    tag_367:\n        /* \"#utility.yul\":39665:39668   */\n      0x00\n        /* \"#utility.yul\":39686:39753   */\n      tag_722\n        /* \"#utility.yul\":39750:39752   */\n      0x18\n        /* \"#utility.yul\":39745:39748   */\n      dup4\n        /* \"#utility.yul\":39686:39753   */\n      tag_288\n      jump\t// in\n    tag_722:\n        /* \"#utility.yul\":39679:39753   */\n      swap2\n      pop\n        /* \"#utility.yul\":39762:39855   */\n      tag_723\n        /* \"#utility.yul\":39851:39854   */\n      dup3\n        /* \"#utility.yul\":39762:39855   */\n      tag_366\n      jump\t// in\n    tag_723:\n        /* \"#utility.yul\":39880:39882   */\n      0x20\n        /* \"#utility.yul\":39875:39878   */\n      dup3\n        /* \"#utility.yul\":39871:39883   */\n      add\n        /* \"#utility.yul\":39864:39883   */\n      swap1\n      pop\n        /* \"#utility.yul\":39523:39889   */\n      swap2\n      swap1\n      pop\n      jump\t// out\n        /* \"#utility.yul\":39895:40314   */\n    tag_236:\n        /* \"#utility.yul\":40061:40065   */\n      0x00\n        /* \"#utility.yul\":40099:40101   */\n      0x20\n        /* \"#utility.yul\":40088:40097   */\n      dup3\n        /* \"#utility.yul\":40084:40102   */\n      add\n        /* \"#utility.yul\":40076:40102   */\n      swap1\n      pop\n        /* \"#utility.yul\":40148:40157   */\n      dup2\n        /* \"#utility.yul\":40142:40146   */\n      dup2\n        /* \"#utility.yul\":40138:40158   */\n      sub\n        /* \"#utility.yul\":40134:40135   */\n      0x00\n        /* \"#utility.yul\":40123:40132   */\n      dup4\n        /* \"#utility.yul\":40119:40136   */\n      add\n        /* \"#utility.yul\":40112:40159   */\n      mstore\n        /* \"#utility.yul\":40176:40307   */\n      tag_725\n        /* \"#utility.yul\":40302:40306   */\n      dup2\n        /* \"#utility.yul\":40176:40307   */\n      tag_367\n      jump\t// in\n    tag_725:\n        /* \"#utility.yul\":40168:40307   */\n      swap1\n      pop\n        /* \"#utility.yul\":39895:40314   */\n      swap2\n      swap1\n      pop\n      jump\t// out\n        /* \"#utility.yul\":40320:40540   */\n    tag_368:\n        /* \"#utility.yul\":40460:40494   */\n      0x6f6e6c792061646d696e2063616e2072656769737465722063616e6469646174\n        /* \"#utility.yul\":40456:40457   */\n      0x00\n        /* \"#utility.yul\":40448:40454   */\n      dup3\n        /* \"#utility.yul\":40444:40458   */\n      add\n        /* \"#utility.yul\":40437:40495   */\n      mstore\n        /* \"#utility.yul\":40529:40532   */\n      0x6500000000000000000000000000000000000000000000000000000000000000\n        /* \"#utility.yul\":40524:40526   */\n      0x20\n        /* \"#utility.yul\":40516:40522   */\n      dup3\n        /* \"#utility.yul\":40512:40527   */\n      add\n        /* \"#utility.yul\":40505:40533   */\n      mstore\n        /* \"#utility.yul\":40320:40540   */\n      pop\n      jump\t// out\n        /* \"#utility.yul\":40546:40912   */\n    tag_369:\n        /* \"#utility.yul\":40688:40691   */\n      0x00\n        /* \"#utility.yul\":40709:40776   */\n      tag_728\n        /* \"#utility.yul\":40773:40775   */\n      0x21\n        /* \"#utility.yul\":40768:40771   */\n      dup4\n        /* \"#utility.yul\":40709:40776   */\n      tag_288\n      jump\t// in\n    tag_728:\n        /* \"#utility.yul\":40702:40776   */\n      swap2\n      pop\n        /* \"#utility.yul\":40785:40878   */\n      tag_729\n        /* \"#utility.yul\":40874:40877   */\n      dup3\n        /* \"#utility.yul\":40785:40878   */\n      tag_368\n      jump\t// in\n    tag_729:\n        /* \"#utility.yul\":40903:40905   */\n      0x40\n        /* \"#utility.yul\":40898:40901   */\n      dup3\n        /* \"#utility.yul\":40894:40906   */\n      add\n        /* \"#utility.yul\":40887:40906   */\n      swap1\n      pop\n        /* \"#utility.yul\":40546:40912   */\n      swap2\n      swap1\n      pop\n      jump\t// out\n        /* \"#utility.yul\":40918:41337   */\n    tag_253:\n        /* \"#utility.yul\":41084:41088   */\n      0x00\n        /* \"#utility.yul\":41122:41124   */\n      0x20\n        /* \"#utility.yul\":41111:41120   */\n      dup3\n        /* \"#utility.yul\":41107:41125   */\n      add\n        /* \"#utility.yul\":41099:41125   */\n      swap1\n      pop\n        /* \"#utility.yul\":41171:41180   */\n      dup2\n        /* \"#utility.yul\":41165:41169   */\n      dup2\n        /* \"#utility.yul\":41161:41181   */\n      sub\n        /* \"#utility.yul\":41157:41158   */\n      0x00\n        /* \"#utility.yul\":41146:41155   */\n      dup4\n        /* \"#utility.yul\":41142:41159   */\n      add\n        /* \"#utility.yul\":41135:41182   */\n      mstore\n        /* \"#utility.yul\":41199:41330   */\n      tag_731\n        /* \"#utility.yul\":41325:41329   */\n      dup2\n        /* \"#utility.yul\":41199:41330   */\n      tag_369\n      jump\t// in\n    tag_731:\n        /* \"#utility.yul\":41191:41330   */\n      swap1\n      pop\n        /* \"#utility.yul\":40918:41337   */\n      swap2\n      swap1\n      pop\n      jump\t// out\n        /* \"#utility.yul\":41343:41516   */\n    tag_370:\n        /* \"#utility.yul\":41483:41508   */\n      0x63616e64696461746520616c7265616479206578697374000000000000000000\n        /* \"#utility.yul\":41479:41480   */\n      0x00\n        /* \"#utility.yul\":41471:41477   */\n      dup3\n        /* \"#utility.yul\":41467:41481   */\n      add\n        /* \"#utility.yul\":41460:41509   */\n      mstore\n        /* \"#utility.yul\":41343:41516   */\n      pop\n      jump\t// out\n        /* \"#utility.yul\":41522:41888   */\n    tag_371:\n        /* \"#utility.yul\":41664:41667   */\n      0x00\n        /* \"#utility.yul\":41685:41752   */\n      tag_734\n        /* \"#utility.yul\":41749:41751   */\n      0x17\n        /* \"#utility.yul\":41744:41747   */\n      dup4\n        /* \"#utility.yul\":41685:41752   */\n      tag_288\n      jump\t// in\n    tag_734:\n        /* \"#utility.yul\":41678:41752   */\n      swap2\n      pop\n        /* \"#utility.yul\":41761:41854   */\n      tag_735\n        /* \"#utility.yul\":41850:41853   */\n      dup3\n        /* \"#utility.yul\":41761:41854   */\n      tag_370\n      jump\t// in\n    tag_735:\n        /* \"#utility.yul\":41879:41881   */\n      0x20\n        /* \"#utility.yul\":41874:41877   */\n      dup3\n        /* \"#utility.yul\":41870:41882   */\n      add\n        /* \"#utility.yul\":41863:41882   */\n      swap1\n      pop\n        /* \"#utility.yul\":41522:41888   */\n      swap2\n      swap1\n      pop\n      jump\t// out\n        /* \"#utility.yul\":41894:42313   */\n    tag_256:\n        /* \"#utility.yul\":42060:42064   */\n      0x00\n        /* \"#utility.yul\":42098:42100   */\n      0x20\n        /* \"#utility.yul\":42087:42096   */\n      dup3\n        /* \"#utility.yul\":42083:42101   */\n      add\n        /* \"#utility.yul\":42075:42101   */\n      swap1\n      pop\n        /* \"#utility.yul\":42147:42156   */\n      dup2\n        /* \"#utility.yul\":42141:42145   */\n      dup2\n        /* \"#utility.yul\":42137:42157   */\n      sub\n        /* \"#utility.yul\":42133:42134   */\n      0x00\n        /* \"#utility.yul\":42122:42131   */\n      dup4\n        /* \"#utility.yul\":42118:42135   */\n      add\n        /* \"#utility.yul\":42111:42158   */\n      mstore\n        /* \"#utility.yul\":42175:42306   */\n      tag_737\n        /* \"#utility.yul\":42301:42305   */\n      dup2\n        /* \"#utility.yul\":42175:42306   */\n      tag_371\n      jump\t// in\n    tag_737:\n        /* \"#utility.yul\":42167:42306   */\n      swap1\n      pop\n        /* \"#utility.yul\":41894:42313   */\n      swap2\n      swap1\n      pop\n      jump\t// out\n        /* \"#utility.yul\":42319:42544   */\n    tag_372:\n        /* \"#utility.yul\":42459:42493   */\n      0x61646d696e2063616e277420626520726567697374657265642061732063616e\n        /* \"#utility.yul\":42455:42456   */\n      0x00\n        /* \"#utility.yul\":42447:42453   */\n      dup3\n        /* \"#utility.yul\":42443:42457   */\n      add\n        /* \"#utility.yul\":42436:42494   */\n      mstore\n        /* \"#utility.yul\":42528:42536   */\n      0x6469646174650000000000000000000000000000000000000000000000000000\n        /* \"#utility.yul\":42523:42525   */\n      0x20\n        /* \"#utility.yul\":42515:42521   */\n      dup3\n        /* \"#utility.yul\":42511:42526   */\n      add\n        /* \"#utility.yul\":42504:42537   */\n      mstore\n        /* \"#utility.yul\":42319:42544   */\n      pop\n      jump\t// out\n        /* \"#utility.yul\":42550:42916   */\n    tag_373:\n        /* \"#utility.yul\":42692:42695   */\n      0x00\n        /* \"#utility.yul\":42713:42780   */\n      tag_740\n        /* \"#utility.yul\":42777:42779   */\n      0x26\n        /* \"#utility.yul\":42772:42775   */\n      dup4\n        /* \"#utility.yul\":42713:42780   */\n      tag_288\n      jump\t// in\n    tag_740:\n        /* \"#utility.yul\":42706:42780   */\n      swap2\n      pop\n        /* \"#utility.yul\":42789:42882   */\n      tag_741\n        /* \"#utility.yul\":42878:42881   */\n      dup3\n        /* \"#utility.yul\":42789:42882   */\n      tag_372\n      jump\t// in\n    tag_741:\n        /* \"#utility.yul\":42907:42909   */\n      0x40\n        /* \"#utility.yul\":42902:42905   */\n      dup3\n        /* \"#utility.yul\":42898:42910   */\n      add\n        /* \"#utility.yul\":42891:42910   */\n      swap1\n      pop\n        /* \"#utility.yul\":42550:42916   */\n      swap2\n      swap1\n      pop\n      jump\t// out\n        /* \"#utility.yul\":42922:43341   */\n    tag_259:\n        /* \"#utility.yul\":43088:43092   */\n      0x00\n        /* \"#utility.yul\":43126:43128   */\n      0x20\n        /* \"#utility.yul\":43115:43124   */\n      dup3\n        /* \"#utility.yul\":43111:43129   */\n      add\n        /* \"#utility.yul\":43103:43129   */\n      swap1\n      pop\n        /* \"#utility.yul\":43175:43184   */\n      dup2\n        /* \"#utility.yul\":43169:43173   */\n      dup2\n        /* \"#utility.yul\":43165:43185   */\n      sub\n        /* \"#utility.yul\":43161:43162   */\n      0x00\n        /* \"#utility.yul\":43150:43159   */\n      dup4\n        /* \"#utility.yul\":43146:43163   */\n      add\n        /* \"#utility.yul\":43139:43186   */\n      mstore\n        /* \"#utility.yul\":43203:43334   */\n      tag_743\n        /* \"#utility.yul\":43329:43333   */\n      dup2\n        /* \"#utility.yul\":43203:43334   */\n      tag_373\n      jump\t// in\n    tag_743:\n        /* \"#utility.yul\":43195:43334   */\n      swap1\n      pop\n        /* \"#utility.yul\":42922:43341   */\n      swap2\n      swap1\n      pop\n      jump\t// out\n\n    auxdata: 0xa2646970667358221220956a91386dd32f34033ace36619f5551601480572526beae75aa0e9c494814d264736f6c63430008150033\n}\n",
				"bytecode": {
					"linkReferences": {},
					"object": "608060405234801562000010575f80fd5b50335f806101000a81548173ffffffffffffffffffffffffffffffffffffffff021916908373ffffffffffffffffffffffffffffffffffffffff1602179055505f8060146101000a81548160ff0219169083151502179055505f6001819055506040518060400160405280600b81526020017f4e6f74205374617274656400000000000000000000000000000000000000000081525060039081620000b6919062000362565b505f6002819055505f6004819055505f6006819055505f60075f6101000a81548160ff02191690836002811115620000f357620000f262000446565b5b021790555062000473565b5f81519050919050565b7f4e487b71000000000000000000000000000000000000000000000000000000005f52604160045260245ffd5b7f4e487b71000000000000000000000000000000000000000000000000000000005f52602260045260245ffd5b5f60028204905060018216806200017a57607f821691505b60208210810362000190576200018f62000135565b5b50919050565b5f819050815f5260205f209050919050565b5f6020601f8301049050919050565b5f82821b905092915050565b5f60088302620001f47fffffffffffffffffffffffffffffffffffffffffffffffffffffffffffffffff82620001b7565b620002008683620001b7565b95508019841693508086168417925050509392505050565b5f819050919050565b5f819050919050565b5f6200024a620002446200023e8462000218565b62000221565b62000218565b9050919050565b5f819050919050565b62000265836200022a565b6200027d620002748262000251565b848454620001c3565b825550505050565b5f90565b6200029362000285565b620002a08184846200025a565b505050565b5b81811015620002c757620002bb5f8262000289565b600181019050620002a6565b5050565b601f8211156200031657620002e08162000196565b620002eb84620001a8565b81016020851015620002fb578190505b620003136200030a85620001a8565b830182620002a5565b50505b505050565b5f82821c905092915050565b5f620003385f19846008026200031b565b1980831691505092915050565b5f62000352838362000327565b9150826002028217905092915050565b6200036d82620000fe565b67ffffffffffffffff81111562000389576200038862000108565b5b62000395825462000162565b620003a2828285620002cb565b5f60209050601f831160018114620003d8575f8415620003c3578287015190505b620003cf858262000345565b8655506200043e565b601f198416620003e88662000196565b5f5b828110156200041157848901518255600182019150602085019450602081019050620003ea565b868310156200043157848901516200042d601f89168262000327565b8355505b6001600288020188555050505b505050505050565b7f4e487b71000000000000000000000000000000000000000000000000000000005f52602160045260245ffd5b6136c980620004815f395ff3fe608060405234801561000f575f80fd5b50600436106100b1575f3560e01c8063b31e1d4d1161006f578063b31e1d4d14610181578063c3403ddf1461019d578063d1e05abb146101a7578063ebbb4f84146101c5578063f9e7284f146101e1578063fcab6679146101ff576100b1565b806298a51a146100b55780630a03fff1146100eb57806319f41a401461011f5780631ec6b60a1461013d578063233b672d1461014757806381c4071514610163575b5f80fd5b6100cf60048036038101906100ca91906121ce565b61021b565b6040516100e297969594939291906122c4565b60405180910390f35b610105600480360381019061010091906121ce565b610322565b604051610116959493929190612338565b60405180910390f35b61012761048b565b6040516101349190612397565b60405180910390f35b61014561051b565b005b610161600480360381019061015c91906123e1565b610626565b005b61016b610b75565b60405161017891906125c9565b60405180910390f35b61019b600480360381019061019691906121ce565b610d69565b005b6101a56114ac565b005b6101af6115a6565b6040516101bc9190612397565b60405180910390f35b6101df60048036038101906101da9190612715565b611737565b005b6101e9611b5f565b6040516101f691906128c3565b60405180910390f35b610219600480360381019061021491906128e3565b611d01565b005b600a602052805f5260405f205f91509050805f015f9054906101000a900473ffffffffffffffffffffffffffffffffffffffff1690805f0160149054906101000a900460ff1690805f0160159054906101000a900460ff1690805f0160169054906101000a900460ff16908060010154908060020154908060030180546102a190612998565b80601f01602080910402602001604051908101604052809291908181526020018280546102cd90612998565b80156103185780601f106102ef57610100808354040283529160200191610318565b820191905f5260205f20905b8154815290600101906020018083116102fb57829003601f168201915b5050505050905087565b6008602052805f5260405f205f91509050805f015f9054906101000a900473ffffffffffffffffffffffffffffffffffffffff169080600101805461036690612998565b80601f016020809104026020016040519081016040528092919081815260200182805461039290612998565b80156103dd5780601f106103b4576101008083540402835291602001916103dd565b820191905f5260205f20905b8154815290600101906020018083116103c057829003601f168201915b5050505050908060020180546103f290612998565b80601f016020809104026020016040519081016040528092919081815260200182805461041e90612998565b80156104695780601f1061044057610100808354040283529160200191610469565b820191905f5260205f20905b81548152906001019060200180831161044c57829003601f168201915b505050505090806003015f9054906101000a900460ff16908060040154905085565b60606003805461049a90612998565b80601f01602080910402602001604051908101604052809291908181526020018280546104c690612998565b80156105115780601f106104e857610100808354040283529160200191610511565b820191905f5260205f20905b8154815290600101906020018083116104f457829003601f168201915b5050505050905090565b3373ffffffffffffffffffffffffffffffffffffffff165f8054906101000a900473ffffffffffffffffffffffffffffffffffffffff1673ffffffffffffffffffffffffffffffffffffffff1614801561057657505f600254145b801561059357505f15155f60149054906101000a900460ff161515145b61059b575f80fd5b60015f60146101000a81548160ff021916908315150217905550600160075f6101000a81548160ff021916908360028111156105da576105d96129c8565b5b02179055506040518060400160405280600881526020017f4f6e20476f696e67000000000000000000000000000000000000000000000000815250600390816106239190612b92565b50565b60011515610633336120b2565b151514610675576040517f08c379a000000000000000000000000000000000000000000000000000000000815260040161066c90612cab565b60405180910390fd5b5f1515600a5f3373ffffffffffffffffffffffffffffffffffffffff1673ffffffffffffffffffffffffffffffffffffffff1681526020019081526020015f205f0160159054906101000a900460ff161515148061071357505f600a5f3373ffffffffffffffffffffffffffffffffffffffff1673ffffffffffffffffffffffffffffffffffffffff1681526020019081526020015f206001015414155b610752576040517f08c379a000000000000000000000000000000000000000000000000000000000815260040161074990612d13565b60405180910390fd5b600115155f60149054906101000a900460ff161515146107a7576040517f08c379a000000000000000000000000000000000000000000000000000000000815260040161079e90612d7b565b60405180910390fd5b5f600a5f3373ffffffffffffffffffffffffffffffffffffffff1673ffffffffffffffffffffffffffffffffffffffff1681526020019081526020015f2060020154905060085f8373ffffffffffffffffffffffffffffffffffffffff1673ffffffffffffffffffffffffffffffffffffffff1681526020019081526020015f206004015f81548092919061083b90612dc6565b919050555060085f8373ffffffffffffffffffffffffffffffffffffffff1673ffffffffffffffffffffffffffffffffffffffff1681526020019081526020015f206009848154811061089157610890612e0d565b5b905f5260205f2090600502015f82015f9054906101000a900473ffffffffffffffffffffffffffffffffffffffff16815f015f6101000a81548173ffffffffffffffffffffffffffffffffffffffff021916908373ffffffffffffffffffffffffffffffffffffffff160217905550600182018160010190816109149190612e4f565b50600282018160020190816109299190612e4f565b50600382015f9054906101000a900460ff16816003015f6101000a81548160ff0219169083151502179055506004820154816004015590505060045f81548092919061097490612dc6565b91905055506009838154811061098d5761098c612e0d565b5b905f5260205f209060050201600401546006541015610a0357600983815481106109ba576109b9612e0d565b5b905f5260205f20906005020160040154600681905550600983815481106109e4576109e3612e0d565b5b905f5260205f20906005020160010160059081610a019190612f5b565b505b5f600a5f3373ffffffffffffffffffffffffffffffffffffffff1673ffffffffffffffffffffffffffffffffffffffff1681526020019081526020015f206001015414610adc57600a5f3373ffffffffffffffffffffffffffffffffffffffff1673ffffffffffffffffffffffffffffffffffffffff1681526020019081526020015f206001015f815480929190610a9a90613040565b9190505550600b8181548110610ab357610ab2612e0d565b5b905f5260205f2090600402016001015f815480929190610ad290613040565b9190505550610b70565b6001600a5f3373ffffffffffffffffffffffffffffffffffffffff1673ffffffffffffffffffffffffffffffffffffffff1681526020019081526020015f205f0160156101000a81548160ff0219169083151502179055506001600b8281548110610b4a57610b49612e0d565b5b905f5260205f2090600402015f0160156101000a81548160ff0219169083151502179055505b505050565b60606009805480602002602001604051908101604052809291908181526020015f905b82821015610d60578382905f5260205f2090600502016040518060a00160405290815f82015f9054906101000a900473ffffffffffffffffffffffffffffffffffffffff1673ffffffffffffffffffffffffffffffffffffffff1673ffffffffffffffffffffffffffffffffffffffff168152602001600182018054610c1d90612998565b80601f0160208091040260200160405190810160405280929190818152602001828054610c4990612998565b8015610c945780601f10610c6b57610100808354040283529160200191610c94565b820191905f5260205f20905b815481529060010190602001808311610c7757829003601f168201915b50505050508152602001600282018054610cad90612998565b80601f0160208091040260200160405190810160405280929190818152602001828054610cd990612998565b8015610d245780601f10610cfb57610100808354040283529160200191610d24565b820191905f5260205f20905b815481529060010190602001808311610d0757829003601f168201915b50505050508152602001600382015f9054906101000a900460ff1615151515815260200160048201548152505081526020019060010190610b98565b50505050905090565b5f600a5f3373ffffffffffffffffffffffffffffffffffffffff1673ffffffffffffffffffffffffffffffffffffffff1681526020019081526020015f206002015490505f600a5f8473ffffffffffffffffffffffffffffffffffffffff1673ffffffffffffffffffffffffffffffffffffffff1681526020019081526020015f2060020154905060016002811115610e0557610e046129c8565b5b60075f9054906101000a900460ff166002811115610e2657610e256129c8565b5b14610e66576040517f08c379a0000000000000000000000000000000000000000000000000000000008152600401610e5d906130d7565b60405180910390fd5b3373ffffffffffffffffffffffffffffffffffffffff16600b8381548110610e9157610e90612e0d565b5b905f5260205f2090600402015f015f9054906101000a900473ffffffffffffffffffffffffffffffffffffffff1673ffffffffffffffffffffffffffffffffffffffff1614610ede575f80fd5b5f1515600a5f3373ffffffffffffffffffffffffffffffffffffffff1673ffffffffffffffffffffffffffffffffffffffff1681526020019081526020015f205f0160159054906101000a900460ff1615151480610f7c57505f600a5f3373ffffffffffffffffffffffffffffffffffffffff1673ffffffffffffffffffffffffffffffffffffffff1681526020019081526020015f206001015414155b610fbb576040517f08c379a0000000000000000000000000000000000000000000000000000000008152600401610fb290613165565b60405180910390fd5b3373ffffffffffffffffffffffffffffffffffffffff165f8054906101000a900473ffffffffffffffffffffffffffffffffffffffff1673ffffffffffffffffffffffffffffffffffffffff1603611048576040517f08c379a000000000000000000000000000000000000000000000000000000000815260040161103f906131cd565b60405180910390fd5b8273ffffffffffffffffffffffffffffffffffffffff163373ffffffffffffffffffffffffffffffffffffffff16036110b6576040517f08c379a00000000000000000000000000000000000000000000000000000000081526004016110ad90613235565b60405180910390fd5b6001151560085f3373ffffffffffffffffffffffffffffffffffffffff1673ffffffffffffffffffffffffffffffffffffffff1681526020019081526020015f206003015f9054906101000a900460ff1615151415801561116857506001151560085f8573ffffffffffffffffffffffffffffffffffffffff1673ffffffffffffffffffffffffffffffffffffffff1681526020019081526020015f206003015f9054906101000a900460ff16151514155b6111a7576040517f08c379a000000000000000000000000000000000000000000000000000000000815260040161119e906132c3565b60405180910390fd5b600a5f8473ffffffffffffffffffffffffffffffffffffffff1673ffffffffffffffffffffffffffffffffffffffff1681526020019081526020015f206001015f8154809291906111f790612dc6565b91905055505f600a5f3373ffffffffffffffffffffffffffffffffffffffff1673ffffffffffffffffffffffffffffffffffffffff1681526020019081526020015f2060010154036113a6576001600a5f3373ffffffffffffffffffffffffffffffffffffffff1673ffffffffffffffffffffffffffffffffffffffff1681526020019081526020015f205f0160156101000a81548160ff0219169083151502179055506001600a5f3373ffffffffffffffffffffffffffffffffffffffff1673ffffffffffffffffffffffffffffffffffffffff1681526020019081526020015f205f0160166101000a81548160ff0219169083151502179055506001600b838154811061130957611308612e0d565b5b905f5260205f2090600402015f0160156101000a81548160ff0219169083151502179055506001600b838154811061134457611343612e0d565b5b905f5260205f2090600402015f0160166101000a81548160ff021916908315150217905550600b818154811061137d5761137c612e0d565b5b905f5260205f2090600402016001015f81548092919061139c90612dc6565b91905055506114a7565b600a5f3373ffffffffffffffffffffffffffffffffffffffff1673ffffffffffffffffffffffffffffffffffffffff1681526020019081526020015f206001015f8154809291906113f690613040565b9190505550600b828154811061140f5761140e612e0d565b5b905f5260205f2090600402016001015f81548092919061142e90613040565b9190505550600b818154811061144757611446612e0d565b5b905f5260205f2090600402016001015f81548092919061146690612dc6565b91905055506001600b838154811061148157611480612e0d565b5b905f5260205f2090600402015f0160166101000a81548160ff0219169083151502179055505b505050565b3373ffffffffffffffffffffffffffffffffffffffff165f8054906101000a900473ffffffffffffffffffffffffffffffffffffffff1673ffffffffffffffffffffffffffffffffffffffff161480156115185750600115155f60149054906101000a900460ff161515145b801561152557505f600254145b61152d575f80fd5b6001600281905550600260075f6101000a81548160ff0219169083600281111561155a576115596129c8565b5b02179055506040518060400160405280600c81526020017f566f74696e6720456e6465640000000000000000000000000000000000000000815250600390816115a39190612b92565b50565b60603373ffffffffffffffffffffffffffffffffffffffff165f8054906101000a900473ffffffffffffffffffffffffffffffffffffffff1673ffffffffffffffffffffffffffffffffffffffff1614611635576040517f08c379a000000000000000000000000000000000000000000000000000000000815260040161162c9061332b565b60405180910390fd5b600280811115611648576116476129c8565b5b60075f9054906101000a900460ff166002811115611669576116686129c8565b5b146116a9576040517f08c379a00000000000000000000000000000000000000000000000000000000081526004016116a0906133b9565b60405180910390fd5b600580546116b690612998565b80601f01602080910402602001604051908101604052809291908181526020018280546116e290612998565b801561172d5780601f106117045761010080835404028352916020019161172d565b820191905f5260205f20905b81548152906001019060200180831161171057829003601f168201915b5050505050905090565b5f15155f60149054906101000a900460ff16151514611754575f80fd5b3373ffffffffffffffffffffffffffffffffffffffff165f8054906101000a900473ffffffffffffffffffffffffffffffffffffffff1673ffffffffffffffffffffffffffffffffffffffff16146117e1576040517f08c379a00000000000000000000000000000000000000000000000000000000081526004016117d890613421565b60405180910390fd5b5f8054906101000a900473ffffffffffffffffffffffffffffffffffffffff1673ffffffffffffffffffffffffffffffffffffffff168273ffffffffffffffffffffffffffffffffffffffff160361186e576040517f08c379a000000000000000000000000000000000000000000000000000000000815260040161186590613489565b60405180910390fd5b5f1515600a5f8473ffffffffffffffffffffffffffffffffffffffff1673ffffffffffffffffffffffffffffffffffffffff1681526020019081526020015f205f0160149054906101000a900460ff16151514611900576040517f08c379a00000000000000000000000000000000000000000000000000000000081526004016118f7906134f1565b60405180910390fd5b5f6040518060e001604052808473ffffffffffffffffffffffffffffffffffffffff1681526020016001151581526020015f151581526020015f151581526020015f8152602001600b80549050815260200183815250905080600a5f8573ffffffffffffffffffffffffffffffffffffffff1673ffffffffffffffffffffffffffffffffffffffff1681526020019081526020015f205f820151815f015f6101000a81548173ffffffffffffffffffffffffffffffffffffffff021916908373ffffffffffffffffffffffffffffffffffffffff1602179055506020820151815f0160146101000a81548160ff0219169083151502179055506040820151815f0160156101000a81548160ff0219169083151502179055506060820151815f0160166101000a81548160ff0219169083151502179055506080820151816001015560a0820151816002015560c0820151816003019081611a609190612b92565b50905050600b81908060018154018082558091505060019003905f5260205f2090600402015f909190919091505f820151815f015f6101000a81548173ffffffffffffffffffffffffffffffffffffffff021916908373ffffffffffffffffffffffffffffffffffffffff1602179055506020820151815f0160146101000a81548160ff0219169083151502179055506040820151815f0160156101000a81548160ff0219169083151502179055506060820151815f0160166101000a81548160ff0219169083151502179055506080820151816001015560a0820151816002015560c0820151816003019081611b579190612b92565b505050505050565b6060600b805480602002602001604051908101604052809291908181526020015f905b82821015611cf8578382905f5260205f2090600402016040518060e00160405290815f82015f9054906101000a900473ffffffffffffffffffffffffffffffffffffffff1673ffffffffffffffffffffffffffffffffffffffff1673ffffffffffffffffffffffffffffffffffffffff1681526020015f820160149054906101000a900460ff161515151581526020015f820160159054906101000a900460ff161515151581526020015f820160169054906101000a900460ff161515151581526020016001820154815260200160028201548152602001600382018054611c6990612998565b80601f0160208091040260200160405190810160405280929190818152602001828054611c9590612998565b8015611ce05780601f10611cb757610100808354040283529160200191611ce0565b820191905f5260205f20905b815481529060010190602001808311611cc357829003601f168201915b50505050508152505081526020019060010190611b82565b50505050905090565b5f15155f60149054906101000a900460ff16151514611d1e575f80fd5b3373ffffffffffffffffffffffffffffffffffffffff165f8054906101000a900473ffffffffffffffffffffffffffffffffffffffff1673ffffffffffffffffffffffffffffffffffffffff1614611dab576040517f08c379a0000000000000000000000000000000000000000000000000000000008152600401611da29061357f565b60405180910390fd5b6001151560085f8373ffffffffffffffffffffffffffffffffffffffff1673ffffffffffffffffffffffffffffffffffffffff1681526020019081526020015f206003015f9054906101000a900460ff16151503611e3e576040517f08c379a0000000000000000000000000000000000000000000000000000000008152600401611e35906135e7565b60405180910390fd5b5f8054906101000a900473ffffffffffffffffffffffffffffffffffffffff1673ffffffffffffffffffffffffffffffffffffffff168173ffffffffffffffffffffffffffffffffffffffff1603611ecb576040517f08c379a0000000000000000000000000000000000000000000000000000000008152600401611ec290613675565b60405180910390fd5b5f6040518060a001604052808373ffffffffffffffffffffffffffffffffffffffff1681526020018581526020018481526020016001151581526020015f81525090508060085f8473ffffffffffffffffffffffffffffffffffffffff1673ffffffffffffffffffffffffffffffffffffffff1681526020019081526020015f205f820151815f015f6101000a81548173ffffffffffffffffffffffffffffffffffffffff021916908373ffffffffffffffffffffffffffffffffffffffff1602179055506020820151816001019081611fa59190612b92565b506040820151816002019081611fbb9190612b92565b506060820151816003015f6101000a81548160ff02191690831515021790555060808201518160040155905050600981908060018154018082558091505060019003905f5260205f2090600502015f909190919091505f820151815f015f6101000a81548173ffffffffffffffffffffffffffffffffffffffff021916908373ffffffffffffffffffffffffffffffffffffffff160217905550602082015181600101908161206a9190612b92565b5060408201518160020190816120809190612b92565b506060820151816003015f6101000a81548160ff02191690831515021790555060808201518160040155505050505050565b5f805f90505f5b600b80549050811015612159578373ffffffffffffffffffffffffffffffffffffffff16600b82815481106120f1576120f0612e0d565b5b905f5260205f2090600402015f015f9054906101000a900473ffffffffffffffffffffffffffffffffffffffff1673ffffffffffffffffffffffffffffffffffffffff16036121435760019150612159565b5f9150808061215190612dc6565b9150506120b9565b5080915050919050565b5f604051905090565b5f80fd5b5f80fd5b5f73ffffffffffffffffffffffffffffffffffffffff82169050919050565b5f61219d82612174565b9050919050565b6121ad81612193565b81146121b7575f80fd5b50565b5f813590506121c8816121a4565b92915050565b5f602082840312156121e3576121e261216c565b5b5f6121f0848285016121ba565b91505092915050565b61220281612193565b82525050565b5f8115159050919050565b61221c81612208565b82525050565b5f819050919050565b61223481612222565b82525050565b5f81519050919050565b5f82825260208201905092915050565b5f5b83811015612271578082015181840152602081019050612256565b5f8484015250505050565b5f601f19601f8301169050919050565b5f6122968261223a565b6122a08185612244565b93506122b0818560208601612254565b6122b98161227c565b840191505092915050565b5f60e0820190506122d75f83018a6121f9565b6122e46020830189612213565b6122f16040830188612213565b6122fe6060830187612213565b61230b608083018661222b565b61231860a083018561222b565b81810360c083015261232a818461228c565b905098975050505050505050565b5f60a08201905061234b5f8301886121f9565b818103602083015261235d818761228c565b90508181036040830152612371818661228c565b90506123806060830185612213565b61238d608083018461222b565b9695505050505050565b5f6020820190508181035f8301526123af818461228c565b905092915050565b6123c081612222565b81146123ca575f80fd5b50565b5f813590506123db816123b7565b92915050565b5f80604083850312156123f7576123f661216c565b5b5f612404858286016123cd565b9250506020612415858286016121ba565b9150509250929050565b5f81519050919050565b5f82825260208201905092915050565b5f819050602082019050919050565b61245181612193565b82525050565b5f82825260208201905092915050565b5f6124718261223a565b61247b8185612457565b935061248b818560208601612254565b6124948161227c565b840191505092915050565b6124a881612208565b82525050565b6124b781612222565b82525050565b5f60a083015f8301516124d25f860182612448565b50602083015184820360208601526124ea8282612467565b915050604083015184820360408601526125048282612467565b9150506060830151612519606086018261249f565b50608083015161252c60808601826124ae565b508091505092915050565b5f61254283836124bd565b905092915050565b5f602082019050919050565b5f6125608261241f565b61256a8185612429565b93508360208202850161257c85612439565b805f5b858110156125b757848403895281516125988582612537565b94506125a38361254a565b925060208a0199505060018101905061257f565b50829750879550505050505092915050565b5f6020820190508181035f8301526125e18184612556565b905092915050565b5f80fd5b5f80fd5b7f4e487b71000000000000000000000000000000000000000000000000000000005f52604160045260245ffd5b6126278261227c565b810181811067ffffffffffffffff82111715612646576126456125f1565b5b80604052505050565b5f612658612163565b9050612664828261261e565b919050565b5f67ffffffffffffffff821115612683576126826125f1565b5b61268c8261227c565b9050602081019050919050565b828183375f83830152505050565b5f6126b96126b484612669565b61264f565b9050828152602081018484840111156126d5576126d46125ed565b5b6126e0848285612699565b509392505050565b5f82601f8301126126fc576126fb6125e9565b5b813561270c8482602086016126a7565b91505092915050565b5f806040838503121561272b5761272a61216c565b5b5f612738858286016121ba565b925050602083013567ffffffffffffffff81111561275957612758612170565b5b612765858286016126e8565b9150509250929050565b5f81519050919050565b5f82825260208201905092915050565b5f819050602082019050919050565b5f60e083015f8301516127ad5f860182612448565b5060208301516127c0602086018261249f565b5060408301516127d3604086018261249f565b5060608301516127e6606086018261249f565b5060808301516127f960808601826124ae565b5060a083015161280c60a08601826124ae565b5060c083015184820360c08601526128248282612467565b9150508091505092915050565b5f61283c8383612798565b905092915050565b5f602082019050919050565b5f61285a8261276f565b6128648185612779565b93508360208202850161287685612789565b805f5b858110156128b157848403895281516128928582612831565b945061289d83612844565b925060208a01995050600181019050612879565b50829750879550505050505092915050565b5f6020820190508181035f8301526128db8184612850565b905092915050565b5f805f606084860312156128fa576128f961216c565b5b5f84013567ffffffffffffffff81111561291757612916612170565b5b612923868287016126e8565b935050602084013567ffffffffffffffff81111561294457612943612170565b5b612950868287016126e8565b9250506040612961868287016121ba565b9150509250925092565b7f4e487b71000000000000000000000000000000000000000000000000000000005f52602260045260245ffd5b5f60028204905060018216806129af57607f821691505b6020821081036129c2576129c161296b565b5b50919050565b7f4e487b71000000000000000000000000000000000000000000000000000000005f52602160045260245ffd5b5f819050815f5260205f209050919050565b5f6020601f8301049050919050565b5f82821b905092915050565b5f60088302612a517fffffffffffffffffffffffffffffffffffffffffffffffffffffffffffffffff82612a16565b612a5b8683612a16565b95508019841693508086168417925050509392505050565b5f819050919050565b5f612a96612a91612a8c84612222565b612a73565b612222565b9050919050565b5f819050919050565b612aaf83612a7c565b612ac3612abb82612a9d565b848454612a22565b825550505050565b5f90565b612ad7612acb565b612ae2818484612aa6565b505050565b5b81811015612b0557612afa5f82612acf565b600181019050612ae8565b5050565b601f821115612b4a57612b1b816129f5565b612b2484612a07565b81016020851015612b33578190505b612b47612b3f85612a07565b830182612ae7565b50505b505050565b5f82821c905092915050565b5f612b6a5f1984600802612b4f565b1980831691505092915050565b5f612b828383612b5b565b9150826002028217905092915050565b612b9b8261223a565b67ffffffffffffffff811115612bb457612bb36125f1565b5b612bbe8254612998565b612bc9828285612b09565b5f60209050601f831160018114612bfa575f8415612be8578287015190505b612bf28582612b77565b865550612c59565b601f198416612c08866129f5565b5f5b82811015612c2f57848901518255600182019150602085019450602081019050612c0a565b86831015612c4c5784890151612c48601f891682612b5b565b8355505b6001600288020188555050505b505050505050565b7f766f74657220646f6573206e6f742065786973740000000000000000000000005f82015250565b5f612c95601483612244565b9150612ca082612c61565b602082019050919050565b5f6020820190508181035f830152612cc281612c89565b9050919050565b7f616c726561647920766f746564000000000000000000000000000000000000005f82015250565b5f612cfd600d83612244565b9150612d0882612cc9565b602082019050919050565b5f6020820190508181035f830152612d2a81612cf1565b9050919050565b7f766f74696e67206e6f74207374617274656400000000000000000000000000005f82015250565b5f612d65601283612244565b9150612d7082612d31565b602082019050919050565b5f6020820190508181035f830152612d9281612d59565b9050919050565b7f4e487b71000000000000000000000000000000000000000000000000000000005f52601160045260245ffd5b5f612dd082612222565b91507fffffffffffffffffffffffffffffffffffffffffffffffffffffffffffffffff8203612e0257612e01612d99565b5b600182019050919050565b7f4e487b71000000000000000000000000000000000000000000000000000000005f52603260045260245ffd5b5f81549050612e4881612998565b9050919050565b818103612e5d575050612f32565b612e6682612e3a565b67ffffffffffffffff811115612e7f57612e7e6125f1565b5b612e898254612998565b612e94828285612b09565b5f601f831160018114612ec1575f8415612eaf578287015490505b612eb98582612b77565b865550612f2b565b601f198416612ecf876129f5565b9650612eda866129f5565b5f5b82811015612f0157848901548255600182019150600185019450602081019050612edc565b86831015612f1e5784890154612f1a601f891682612b5b565b8355505b6001600288020188555050505b5050505050505b565b5f81549050612f4281612998565b9050919050565b5f819050815f5260205f209050919050565b818103612f6957505061303e565b612f7282612f34565b67ffffffffffffffff811115612f8b57612f8a6125f1565b5b612f958254612998565b612fa0828285612b09565b5f601f831160018114612fcd575f8415612fbb578287015490505b612fc58582612b77565b865550613037565b601f198416612fdb87612f49565b9650612fe6866129f5565b5f5b8281101561300d57848901548255600182019150600185019450602081019050612fe8565b8683101561302a5784890154613026601f891682612b5b565b8355505b6001600288020188555050505b5050505050505b565b5f61304a82612222565b91505f820361305c5761305b612d99565b5b600182039050919050565b7f766f74696e67206d757374206265206f6e676f696e6720746f2064656c6567615f8201527f746520766f746500000000000000000000000000000000000000000000000000602082015250565b5f6130c1602783612244565b91506130cc82613067565b604082019050919050565b5f6020820190508181035f8301526130ee816130b5565b9050919050565b7f6f6e6c792074686f73652063616e2064656c656761746520766f74652077686f5f8201527f2068617665206e6f7420766f7465642079657400000000000000000000000000602082015250565b5f61314f603383612244565b915061315a826130f5565b604082019050919050565b5f6020820190508181035f83015261317c81613143565b9050919050565b7f61646d696e2063616e6e6f742064656c656761746520766f74650000000000005f82015250565b5f6131b7601a83612244565b91506131c282613183565b602082019050919050565b5f6020820190508181035f8301526131e4816131ab565b9050919050565b7f43616e6e6f742064656c656761746520766f746520746f2073656c66000000005f82015250565b5f61321f601c83612244565b915061322a826131eb565b602082019050919050565b5f6020820190508181035f83015261324c81613213565b9050919050565b7f43616e6469646174652063616e6e6f742061636365707420616e64207472616e5f8201527f7366657220766f74657300000000000000000000000000000000000000000000602082015250565b5f6132ad602a83612244565b91506132b882613253565b604082019050919050565b5f6020820190508181035f8301526132da816132a1565b9050919050565b7f6f6e6c792061646d696e2063616e206465636c6172652077696e6e65720000005f82015250565b5f613315601d83612244565b9150613320826132e1565b602082019050919050565b5f6020820190508181035f83015261334281613309565b9050919050565b7f57494e4e45522057494c4c204f4e4c59204245204445434c41524544204f4e435f8201527f452054484520454c4354494f4e20454e44530000000000000000000000000000602082015250565b5f6133a3603283612244565b91506133ae82613349565b604082019050919050565b5f6020820190508181035f8301526133d081613397565b9050919050565b7f6f6e6c792061646d696e2063616e20726567697374657220766f7465720000005f82015250565b5f61340b601d83612244565b9150613416826133d7565b602082019050919050565b5f6020820190508181035f830152613438816133ff565b9050919050565b7f61646d696e2063616e6e6f7420726567697374657220666f7220766f746500005f82015250565b5f613473601e83612244565b915061347e8261343f565b602082019050919050565b5f6020820190508181035f8301526134a081613467565b9050919050565b7f766f74657220616c7265616479207265676973746572656400000000000000005f82015250565b5f6134db601883612244565b91506134e6826134a7565b602082019050919050565b5f6020820190508181035f830152613508816134cf565b9050919050565b7f6f6e6c792061646d696e2063616e2072656769737465722063616e64696461745f8201527f6500000000000000000000000000000000000000000000000000000000000000602082015250565b5f613569602183612244565b91506135748261350f565b604082019050919050565b5f6020820190508181035f8301526135968161355d565b9050919050565b7f63616e64696461746520616c72656164792065786973740000000000000000005f82015250565b5f6135d1601783612244565b91506135dc8261359d565b602082019050919050565b5f6020820190508181035f8301526135fe816135c5565b9050919050565b7f61646d696e2063616e277420626520726567697374657265642061732063616e5f8201527f6469646174650000000000000000000000000000000000000000000000000000602082015250565b5f61365f602683612244565b915061366a82613605565b604082019050919050565b5f6020820190508181035f83015261368c81613653565b905091905056fea2646970667358221220956a91386dd32f34033ace36619f5551601480572526beae75aa0e9c494814d264736f6c63430008150033",
					"opcodes": "PUSH1 0x80 PUSH1 0x40 MSTORE CALLVALUE DUP1 ISZERO PUSH3 0x10 JUMPI PUSH0 DUP1 REVERT JUMPDEST POP CALLER PUSH0 DUP1 PUSH2 0x100 EXP DUP2 SLOAD DUP2 PUSH20 0xFFFFFFFFFFFFFFFFFFFFFFFFFFFFFFFFFFFFFFFF MUL NOT AND SWAP1 DUP4 PUSH20 0xFFFFFFFFFFFFFFFFFFFFFFFFFFFFFFFFFFFFFFFF AND MUL OR SWAP1 SSTORE POP PUSH0 DUP1 PUSH1 0x14 PUSH2 0x100 EXP DUP2 SLOAD DUP2 PUSH1 0xFF MUL NOT AND SWAP1 DUP4 ISZERO ISZERO MUL OR SWAP1 SSTORE POP PUSH0 PUSH1 0x1 DUP2 SWAP1 SSTORE POP PUSH1 0x40 MLOAD DUP1 PUSH1 0x40 ADD PUSH1 0x40 MSTORE DUP1 PUSH1 0xB DUP2 MSTORE PUSH1 0x20 ADD PUSH32 0x4E6F742053746172746564000000000000000000000000000000000000000000 DUP2 MSTORE POP PUSH1 0x3 SWAP1 DUP2 PUSH3 0xB6 SWAP2 SWAP1 PUSH3 0x362 JUMP JUMPDEST POP PUSH0 PUSH1 0x2 DUP2 SWAP1 SSTORE POP PUSH0 PUSH1 0x4 DUP2 SWAP1 SSTORE POP PUSH0 PUSH1 0x6 DUP2 SWAP1 SSTORE POP PUSH0 PUSH1 0x7 PUSH0 PUSH2 0x100 EXP DUP2 SLOAD DUP2 PUSH1 0xFF MUL NOT AND SWAP1 DUP4 PUSH1 0x2 DUP2 GT ISZERO PUSH3 0xF3 JUMPI PUSH3 0xF2 PUSH3 0x446 JUMP JUMPDEST JUMPDEST MUL OR SWAP1 SSTORE POP PUSH3 0x473 JUMP JUMPDEST PUSH0 DUP2 MLOAD SWAP1 POP SWAP2 SWAP1 POP JUMP JUMPDEST PUSH32 0x4E487B7100000000000000000000000000000000000000000000000000000000 PUSH0 MSTORE PUSH1 0x41 PUSH1 0x4 MSTORE PUSH1 0x24 PUSH0 REVERT JUMPDEST PUSH32 0x4E487B7100000000000000000000000000000000000000000000000000000000 PUSH0 MSTORE PUSH1 0x22 PUSH1 0x4 MSTORE PUSH1 0x24 PUSH0 REVERT JUMPDEST PUSH0 PUSH1 0x2 DUP3 DIV SWAP1 POP PUSH1 0x1 DUP3 AND DUP1 PUSH3 0x17A JUMPI PUSH1 0x7F DUP3 AND SWAP2 POP JUMPDEST PUSH1 0x20 DUP3 LT DUP2 SUB PUSH3 0x190 JUMPI PUSH3 0x18F PUSH3 0x135 JUMP JUMPDEST JUMPDEST POP SWAP2 SWAP1 POP JUMP JUMPDEST PUSH0 DUP2 SWAP1 POP DUP2 PUSH0 MSTORE PUSH1 0x20 PUSH0 KECCAK256 SWAP1 POP SWAP2 SWAP1 POP JUMP JUMPDEST PUSH0 PUSH1 0x20 PUSH1 0x1F DUP4 ADD DIV SWAP1 POP SWAP2 SWAP1 POP JUMP JUMPDEST PUSH0 DUP3 DUP3 SHL SWAP1 POP SWAP3 SWAP2 POP POP JUMP JUMPDEST PUSH0 PUSH1 0x8 DUP4 MUL PUSH3 0x1F4 PUSH32 0xFFFFFFFFFFFFFFFFFFFFFFFFFFFFFFFFFFFFFFFFFFFFFFFFFFFFFFFFFFFFFFFF DUP3 PUSH3 0x1B7 JUMP JUMPDEST PUSH3 0x200 DUP7 DUP4 PUSH3 0x1B7 JUMP JUMPDEST SWAP6 POP DUP1 NOT DUP5 AND SWAP4 POP DUP1 DUP7 AND DUP5 OR SWAP3 POP POP POP SWAP4 SWAP3 POP POP POP JUMP JUMPDEST PUSH0 DUP2 SWAP1 POP SWAP2 SWAP1 POP JUMP JUMPDEST PUSH0 DUP2 SWAP1 POP SWAP2 SWAP1 POP JUMP JUMPDEST PUSH0 PUSH3 0x24A PUSH3 0x244 PUSH3 0x23E DUP5 PUSH3 0x218 JUMP JUMPDEST PUSH3 0x221 JUMP JUMPDEST PUSH3 0x218 JUMP JUMPDEST SWAP1 POP SWAP2 SWAP1 POP JUMP JUMPDEST PUSH0 DUP2 SWAP1 POP SWAP2 SWAP1 POP JUMP JUMPDEST PUSH3 0x265 DUP4 PUSH3 0x22A JUMP JUMPDEST PUSH3 0x27D PUSH3 0x274 DUP3 PUSH3 0x251 JUMP JUMPDEST DUP5 DUP5 SLOAD PUSH3 0x1C3 JUMP JUMPDEST DUP3 SSTORE POP POP POP POP JUMP JUMPDEST PUSH0 SWAP1 JUMP JUMPDEST PUSH3 0x293 PUSH3 0x285 JUMP JUMPDEST PUSH3 0x2A0 DUP2 DUP5 DUP5 PUSH3 0x25A JUMP JUMPDEST POP POP POP JUMP JUMPDEST JUMPDEST DUP2 DUP2 LT ISZERO PUSH3 0x2C7 JUMPI PUSH3 0x2BB PUSH0 DUP3 PUSH3 0x289 JUMP JUMPDEST PUSH1 0x1 DUP2 ADD SWAP1 POP PUSH3 0x2A6 JUMP JUMPDEST POP POP JUMP JUMPDEST PUSH1 0x1F DUP3 GT ISZERO PUSH3 0x316 JUMPI PUSH3 0x2E0 DUP2 PUSH3 0x196 JUMP JUMPDEST PUSH3 0x2EB DUP5 PUSH3 0x1A8 JUMP JUMPDEST DUP2 ADD PUSH1 0x20 DUP6 LT ISZERO PUSH3 0x2FB JUMPI DUP2 SWAP1 POP JUMPDEST PUSH3 0x313 PUSH3 0x30A DUP6 PUSH3 0x1A8 JUMP JUMPDEST DUP4 ADD DUP3 PUSH3 0x2A5 JUMP JUMPDEST POP POP JUMPDEST POP POP POP JUMP JUMPDEST PUSH0 DUP3 DUP3 SHR SWAP1 POP SWAP3 SWAP2 POP POP JUMP JUMPDEST PUSH0 PUSH3 0x338 PUSH0 NOT DUP5 PUSH1 0x8 MUL PUSH3 0x31B JUMP JUMPDEST NOT DUP1 DUP4 AND SWAP2 POP POP SWAP3 SWAP2 POP POP JUMP JUMPDEST PUSH0 PUSH3 0x352 DUP4 DUP4 PUSH3 0x327 JUMP JUMPDEST SWAP2 POP DUP3 PUSH1 0x2 MUL DUP3 OR SWAP1 POP SWAP3 SWAP2 POP POP JUMP JUMPDEST PUSH3 0x36D DUP3 PUSH3 0xFE JUMP JUMPDEST PUSH8 0xFFFFFFFFFFFFFFFF DUP2 GT ISZERO PUSH3 0x389 JUMPI PUSH3 0x388 PUSH3 0x108 JUMP JUMPDEST JUMPDEST PUSH3 0x395 DUP3 SLOAD PUSH3 0x162 JUMP JUMPDEST PUSH3 0x3A2 DUP3 DUP3 DUP6 PUSH3 0x2CB JUMP JUMPDEST PUSH0 PUSH1 0x20 SWAP1 POP PUSH1 0x1F DUP4 GT PUSH1 0x1 DUP2 EQ PUSH3 0x3D8 JUMPI PUSH0 DUP5 ISZERO PUSH3 0x3C3 JUMPI DUP3 DUP8 ADD MLOAD SWAP1 POP JUMPDEST PUSH3 0x3CF DUP6 DUP3 PUSH3 0x345 JUMP JUMPDEST DUP7 SSTORE POP PUSH3 0x43E JUMP JUMPDEST PUSH1 0x1F NOT DUP5 AND PUSH3 0x3E8 DUP7 PUSH3 0x196 JUMP JUMPDEST PUSH0 JUMPDEST DUP3 DUP2 LT ISZERO PUSH3 0x411 JUMPI DUP5 DUP10 ADD MLOAD DUP3 SSTORE PUSH1 0x1 DUP3 ADD SWAP2 POP PUSH1 0x20 DUP6 ADD SWAP5 POP PUSH1 0x20 DUP2 ADD SWAP1 POP PUSH3 0x3EA JUMP JUMPDEST DUP7 DUP4 LT ISZERO PUSH3 0x431 JUMPI DUP5 DUP10 ADD MLOAD PUSH3 0x42D PUSH1 0x1F DUP10 AND DUP3 PUSH3 0x327 JUMP JUMPDEST DUP4 SSTORE POP JUMPDEST PUSH1 0x1 PUSH1 0x2 DUP9 MUL ADD DUP9 SSTORE POP POP POP JUMPDEST POP POP POP POP POP POP JUMP JUMPDEST PUSH32 0x4E487B7100000000000000000000000000000000000000000000000000000000 PUSH0 MSTORE PUSH1 0x21 PUSH1 0x4 MSTORE PUSH1 0x24 PUSH0 REVERT JUMPDEST PUSH2 0x36C9 DUP1 PUSH3 0x481 PUSH0 CODECOPY PUSH0 RETURN INVALID PUSH1 0x80 PUSH1 0x40 MSTORE CALLVALUE DUP1 ISZERO PUSH2 0xF JUMPI PUSH0 DUP1 REVERT JUMPDEST POP PUSH1 0x4 CALLDATASIZE LT PUSH2 0xB1 JUMPI PUSH0 CALLDATALOAD PUSH1 0xE0 SHR DUP1 PUSH4 0xB31E1D4D GT PUSH2 0x6F JUMPI DUP1 PUSH4 0xB31E1D4D EQ PUSH2 0x181 JUMPI DUP1 PUSH4 0xC3403DDF EQ PUSH2 0x19D JUMPI DUP1 PUSH4 0xD1E05ABB EQ PUSH2 0x1A7 JUMPI DUP1 PUSH4 0xEBBB4F84 EQ PUSH2 0x1C5 JUMPI DUP1 PUSH4 0xF9E7284F EQ PUSH2 0x1E1 JUMPI DUP1 PUSH4 0xFCAB6679 EQ PUSH2 0x1FF JUMPI PUSH2 0xB1 JUMP JUMPDEST DUP1 PUSH3 0x98A51A EQ PUSH2 0xB5 JUMPI DUP1 PUSH4 0xA03FFF1 EQ PUSH2 0xEB JUMPI DUP1 PUSH4 0x19F41A40 EQ PUSH2 0x11F JUMPI DUP1 PUSH4 0x1EC6B60A EQ PUSH2 0x13D JUMPI DUP1 PUSH4 0x233B672D EQ PUSH2 0x147 JUMPI DUP1 PUSH4 0x81C40715 EQ PUSH2 0x163 JUMPI JUMPDEST PUSH0 DUP1 REVERT JUMPDEST PUSH2 0xCF PUSH1 0x4 DUP1 CALLDATASIZE SUB DUP2 ADD SWAP1 PUSH2 0xCA SWAP2 SWAP1 PUSH2 0x21CE JUMP JUMPDEST PUSH2 0x21B JUMP JUMPDEST PUSH1 0x40 MLOAD PUSH2 0xE2 SWAP8 SWAP7 SWAP6 SWAP5 SWAP4 SWAP3 SWAP2 SWAP1 PUSH2 0x22C4 JUMP JUMPDEST PUSH1 0x40 MLOAD DUP1 SWAP2 SUB SWAP1 RETURN JUMPDEST PUSH2 0x105 PUSH1 0x4 DUP1 CALLDATASIZE SUB DUP2 ADD SWAP1 PUSH2 0x100 SWAP2 SWAP1 PUSH2 0x21CE JUMP JUMPDEST PUSH2 0x322 JUMP JUMPDEST PUSH1 0x40 MLOAD PUSH2 0x116 SWAP6 SWAP5 SWAP4 SWAP3 SWAP2 SWAP1 PUSH2 0x2338 JUMP JUMPDEST PUSH1 0x40 MLOAD DUP1 SWAP2 SUB SWAP1 RETURN JUMPDEST PUSH2 0x127 PUSH2 0x48B JUMP JUMPDEST PUSH1 0x40 MLOAD PUSH2 0x134 SWAP2 SWAP1 PUSH2 0x2397 JUMP JUMPDEST PUSH1 0x40 MLOAD DUP1 SWAP2 SUB SWAP1 RETURN JUMPDEST PUSH2 0x145 PUSH2 0x51B JUMP JUMPDEST STOP JUMPDEST PUSH2 0x161 PUSH1 0x4 DUP1 CALLDATASIZE SUB DUP2 ADD SWAP1 PUSH2 0x15C SWAP2 SWAP1 PUSH2 0x23E1 JUMP JUMPDEST PUSH2 0x626 JUMP JUMPDEST STOP JUMPDEST PUSH2 0x16B PUSH2 0xB75 JUMP JUMPDEST PUSH1 0x40 MLOAD PUSH2 0x178 SWAP2 SWAP1 PUSH2 0x25C9 JUMP JUMPDEST PUSH1 0x40 MLOAD DUP1 SWAP2 SUB SWAP1 RETURN JUMPDEST PUSH2 0x19B PUSH1 0x4 DUP1 CALLDATASIZE SUB DUP2 ADD SWAP1 PUSH2 0x196 SWAP2 SWAP1 PUSH2 0x21CE JUMP JUMPDEST PUSH2 0xD69 JUMP JUMPDEST STOP JUMPDEST PUSH2 0x1A5 PUSH2 0x14AC JUMP JUMPDEST STOP JUMPDEST PUSH2 0x1AF PUSH2 0x15A6 JUMP JUMPDEST PUSH1 0x40 MLOAD PUSH2 0x1BC SWAP2 SWAP1 PUSH2 0x2397 JUMP JUMPDEST PUSH1 0x40 MLOAD DUP1 SWAP2 SUB SWAP1 RETURN JUMPDEST PUSH2 0x1DF PUSH1 0x4 DUP1 CALLDATASIZE SUB DUP2 ADD SWAP1 PUSH2 0x1DA SWAP2 SWAP1 PUSH2 0x2715 JUMP JUMPDEST PUSH2 0x1737 JUMP JUMPDEST STOP JUMPDEST PUSH2 0x1E9 PUSH2 0x1B5F JUMP JUMPDEST PUSH1 0x40 MLOAD PUSH2 0x1F6 SWAP2 SWAP1 PUSH2 0x28C3 JUMP JUMPDEST PUSH1 0x40 MLOAD DUP1 SWAP2 SUB SWAP1 RETURN JUMPDEST PUSH2 0x219 PUSH1 0x4 DUP1 CALLDATASIZE SUB DUP2 ADD SWAP1 PUSH2 0x214 SWAP2 SWAP1 PUSH2 0x28E3 JUMP JUMPDEST PUSH2 0x1D01 JUMP JUMPDEST STOP JUMPDEST PUSH1 0xA PUSH1 0x20 MSTORE DUP1 PUSH0 MSTORE PUSH1 0x40 PUSH0 KECCAK256 PUSH0 SWAP2 POP SWAP1 POP DUP1 PUSH0 ADD PUSH0 SWAP1 SLOAD SWAP1 PUSH2 0x100 EXP SWAP1 DIV PUSH20 0xFFFFFFFFFFFFFFFFFFFFFFFFFFFFFFFFFFFFFFFF AND SWAP1 DUP1 PUSH0 ADD PUSH1 0x14 SWAP1 SLOAD SWAP1 PUSH2 0x100 EXP SWAP1 DIV PUSH1 0xFF AND SWAP1 DUP1 PUSH0 ADD PUSH1 0x15 SWAP1 SLOAD SWAP1 PUSH2 0x100 EXP SWAP1 DIV PUSH1 0xFF AND SWAP1 DUP1 PUSH0 ADD PUSH1 0x16 SWAP1 SLOAD SWAP1 PUSH2 0x100 EXP SWAP1 DIV PUSH1 0xFF AND SWAP1 DUP1 PUSH1 0x1 ADD SLOAD SWAP1 DUP1 PUSH1 0x2 ADD SLOAD SWAP1 DUP1 PUSH1 0x3 ADD DUP1 SLOAD PUSH2 0x2A1 SWAP1 PUSH2 0x2998 JUMP JUMPDEST DUP1 PUSH1 0x1F ADD PUSH1 0x20 DUP1 SWAP2 DIV MUL PUSH1 0x20 ADD PUSH1 0x40 MLOAD SWAP1 DUP2 ADD PUSH1 0x40 MSTORE DUP1 SWAP3 SWAP2 SWAP1 DUP2 DUP2 MSTORE PUSH1 0x20 ADD DUP3 DUP1 SLOAD PUSH2 0x2CD SWAP1 PUSH2 0x2998 JUMP JUMPDEST DUP1 ISZERO PUSH2 0x318 JUMPI DUP1 PUSH1 0x1F LT PUSH2 0x2EF JUMPI PUSH2 0x100 DUP1 DUP4 SLOAD DIV MUL DUP4 MSTORE SWAP2 PUSH1 0x20 ADD SWAP2 PUSH2 0x318 JUMP JUMPDEST DUP3 ADD SWAP2 SWAP1 PUSH0 MSTORE PUSH1 0x20 PUSH0 KECCAK256 SWAP1 JUMPDEST DUP2 SLOAD DUP2 MSTORE SWAP1 PUSH1 0x1 ADD SWAP1 PUSH1 0x20 ADD DUP1 DUP4 GT PUSH2 0x2FB JUMPI DUP3 SWAP1 SUB PUSH1 0x1F AND DUP3 ADD SWAP2 JUMPDEST POP POP POP POP POP SWAP1 POP DUP8 JUMP JUMPDEST PUSH1 0x8 PUSH1 0x20 MSTORE DUP1 PUSH0 MSTORE PUSH1 0x40 PUSH0 KECCAK256 PUSH0 SWAP2 POP SWAP1 POP DUP1 PUSH0 ADD PUSH0 SWAP1 SLOAD SWAP1 PUSH2 0x100 EXP SWAP1 DIV PUSH20 0xFFFFFFFFFFFFFFFFFFFFFFFFFFFFFFFFFFFFFFFF AND SWAP1 DUP1 PUSH1 0x1 ADD DUP1 SLOAD PUSH2 0x366 SWAP1 PUSH2 0x2998 JUMP JUMPDEST DUP1 PUSH1 0x1F ADD PUSH1 0x20 DUP1 SWAP2 DIV MUL PUSH1 0x20 ADD PUSH1 0x40 MLOAD SWAP1 DUP2 ADD PUSH1 0x40 MSTORE DUP1 SWAP3 SWAP2 SWAP1 DUP2 DUP2 MSTORE PUSH1 0x20 ADD DUP3 DUP1 SLOAD PUSH2 0x392 SWAP1 PUSH2 0x2998 JUMP JUMPDEST DUP1 ISZERO PUSH2 0x3DD JUMPI DUP1 PUSH1 0x1F LT PUSH2 0x3B4 JUMPI PUSH2 0x100 DUP1 DUP4 SLOAD DIV MUL DUP4 MSTORE SWAP2 PUSH1 0x20 ADD SWAP2 PUSH2 0x3DD JUMP JUMPDEST DUP3 ADD SWAP2 SWAP1 PUSH0 MSTORE PUSH1 0x20 PUSH0 KECCAK256 SWAP1 JUMPDEST DUP2 SLOAD DUP2 MSTORE SWAP1 PUSH1 0x1 ADD SWAP1 PUSH1 0x20 ADD DUP1 DUP4 GT PUSH2 0x3C0 JUMPI DUP3 SWAP1 SUB PUSH1 0x1F AND DUP3 ADD SWAP2 JUMPDEST POP POP POP POP POP SWAP1 DUP1 PUSH1 0x2 ADD DUP1 SLOAD PUSH2 0x3F2 SWAP1 PUSH2 0x2998 JUMP JUMPDEST DUP1 PUSH1 0x1F ADD PUSH1 0x20 DUP1 SWAP2 DIV MUL PUSH1 0x20 ADD PUSH1 0x40 MLOAD SWAP1 DUP2 ADD PUSH1 0x40 MSTORE DUP1 SWAP3 SWAP2 SWAP1 DUP2 DUP2 MSTORE PUSH1 0x20 ADD DUP3 DUP1 SLOAD PUSH2 0x41E SWAP1 PUSH2 0x2998 JUMP JUMPDEST DUP1 ISZERO PUSH2 0x469 JUMPI DUP1 PUSH1 0x1F LT PUSH2 0x440 JUMPI PUSH2 0x100 DUP1 DUP4 SLOAD DIV MUL DUP4 MSTORE SWAP2 PUSH1 0x20 ADD SWAP2 PUSH2 0x469 JUMP JUMPDEST DUP3 ADD SWAP2 SWAP1 PUSH0 MSTORE PUSH1 0x20 PUSH0 KECCAK256 SWAP1 JUMPDEST DUP2 SLOAD DUP2 MSTORE SWAP1 PUSH1 0x1 ADD SWAP1 PUSH1 0x20 ADD DUP1 DUP4 GT PUSH2 0x44C JUMPI DUP3 SWAP1 SUB PUSH1 0x1F AND DUP3 ADD SWAP2 JUMPDEST POP POP POP POP POP SWAP1 DUP1 PUSH1 0x3 ADD PUSH0 SWAP1 SLOAD SWAP1 PUSH2 0x100 EXP SWAP1 DIV PUSH1 0xFF AND SWAP1 DUP1 PUSH1 0x4 ADD SLOAD SWAP1 POP DUP6 JUMP JUMPDEST PUSH1 0x60 PUSH1 0x3 DUP1 SLOAD PUSH2 0x49A SWAP1 PUSH2 0x2998 JUMP JUMPDEST DUP1 PUSH1 0x1F ADD PUSH1 0x20 DUP1 SWAP2 DIV MUL PUSH1 0x20 ADD PUSH1 0x40 MLOAD SWAP1 DUP2 ADD PUSH1 0x40 MSTORE DUP1 SWAP3 SWAP2 SWAP1 DUP2 DUP2 MSTORE PUSH1 0x20 ADD DUP3 DUP1 SLOAD PUSH2 0x4C6 SWAP1 PUSH2 0x2998 JUMP JUMPDEST DUP1 ISZERO PUSH2 0x511 JUMPI DUP1 PUSH1 0x1F LT PUSH2 0x4E8 JUMPI PUSH2 0x100 DUP1 DUP4 SLOAD DIV MUL DUP4 MSTORE SWAP2 PUSH1 0x20 ADD SWAP2 PUSH2 0x511 JUMP JUMPDEST DUP3 ADD SWAP2 SWAP1 PUSH0 MSTORE PUSH1 0x20 PUSH0 KECCAK256 SWAP1 JUMPDEST DUP2 SLOAD DUP2 MSTORE SWAP1 PUSH1 0x1 ADD SWAP1 PUSH1 0x20 ADD DUP1 DUP4 GT PUSH2 0x4F4 JUMPI DUP3 SWAP1 SUB PUSH1 0x1F AND DUP3 ADD SWAP2 JUMPDEST POP POP POP POP POP SWAP1 POP SWAP1 JUMP JUMPDEST CALLER PUSH20 0xFFFFFFFFFFFFFFFFFFFFFFFFFFFFFFFFFFFFFFFF AND PUSH0 DUP1 SLOAD SWAP1 PUSH2 0x100 EXP SWAP1 DIV PUSH20 0xFFFFFFFFFFFFFFFFFFFFFFFFFFFFFFFFFFFFFFFF AND PUSH20 0xFFFFFFFFFFFFFFFFFFFFFFFFFFFFFFFFFFFFFFFF AND EQ DUP1 ISZERO PUSH2 0x576 JUMPI POP PUSH0 PUSH1 0x2 SLOAD EQ JUMPDEST DUP1 ISZERO PUSH2 0x593 JUMPI POP PUSH0 ISZERO ISZERO PUSH0 PUSH1 0x14 SWAP1 SLOAD SWAP1 PUSH2 0x100 EXP SWAP1 DIV PUSH1 0xFF AND ISZERO ISZERO EQ JUMPDEST PUSH2 0x59B JUMPI PUSH0 DUP1 REVERT JUMPDEST PUSH1 0x1 PUSH0 PUSH1 0x14 PUSH2 0x100 EXP DUP2 SLOAD DUP2 PUSH1 0xFF MUL NOT AND SWAP1 DUP4 ISZERO ISZERO MUL OR SWAP1 SSTORE POP PUSH1 0x1 PUSH1 0x7 PUSH0 PUSH2 0x100 EXP DUP2 SLOAD DUP2 PUSH1 0xFF MUL NOT AND SWAP1 DUP4 PUSH1 0x2 DUP2 GT ISZERO PUSH2 0x5DA JUMPI PUSH2 0x5D9 PUSH2 0x29C8 JUMP JUMPDEST JUMPDEST MUL OR SWAP1 SSTORE POP PUSH1 0x40 MLOAD DUP1 PUSH1 0x40 ADD PUSH1 0x40 MSTORE DUP1 PUSH1 0x8 DUP2 MSTORE PUSH1 0x20 ADD PUSH32 0x4F6E20476F696E67000000000000000000000000000000000000000000000000 DUP2 MSTORE POP PUSH1 0x3 SWAP1 DUP2 PUSH2 0x623 SWAP2 SWAP1 PUSH2 0x2B92 JUMP JUMPDEST POP JUMP JUMPDEST PUSH1 0x1 ISZERO ISZERO PUSH2 0x633 CALLER PUSH2 0x20B2 JUMP JUMPDEST ISZERO ISZERO EQ PUSH2 0x675 JUMPI PUSH1 0x40 MLOAD PUSH32 0x8C379A000000000000000000000000000000000000000000000000000000000 DUP2 MSTORE PUSH1 0x4 ADD PUSH2 0x66C SWAP1 PUSH2 0x2CAB JUMP JUMPDEST PUSH1 0x40 MLOAD DUP1 SWAP2 SUB SWAP1 REVERT JUMPDEST PUSH0 ISZERO ISZERO PUSH1 0xA PUSH0 CALLER PUSH20 0xFFFFFFFFFFFFFFFFFFFFFFFFFFFFFFFFFFFFFFFF AND PUSH20 0xFFFFFFFFFFFFFFFFFFFFFFFFFFFFFFFFFFFFFFFF AND DUP2 MSTORE PUSH1 0x20 ADD SWAP1 DUP2 MSTORE PUSH1 0x20 ADD PUSH0 KECCAK256 PUSH0 ADD PUSH1 0x15 SWAP1 SLOAD SWAP1 PUSH2 0x100 EXP SWAP1 DIV PUSH1 0xFF AND ISZERO ISZERO EQ DUP1 PUSH2 0x713 JUMPI POP PUSH0 PUSH1 0xA PUSH0 CALLER PUSH20 0xFFFFFFFFFFFFFFFFFFFFFFFFFFFFFFFFFFFFFFFF AND PUSH20 0xFFFFFFFFFFFFFFFFFFFFFFFFFFFFFFFFFFFFFFFF AND DUP2 MSTORE PUSH1 0x20 ADD SWAP1 DUP2 MSTORE PUSH1 0x20 ADD PUSH0 KECCAK256 PUSH1 0x1 ADD SLOAD EQ ISZERO JUMPDEST PUSH2 0x752 JUMPI PUSH1 0x40 MLOAD PUSH32 0x8C379A000000000000000000000000000000000000000000000000000000000 DUP2 MSTORE PUSH1 0x4 ADD PUSH2 0x749 SWAP1 PUSH2 0x2D13 JUMP JUMPDEST PUSH1 0x40 MLOAD DUP1 SWAP2 SUB SWAP1 REVERT JUMPDEST PUSH1 0x1 ISZERO ISZERO PUSH0 PUSH1 0x14 SWAP1 SLOAD SWAP1 PUSH2 0x100 EXP SWAP1 DIV PUSH1 0xFF AND ISZERO ISZERO EQ PUSH2 0x7A7 JUMPI PUSH1 0x40 MLOAD PUSH32 0x8C379A000000000000000000000000000000000000000000000000000000000 DUP2 MSTORE PUSH1 0x4 ADD PUSH2 0x79E SWAP1 PUSH2 0x2D7B JUMP JUMPDEST PUSH1 0x40 MLOAD DUP1 SWAP2 SUB SWAP1 REVERT JUMPDEST PUSH0 PUSH1 0xA PUSH0 CALLER PUSH20 0xFFFFFFFFFFFFFFFFFFFFFFFFFFFFFFFFFFFFFFFF AND PUSH20 0xFFFFFFFFFFFFFFFFFFFFFFFFFFFFFFFFFFFFFFFF AND DUP2 MSTORE PUSH1 0x20 ADD SWAP1 DUP2 MSTORE PUSH1 0x20 ADD PUSH0 KECCAK256 PUSH1 0x2 ADD SLOAD SWAP1 POP PUSH1 0x8 PUSH0 DUP4 PUSH20 0xFFFFFFFFFFFFFFFFFFFFFFFFFFFFFFFFFFFFFFFF AND PUSH20 0xFFFFFFFFFFFFFFFFFFFFFFFFFFFFFFFFFFFFFFFF AND DUP2 MSTORE PUSH1 0x20 ADD SWAP1 DUP2 MSTORE PUSH1 0x20 ADD PUSH0 KECCAK256 PUSH1 0x4 ADD PUSH0 DUP2 SLOAD DUP1 SWAP3 SWAP2 SWAP1 PUSH2 0x83B SWAP1 PUSH2 0x2DC6 JUMP JUMPDEST SWAP2 SWAP1 POP SSTORE POP PUSH1 0x8 PUSH0 DUP4 PUSH20 0xFFFFFFFFFFFFFFFFFFFFFFFFFFFFFFFFFFFFFFFF AND PUSH20 0xFFFFFFFFFFFFFFFFFFFFFFFFFFFFFFFFFFFFFFFF AND DUP2 MSTORE PUSH1 0x20 ADD SWAP1 DUP2 MSTORE PUSH1 0x20 ADD PUSH0 KECCAK256 PUSH1 0x9 DUP5 DUP2 SLOAD DUP2 LT PUSH2 0x891 JUMPI PUSH2 0x890 PUSH2 0x2E0D JUMP JUMPDEST JUMPDEST SWAP1 PUSH0 MSTORE PUSH1 0x20 PUSH0 KECCAK256 SWAP1 PUSH1 0x5 MUL ADD PUSH0 DUP3 ADD PUSH0 SWAP1 SLOAD SWAP1 PUSH2 0x100 EXP SWAP1 DIV PUSH20 0xFFFFFFFFFFFFFFFFFFFFFFFFFFFFFFFFFFFFFFFF AND DUP2 PUSH0 ADD PUSH0 PUSH2 0x100 EXP DUP2 SLOAD DUP2 PUSH20 0xFFFFFFFFFFFFFFFFFFFFFFFFFFFFFFFFFFFFFFFF MUL NOT AND SWAP1 DUP4 PUSH20 0xFFFFFFFFFFFFFFFFFFFFFFFFFFFFFFFFFFFFFFFF AND MUL OR SWAP1 SSTORE POP PUSH1 0x1 DUP3 ADD DUP2 PUSH1 0x1 ADD SWAP1 DUP2 PUSH2 0x914 SWAP2 SWAP1 PUSH2 0x2E4F JUMP JUMPDEST POP PUSH1 0x2 DUP3 ADD DUP2 PUSH1 0x2 ADD SWAP1 DUP2 PUSH2 0x929 SWAP2 SWAP1 PUSH2 0x2E4F JUMP JUMPDEST POP PUSH1 0x3 DUP3 ADD PUSH0 SWAP1 SLOAD SWAP1 PUSH2 0x100 EXP SWAP1 DIV PUSH1 0xFF AND DUP2 PUSH1 0x3 ADD PUSH0 PUSH2 0x100 EXP DUP2 SLOAD DUP2 PUSH1 0xFF MUL NOT AND SWAP1 DUP4 ISZERO ISZERO MUL OR SWAP1 SSTORE POP PUSH1 0x4 DUP3 ADD SLOAD DUP2 PUSH1 0x4 ADD SSTORE SWAP1 POP POP PUSH1 0x4 PUSH0 DUP2 SLOAD DUP1 SWAP3 SWAP2 SWAP1 PUSH2 0x974 SWAP1 PUSH2 0x2DC6 JUMP JUMPDEST SWAP2 SWAP1 POP SSTORE POP PUSH1 0x9 DUP4 DUP2 SLOAD DUP2 LT PUSH2 0x98D JUMPI PUSH2 0x98C PUSH2 0x2E0D JUMP JUMPDEST JUMPDEST SWAP1 PUSH0 MSTORE PUSH1 0x20 PUSH0 KECCAK256 SWAP1 PUSH1 0x5 MUL ADD PUSH1 0x4 ADD SLOAD PUSH1 0x6 SLOAD LT ISZERO PUSH2 0xA03 JUMPI PUSH1 0x9 DUP4 DUP2 SLOAD DUP2 LT PUSH2 0x9BA JUMPI PUSH2 0x9B9 PUSH2 0x2E0D JUMP JUMPDEST JUMPDEST SWAP1 PUSH0 MSTORE PUSH1 0x20 PUSH0 KECCAK256 SWAP1 PUSH1 0x5 MUL ADD PUSH1 0x4 ADD SLOAD PUSH1 0x6 DUP2 SWAP1 SSTORE POP PUSH1 0x9 DUP4 DUP2 SLOAD DUP2 LT PUSH2 0x9E4 JUMPI PUSH2 0x9E3 PUSH2 0x2E0D JUMP JUMPDEST JUMPDEST SWAP1 PUSH0 MSTORE PUSH1 0x20 PUSH0 KECCAK256 SWAP1 PUSH1 0x5 MUL ADD PUSH1 0x1 ADD PUSH1 0x5 SWAP1 DUP2 PUSH2 0xA01 SWAP2 SWAP1 PUSH2 0x2F5B JUMP JUMPDEST POP JUMPDEST PUSH0 PUSH1 0xA PUSH0 CALLER PUSH20 0xFFFFFFFFFFFFFFFFFFFFFFFFFFFFFFFFFFFFFFFF AND PUSH20 0xFFFFFFFFFFFFFFFFFFFFFFFFFFFFFFFFFFFFFFFF AND DUP2 MSTORE PUSH1 0x20 ADD SWAP1 DUP2 MSTORE PUSH1 0x20 ADD PUSH0 KECCAK256 PUSH1 0x1 ADD SLOAD EQ PUSH2 0xADC JUMPI PUSH1 0xA PUSH0 CALLER PUSH20 0xFFFFFFFFFFFFFFFFFFFFFFFFFFFFFFFFFFFFFFFF AND PUSH20 0xFFFFFFFFFFFFFFFFFFFFFFFFFFFFFFFFFFFFFFFF AND DUP2 MSTORE PUSH1 0x20 ADD SWAP1 DUP2 MSTORE PUSH1 0x20 ADD PUSH0 KECCAK256 PUSH1 0x1 ADD PUSH0 DUP2 SLOAD DUP1 SWAP3 SWAP2 SWAP1 PUSH2 0xA9A SWAP1 PUSH2 0x3040 JUMP JUMPDEST SWAP2 SWAP1 POP SSTORE POP PUSH1 0xB DUP2 DUP2 SLOAD DUP2 LT PUSH2 0xAB3 JUMPI PUSH2 0xAB2 PUSH2 0x2E0D JUMP JUMPDEST JUMPDEST SWAP1 PUSH0 MSTORE PUSH1 0x20 PUSH0 KECCAK256 SWAP1 PUSH1 0x4 MUL ADD PUSH1 0x1 ADD PUSH0 DUP2 SLOAD DUP1 SWAP3 SWAP2 SWAP1 PUSH2 0xAD2 SWAP1 PUSH2 0x3040 JUMP JUMPDEST SWAP2 SWAP1 POP SSTORE POP PUSH2 0xB70 JUMP JUMPDEST PUSH1 0x1 PUSH1 0xA PUSH0 CALLER PUSH20 0xFFFFFFFFFFFFFFFFFFFFFFFFFFFFFFFFFFFFFFFF AND PUSH20 0xFFFFFFFFFFFFFFFFFFFFFFFFFFFFFFFFFFFFFFFF AND DUP2 MSTORE PUSH1 0x20 ADD SWAP1 DUP2 MSTORE PUSH1 0x20 ADD PUSH0 KECCAK256 PUSH0 ADD PUSH1 0x15 PUSH2 0x100 EXP DUP2 SLOAD DUP2 PUSH1 0xFF MUL NOT AND SWAP1 DUP4 ISZERO ISZERO MUL OR SWAP1 SSTORE POP PUSH1 0x1 PUSH1 0xB DUP3 DUP2 SLOAD DUP2 LT PUSH2 0xB4A JUMPI PUSH2 0xB49 PUSH2 0x2E0D JUMP JUMPDEST JUMPDEST SWAP1 PUSH0 MSTORE PUSH1 0x20 PUSH0 KECCAK256 SWAP1 PUSH1 0x4 MUL ADD PUSH0 ADD PUSH1 0x15 PUSH2 0x100 EXP DUP2 SLOAD DUP2 PUSH1 0xFF MUL NOT AND SWAP1 DUP4 ISZERO ISZERO MUL OR SWAP1 SSTORE POP JUMPDEST POP POP POP JUMP JUMPDEST PUSH1 0x60 PUSH1 0x9 DUP1 SLOAD DUP1 PUSH1 0x20 MUL PUSH1 0x20 ADD PUSH1 0x40 MLOAD SWAP1 DUP2 ADD PUSH1 0x40 MSTORE DUP1 SWAP3 SWAP2 SWAP1 DUP2 DUP2 MSTORE PUSH1 0x20 ADD PUSH0 SWAP1 JUMPDEST DUP3 DUP3 LT ISZERO PUSH2 0xD60 JUMPI DUP4 DUP3 SWAP1 PUSH0 MSTORE PUSH1 0x20 PUSH0 KECCAK256 SWAP1 PUSH1 0x5 MUL ADD PUSH1 0x40 MLOAD DUP1 PUSH1 0xA0 ADD PUSH1 0x40 MSTORE SWAP1 DUP2 PUSH0 DUP3 ADD PUSH0 SWAP1 SLOAD SWAP1 PUSH2 0x100 EXP SWAP1 DIV PUSH20 0xFFFFFFFFFFFFFFFFFFFFFFFFFFFFFFFFFFFFFFFF AND PUSH20 0xFFFFFFFFFFFFFFFFFFFFFFFFFFFFFFFFFFFFFFFF AND PUSH20 0xFFFFFFFFFFFFFFFFFFFFFFFFFFFFFFFFFFFFFFFF AND DUP2 MSTORE PUSH1 0x20 ADD PUSH1 0x1 DUP3 ADD DUP1 SLOAD PUSH2 0xC1D SWAP1 PUSH2 0x2998 JUMP JUMPDEST DUP1 PUSH1 0x1F ADD PUSH1 0x20 DUP1 SWAP2 DIV MUL PUSH1 0x20 ADD PUSH1 0x40 MLOAD SWAP1 DUP2 ADD PUSH1 0x40 MSTORE DUP1 SWAP3 SWAP2 SWAP1 DUP2 DUP2 MSTORE PUSH1 0x20 ADD DUP3 DUP1 SLOAD PUSH2 0xC49 SWAP1 PUSH2 0x2998 JUMP JUMPDEST DUP1 ISZERO PUSH2 0xC94 JUMPI DUP1 PUSH1 0x1F LT PUSH2 0xC6B JUMPI PUSH2 0x100 DUP1 DUP4 SLOAD DIV MUL DUP4 MSTORE SWAP2 PUSH1 0x20 ADD SWAP2 PUSH2 0xC94 JUMP JUMPDEST DUP3 ADD SWAP2 SWAP1 PUSH0 MSTORE PUSH1 0x20 PUSH0 KECCAK256 SWAP1 JUMPDEST DUP2 SLOAD DUP2 MSTORE SWAP1 PUSH1 0x1 ADD SWAP1 PUSH1 0x20 ADD DUP1 DUP4 GT PUSH2 0xC77 JUMPI DUP3 SWAP1 SUB PUSH1 0x1F AND DUP3 ADD SWAP2 JUMPDEST POP POP POP POP POP DUP2 MSTORE PUSH1 0x20 ADD PUSH1 0x2 DUP3 ADD DUP1 SLOAD PUSH2 0xCAD SWAP1 PUSH2 0x2998 JUMP JUMPDEST DUP1 PUSH1 0x1F ADD PUSH1 0x20 DUP1 SWAP2 DIV MUL PUSH1 0x20 ADD PUSH1 0x40 MLOAD SWAP1 DUP2 ADD PUSH1 0x40 MSTORE DUP1 SWAP3 SWAP2 SWAP1 DUP2 DUP2 MSTORE PUSH1 0x20 ADD DUP3 DUP1 SLOAD PUSH2 0xCD9 SWAP1 PUSH2 0x2998 JUMP JUMPDEST DUP1 ISZERO PUSH2 0xD24 JUMPI DUP1 PUSH1 0x1F LT PUSH2 0xCFB JUMPI PUSH2 0x100 DUP1 DUP4 SLOAD DIV MUL DUP4 MSTORE SWAP2 PUSH1 0x20 ADD SWAP2 PUSH2 0xD24 JUMP JUMPDEST DUP3 ADD SWAP2 SWAP1 PUSH0 MSTORE PUSH1 0x20 PUSH0 KECCAK256 SWAP1 JUMPDEST DUP2 SLOAD DUP2 MSTORE SWAP1 PUSH1 0x1 ADD SWAP1 PUSH1 0x20 ADD DUP1 DUP4 GT PUSH2 0xD07 JUMPI DUP3 SWAP1 SUB PUSH1 0x1F AND DUP3 ADD SWAP2 JUMPDEST POP POP POP POP POP DUP2 MSTORE PUSH1 0x20 ADD PUSH1 0x3 DUP3 ADD PUSH0 SWAP1 SLOAD SWAP1 PUSH2 0x100 EXP SWAP1 DIV PUSH1 0xFF AND ISZERO ISZERO ISZERO ISZERO DUP2 MSTORE PUSH1 0x20 ADD PUSH1 0x4 DUP3 ADD SLOAD DUP2 MSTORE POP POP DUP2 MSTORE PUSH1 0x20 ADD SWAP1 PUSH1 0x1 ADD SWAP1 PUSH2 0xB98 JUMP JUMPDEST POP POP POP POP SWAP1 POP SWAP1 JUMP JUMPDEST PUSH0 PUSH1 0xA PUSH0 CALLER PUSH20 0xFFFFFFFFFFFFFFFFFFFFFFFFFFFFFFFFFFFFFFFF AND PUSH20 0xFFFFFFFFFFFFFFFFFFFFFFFFFFFFFFFFFFFFFFFF AND DUP2 MSTORE PUSH1 0x20 ADD SWAP1 DUP2 MSTORE PUSH1 0x20 ADD PUSH0 KECCAK256 PUSH1 0x2 ADD SLOAD SWAP1 POP PUSH0 PUSH1 0xA PUSH0 DUP5 PUSH20 0xFFFFFFFFFFFFFFFFFFFFFFFFFFFFFFFFFFFFFFFF AND PUSH20 0xFFFFFFFFFFFFFFFFFFFFFFFFFFFFFFFFFFFFFFFF AND DUP2 MSTORE PUSH1 0x20 ADD SWAP1 DUP2 MSTORE PUSH1 0x20 ADD PUSH0 KECCAK256 PUSH1 0x2 ADD SLOAD SWAP1 POP PUSH1 0x1 PUSH1 0x2 DUP2 GT ISZERO PUSH2 0xE05 JUMPI PUSH2 0xE04 PUSH2 0x29C8 JUMP JUMPDEST JUMPDEST PUSH1 0x7 PUSH0 SWAP1 SLOAD SWAP1 PUSH2 0x100 EXP SWAP1 DIV PUSH1 0xFF AND PUSH1 0x2 DUP2 GT ISZERO PUSH2 0xE26 JUMPI PUSH2 0xE25 PUSH2 0x29C8 JUMP JUMPDEST JUMPDEST EQ PUSH2 0xE66 JUMPI PUSH1 0x40 MLOAD PUSH32 0x8C379A000000000000000000000000000000000000000000000000000000000 DUP2 MSTORE PUSH1 0x4 ADD PUSH2 0xE5D SWAP1 PUSH2 0x30D7 JUMP JUMPDEST PUSH1 0x40 MLOAD DUP1 SWAP2 SUB SWAP1 REVERT JUMPDEST CALLER PUSH20 0xFFFFFFFFFFFFFFFFFFFFFFFFFFFFFFFFFFFFFFFF AND PUSH1 0xB DUP4 DUP2 SLOAD DUP2 LT PUSH2 0xE91 JUMPI PUSH2 0xE90 PUSH2 0x2E0D JUMP JUMPDEST JUMPDEST SWAP1 PUSH0 MSTORE PUSH1 0x20 PUSH0 KECCAK256 SWAP1 PUSH1 0x4 MUL ADD PUSH0 ADD PUSH0 SWAP1 SLOAD SWAP1 PUSH2 0x100 EXP SWAP1 DIV PUSH20 0xFFFFFFFFFFFFFFFFFFFFFFFFFFFFFFFFFFFFFFFF AND PUSH20 0xFFFFFFFFFFFFFFFFFFFFFFFFFFFFFFFFFFFFFFFF AND EQ PUSH2 0xEDE JUMPI PUSH0 DUP1 REVERT JUMPDEST PUSH0 ISZERO ISZERO PUSH1 0xA PUSH0 CALLER PUSH20 0xFFFFFFFFFFFFFFFFFFFFFFFFFFFFFFFFFFFFFFFF AND PUSH20 0xFFFFFFFFFFFFFFFFFFFFFFFFFFFFFFFFFFFFFFFF AND DUP2 MSTORE PUSH1 0x20 ADD SWAP1 DUP2 MSTORE PUSH1 0x20 ADD PUSH0 KECCAK256 PUSH0 ADD PUSH1 0x15 SWAP1 SLOAD SWAP1 PUSH2 0x100 EXP SWAP1 DIV PUSH1 0xFF AND ISZERO ISZERO EQ DUP1 PUSH2 0xF7C JUMPI POP PUSH0 PUSH1 0xA PUSH0 CALLER PUSH20 0xFFFFFFFFFFFFFFFFFFFFFFFFFFFFFFFFFFFFFFFF AND PUSH20 0xFFFFFFFFFFFFFFFFFFFFFFFFFFFFFFFFFFFFFFFF AND DUP2 MSTORE PUSH1 0x20 ADD SWAP1 DUP2 MSTORE PUSH1 0x20 ADD PUSH0 KECCAK256 PUSH1 0x1 ADD SLOAD EQ ISZERO JUMPDEST PUSH2 0xFBB JUMPI PUSH1 0x40 MLOAD PUSH32 0x8C379A000000000000000000000000000000000000000000000000000000000 DUP2 MSTORE PUSH1 0x4 ADD PUSH2 0xFB2 SWAP1 PUSH2 0x3165 JUMP JUMPDEST PUSH1 0x40 MLOAD DUP1 SWAP2 SUB SWAP1 REVERT JUMPDEST CALLER PUSH20 0xFFFFFFFFFFFFFFFFFFFFFFFFFFFFFFFFFFFFFFFF AND PUSH0 DUP1 SLOAD SWAP1 PUSH2 0x100 EXP SWAP1 DIV PUSH20 0xFFFFFFFFFFFFFFFFFFFFFFFFFFFFFFFFFFFFFFFF AND PUSH20 0xFFFFFFFFFFFFFFFFFFFFFFFFFFFFFFFFFFFFFFFF AND SUB PUSH2 0x1048 JUMPI PUSH1 0x40 MLOAD PUSH32 0x8C379A000000000000000000000000000000000000000000000000000000000 DUP2 MSTORE PUSH1 0x4 ADD PUSH2 0x103F SWAP1 PUSH2 0x31CD JUMP JUMPDEST PUSH1 0x40 MLOAD DUP1 SWAP2 SUB SWAP1 REVERT JUMPDEST DUP3 PUSH20 0xFFFFFFFFFFFFFFFFFFFFFFFFFFFFFFFFFFFFFFFF AND CALLER PUSH20 0xFFFFFFFFFFFFFFFFFFFFFFFFFFFFFFFFFFFFFFFF AND SUB PUSH2 0x10B6 JUMPI PUSH1 0x40 MLOAD PUSH32 0x8C379A000000000000000000000000000000000000000000000000000000000 DUP2 MSTORE PUSH1 0x4 ADD PUSH2 0x10AD SWAP1 PUSH2 0x3235 JUMP JUMPDEST PUSH1 0x40 MLOAD DUP1 SWAP2 SUB SWAP1 REVERT JUMPDEST PUSH1 0x1 ISZERO ISZERO PUSH1 0x8 PUSH0 CALLER PUSH20 0xFFFFFFFFFFFFFFFFFFFFFFFFFFFFFFFFFFFFFFFF AND PUSH20 0xFFFFFFFFFFFFFFFFFFFFFFFFFFFFFFFFFFFFFFFF AND DUP2 MSTORE PUSH1 0x20 ADD SWAP1 DUP2 MSTORE PUSH1 0x20 ADD PUSH0 KECCAK256 PUSH1 0x3 ADD PUSH0 SWAP1 SLOAD SWAP1 PUSH2 0x100 EXP SWAP1 DIV PUSH1 0xFF AND ISZERO ISZERO EQ ISZERO DUP1 ISZERO PUSH2 0x1168 JUMPI POP PUSH1 0x1 ISZERO ISZERO PUSH1 0x8 PUSH0 DUP6 PUSH20 0xFFFFFFFFFFFFFFFFFFFFFFFFFFFFFFFFFFFFFFFF AND PUSH20 0xFFFFFFFFFFFFFFFFFFFFFFFFFFFFFFFFFFFFFFFF AND DUP2 MSTORE PUSH1 0x20 ADD SWAP1 DUP2 MSTORE PUSH1 0x20 ADD PUSH0 KECCAK256 PUSH1 0x3 ADD PUSH0 SWAP1 SLOAD SWAP1 PUSH2 0x100 EXP SWAP1 DIV PUSH1 0xFF AND ISZERO ISZERO EQ ISZERO JUMPDEST PUSH2 0x11A7 JUMPI PUSH1 0x40 MLOAD PUSH32 0x8C379A000000000000000000000000000000000000000000000000000000000 DUP2 MSTORE PUSH1 0x4 ADD PUSH2 0x119E SWAP1 PUSH2 0x32C3 JUMP JUMPDEST PUSH1 0x40 MLOAD DUP1 SWAP2 SUB SWAP1 REVERT JUMPDEST PUSH1 0xA PUSH0 DUP5 PUSH20 0xFFFFFFFFFFFFFFFFFFFFFFFFFFFFFFFFFFFFFFFF AND PUSH20 0xFFFFFFFFFFFFFFFFFFFFFFFFFFFFFFFFFFFFFFFF AND DUP2 MSTORE PUSH1 0x20 ADD SWAP1 DUP2 MSTORE PUSH1 0x20 ADD PUSH0 KECCAK256 PUSH1 0x1 ADD PUSH0 DUP2 SLOAD DUP1 SWAP3 SWAP2 SWAP1 PUSH2 0x11F7 SWAP1 PUSH2 0x2DC6 JUMP JUMPDEST SWAP2 SWAP1 POP SSTORE POP PUSH0 PUSH1 0xA PUSH0 CALLER PUSH20 0xFFFFFFFFFFFFFFFFFFFFFFFFFFFFFFFFFFFFFFFF AND PUSH20 0xFFFFFFFFFFFFFFFFFFFFFFFFFFFFFFFFFFFFFFFF AND DUP2 MSTORE PUSH1 0x20 ADD SWAP1 DUP2 MSTORE PUSH1 0x20 ADD PUSH0 KECCAK256 PUSH1 0x1 ADD SLOAD SUB PUSH2 0x13A6 JUMPI PUSH1 0x1 PUSH1 0xA PUSH0 CALLER PUSH20 0xFFFFFFFFFFFFFFFFFFFFFFFFFFFFFFFFFFFFFFFF AND PUSH20 0xFFFFFFFFFFFFFFFFFFFFFFFFFFFFFFFFFFFFFFFF AND DUP2 MSTORE PUSH1 0x20 ADD SWAP1 DUP2 MSTORE PUSH1 0x20 ADD PUSH0 KECCAK256 PUSH0 ADD PUSH1 0x15 PUSH2 0x100 EXP DUP2 SLOAD DUP2 PUSH1 0xFF MUL NOT AND SWAP1 DUP4 ISZERO ISZERO MUL OR SWAP1 SSTORE POP PUSH1 0x1 PUSH1 0xA PUSH0 CALLER PUSH20 0xFFFFFFFFFFFFFFFFFFFFFFFFFFFFFFFFFFFFFFFF AND PUSH20 0xFFFFFFFFFFFFFFFFFFFFFFFFFFFFFFFFFFFFFFFF AND DUP2 MSTORE PUSH1 0x20 ADD SWAP1 DUP2 MSTORE PUSH1 0x20 ADD PUSH0 KECCAK256 PUSH0 ADD PUSH1 0x16 PUSH2 0x100 EXP DUP2 SLOAD DUP2 PUSH1 0xFF MUL NOT AND SWAP1 DUP4 ISZERO ISZERO MUL OR SWAP1 SSTORE POP PUSH1 0x1 PUSH1 0xB DUP4 DUP2 SLOAD DUP2 LT PUSH2 0x1309 JUMPI PUSH2 0x1308 PUSH2 0x2E0D JUMP JUMPDEST JUMPDEST SWAP1 PUSH0 MSTORE PUSH1 0x20 PUSH0 KECCAK256 SWAP1 PUSH1 0x4 MUL ADD PUSH0 ADD PUSH1 0x15 PUSH2 0x100 EXP DUP2 SLOAD DUP2 PUSH1 0xFF MUL NOT AND SWAP1 DUP4 ISZERO ISZERO MUL OR SWAP1 SSTORE POP PUSH1 0x1 PUSH1 0xB DUP4 DUP2 SLOAD DUP2 LT PUSH2 0x1344 JUMPI PUSH2 0x1343 PUSH2 0x2E0D JUMP JUMPDEST JUMPDEST SWAP1 PUSH0 MSTORE PUSH1 0x20 PUSH0 KECCAK256 SWAP1 PUSH1 0x4 MUL ADD PUSH0 ADD PUSH1 0x16 PUSH2 0x100 EXP DUP2 SLOAD DUP2 PUSH1 0xFF MUL NOT AND SWAP1 DUP4 ISZERO ISZERO MUL OR SWAP1 SSTORE POP PUSH1 0xB DUP2 DUP2 SLOAD DUP2 LT PUSH2 0x137D JUMPI PUSH2 0x137C PUSH2 0x2E0D JUMP JUMPDEST JUMPDEST SWAP1 PUSH0 MSTORE PUSH1 0x20 PUSH0 KECCAK256 SWAP1 PUSH1 0x4 MUL ADD PUSH1 0x1 ADD PUSH0 DUP2 SLOAD DUP1 SWAP3 SWAP2 SWAP1 PUSH2 0x139C SWAP1 PUSH2 0x2DC6 JUMP JUMPDEST SWAP2 SWAP1 POP SSTORE POP PUSH2 0x14A7 JUMP JUMPDEST PUSH1 0xA PUSH0 CALLER PUSH20 0xFFFFFFFFFFFFFFFFFFFFFFFFFFFFFFFFFFFFFFFF AND PUSH20 0xFFFFFFFFFFFFFFFFFFFFFFFFFFFFFFFFFFFFFFFF AND DUP2 MSTORE PUSH1 0x20 ADD SWAP1 DUP2 MSTORE PUSH1 0x20 ADD PUSH0 KECCAK256 PUSH1 0x1 ADD PUSH0 DUP2 SLOAD DUP1 SWAP3 SWAP2 SWAP1 PUSH2 0x13F6 SWAP1 PUSH2 0x3040 JUMP JUMPDEST SWAP2 SWAP1 POP SSTORE POP PUSH1 0xB DUP3 DUP2 SLOAD DUP2 LT PUSH2 0x140F JUMPI PUSH2 0x140E PUSH2 0x2E0D JUMP JUMPDEST JUMPDEST SWAP1 PUSH0 MSTORE PUSH1 0x20 PUSH0 KECCAK256 SWAP1 PUSH1 0x4 MUL ADD PUSH1 0x1 ADD PUSH0 DUP2 SLOAD DUP1 SWAP3 SWAP2 SWAP1 PUSH2 0x142E SWAP1 PUSH2 0x3040 JUMP JUMPDEST SWAP2 SWAP1 POP SSTORE POP PUSH1 0xB DUP2 DUP2 SLOAD DUP2 LT PUSH2 0x1447 JUMPI PUSH2 0x1446 PUSH2 0x2E0D JUMP JUMPDEST JUMPDEST SWAP1 PUSH0 MSTORE PUSH1 0x20 PUSH0 KECCAK256 SWAP1 PUSH1 0x4 MUL ADD PUSH1 0x1 ADD PUSH0 DUP2 SLOAD DUP1 SWAP3 SWAP2 SWAP1 PUSH2 0x1466 SWAP1 PUSH2 0x2DC6 JUMP JUMPDEST SWAP2 SWAP1 POP SSTORE POP PUSH1 0x1 PUSH1 0xB DUP4 DUP2 SLOAD DUP2 LT PUSH2 0x1481 JUMPI PUSH2 0x1480 PUSH2 0x2E0D JUMP JUMPDEST JUMPDEST SWAP1 PUSH0 MSTORE PUSH1 0x20 PUSH0 KECCAK256 SWAP1 PUSH1 0x4 MUL ADD PUSH0 ADD PUSH1 0x16 PUSH2 0x100 EXP DUP2 SLOAD DUP2 PUSH1 0xFF MUL NOT AND SWAP1 DUP4 ISZERO ISZERO MUL OR SWAP1 SSTORE POP JUMPDEST POP POP POP JUMP JUMPDEST CALLER PUSH20 0xFFFFFFFFFFFFFFFFFFFFFFFFFFFFFFFFFFFFFFFF AND PUSH0 DUP1 SLOAD SWAP1 PUSH2 0x100 EXP SWAP1 DIV PUSH20 0xFFFFFFFFFFFFFFFFFFFFFFFFFFFFFFFFFFFFFFFF AND PUSH20 0xFFFFFFFFFFFFFFFFFFFFFFFFFFFFFFFFFFFFFFFF AND EQ DUP1 ISZERO PUSH2 0x1518 JUMPI POP PUSH1 0x1 ISZERO ISZERO PUSH0 PUSH1 0x14 SWAP1 SLOAD SWAP1 PUSH2 0x100 EXP SWAP1 DIV PUSH1 0xFF AND ISZERO ISZERO EQ JUMPDEST DUP1 ISZERO PUSH2 0x1525 JUMPI POP PUSH0 PUSH1 0x2 SLOAD EQ JUMPDEST PUSH2 0x152D JUMPI PUSH0 DUP1 REVERT JUMPDEST PUSH1 0x1 PUSH1 0x2 DUP2 SWAP1 SSTORE POP PUSH1 0x2 PUSH1 0x7 PUSH0 PUSH2 0x100 EXP DUP2 SLOAD DUP2 PUSH1 0xFF MUL NOT AND SWAP1 DUP4 PUSH1 0x2 DUP2 GT ISZERO PUSH2 0x155A JUMPI PUSH2 0x1559 PUSH2 0x29C8 JUMP JUMPDEST JUMPDEST MUL OR SWAP1 SSTORE POP PUSH1 0x40 MLOAD DUP1 PUSH1 0x40 ADD PUSH1 0x40 MSTORE DUP1 PUSH1 0xC DUP2 MSTORE PUSH1 0x20 ADD PUSH32 0x566F74696E6720456E6465640000000000000000000000000000000000000000 DUP2 MSTORE POP PUSH1 0x3 SWAP1 DUP2 PUSH2 0x15A3 SWAP2 SWAP1 PUSH2 0x2B92 JUMP JUMPDEST POP JUMP JUMPDEST PUSH1 0x60 CALLER PUSH20 0xFFFFFFFFFFFFFFFFFFFFFFFFFFFFFFFFFFFFFFFF AND PUSH0 DUP1 SLOAD SWAP1 PUSH2 0x100 EXP SWAP1 DIV PUSH20 0xFFFFFFFFFFFFFFFFFFFFFFFFFFFFFFFFFFFFFFFF AND PUSH20 0xFFFFFFFFFFFFFFFFFFFFFFFFFFFFFFFFFFFFFFFF AND EQ PUSH2 0x1635 JUMPI PUSH1 0x40 MLOAD PUSH32 0x8C379A000000000000000000000000000000000000000000000000000000000 DUP2 MSTORE PUSH1 0x4 ADD PUSH2 0x162C SWAP1 PUSH2 0x332B JUMP JUMPDEST PUSH1 0x40 MLOAD DUP1 SWAP2 SUB SWAP1 REVERT JUMPDEST PUSH1 0x2 DUP1 DUP2 GT ISZERO PUSH2 0x1648 JUMPI PUSH2 0x1647 PUSH2 0x29C8 JUMP JUMPDEST JUMPDEST PUSH1 0x7 PUSH0 SWAP1 SLOAD SWAP1 PUSH2 0x100 EXP SWAP1 DIV PUSH1 0xFF AND PUSH1 0x2 DUP2 GT ISZERO PUSH2 0x1669 JUMPI PUSH2 0x1668 PUSH2 0x29C8 JUMP JUMPDEST JUMPDEST EQ PUSH2 0x16A9 JUMPI PUSH1 0x40 MLOAD PUSH32 0x8C379A000000000000000000000000000000000000000000000000000000000 DUP2 MSTORE PUSH1 0x4 ADD PUSH2 0x16A0 SWAP1 PUSH2 0x33B9 JUMP JUMPDEST PUSH1 0x40 MLOAD DUP1 SWAP2 SUB SWAP1 REVERT JUMPDEST PUSH1 0x5 DUP1 SLOAD PUSH2 0x16B6 SWAP1 PUSH2 0x2998 JUMP JUMPDEST DUP1 PUSH1 0x1F ADD PUSH1 0x20 DUP1 SWAP2 DIV MUL PUSH1 0x20 ADD PUSH1 0x40 MLOAD SWAP1 DUP2 ADD PUSH1 0x40 MSTORE DUP1 SWAP3 SWAP2 SWAP1 DUP2 DUP2 MSTORE PUSH1 0x20 ADD DUP3 DUP1 SLOAD PUSH2 0x16E2 SWAP1 PUSH2 0x2998 JUMP JUMPDEST DUP1 ISZERO PUSH2 0x172D JUMPI DUP1 PUSH1 0x1F LT PUSH2 0x1704 JUMPI PUSH2 0x100 DUP1 DUP4 SLOAD DIV MUL DUP4 MSTORE SWAP2 PUSH1 0x20 ADD SWAP2 PUSH2 0x172D JUMP JUMPDEST DUP3 ADD SWAP2 SWAP1 PUSH0 MSTORE PUSH1 0x20 PUSH0 KECCAK256 SWAP1 JUMPDEST DUP2 SLOAD DUP2 MSTORE SWAP1 PUSH1 0x1 ADD SWAP1 PUSH1 0x20 ADD DUP1 DUP4 GT PUSH2 0x1710 JUMPI DUP3 SWAP1 SUB PUSH1 0x1F AND DUP3 ADD SWAP2 JUMPDEST POP POP POP POP POP SWAP1 POP SWAP1 JUMP JUMPDEST PUSH0 ISZERO ISZERO PUSH0 PUSH1 0x14 SWAP1 SLOAD SWAP1 PUSH2 0x100 EXP SWAP1 DIV PUSH1 0xFF AND ISZERO ISZERO EQ PUSH2 0x1754 JUMPI PUSH0 DUP1 REVERT JUMPDEST CALLER PUSH20 0xFFFFFFFFFFFFFFFFFFFFFFFFFFFFFFFFFFFFFFFF AND PUSH0 DUP1 SLOAD SWAP1 PUSH2 0x100 EXP SWAP1 DIV PUSH20 0xFFFFFFFFFFFFFFFFFFFFFFFFFFFFFFFFFFFFFFFF AND PUSH20 0xFFFFFFFFFFFFFFFFFFFFFFFFFFFFFFFFFFFFFFFF AND EQ PUSH2 0x17E1 JUMPI PUSH1 0x40 MLOAD PUSH32 0x8C379A000000000000000000000000000000000000000000000000000000000 DUP2 MSTORE PUSH1 0x4 ADD PUSH2 0x17D8 SWAP1 PUSH2 0x3421 JUMP JUMPDEST PUSH1 0x40 MLOAD DUP1 SWAP2 SUB SWAP1 REVERT JUMPDEST PUSH0 DUP1 SLOAD SWAP1 PUSH2 0x100 EXP SWAP1 DIV PUSH20 0xFFFFFFFFFFFFFFFFFFFFFFFFFFFFFFFFFFFFFFFF AND PUSH20 0xFFFFFFFFFFFFFFFFFFFFFFFFFFFFFFFFFFFFFFFF AND DUP3 PUSH20 0xFFFFFFFFFFFFFFFFFFFFFFFFFFFFFFFFFFFFFFFF AND SUB PUSH2 0x186E JUMPI PUSH1 0x40 MLOAD PUSH32 0x8C379A000000000000000000000000000000000000000000000000000000000 DUP2 MSTORE PUSH1 0x4 ADD PUSH2 0x1865 SWAP1 PUSH2 0x3489 JUMP JUMPDEST PUSH1 0x40 MLOAD DUP1 SWAP2 SUB SWAP1 REVERT JUMPDEST PUSH0 ISZERO ISZERO PUSH1 0xA PUSH0 DUP5 PUSH20 0xFFFFFFFFFFFFFFFFFFFFFFFFFFFFFFFFFFFFFFFF AND PUSH20 0xFFFFFFFFFFFFFFFFFFFFFFFFFFFFFFFFFFFFFFFF AND DUP2 MSTORE PUSH1 0x20 ADD SWAP1 DUP2 MSTORE PUSH1 0x20 ADD PUSH0 KECCAK256 PUSH0 ADD PUSH1 0x14 SWAP1 SLOAD SWAP1 PUSH2 0x100 EXP SWAP1 DIV PUSH1 0xFF AND ISZERO ISZERO EQ PUSH2 0x1900 JUMPI PUSH1 0x40 MLOAD PUSH32 0x8C379A000000000000000000000000000000000000000000000000000000000 DUP2 MSTORE PUSH1 0x4 ADD PUSH2 0x18F7 SWAP1 PUSH2 0x34F1 JUMP JUMPDEST PUSH1 0x40 MLOAD DUP1 SWAP2 SUB SWAP1 REVERT JUMPDEST PUSH0 PUSH1 0x40 MLOAD DUP1 PUSH1 0xE0 ADD PUSH1 0x40 MSTORE DUP1 DUP5 PUSH20 0xFFFFFFFFFFFFFFFFFFFFFFFFFFFFFFFFFFFFFFFF AND DUP2 MSTORE PUSH1 0x20 ADD PUSH1 0x1 ISZERO ISZERO DUP2 MSTORE PUSH1 0x20 ADD PUSH0 ISZERO ISZERO DUP2 MSTORE PUSH1 0x20 ADD PUSH0 ISZERO ISZERO DUP2 MSTORE PUSH1 0x20 ADD PUSH0 DUP2 MSTORE PUSH1 0x20 ADD PUSH1 0xB DUP1 SLOAD SWAP1 POP DUP2 MSTORE PUSH1 0x20 ADD DUP4 DUP2 MSTORE POP SWAP1 POP DUP1 PUSH1 0xA PUSH0 DUP6 PUSH20 0xFFFFFFFFFFFFFFFFFFFFFFFFFFFFFFFFFFFFFFFF AND PUSH20 0xFFFFFFFFFFFFFFFFFFFFFFFFFFFFFFFFFFFFFFFF AND DUP2 MSTORE PUSH1 0x20 ADD SWAP1 DUP2 MSTORE PUSH1 0x20 ADD PUSH0 KECCAK256 PUSH0 DUP3 ADD MLOAD DUP2 PUSH0 ADD PUSH0 PUSH2 0x100 EXP DUP2 SLOAD DUP2 PUSH20 0xFFFFFFFFFFFFFFFFFFFFFFFFFFFFFFFFFFFFFFFF MUL NOT AND SWAP1 DUP4 PUSH20 0xFFFFFFFFFFFFFFFFFFFFFFFFFFFFFFFFFFFFFFFF AND MUL OR SWAP1 SSTORE POP PUSH1 0x20 DUP3 ADD MLOAD DUP2 PUSH0 ADD PUSH1 0x14 PUSH2 0x100 EXP DUP2 SLOAD DUP2 PUSH1 0xFF MUL NOT AND SWAP1 DUP4 ISZERO ISZERO MUL OR SWAP1 SSTORE POP PUSH1 0x40 DUP3 ADD MLOAD DUP2 PUSH0 ADD PUSH1 0x15 PUSH2 0x100 EXP DUP2 SLOAD DUP2 PUSH1 0xFF MUL NOT AND SWAP1 DUP4 ISZERO ISZERO MUL OR SWAP1 SSTORE POP PUSH1 0x60 DUP3 ADD MLOAD DUP2 PUSH0 ADD PUSH1 0x16 PUSH2 0x100 EXP DUP2 SLOAD DUP2 PUSH1 0xFF MUL NOT AND SWAP1 DUP4 ISZERO ISZERO MUL OR SWAP1 SSTORE POP PUSH1 0x80 DUP3 ADD MLOAD DUP2 PUSH1 0x1 ADD SSTORE PUSH1 0xA0 DUP3 ADD MLOAD DUP2 PUSH1 0x2 ADD SSTORE PUSH1 0xC0 DUP3 ADD MLOAD DUP2 PUSH1 0x3 ADD SWAP1 DUP2 PUSH2 0x1A60 SWAP2 SWAP1 PUSH2 0x2B92 JUMP JUMPDEST POP SWAP1 POP POP PUSH1 0xB DUP2 SWAP1 DUP1 PUSH1 0x1 DUP2 SLOAD ADD DUP1 DUP3 SSTORE DUP1 SWAP2 POP POP PUSH1 0x1 SWAP1 SUB SWAP1 PUSH0 MSTORE PUSH1 0x20 PUSH0 KECCAK256 SWAP1 PUSH1 0x4 MUL ADD PUSH0 SWAP1 SWAP2 SWAP1 SWAP2 SWAP1 SWAP2 POP PUSH0 DUP3 ADD MLOAD DUP2 PUSH0 ADD PUSH0 PUSH2 0x100 EXP DUP2 SLOAD DUP2 PUSH20 0xFFFFFFFFFFFFFFFFFFFFFFFFFFFFFFFFFFFFFFFF MUL NOT AND SWAP1 DUP4 PUSH20 0xFFFFFFFFFFFFFFFFFFFFFFFFFFFFFFFFFFFFFFFF AND MUL OR SWAP1 SSTORE POP PUSH1 0x20 DUP3 ADD MLOAD DUP2 PUSH0 ADD PUSH1 0x14 PUSH2 0x100 EXP DUP2 SLOAD DUP2 PUSH1 0xFF MUL NOT AND SWAP1 DUP4 ISZERO ISZERO MUL OR SWAP1 SSTORE POP PUSH1 0x40 DUP3 ADD MLOAD DUP2 PUSH0 ADD PUSH1 0x15 PUSH2 0x100 EXP DUP2 SLOAD DUP2 PUSH1 0xFF MUL NOT AND SWAP1 DUP4 ISZERO ISZERO MUL OR SWAP1 SSTORE POP PUSH1 0x60 DUP3 ADD MLOAD DUP2 PUSH0 ADD PUSH1 0x16 PUSH2 0x100 EXP DUP2 SLOAD DUP2 PUSH1 0xFF MUL NOT AND SWAP1 DUP4 ISZERO ISZERO MUL OR SWAP1 SSTORE POP PUSH1 0x80 DUP3 ADD MLOAD DUP2 PUSH1 0x1 ADD SSTORE PUSH1 0xA0 DUP3 ADD MLOAD DUP2 PUSH1 0x2 ADD SSTORE PUSH1 0xC0 DUP3 ADD MLOAD DUP2 PUSH1 0x3 ADD SWAP1 DUP2 PUSH2 0x1B57 SWAP2 SWAP1 PUSH2 0x2B92 JUMP JUMPDEST POP POP POP POP POP POP JUMP JUMPDEST PUSH1 0x60 PUSH1 0xB DUP1 SLOAD DUP1 PUSH1 0x20 MUL PUSH1 0x20 ADD PUSH1 0x40 MLOAD SWAP1 DUP2 ADD PUSH1 0x40 MSTORE DUP1 SWAP3 SWAP2 SWAP1 DUP2 DUP2 MSTORE PUSH1 0x20 ADD PUSH0 SWAP1 JUMPDEST DUP3 DUP3 LT ISZERO PUSH2 0x1CF8 JUMPI DUP4 DUP3 SWAP1 PUSH0 MSTORE PUSH1 0x20 PUSH0 KECCAK256 SWAP1 PUSH1 0x4 MUL ADD PUSH1 0x40 MLOAD DUP1 PUSH1 0xE0 ADD PUSH1 0x40 MSTORE SWAP1 DUP2 PUSH0 DUP3 ADD PUSH0 SWAP1 SLOAD SWAP1 PUSH2 0x100 EXP SWAP1 DIV PUSH20 0xFFFFFFFFFFFFFFFFFFFFFFFFFFFFFFFFFFFFFFFF AND PUSH20 0xFFFFFFFFFFFFFFFFFFFFFFFFFFFFFFFFFFFFFFFF AND PUSH20 0xFFFFFFFFFFFFFFFFFFFFFFFFFFFFFFFFFFFFFFFF AND DUP2 MSTORE PUSH1 0x20 ADD PUSH0 DUP3 ADD PUSH1 0x14 SWAP1 SLOAD SWAP1 PUSH2 0x100 EXP SWAP1 DIV PUSH1 0xFF AND ISZERO ISZERO ISZERO ISZERO DUP2 MSTORE PUSH1 0x20 ADD PUSH0 DUP3 ADD PUSH1 0x15 SWAP1 SLOAD SWAP1 PUSH2 0x100 EXP SWAP1 DIV PUSH1 0xFF AND ISZERO ISZERO ISZERO ISZERO DUP2 MSTORE PUSH1 0x20 ADD PUSH0 DUP3 ADD PUSH1 0x16 SWAP1 SLOAD SWAP1 PUSH2 0x100 EXP SWAP1 DIV PUSH1 0xFF AND ISZERO ISZERO ISZERO ISZERO DUP2 MSTORE PUSH1 0x20 ADD PUSH1 0x1 DUP3 ADD SLOAD DUP2 MSTORE PUSH1 0x20 ADD PUSH1 0x2 DUP3 ADD SLOAD DUP2 MSTORE PUSH1 0x20 ADD PUSH1 0x3 DUP3 ADD DUP1 SLOAD PUSH2 0x1C69 SWAP1 PUSH2 0x2998 JUMP JUMPDEST DUP1 PUSH1 0x1F ADD PUSH1 0x20 DUP1 SWAP2 DIV MUL PUSH1 0x20 ADD PUSH1 0x40 MLOAD SWAP1 DUP2 ADD PUSH1 0x40 MSTORE DUP1 SWAP3 SWAP2 SWAP1 DUP2 DUP2 MSTORE PUSH1 0x20 ADD DUP3 DUP1 SLOAD PUSH2 0x1C95 SWAP1 PUSH2 0x2998 JUMP JUMPDEST DUP1 ISZERO PUSH2 0x1CE0 JUMPI DUP1 PUSH1 0x1F LT PUSH2 0x1CB7 JUMPI PUSH2 0x100 DUP1 DUP4 SLOAD DIV MUL DUP4 MSTORE SWAP2 PUSH1 0x20 ADD SWAP2 PUSH2 0x1CE0 JUMP JUMPDEST DUP3 ADD SWAP2 SWAP1 PUSH0 MSTORE PUSH1 0x20 PUSH0 KECCAK256 SWAP1 JUMPDEST DUP2 SLOAD DUP2 MSTORE SWAP1 PUSH1 0x1 ADD SWAP1 PUSH1 0x20 ADD DUP1 DUP4 GT PUSH2 0x1CC3 JUMPI DUP3 SWAP1 SUB PUSH1 0x1F AND DUP3 ADD SWAP2 JUMPDEST POP POP POP POP POP DUP2 MSTORE POP POP DUP2 MSTORE PUSH1 0x20 ADD SWAP1 PUSH1 0x1 ADD SWAP1 PUSH2 0x1B82 JUMP JUMPDEST POP POP POP POP SWAP1 POP SWAP1 JUMP JUMPDEST PUSH0 ISZERO ISZERO PUSH0 PUSH1 0x14 SWAP1 SLOAD SWAP1 PUSH2 0x100 EXP SWAP1 DIV PUSH1 0xFF AND ISZERO ISZERO EQ PUSH2 0x1D1E JUMPI PUSH0 DUP1 REVERT JUMPDEST CALLER PUSH20 0xFFFFFFFFFFFFFFFFFFFFFFFFFFFFFFFFFFFFFFFF AND PUSH0 DUP1 SLOAD SWAP1 PUSH2 0x100 EXP SWAP1 DIV PUSH20 0xFFFFFFFFFFFFFFFFFFFFFFFFFFFFFFFFFFFFFFFF AND PUSH20 0xFFFFFFFFFFFFFFFFFFFFFFFFFFFFFFFFFFFFFFFF AND EQ PUSH2 0x1DAB JUMPI PUSH1 0x40 MLOAD PUSH32 0x8C379A000000000000000000000000000000000000000000000000000000000 DUP2 MSTORE PUSH1 0x4 ADD PUSH2 0x1DA2 SWAP1 PUSH2 0x357F JUMP JUMPDEST PUSH1 0x40 MLOAD DUP1 SWAP2 SUB SWAP1 REVERT JUMPDEST PUSH1 0x1 ISZERO ISZERO PUSH1 0x8 PUSH0 DUP4 PUSH20 0xFFFFFFFFFFFFFFFFFFFFFFFFFFFFFFFFFFFFFFFF AND PUSH20 0xFFFFFFFFFFFFFFFFFFFFFFFFFFFFFFFFFFFFFFFF AND DUP2 MSTORE PUSH1 0x20 ADD SWAP1 DUP2 MSTORE PUSH1 0x20 ADD PUSH0 KECCAK256 PUSH1 0x3 ADD PUSH0 SWAP1 SLOAD SWAP1 PUSH2 0x100 EXP SWAP1 DIV PUSH1 0xFF AND ISZERO ISZERO SUB PUSH2 0x1E3E JUMPI PUSH1 0x40 MLOAD PUSH32 0x8C379A000000000000000000000000000000000000000000000000000000000 DUP2 MSTORE PUSH1 0x4 ADD PUSH2 0x1E35 SWAP1 PUSH2 0x35E7 JUMP JUMPDEST PUSH1 0x40 MLOAD DUP1 SWAP2 SUB SWAP1 REVERT JUMPDEST PUSH0 DUP1 SLOAD SWAP1 PUSH2 0x100 EXP SWAP1 DIV PUSH20 0xFFFFFFFFFFFFFFFFFFFFFFFFFFFFFFFFFFFFFFFF AND PUSH20 0xFFFFFFFFFFFFFFFFFFFFFFFFFFFFFFFFFFFFFFFF AND DUP2 PUSH20 0xFFFFFFFFFFFFFFFFFFFFFFFFFFFFFFFFFFFFFFFF AND SUB PUSH2 0x1ECB JUMPI PUSH1 0x40 MLOAD PUSH32 0x8C379A000000000000000000000000000000000000000000000000000000000 DUP2 MSTORE PUSH1 0x4 ADD PUSH2 0x1EC2 SWAP1 PUSH2 0x3675 JUMP JUMPDEST PUSH1 0x40 MLOAD DUP1 SWAP2 SUB SWAP1 REVERT JUMPDEST PUSH0 PUSH1 0x40 MLOAD DUP1 PUSH1 0xA0 ADD PUSH1 0x40 MSTORE DUP1 DUP4 PUSH20 0xFFFFFFFFFFFFFFFFFFFFFFFFFFFFFFFFFFFFFFFF AND DUP2 MSTORE PUSH1 0x20 ADD DUP6 DUP2 MSTORE PUSH1 0x20 ADD DUP5 DUP2 MSTORE PUSH1 0x20 ADD PUSH1 0x1 ISZERO ISZERO DUP2 MSTORE PUSH1 0x20 ADD PUSH0 DUP2 MSTORE POP SWAP1 POP DUP1 PUSH1 0x8 PUSH0 DUP5 PUSH20 0xFFFFFFFFFFFFFFFFFFFFFFFFFFFFFFFFFFFFFFFF AND PUSH20 0xFFFFFFFFFFFFFFFFFFFFFFFFFFFFFFFFFFFFFFFF AND DUP2 MSTORE PUSH1 0x20 ADD SWAP1 DUP2 MSTORE PUSH1 0x20 ADD PUSH0 KECCAK256 PUSH0 DUP3 ADD MLOAD DUP2 PUSH0 ADD PUSH0 PUSH2 0x100 EXP DUP2 SLOAD DUP2 PUSH20 0xFFFFFFFFFFFFFFFFFFFFFFFFFFFFFFFFFFFFFFFF MUL NOT AND SWAP1 DUP4 PUSH20 0xFFFFFFFFFFFFFFFFFFFFFFFFFFFFFFFFFFFFFFFF AND MUL OR SWAP1 SSTORE POP PUSH1 0x20 DUP3 ADD MLOAD DUP2 PUSH1 0x1 ADD SWAP1 DUP2 PUSH2 0x1FA5 SWAP2 SWAP1 PUSH2 0x2B92 JUMP JUMPDEST POP PUSH1 0x40 DUP3 ADD MLOAD DUP2 PUSH1 0x2 ADD SWAP1 DUP2 PUSH2 0x1FBB SWAP2 SWAP1 PUSH2 0x2B92 JUMP JUMPDEST POP PUSH1 0x60 DUP3 ADD MLOAD DUP2 PUSH1 0x3 ADD PUSH0 PUSH2 0x100 EXP DUP2 SLOAD DUP2 PUSH1 0xFF MUL NOT AND SWAP1 DUP4 ISZERO ISZERO MUL OR SWAP1 SSTORE POP PUSH1 0x80 DUP3 ADD MLOAD DUP2 PUSH1 0x4 ADD SSTORE SWAP1 POP POP PUSH1 0x9 DUP2 SWAP1 DUP1 PUSH1 0x1 DUP2 SLOAD ADD DUP1 DUP3 SSTORE DUP1 SWAP2 POP POP PUSH1 0x1 SWAP1 SUB SWAP1 PUSH0 MSTORE PUSH1 0x20 PUSH0 KECCAK256 SWAP1 PUSH1 0x5 MUL ADD PUSH0 SWAP1 SWAP2 SWAP1 SWAP2 SWAP1 SWAP2 POP PUSH0 DUP3 ADD MLOAD DUP2 PUSH0 ADD PUSH0 PUSH2 0x100 EXP DUP2 SLOAD DUP2 PUSH20 0xFFFFFFFFFFFFFFFFFFFFFFFFFFFFFFFFFFFFFFFF MUL NOT AND SWAP1 DUP4 PUSH20 0xFFFFFFFFFFFFFFFFFFFFFFFFFFFFFFFFFFFFFFFF AND MUL OR SWAP1 SSTORE POP PUSH1 0x20 DUP3 ADD MLOAD DUP2 PUSH1 0x1 ADD SWAP1 DUP2 PUSH2 0x206A SWAP2 SWAP1 PUSH2 0x2B92 JUMP JUMPDEST POP PUSH1 0x40 DUP3 ADD MLOAD DUP2 PUSH1 0x2 ADD SWAP1 DUP2 PUSH2 0x2080 SWAP2 SWAP1 PUSH2 0x2B92 JUMP JUMPDEST POP PUSH1 0x60 DUP3 ADD MLOAD DUP2 PUSH1 0x3 ADD PUSH0 PUSH2 0x100 EXP DUP2 SLOAD DUP2 PUSH1 0xFF MUL NOT AND SWAP1 DUP4 ISZERO ISZERO MUL OR SWAP1 SSTORE POP PUSH1 0x80 DUP3 ADD MLOAD DUP2 PUSH1 0x4 ADD SSTORE POP POP POP POP POP POP JUMP JUMPDEST PUSH0 DUP1 PUSH0 SWAP1 POP PUSH0 JUMPDEST PUSH1 0xB DUP1 SLOAD SWAP1 POP DUP2 LT ISZERO PUSH2 0x2159 JUMPI DUP4 PUSH20 0xFFFFFFFFFFFFFFFFFFFFFFFFFFFFFFFFFFFFFFFF AND PUSH1 0xB DUP3 DUP2 SLOAD DUP2 LT PUSH2 0x20F1 JUMPI PUSH2 0x20F0 PUSH2 0x2E0D JUMP JUMPDEST JUMPDEST SWAP1 PUSH0 MSTORE PUSH1 0x20 PUSH0 KECCAK256 SWAP1 PUSH1 0x4 MUL ADD PUSH0 ADD PUSH0 SWAP1 SLOAD SWAP1 PUSH2 0x100 EXP SWAP1 DIV PUSH20 0xFFFFFFFFFFFFFFFFFFFFFFFFFFFFFFFFFFFFFFFF AND PUSH20 0xFFFFFFFFFFFFFFFFFFFFFFFFFFFFFFFFFFFFFFFF AND SUB PUSH2 0x2143 JUMPI PUSH1 0x1 SWAP2 POP PUSH2 0x2159 JUMP JUMPDEST PUSH0 SWAP2 POP DUP1 DUP1 PUSH2 0x2151 SWAP1 PUSH2 0x2DC6 JUMP JUMPDEST SWAP2 POP POP PUSH2 0x20B9 JUMP JUMPDEST POP DUP1 SWAP2 POP POP SWAP2 SWAP1 POP JUMP JUMPDEST PUSH0 PUSH1 0x40 MLOAD SWAP1 POP SWAP1 JUMP JUMPDEST PUSH0 DUP1 REVERT JUMPDEST PUSH0 DUP1 REVERT JUMPDEST PUSH0 PUSH20 0xFFFFFFFFFFFFFFFFFFFFFFFFFFFFFFFFFFFFFFFF DUP3 AND SWAP1 POP SWAP2 SWAP1 POP JUMP JUMPDEST PUSH0 PUSH2 0x219D DUP3 PUSH2 0x2174 JUMP JUMPDEST SWAP1 POP SWAP2 SWAP1 POP JUMP JUMPDEST PUSH2 0x21AD DUP2 PUSH2 0x2193 JUMP JUMPDEST DUP2 EQ PUSH2 0x21B7 JUMPI PUSH0 DUP1 REVERT JUMPDEST POP JUMP JUMPDEST PUSH0 DUP2 CALLDATALOAD SWAP1 POP PUSH2 0x21C8 DUP2 PUSH2 0x21A4 JUMP JUMPDEST SWAP3 SWAP2 POP POP JUMP JUMPDEST PUSH0 PUSH1 0x20 DUP3 DUP5 SUB SLT ISZERO PUSH2 0x21E3 JUMPI PUSH2 0x21E2 PUSH2 0x216C JUMP JUMPDEST JUMPDEST PUSH0 PUSH2 0x21F0 DUP5 DUP3 DUP6 ADD PUSH2 0x21BA JUMP JUMPDEST SWAP2 POP POP SWAP3 SWAP2 POP POP JUMP JUMPDEST PUSH2 0x2202 DUP2 PUSH2 0x2193 JUMP JUMPDEST DUP3 MSTORE POP POP JUMP JUMPDEST PUSH0 DUP2 ISZERO ISZERO SWAP1 POP SWAP2 SWAP1 POP JUMP JUMPDEST PUSH2 0x221C DUP2 PUSH2 0x2208 JUMP JUMPDEST DUP3 MSTORE POP POP JUMP JUMPDEST PUSH0 DUP2 SWAP1 POP SWAP2 SWAP1 POP JUMP JUMPDEST PUSH2 0x2234 DUP2 PUSH2 0x2222 JUMP JUMPDEST DUP3 MSTORE POP POP JUMP JUMPDEST PUSH0 DUP2 MLOAD SWAP1 POP SWAP2 SWAP1 POP JUMP JUMPDEST PUSH0 DUP3 DUP3 MSTORE PUSH1 0x20 DUP3 ADD SWAP1 POP SWAP3 SWAP2 POP POP JUMP JUMPDEST PUSH0 JUMPDEST DUP4 DUP2 LT ISZERO PUSH2 0x2271 JUMPI DUP1 DUP3 ADD MLOAD DUP2 DUP5 ADD MSTORE PUSH1 0x20 DUP2 ADD SWAP1 POP PUSH2 0x2256 JUMP JUMPDEST PUSH0 DUP5 DUP5 ADD MSTORE POP POP POP POP JUMP JUMPDEST PUSH0 PUSH1 0x1F NOT PUSH1 0x1F DUP4 ADD AND SWAP1 POP SWAP2 SWAP1 POP JUMP JUMPDEST PUSH0 PUSH2 0x2296 DUP3 PUSH2 0x223A JUMP JUMPDEST PUSH2 0x22A0 DUP2 DUP6 PUSH2 0x2244 JUMP JUMPDEST SWAP4 POP PUSH2 0x22B0 DUP2 DUP6 PUSH1 0x20 DUP7 ADD PUSH2 0x2254 JUMP JUMPDEST PUSH2 0x22B9 DUP2 PUSH2 0x227C JUMP JUMPDEST DUP5 ADD SWAP2 POP POP SWAP3 SWAP2 POP POP JUMP JUMPDEST PUSH0 PUSH1 0xE0 DUP3 ADD SWAP1 POP PUSH2 0x22D7 PUSH0 DUP4 ADD DUP11 PUSH2 0x21F9 JUMP JUMPDEST PUSH2 0x22E4 PUSH1 0x20 DUP4 ADD DUP10 PUSH2 0x2213 JUMP JUMPDEST PUSH2 0x22F1 PUSH1 0x40 DUP4 ADD DUP9 PUSH2 0x2213 JUMP JUMPDEST PUSH2 0x22FE PUSH1 0x60 DUP4 ADD DUP8 PUSH2 0x2213 JUMP JUMPDEST PUSH2 0x230B PUSH1 0x80 DUP4 ADD DUP7 PUSH2 0x222B JUMP JUMPDEST PUSH2 0x2318 PUSH1 0xA0 DUP4 ADD DUP6 PUSH2 0x222B JUMP JUMPDEST DUP2 DUP2 SUB PUSH1 0xC0 DUP4 ADD MSTORE PUSH2 0x232A DUP2 DUP5 PUSH2 0x228C JUMP JUMPDEST SWAP1 POP SWAP9 SWAP8 POP POP POP POP POP POP POP POP JUMP JUMPDEST PUSH0 PUSH1 0xA0 DUP3 ADD SWAP1 POP PUSH2 0x234B PUSH0 DUP4 ADD DUP9 PUSH2 0x21F9 JUMP JUMPDEST DUP2 DUP2 SUB PUSH1 0x20 DUP4 ADD MSTORE PUSH2 0x235D DUP2 DUP8 PUSH2 0x228C JUMP JUMPDEST SWAP1 POP DUP2 DUP2 SUB PUSH1 0x40 DUP4 ADD MSTORE PUSH2 0x2371 DUP2 DUP7 PUSH2 0x228C JUMP JUMPDEST SWAP1 POP PUSH2 0x2380 PUSH1 0x60 DUP4 ADD DUP6 PUSH2 0x2213 JUMP JUMPDEST PUSH2 0x238D PUSH1 0x80 DUP4 ADD DUP5 PUSH2 0x222B JUMP JUMPDEST SWAP7 SWAP6 POP POP POP POP POP POP JUMP JUMPDEST PUSH0 PUSH1 0x20 DUP3 ADD SWAP1 POP DUP2 DUP2 SUB PUSH0 DUP4 ADD MSTORE PUSH2 0x23AF DUP2 DUP5 PUSH2 0x228C JUMP JUMPDEST SWAP1 POP SWAP3 SWAP2 POP POP JUMP JUMPDEST PUSH2 0x23C0 DUP2 PUSH2 0x2222 JUMP JUMPDEST DUP2 EQ PUSH2 0x23CA JUMPI PUSH0 DUP1 REVERT JUMPDEST POP JUMP JUMPDEST PUSH0 DUP2 CALLDATALOAD SWAP1 POP PUSH2 0x23DB DUP2 PUSH2 0x23B7 JUMP JUMPDEST SWAP3 SWAP2 POP POP JUMP JUMPDEST PUSH0 DUP1 PUSH1 0x40 DUP4 DUP6 SUB SLT ISZERO PUSH2 0x23F7 JUMPI PUSH2 0x23F6 PUSH2 0x216C JUMP JUMPDEST JUMPDEST PUSH0 PUSH2 0x2404 DUP6 DUP3 DUP7 ADD PUSH2 0x23CD JUMP JUMPDEST SWAP3 POP POP PUSH1 0x20 PUSH2 0x2415 DUP6 DUP3 DUP7 ADD PUSH2 0x21BA JUMP JUMPDEST SWAP2 POP POP SWAP3 POP SWAP3 SWAP1 POP JUMP JUMPDEST PUSH0 DUP2 MLOAD SWAP1 POP SWAP2 SWAP1 POP JUMP JUMPDEST PUSH0 DUP3 DUP3 MSTORE PUSH1 0x20 DUP3 ADD SWAP1 POP SWAP3 SWAP2 POP POP JUMP JUMPDEST PUSH0 DUP2 SWAP1 POP PUSH1 0x20 DUP3 ADD SWAP1 POP SWAP2 SWAP1 POP JUMP JUMPDEST PUSH2 0x2451 DUP2 PUSH2 0x2193 JUMP JUMPDEST DUP3 MSTORE POP POP JUMP JUMPDEST PUSH0 DUP3 DUP3 MSTORE PUSH1 0x20 DUP3 ADD SWAP1 POP SWAP3 SWAP2 POP POP JUMP JUMPDEST PUSH0 PUSH2 0x2471 DUP3 PUSH2 0x223A JUMP JUMPDEST PUSH2 0x247B DUP2 DUP6 PUSH2 0x2457 JUMP JUMPDEST SWAP4 POP PUSH2 0x248B DUP2 DUP6 PUSH1 0x20 DUP7 ADD PUSH2 0x2254 JUMP JUMPDEST PUSH2 0x2494 DUP2 PUSH2 0x227C JUMP JUMPDEST DUP5 ADD SWAP2 POP POP SWAP3 SWAP2 POP POP JUMP JUMPDEST PUSH2 0x24A8 DUP2 PUSH2 0x2208 JUMP JUMPDEST DUP3 MSTORE POP POP JUMP JUMPDEST PUSH2 0x24B7 DUP2 PUSH2 0x2222 JUMP JUMPDEST DUP3 MSTORE POP POP JUMP JUMPDEST PUSH0 PUSH1 0xA0 DUP4 ADD PUSH0 DUP4 ADD MLOAD PUSH2 0x24D2 PUSH0 DUP7 ADD DUP3 PUSH2 0x2448 JUMP JUMPDEST POP PUSH1 0x20 DUP4 ADD MLOAD DUP5 DUP3 SUB PUSH1 0x20 DUP7 ADD MSTORE PUSH2 0x24EA DUP3 DUP3 PUSH2 0x2467 JUMP JUMPDEST SWAP2 POP POP PUSH1 0x40 DUP4 ADD MLOAD DUP5 DUP3 SUB PUSH1 0x40 DUP7 ADD MSTORE PUSH2 0x2504 DUP3 DUP3 PUSH2 0x2467 JUMP JUMPDEST SWAP2 POP POP PUSH1 0x60 DUP4 ADD MLOAD PUSH2 0x2519 PUSH1 0x60 DUP7 ADD DUP3 PUSH2 0x249F JUMP JUMPDEST POP PUSH1 0x80 DUP4 ADD MLOAD PUSH2 0x252C PUSH1 0x80 DUP7 ADD DUP3 PUSH2 0x24AE JUMP JUMPDEST POP DUP1 SWAP2 POP POP SWAP3 SWAP2 POP POP JUMP JUMPDEST PUSH0 PUSH2 0x2542 DUP4 DUP4 PUSH2 0x24BD JUMP JUMPDEST SWAP1 POP SWAP3 SWAP2 POP POP JUMP JUMPDEST PUSH0 PUSH1 0x20 DUP3 ADD SWAP1 POP SWAP2 SWAP1 POP JUMP JUMPDEST PUSH0 PUSH2 0x2560 DUP3 PUSH2 0x241F JUMP JUMPDEST PUSH2 0x256A DUP2 DUP6 PUSH2 0x2429 JUMP JUMPDEST SWAP4 POP DUP4 PUSH1 0x20 DUP3 MUL DUP6 ADD PUSH2 0x257C DUP6 PUSH2 0x2439 JUMP JUMPDEST DUP1 PUSH0 JUMPDEST DUP6 DUP2 LT ISZERO PUSH2 0x25B7 JUMPI DUP5 DUP5 SUB DUP10 MSTORE DUP2 MLOAD PUSH2 0x2598 DUP6 DUP3 PUSH2 0x2537 JUMP JUMPDEST SWAP5 POP PUSH2 0x25A3 DUP4 PUSH2 0x254A JUMP JUMPDEST SWAP3 POP PUSH1 0x20 DUP11 ADD SWAP10 POP POP PUSH1 0x1 DUP2 ADD SWAP1 POP PUSH2 0x257F JUMP JUMPDEST POP DUP3 SWAP8 POP DUP8 SWAP6 POP POP POP POP POP POP SWAP3 SWAP2 POP POP JUMP JUMPDEST PUSH0 PUSH1 0x20 DUP3 ADD SWAP1 POP DUP2 DUP2 SUB PUSH0 DUP4 ADD MSTORE PUSH2 0x25E1 DUP2 DUP5 PUSH2 0x2556 JUMP JUMPDEST SWAP1 POP SWAP3 SWAP2 POP POP JUMP JUMPDEST PUSH0 DUP1 REVERT JUMPDEST PUSH0 DUP1 REVERT JUMPDEST PUSH32 0x4E487B7100000000000000000000000000000000000000000000000000000000 PUSH0 MSTORE PUSH1 0x41 PUSH1 0x4 MSTORE PUSH1 0x24 PUSH0 REVERT JUMPDEST PUSH2 0x2627 DUP3 PUSH2 0x227C JUMP JUMPDEST DUP2 ADD DUP2 DUP2 LT PUSH8 0xFFFFFFFFFFFFFFFF DUP3 GT OR ISZERO PUSH2 0x2646 JUMPI PUSH2 0x2645 PUSH2 0x25F1 JUMP JUMPDEST JUMPDEST DUP1 PUSH1 0x40 MSTORE POP POP POP JUMP JUMPDEST PUSH0 PUSH2 0x2658 PUSH2 0x2163 JUMP JUMPDEST SWAP1 POP PUSH2 0x2664 DUP3 DUP3 PUSH2 0x261E JUMP JUMPDEST SWAP2 SWAP1 POP JUMP JUMPDEST PUSH0 PUSH8 0xFFFFFFFFFFFFFFFF DUP3 GT ISZERO PUSH2 0x2683 JUMPI PUSH2 0x2682 PUSH2 0x25F1 JUMP JUMPDEST JUMPDEST PUSH2 0x268C DUP3 PUSH2 0x227C JUMP JUMPDEST SWAP1 POP PUSH1 0x20 DUP2 ADD SWAP1 POP SWAP2 SWAP1 POP JUMP JUMPDEST DUP3 DUP2 DUP4 CALLDATACOPY PUSH0 DUP4 DUP4 ADD MSTORE POP POP POP JUMP JUMPDEST PUSH0 PUSH2 0x26B9 PUSH2 0x26B4 DUP5 PUSH2 0x2669 JUMP JUMPDEST PUSH2 0x264F JUMP JUMPDEST SWAP1 POP DUP3 DUP2 MSTORE PUSH1 0x20 DUP2 ADD DUP5 DUP5 DUP5 ADD GT ISZERO PUSH2 0x26D5 JUMPI PUSH2 0x26D4 PUSH2 0x25ED JUMP JUMPDEST JUMPDEST PUSH2 0x26E0 DUP5 DUP3 DUP6 PUSH2 0x2699 JUMP JUMPDEST POP SWAP4 SWAP3 POP POP POP JUMP JUMPDEST PUSH0 DUP3 PUSH1 0x1F DUP4 ADD SLT PUSH2 0x26FC JUMPI PUSH2 0x26FB PUSH2 0x25E9 JUMP JUMPDEST JUMPDEST DUP2 CALLDATALOAD PUSH2 0x270C DUP5 DUP3 PUSH1 0x20 DUP7 ADD PUSH2 0x26A7 JUMP JUMPDEST SWAP2 POP POP SWAP3 SWAP2 POP POP JUMP JUMPDEST PUSH0 DUP1 PUSH1 0x40 DUP4 DUP6 SUB SLT ISZERO PUSH2 0x272B JUMPI PUSH2 0x272A PUSH2 0x216C JUMP JUMPDEST JUMPDEST PUSH0 PUSH2 0x2738 DUP6 DUP3 DUP7 ADD PUSH2 0x21BA JUMP JUMPDEST SWAP3 POP POP PUSH1 0x20 DUP4 ADD CALLDATALOAD PUSH8 0xFFFFFFFFFFFFFFFF DUP2 GT ISZERO PUSH2 0x2759 JUMPI PUSH2 0x2758 PUSH2 0x2170 JUMP JUMPDEST JUMPDEST PUSH2 0x2765 DUP6 DUP3 DUP7 ADD PUSH2 0x26E8 JUMP JUMPDEST SWAP2 POP POP SWAP3 POP SWAP3 SWAP1 POP JUMP JUMPDEST PUSH0 DUP2 MLOAD SWAP1 POP SWAP2 SWAP1 POP JUMP JUMPDEST PUSH0 DUP3 DUP3 MSTORE PUSH1 0x20 DUP3 ADD SWAP1 POP SWAP3 SWAP2 POP POP JUMP JUMPDEST PUSH0 DUP2 SWAP1 POP PUSH1 0x20 DUP3 ADD SWAP1 POP SWAP2 SWAP1 POP JUMP JUMPDEST PUSH0 PUSH1 0xE0 DUP4 ADD PUSH0 DUP4 ADD MLOAD PUSH2 0x27AD PUSH0 DUP7 ADD DUP3 PUSH2 0x2448 JUMP JUMPDEST POP PUSH1 0x20 DUP4 ADD MLOAD PUSH2 0x27C0 PUSH1 0x20 DUP7 ADD DUP3 PUSH2 0x249F JUMP JUMPDEST POP PUSH1 0x40 DUP4 ADD MLOAD PUSH2 0x27D3 PUSH1 0x40 DUP7 ADD DUP3 PUSH2 0x249F JUMP JUMPDEST POP PUSH1 0x60 DUP4 ADD MLOAD PUSH2 0x27E6 PUSH1 0x60 DUP7 ADD DUP3 PUSH2 0x249F JUMP JUMPDEST POP PUSH1 0x80 DUP4 ADD MLOAD PUSH2 0x27F9 PUSH1 0x80 DUP7 ADD DUP3 PUSH2 0x24AE JUMP JUMPDEST POP PUSH1 0xA0 DUP4 ADD MLOAD PUSH2 0x280C PUSH1 0xA0 DUP7 ADD DUP3 PUSH2 0x24AE JUMP JUMPDEST POP PUSH1 0xC0 DUP4 ADD MLOAD DUP5 DUP3 SUB PUSH1 0xC0 DUP7 ADD MSTORE PUSH2 0x2824 DUP3 DUP3 PUSH2 0x2467 JUMP JUMPDEST SWAP2 POP POP DUP1 SWAP2 POP POP SWAP3 SWAP2 POP POP JUMP JUMPDEST PUSH0 PUSH2 0x283C DUP4 DUP4 PUSH2 0x2798 JUMP JUMPDEST SWAP1 POP SWAP3 SWAP2 POP POP JUMP JUMPDEST PUSH0 PUSH1 0x20 DUP3 ADD SWAP1 POP SWAP2 SWAP1 POP JUMP JUMPDEST PUSH0 PUSH2 0x285A DUP3 PUSH2 0x276F JUMP JUMPDEST PUSH2 0x2864 DUP2 DUP6 PUSH2 0x2779 JUMP JUMPDEST SWAP4 POP DUP4 PUSH1 0x20 DUP3 MUL DUP6 ADD PUSH2 0x2876 DUP6 PUSH2 0x2789 JUMP JUMPDEST DUP1 PUSH0 JUMPDEST DUP6 DUP2 LT ISZERO PUSH2 0x28B1 JUMPI DUP5 DUP5 SUB DUP10 MSTORE DUP2 MLOAD PUSH2 0x2892 DUP6 DUP3 PUSH2 0x2831 JUMP JUMPDEST SWAP5 POP PUSH2 0x289D DUP4 PUSH2 0x2844 JUMP JUMPDEST SWAP3 POP PUSH1 0x20 DUP11 ADD SWAP10 POP POP PUSH1 0x1 DUP2 ADD SWAP1 POP PUSH2 0x2879 JUMP JUMPDEST POP DUP3 SWAP8 POP DUP8 SWAP6 POP POP POP POP POP POP SWAP3 SWAP2 POP POP JUMP JUMPDEST PUSH0 PUSH1 0x20 DUP3 ADD SWAP1 POP DUP2 DUP2 SUB PUSH0 DUP4 ADD MSTORE PUSH2 0x28DB DUP2 DUP5 PUSH2 0x2850 JUMP JUMPDEST SWAP1 POP SWAP3 SWAP2 POP POP JUMP JUMPDEST PUSH0 DUP1 PUSH0 PUSH1 0x60 DUP5 DUP7 SUB SLT ISZERO PUSH2 0x28FA JUMPI PUSH2 0x28F9 PUSH2 0x216C JUMP JUMPDEST JUMPDEST PUSH0 DUP5 ADD CALLDATALOAD PUSH8 0xFFFFFFFFFFFFFFFF DUP2 GT ISZERO PUSH2 0x2917 JUMPI PUSH2 0x2916 PUSH2 0x2170 JUMP JUMPDEST JUMPDEST PUSH2 0x2923 DUP7 DUP3 DUP8 ADD PUSH2 0x26E8 JUMP JUMPDEST SWAP4 POP POP PUSH1 0x20 DUP5 ADD CALLDATALOAD PUSH8 0xFFFFFFFFFFFFFFFF DUP2 GT ISZERO PUSH2 0x2944 JUMPI PUSH2 0x2943 PUSH2 0x2170 JUMP JUMPDEST JUMPDEST PUSH2 0x2950 DUP7 DUP3 DUP8 ADD PUSH2 0x26E8 JUMP JUMPDEST SWAP3 POP POP PUSH1 0x40 PUSH2 0x2961 DUP7 DUP3 DUP8 ADD PUSH2 0x21BA JUMP JUMPDEST SWAP2 POP POP SWAP3 POP SWAP3 POP SWAP3 JUMP JUMPDEST PUSH32 0x4E487B7100000000000000000000000000000000000000000000000000000000 PUSH0 MSTORE PUSH1 0x22 PUSH1 0x4 MSTORE PUSH1 0x24 PUSH0 REVERT JUMPDEST PUSH0 PUSH1 0x2 DUP3 DIV SWAP1 POP PUSH1 0x1 DUP3 AND DUP1 PUSH2 0x29AF JUMPI PUSH1 0x7F DUP3 AND SWAP2 POP JUMPDEST PUSH1 0x20 DUP3 LT DUP2 SUB PUSH2 0x29C2 JUMPI PUSH2 0x29C1 PUSH2 0x296B JUMP JUMPDEST JUMPDEST POP SWAP2 SWAP1 POP JUMP JUMPDEST PUSH32 0x4E487B7100000000000000000000000000000000000000000000000000000000 PUSH0 MSTORE PUSH1 0x21 PUSH1 0x4 MSTORE PUSH1 0x24 PUSH0 REVERT JUMPDEST PUSH0 DUP2 SWAP1 POP DUP2 PUSH0 MSTORE PUSH1 0x20 PUSH0 KECCAK256 SWAP1 POP SWAP2 SWAP1 POP JUMP JUMPDEST PUSH0 PUSH1 0x20 PUSH1 0x1F DUP4 ADD DIV SWAP1 POP SWAP2 SWAP1 POP JUMP JUMPDEST PUSH0 DUP3 DUP3 SHL SWAP1 POP SWAP3 SWAP2 POP POP JUMP JUMPDEST PUSH0 PUSH1 0x8 DUP4 MUL PUSH2 0x2A51 PUSH32 0xFFFFFFFFFFFFFFFFFFFFFFFFFFFFFFFFFFFFFFFFFFFFFFFFFFFFFFFFFFFFFFFF DUP3 PUSH2 0x2A16 JUMP JUMPDEST PUSH2 0x2A5B DUP7 DUP4 PUSH2 0x2A16 JUMP JUMPDEST SWAP6 POP DUP1 NOT DUP5 AND SWAP4 POP DUP1 DUP7 AND DUP5 OR SWAP3 POP POP POP SWAP4 SWAP3 POP POP POP JUMP JUMPDEST PUSH0 DUP2 SWAP1 POP SWAP2 SWAP1 POP JUMP JUMPDEST PUSH0 PUSH2 0x2A96 PUSH2 0x2A91 PUSH2 0x2A8C DUP5 PUSH2 0x2222 JUMP JUMPDEST PUSH2 0x2A73 JUMP JUMPDEST PUSH2 0x2222 JUMP JUMPDEST SWAP1 POP SWAP2 SWAP1 POP JUMP JUMPDEST PUSH0 DUP2 SWAP1 POP SWAP2 SWAP1 POP JUMP JUMPDEST PUSH2 0x2AAF DUP4 PUSH2 0x2A7C JUMP JUMPDEST PUSH2 0x2AC3 PUSH2 0x2ABB DUP3 PUSH2 0x2A9D JUMP JUMPDEST DUP5 DUP5 SLOAD PUSH2 0x2A22 JUMP JUMPDEST DUP3 SSTORE POP POP POP POP JUMP JUMPDEST PUSH0 SWAP1 JUMP JUMPDEST PUSH2 0x2AD7 PUSH2 0x2ACB JUMP JUMPDEST PUSH2 0x2AE2 DUP2 DUP5 DUP5 PUSH2 0x2AA6 JUMP JUMPDEST POP POP POP JUMP JUMPDEST JUMPDEST DUP2 DUP2 LT ISZERO PUSH2 0x2B05 JUMPI PUSH2 0x2AFA PUSH0 DUP3 PUSH2 0x2ACF JUMP JUMPDEST PUSH1 0x1 DUP2 ADD SWAP1 POP PUSH2 0x2AE8 JUMP JUMPDEST POP POP JUMP JUMPDEST PUSH1 0x1F DUP3 GT ISZERO PUSH2 0x2B4A JUMPI PUSH2 0x2B1B DUP2 PUSH2 0x29F5 JUMP JUMPDEST PUSH2 0x2B24 DUP5 PUSH2 0x2A07 JUMP JUMPDEST DUP2 ADD PUSH1 0x20 DUP6 LT ISZERO PUSH2 0x2B33 JUMPI DUP2 SWAP1 POP JUMPDEST PUSH2 0x2B47 PUSH2 0x2B3F DUP6 PUSH2 0x2A07 JUMP JUMPDEST DUP4 ADD DUP3 PUSH2 0x2AE7 JUMP JUMPDEST POP POP JUMPDEST POP POP POP JUMP JUMPDEST PUSH0 DUP3 DUP3 SHR SWAP1 POP SWAP3 SWAP2 POP POP JUMP JUMPDEST PUSH0 PUSH2 0x2B6A PUSH0 NOT DUP5 PUSH1 0x8 MUL PUSH2 0x2B4F JUMP JUMPDEST NOT DUP1 DUP4 AND SWAP2 POP POP SWAP3 SWAP2 POP POP JUMP JUMPDEST PUSH0 PUSH2 0x2B82 DUP4 DUP4 PUSH2 0x2B5B JUMP JUMPDEST SWAP2 POP DUP3 PUSH1 0x2 MUL DUP3 OR SWAP1 POP SWAP3 SWAP2 POP POP JUMP JUMPDEST PUSH2 0x2B9B DUP3 PUSH2 0x223A JUMP JUMPDEST PUSH8 0xFFFFFFFFFFFFFFFF DUP2 GT ISZERO PUSH2 0x2BB4 JUMPI PUSH2 0x2BB3 PUSH2 0x25F1 JUMP JUMPDEST JUMPDEST PUSH2 0x2BBE DUP3 SLOAD PUSH2 0x2998 JUMP JUMPDEST PUSH2 0x2BC9 DUP3 DUP3 DUP6 PUSH2 0x2B09 JUMP JUMPDEST PUSH0 PUSH1 0x20 SWAP1 POP PUSH1 0x1F DUP4 GT PUSH1 0x1 DUP2 EQ PUSH2 0x2BFA JUMPI PUSH0 DUP5 ISZERO PUSH2 0x2BE8 JUMPI DUP3 DUP8 ADD MLOAD SWAP1 POP JUMPDEST PUSH2 0x2BF2 DUP6 DUP3 PUSH2 0x2B77 JUMP JUMPDEST DUP7 SSTORE POP PUSH2 0x2C59 JUMP JUMPDEST PUSH1 0x1F NOT DUP5 AND PUSH2 0x2C08 DUP7 PUSH2 0x29F5 JUMP JUMPDEST PUSH0 JUMPDEST DUP3 DUP2 LT ISZERO PUSH2 0x2C2F JUMPI DUP5 DUP10 ADD MLOAD DUP3 SSTORE PUSH1 0x1 DUP3 ADD SWAP2 POP PUSH1 0x20 DUP6 ADD SWAP5 POP PUSH1 0x20 DUP2 ADD SWAP1 POP PUSH2 0x2C0A JUMP JUMPDEST DUP7 DUP4 LT ISZERO PUSH2 0x2C4C JUMPI DUP5 DUP10 ADD MLOAD PUSH2 0x2C48 PUSH1 0x1F DUP10 AND DUP3 PUSH2 0x2B5B JUMP JUMPDEST DUP4 SSTORE POP JUMPDEST PUSH1 0x1 PUSH1 0x2 DUP9 MUL ADD DUP9 SSTORE POP POP POP JUMPDEST POP POP POP POP POP POP JUMP JUMPDEST PUSH32 0x766F74657220646F6573206E6F74206578697374000000000000000000000000 PUSH0 DUP3 ADD MSTORE POP JUMP JUMPDEST PUSH0 PUSH2 0x2C95 PUSH1 0x14 DUP4 PUSH2 0x2244 JUMP JUMPDEST SWAP2 POP PUSH2 0x2CA0 DUP3 PUSH2 0x2C61 JUMP JUMPDEST PUSH1 0x20 DUP3 ADD SWAP1 POP SWAP2 SWAP1 POP JUMP JUMPDEST PUSH0 PUSH1 0x20 DUP3 ADD SWAP1 POP DUP2 DUP2 SUB PUSH0 DUP4 ADD MSTORE PUSH2 0x2CC2 DUP2 PUSH2 0x2C89 JUMP JUMPDEST SWAP1 POP SWAP2 SWAP1 POP JUMP JUMPDEST PUSH32 0x616C726561647920766F74656400000000000000000000000000000000000000 PUSH0 DUP3 ADD MSTORE POP JUMP JUMPDEST PUSH0 PUSH2 0x2CFD PUSH1 0xD DUP4 PUSH2 0x2244 JUMP JUMPDEST SWAP2 POP PUSH2 0x2D08 DUP3 PUSH2 0x2CC9 JUMP JUMPDEST PUSH1 0x20 DUP3 ADD SWAP1 POP SWAP2 SWAP1 POP JUMP JUMPDEST PUSH0 PUSH1 0x20 DUP3 ADD SWAP1 POP DUP2 DUP2 SUB PUSH0 DUP4 ADD MSTORE PUSH2 0x2D2A DUP2 PUSH2 0x2CF1 JUMP JUMPDEST SWAP1 POP SWAP2 SWAP1 POP JUMP JUMPDEST PUSH32 0x766F74696E67206E6F7420737461727465640000000000000000000000000000 PUSH0 DUP3 ADD MSTORE POP JUMP JUMPDEST PUSH0 PUSH2 0x2D65 PUSH1 0x12 DUP4 PUSH2 0x2244 JUMP JUMPDEST SWAP2 POP PUSH2 0x2D70 DUP3 PUSH2 0x2D31 JUMP JUMPDEST PUSH1 0x20 DUP3 ADD SWAP1 POP SWAP2 SWAP1 POP JUMP JUMPDEST PUSH0 PUSH1 0x20 DUP3 ADD SWAP1 POP DUP2 DUP2 SUB PUSH0 DUP4 ADD MSTORE PUSH2 0x2D92 DUP2 PUSH2 0x2D59 JUMP JUMPDEST SWAP1 POP SWAP2 SWAP1 POP JUMP JUMPDEST PUSH32 0x4E487B7100000000000000000000000000000000000000000000000000000000 PUSH0 MSTORE PUSH1 0x11 PUSH1 0x4 MSTORE PUSH1 0x24 PUSH0 REVERT JUMPDEST PUSH0 PUSH2 0x2DD0 DUP3 PUSH2 0x2222 JUMP JUMPDEST SWAP2 POP PUSH32 0xFFFFFFFFFFFFFFFFFFFFFFFFFFFFFFFFFFFFFFFFFFFFFFFFFFFFFFFFFFFFFFFF DUP3 SUB PUSH2 0x2E02 JUMPI PUSH2 0x2E01 PUSH2 0x2D99 JUMP JUMPDEST JUMPDEST PUSH1 0x1 DUP3 ADD SWAP1 POP SWAP2 SWAP1 POP JUMP JUMPDEST PUSH32 0x4E487B7100000000000000000000000000000000000000000000000000000000 PUSH0 MSTORE PUSH1 0x32 PUSH1 0x4 MSTORE PUSH1 0x24 PUSH0 REVERT JUMPDEST PUSH0 DUP2 SLOAD SWAP1 POP PUSH2 0x2E48 DUP2 PUSH2 0x2998 JUMP JUMPDEST SWAP1 POP SWAP2 SWAP1 POP JUMP JUMPDEST DUP2 DUP2 SUB PUSH2 0x2E5D JUMPI POP POP PUSH2 0x2F32 JUMP JUMPDEST PUSH2 0x2E66 DUP3 PUSH2 0x2E3A JUMP JUMPDEST PUSH8 0xFFFFFFFFFFFFFFFF DUP2 GT ISZERO PUSH2 0x2E7F JUMPI PUSH2 0x2E7E PUSH2 0x25F1 JUMP JUMPDEST JUMPDEST PUSH2 0x2E89 DUP3 SLOAD PUSH2 0x2998 JUMP JUMPDEST PUSH2 0x2E94 DUP3 DUP3 DUP6 PUSH2 0x2B09 JUMP JUMPDEST PUSH0 PUSH1 0x1F DUP4 GT PUSH1 0x1 DUP2 EQ PUSH2 0x2EC1 JUMPI PUSH0 DUP5 ISZERO PUSH2 0x2EAF JUMPI DUP3 DUP8 ADD SLOAD SWAP1 POP JUMPDEST PUSH2 0x2EB9 DUP6 DUP3 PUSH2 0x2B77 JUMP JUMPDEST DUP7 SSTORE POP PUSH2 0x2F2B JUMP JUMPDEST PUSH1 0x1F NOT DUP5 AND PUSH2 0x2ECF DUP8 PUSH2 0x29F5 JUMP JUMPDEST SWAP7 POP PUSH2 0x2EDA DUP7 PUSH2 0x29F5 JUMP JUMPDEST PUSH0 JUMPDEST DUP3 DUP2 LT ISZERO PUSH2 0x2F01 JUMPI DUP5 DUP10 ADD SLOAD DUP3 SSTORE PUSH1 0x1 DUP3 ADD SWAP2 POP PUSH1 0x1 DUP6 ADD SWAP5 POP PUSH1 0x20 DUP2 ADD SWAP1 POP PUSH2 0x2EDC JUMP JUMPDEST DUP7 DUP4 LT ISZERO PUSH2 0x2F1E JUMPI DUP5 DUP10 ADD SLOAD PUSH2 0x2F1A PUSH1 0x1F DUP10 AND DUP3 PUSH2 0x2B5B JUMP JUMPDEST DUP4 SSTORE POP JUMPDEST PUSH1 0x1 PUSH1 0x2 DUP9 MUL ADD DUP9 SSTORE POP POP POP JUMPDEST POP POP POP POP POP POP JUMPDEST JUMP JUMPDEST PUSH0 DUP2 SLOAD SWAP1 POP PUSH2 0x2F42 DUP2 PUSH2 0x2998 JUMP JUMPDEST SWAP1 POP SWAP2 SWAP1 POP JUMP JUMPDEST PUSH0 DUP2 SWAP1 POP DUP2 PUSH0 MSTORE PUSH1 0x20 PUSH0 KECCAK256 SWAP1 POP SWAP2 SWAP1 POP JUMP JUMPDEST DUP2 DUP2 SUB PUSH2 0x2F69 JUMPI POP POP PUSH2 0x303E JUMP JUMPDEST PUSH2 0x2F72 DUP3 PUSH2 0x2F34 JUMP JUMPDEST PUSH8 0xFFFFFFFFFFFFFFFF DUP2 GT ISZERO PUSH2 0x2F8B JUMPI PUSH2 0x2F8A PUSH2 0x25F1 JUMP JUMPDEST JUMPDEST PUSH2 0x2F95 DUP3 SLOAD PUSH2 0x2998 JUMP JUMPDEST PUSH2 0x2FA0 DUP3 DUP3 DUP6 PUSH2 0x2B09 JUMP JUMPDEST PUSH0 PUSH1 0x1F DUP4 GT PUSH1 0x1 DUP2 EQ PUSH2 0x2FCD JUMPI PUSH0 DUP5 ISZERO PUSH2 0x2FBB JUMPI DUP3 DUP8 ADD SLOAD SWAP1 POP JUMPDEST PUSH2 0x2FC5 DUP6 DUP3 PUSH2 0x2B77 JUMP JUMPDEST DUP7 SSTORE POP PUSH2 0x3037 JUMP JUMPDEST PUSH1 0x1F NOT DUP5 AND PUSH2 0x2FDB DUP8 PUSH2 0x2F49 JUMP JUMPDEST SWAP7 POP PUSH2 0x2FE6 DUP7 PUSH2 0x29F5 JUMP JUMPDEST PUSH0 JUMPDEST DUP3 DUP2 LT ISZERO PUSH2 0x300D JUMPI DUP5 DUP10 ADD SLOAD DUP3 SSTORE PUSH1 0x1 DUP3 ADD SWAP2 POP PUSH1 0x1 DUP6 ADD SWAP5 POP PUSH1 0x20 DUP2 ADD SWAP1 POP PUSH2 0x2FE8 JUMP JUMPDEST DUP7 DUP4 LT ISZERO PUSH2 0x302A JUMPI DUP5 DUP10 ADD SLOAD PUSH2 0x3026 PUSH1 0x1F DUP10 AND DUP3 PUSH2 0x2B5B JUMP JUMPDEST DUP4 SSTORE POP JUMPDEST PUSH1 0x1 PUSH1 0x2 DUP9 MUL ADD DUP9 SSTORE POP POP POP JUMPDEST POP POP POP POP POP POP JUMPDEST JUMP JUMPDEST PUSH0 PUSH2 0x304A DUP3 PUSH2 0x2222 JUMP JUMPDEST SWAP2 POP PUSH0 DUP3 SUB PUSH2 0x305C JUMPI PUSH2 0x305B PUSH2 0x2D99 JUMP JUMPDEST JUMPDEST PUSH1 0x1 DUP3 SUB SWAP1 POP SWAP2 SWAP1 POP JUMP JUMPDEST PUSH32 0x766F74696E67206D757374206265206F6E676F696E6720746F2064656C656761 PUSH0 DUP3 ADD MSTORE PUSH32 0x746520766F746500000000000000000000000000000000000000000000000000 PUSH1 0x20 DUP3 ADD MSTORE POP JUMP JUMPDEST PUSH0 PUSH2 0x30C1 PUSH1 0x27 DUP4 PUSH2 0x2244 JUMP JUMPDEST SWAP2 POP PUSH2 0x30CC DUP3 PUSH2 0x3067 JUMP JUMPDEST PUSH1 0x40 DUP3 ADD SWAP1 POP SWAP2 SWAP1 POP JUMP JUMPDEST PUSH0 PUSH1 0x20 DUP3 ADD SWAP1 POP DUP2 DUP2 SUB PUSH0 DUP4 ADD MSTORE PUSH2 0x30EE DUP2 PUSH2 0x30B5 JUMP JUMPDEST SWAP1 POP SWAP2 SWAP1 POP JUMP JUMPDEST PUSH32 0x6F6E6C792074686F73652063616E2064656C656761746520766F74652077686F PUSH0 DUP3 ADD MSTORE PUSH32 0x2068617665206E6F7420766F7465642079657400000000000000000000000000 PUSH1 0x20 DUP3 ADD MSTORE POP JUMP JUMPDEST PUSH0 PUSH2 0x314F PUSH1 0x33 DUP4 PUSH2 0x2244 JUMP JUMPDEST SWAP2 POP PUSH2 0x315A DUP3 PUSH2 0x30F5 JUMP JUMPDEST PUSH1 0x40 DUP3 ADD SWAP1 POP SWAP2 SWAP1 POP JUMP JUMPDEST PUSH0 PUSH1 0x20 DUP3 ADD SWAP1 POP DUP2 DUP2 SUB PUSH0 DUP4 ADD MSTORE PUSH2 0x317C DUP2 PUSH2 0x3143 JUMP JUMPDEST SWAP1 POP SWAP2 SWAP1 POP JUMP JUMPDEST PUSH32 0x61646D696E2063616E6E6F742064656C656761746520766F7465000000000000 PUSH0 DUP3 ADD MSTORE POP JUMP JUMPDEST PUSH0 PUSH2 0x31B7 PUSH1 0x1A DUP4 PUSH2 0x2244 JUMP JUMPDEST SWAP2 POP PUSH2 0x31C2 DUP3 PUSH2 0x3183 JUMP JUMPDEST PUSH1 0x20 DUP3 ADD SWAP1 POP SWAP2 SWAP1 POP JUMP JUMPDEST PUSH0 PUSH1 0x20 DUP3 ADD SWAP1 POP DUP2 DUP2 SUB PUSH0 DUP4 ADD MSTORE PUSH2 0x31E4 DUP2 PUSH2 0x31AB JUMP JUMPDEST SWAP1 POP SWAP2 SWAP1 POP JUMP JUMPDEST PUSH32 0x43616E6E6F742064656C656761746520766F746520746F2073656C6600000000 PUSH0 DUP3 ADD MSTORE POP JUMP JUMPDEST PUSH0 PUSH2 0x321F PUSH1 0x1C DUP4 PUSH2 0x2244 JUMP JUMPDEST SWAP2 POP PUSH2 0x322A DUP3 PUSH2 0x31EB JUMP JUMPDEST PUSH1 0x20 DUP3 ADD SWAP1 POP SWAP2 SWAP1 POP JUMP JUMPDEST PUSH0 PUSH1 0x20 DUP3 ADD SWAP1 POP DUP2 DUP2 SUB PUSH0 DUP4 ADD MSTORE PUSH2 0x324C DUP2 PUSH2 0x3213 JUMP JUMPDEST SWAP1 POP SWAP2 SWAP1 POP JUMP JUMPDEST PUSH32 0x43616E6469646174652063616E6E6F742061636365707420616E64207472616E PUSH0 DUP3 ADD MSTORE PUSH32 0x7366657220766F74657300000000000000000000000000000000000000000000 PUSH1 0x20 DUP3 ADD MSTORE POP JUMP JUMPDEST PUSH0 PUSH2 0x32AD PUSH1 0x2A DUP4 PUSH2 0x2244 JUMP JUMPDEST SWAP2 POP PUSH2 0x32B8 DUP3 PUSH2 0x3253 JUMP JUMPDEST PUSH1 0x40 DUP3 ADD SWAP1 POP SWAP2 SWAP1 POP JUMP JUMPDEST PUSH0 PUSH1 0x20 DUP3 ADD SWAP1 POP DUP2 DUP2 SUB PUSH0 DUP4 ADD MSTORE PUSH2 0x32DA DUP2 PUSH2 0x32A1 JUMP JUMPDEST SWAP1 POP SWAP2 SWAP1 POP JUMP JUMPDEST PUSH32 0x6F6E6C792061646D696E2063616E206465636C6172652077696E6E6572000000 PUSH0 DUP3 ADD MSTORE POP JUMP JUMPDEST PUSH0 PUSH2 0x3315 PUSH1 0x1D DUP4 PUSH2 0x2244 JUMP JUMPDEST SWAP2 POP PUSH2 0x3320 DUP3 PUSH2 0x32E1 JUMP JUMPDEST PUSH1 0x20 DUP3 ADD SWAP1 POP SWAP2 SWAP1 POP JUMP JUMPDEST PUSH0 PUSH1 0x20 DUP3 ADD SWAP1 POP DUP2 DUP2 SUB PUSH0 DUP4 ADD MSTORE PUSH2 0x3342 DUP2 PUSH2 0x3309 JUMP JUMPDEST SWAP1 POP SWAP2 SWAP1 POP JUMP JUMPDEST PUSH32 0x57494E4E45522057494C4C204F4E4C59204245204445434C41524544204F4E43 PUSH0 DUP3 ADD MSTORE PUSH32 0x452054484520454C4354494F4E20454E44530000000000000000000000000000 PUSH1 0x20 DUP3 ADD MSTORE POP JUMP JUMPDEST PUSH0 PUSH2 0x33A3 PUSH1 0x32 DUP4 PUSH2 0x2244 JUMP JUMPDEST SWAP2 POP PUSH2 0x33AE DUP3 PUSH2 0x3349 JUMP JUMPDEST PUSH1 0x40 DUP3 ADD SWAP1 POP SWAP2 SWAP1 POP JUMP JUMPDEST PUSH0 PUSH1 0x20 DUP3 ADD SWAP1 POP DUP2 DUP2 SUB PUSH0 DUP4 ADD MSTORE PUSH2 0x33D0 DUP2 PUSH2 0x3397 JUMP JUMPDEST SWAP1 POP SWAP2 SWAP1 POP JUMP JUMPDEST PUSH32 0x6F6E6C792061646D696E2063616E20726567697374657220766F746572000000 PUSH0 DUP3 ADD MSTORE POP JUMP JUMPDEST PUSH0 PUSH2 0x340B PUSH1 0x1D DUP4 PUSH2 0x2244 JUMP JUMPDEST SWAP2 POP PUSH2 0x3416 DUP3 PUSH2 0x33D7 JUMP JUMPDEST PUSH1 0x20 DUP3 ADD SWAP1 POP SWAP2 SWAP1 POP JUMP JUMPDEST PUSH0 PUSH1 0x20 DUP3 ADD SWAP1 POP DUP2 DUP2 SUB PUSH0 DUP4 ADD MSTORE PUSH2 0x3438 DUP2 PUSH2 0x33FF JUMP JUMPDEST SWAP1 POP SWAP2 SWAP1 POP JUMP JUMPDEST PUSH32 0x61646D696E2063616E6E6F7420726567697374657220666F7220766F74650000 PUSH0 DUP3 ADD MSTORE POP JUMP JUMPDEST PUSH0 PUSH2 0x3473 PUSH1 0x1E DUP4 PUSH2 0x2244 JUMP JUMPDEST SWAP2 POP PUSH2 0x347E DUP3 PUSH2 0x343F JUMP JUMPDEST PUSH1 0x20 DUP3 ADD SWAP1 POP SWAP2 SWAP1 POP JUMP JUMPDEST PUSH0 PUSH1 0x20 DUP3 ADD SWAP1 POP DUP2 DUP2 SUB PUSH0 DUP4 ADD MSTORE PUSH2 0x34A0 DUP2 PUSH2 0x3467 JUMP JUMPDEST SWAP1 POP SWAP2 SWAP1 POP JUMP JUMPDEST PUSH32 0x766F74657220616C726561647920726567697374657265640000000000000000 PUSH0 DUP3 ADD MSTORE POP JUMP JUMPDEST PUSH0 PUSH2 0x34DB PUSH1 0x18 DUP4 PUSH2 0x2244 JUMP JUMPDEST SWAP2 POP PUSH2 0x34E6 DUP3 PUSH2 0x34A7 JUMP JUMPDEST PUSH1 0x20 DUP3 ADD SWAP1 POP SWAP2 SWAP1 POP JUMP JUMPDEST PUSH0 PUSH1 0x20 DUP3 ADD SWAP1 POP DUP2 DUP2 SUB PUSH0 DUP4 ADD MSTORE PUSH2 0x3508 DUP2 PUSH2 0x34CF JUMP JUMPDEST SWAP1 POP SWAP2 SWAP1 POP JUMP JUMPDEST PUSH32 0x6F6E6C792061646D696E2063616E2072656769737465722063616E6469646174 PUSH0 DUP3 ADD MSTORE PUSH32 0x6500000000000000000000000000000000000000000000000000000000000000 PUSH1 0x20 DUP3 ADD MSTORE POP JUMP JUMPDEST PUSH0 PUSH2 0x3569 PUSH1 0x21 DUP4 PUSH2 0x2244 JUMP JUMPDEST SWAP2 POP PUSH2 0x3574 DUP3 PUSH2 0x350F JUMP JUMPDEST PUSH1 0x40 DUP3 ADD SWAP1 POP SWAP2 SWAP1 POP JUMP JUMPDEST PUSH0 PUSH1 0x20 DUP3 ADD SWAP1 POP DUP2 DUP2 SUB PUSH0 DUP4 ADD MSTORE PUSH2 0x3596 DUP2 PUSH2 0x355D JUMP JUMPDEST SWAP1 POP SWAP2 SWAP1 POP JUMP JUMPDEST PUSH32 0x63616E64696461746520616C7265616479206578697374000000000000000000 PUSH0 DUP3 ADD MSTORE POP JUMP JUMPDEST PUSH0 PUSH2 0x35D1 PUSH1 0x17 DUP4 PUSH2 0x2244 JUMP JUMPDEST SWAP2 POP PUSH2 0x35DC DUP3 PUSH2 0x359D JUMP JUMPDEST PUSH1 0x20 DUP3 ADD SWAP1 POP SWAP2 SWAP1 POP JUMP JUMPDEST PUSH0 PUSH1 0x20 DUP3 ADD SWAP1 POP DUP2 DUP2 SUB PUSH0 DUP4 ADD MSTORE PUSH2 0x35FE DUP2 PUSH2 0x35C5 JUMP JUMPDEST SWAP1 POP SWAP2 SWAP1 POP JUMP JUMPDEST PUSH32 0x61646D696E2063616E277420626520726567697374657265642061732063616E PUSH0 DUP3 ADD MSTORE PUSH32 0x6469646174650000000000000000000000000000000000000000000000000000 PUSH1 0x20 DUP3 ADD MSTORE POP JUMP JUMPDEST PUSH0 PUSH2 0x365F PUSH1 0x26 DUP4 PUSH2 0x2244 JUMP JUMPDEST SWAP2 POP PUSH2 0x366A DUP3 PUSH2 0x3605 JUMP JUMPDEST PUSH1 0x40 DUP3 ADD SWAP1 POP SWAP2 SWAP1 POP JUMP JUMPDEST PUSH0 PUSH1 0x20 DUP3 ADD SWAP1 POP DUP2 DUP2 SUB PUSH0 DUP4 ADD MSTORE PUSH2 0x368C DUP2 PUSH2 0x3653 JUMP JUMPDEST SWAP1 POP SWAP2 SWAP1 POP JUMP INVALID LOG2 PUSH5 0x6970667358 0x22 SLT KECCAK256 SWAP6 PUSH11 0x91386DD32F34033ACE3661 SWAP16 SSTORE MLOAD PUSH1 0x14 DUP1 JUMPI 0x25 0x26 0xBE 0xAE PUSH22 0xAA0E9C494814D264736F6C6343000815003300000000 "
				},
				"gasEstimates": {
					"creation": {
						"codeDepositCost": "2805000",
						"executionCost": "infinite",
						"totalCost": "infinite"
					},
					"external": {
						"CandidateList(address)": "infinite",
						"CastVote(uint256,address)": "infinite",
						"VoterList(address)": "infinite",
						"allCandidates()": "infinite",
						"allVoters()": "infinite",
						"delegateVote(address)": "infinite",
						"endVoting()": "infinite",
						"registerCandidate(string,string,address)": "infinite",
						"registerVoter(address,string)": "infinite",
						"startVoting()": "infinite",
						"votingStatus()": "infinite",
						"winnerDeclare()": "infinite"
					},
					"internal": {
						"checkVoter(address)": "infinite"
					}
				},
				"methodIdentifiers": {
					"CandidateList(address)": "0a03fff1",
					"CastVote(uint256,address)": "233b672d",
					"VoterList(address)": "0098a51a",
					"allCandidates()": "81c40715",
					"allVoters()": "f9e7284f",
					"delegateVote(address)": "b31e1d4d",
					"endVoting()": "c3403ddf",
					"registerCandidate(string,string,address)": "fcab6679",
					"registerVoter(address,string)": "ebbb4f84",
					"startVoting()": "1ec6b60a",
					"votingStatus()": "19f41a40",
					"winnerDeclare()": "d1e05abb"
				}
			},
			"storageLayout": {
				"storage": [
					{
						"astId": 3,
						"contract": "contracts/votingInBlockchain.sol:election",
						"label": "votingAdmin",
						"offset": 0,
						"slot": "0",
						"type": "t_address"
					},
					{
						"astId": 5,
						"contract": "contracts/votingInBlockchain.sol:election",
						"label": "votingStarted",
						"offset": 20,
						"slot": "0",
						"type": "t_bool"
					},
					{
						"astId": 7,
						"contract": "contracts/votingInBlockchain.sol:election",
						"label": "totalVote",
						"offset": 0,
						"slot": "1",
						"type": "t_uint256"
					},
					{
						"astId": 9,
						"contract": "contracts/votingInBlockchain.sol:election",
						"label": "endVote",
						"offset": 0,
						"slot": "2",
						"type": "t_uint256"
					},
					{
						"astId": 11,
						"contract": "contracts/votingInBlockchain.sol:election",
						"label": "status",
						"offset": 0,
						"slot": "3",
						"type": "t_string_storage"
					},
					{
						"astId": 13,
						"contract": "contracts/votingInBlockchain.sol:election",
						"label": "totalVoter",
						"offset": 0,
						"slot": "4",
						"type": "t_uint256"
					},
					{
						"astId": 15,
						"contract": "contracts/votingInBlockchain.sol:election",
						"label": "winner",
						"offset": 0,
						"slot": "5",
						"type": "t_string_storage"
					},
					{
						"astId": 17,
						"contract": "contracts/votingInBlockchain.sol:election",
						"label": "highestVote",
						"offset": 0,
						"slot": "6",
						"type": "t_uint256"
					},
					{
						"astId": 24,
						"contract": "contracts/votingInBlockchain.sol:election",
						"label": "choice",
						"offset": 0,
						"slot": "7",
						"type": "t_enum(vStatus)21"
					},
					{
						"astId": 93,
						"contract": "contracts/votingInBlockchain.sol:election",
						"label": "CandidateList",
						"offset": 0,
						"slot": "8",
						"type": "t_mapping(t_address,t_struct(candidates)73_storage)"
					},
					{
						"astId": 97,
						"contract": "contracts/votingInBlockchain.sol:election",
						"label": "displayCandidates",
						"offset": 0,
						"slot": "9",
						"type": "t_array(t_struct(candidates)73_storage)dyn_storage"
					},
					{
						"astId": 102,
						"contract": "contracts/votingInBlockchain.sol:election",
						"label": "VoterList",
						"offset": 0,
						"slot": "10",
						"type": "t_mapping(t_address,t_struct(voters)88_storage)"
					},
					{
						"astId": 106,
						"contract": "contracts/votingInBlockchain.sol:election",
						"label": "displayVoter",
						"offset": 0,
						"slot": "11",
						"type": "t_array(t_struct(voters)88_storage)dyn_storage"
					}
				],
				"types": {
					"t_address": {
						"encoding": "inplace",
						"label": "address",
						"numberOfBytes": "20"
					},
					"t_array(t_struct(candidates)73_storage)dyn_storage": {
						"base": "t_struct(candidates)73_storage",
						"encoding": "dynamic_array",
						"label": "struct election.candidates[]",
						"numberOfBytes": "32"
					},
					"t_array(t_struct(voters)88_storage)dyn_storage": {
						"base": "t_struct(voters)88_storage",
						"encoding": "dynamic_array",
						"label": "struct election.voters[]",
						"numberOfBytes": "32"
					},
					"t_bool": {
						"encoding": "inplace",
						"label": "bool",
						"numberOfBytes": "1"
					},
					"t_enum(vStatus)21": {
						"encoding": "inplace",
						"label": "enum election.vStatus",
						"numberOfBytes": "1"
					},
					"t_mapping(t_address,t_struct(candidates)73_storage)": {
						"encoding": "mapping",
						"key": "t_address",
						"label": "mapping(address => struct election.candidates)",
						"numberOfBytes": "32",
						"value": "t_struct(candidates)73_storage"
					},
					"t_mapping(t_address,t_struct(voters)88_storage)": {
						"encoding": "mapping",
						"key": "t_address",
						"label": "mapping(address => struct election.voters)",
						"numberOfBytes": "32",
						"value": "t_struct(voters)88_storage"
					},
					"t_string_storage": {
						"encoding": "bytes",
						"label": "string",
						"numberOfBytes": "32"
					},
					"t_struct(candidates)73_storage": {
						"encoding": "inplace",
						"label": "struct election.candidates",
						"members": [
							{
								"astId": 64,
								"contract": "contracts/votingInBlockchain.sol:election",
								"label": "candidateAddress",
								"offset": 0,
								"slot": "0",
								"type": "t_address"
							},
							{
								"astId": 66,
								"contract": "contracts/votingInBlockchain.sol:election",
								"label": "name",
								"offset": 0,
								"slot": "1",
								"type": "t_string_storage"
							},
							{
								"astId": 68,
								"contract": "contracts/votingInBlockchain.sol:election",
								"label": "proposal",
								"offset": 0,
								"slot": "2",
								"type": "t_string_storage"
							},
							{
								"astId": 70,
								"contract": "contracts/votingInBlockchain.sol:election",
								"label": "register",
								"offset": 0,
								"slot": "3",
								"type": "t_bool"
							},
							{
								"astId": 72,
								"contract": "contracts/votingInBlockchain.sol:election",
								"label": "votes",
								"offset": 0,
								"slot": "4",
								"type": "t_uint256"
							}
						],
						"numberOfBytes": "160"
					},
					"t_struct(voters)88_storage": {
						"encoding": "inplace",
						"label": "struct election.voters",
						"members": [
							{
								"astId": 75,
								"contract": "contracts/votingInBlockchain.sol:election",
								"label": "voterAddress",
								"offset": 0,
								"slot": "0",
								"type": "t_address"
							},
							{
								"astId": 77,
								"contract": "contracts/votingInBlockchain.sol:election",
								"label": "register",
								"offset": 20,
								"slot": "0",
								"type": "t_bool"
							},
							{
								"astId": 79,
								"contract": "contracts/votingInBlockchain.sol:election",
								"label": "voted",
								"offset": 21,
								"slot": "0",
								"type": "t_bool"
							},
							{
								"astId": 81,
								"contract": "contracts/votingInBlockchain.sol:election",
								"label": "isDelegateVote",
								"offset": 22,
								"slot": "0",
								"type": "t_bool"
							},
							{
								"astId": 83,
								"contract": "contracts/votingInBlockchain.sol:election",
								"label": "transferedVote",
								"offset": 0,
								"slot": "1",
								"type": "t_uint256"
							},
							{
								"astId": 85,
								"contract": "contracts/votingInBlockchain.sol:election",
								"label": "id",
								"offset": 0,
								"slot": "2",
								"type": "t_uint256"
							},
							{
								"astId": 87,
								"contract": "contracts/votingInBlockchain.sol:election",
								"label": "name",
								"offset": 0,
								"slot": "3",
								"type": "t_string_storage"
							}
						],
						"numberOfBytes": "128"
					},
					"t_uint256": {
						"encoding": "inplace",
						"label": "uint256",
						"numberOfBytes": "32"
					}
				}
			},
			"userdoc": {
				"kind": "user",
				"methods": {},
				"version": 1
			}
		}
	}
}